:020000040800F2
:10000000E8050020DD010008333D0008190800085C
:10001000313D0008E904000809470008000000001D
:10002000000000000000000000000000574400082D
:10003000EB04000800000000E54000081945000836
:10004000F7010008F7010008F7010008F7010008B0
:10005000F7010008F7010008F7010008F7010008A0
:10006000F7010008F7010008F7010008F701000890
:10007000F7010008F7010008F7010008F701000880
:10008000F7010008F7010008F7010008F701000870
:10009000F7010008F7010008F70100083105000822
:1000A000F7010008F7010008F7010008F701000850
:1000B000F7010008F7010008F7010008F701000840
:1000C000F7010008F7010008F7010008F701000830
:1000D000F70100086D450008F7010008F701000866
:1000E000F7010008F7010008F7010008F701000810
:1000F000F7010008F7010008F7010008F701000800
:10010000F7010008F7010008F7010008F7010008EF
:10011000F7010008F7010008F7010008F7010008DF
:10012000F7010008F7010008F7010008F7010008CF
:1001300000F002F800F042F80AA090E8000C8244B7
:100140008344AAF10107DA4501D100F037F8AFF294
:10015000090EBAE80F0013F0010F18BFFB1A43F0A5
:1001600001031847FC4900001C4A0000103A24BF54
:1001700078C878C1FAD8520724BF30C830C144BF0C
:1001800004680C607047000000230024002500264E
:10019000103A28BF78C1FBD8520728BF30C148BFEA
:1001A0000B607047642900F07980782900F0B280F4
:1001B000002070471FB51FBD10B510BD00F062F9DB
:1001C0001146FFF7F7FF04F0FFFA00F080F903B4DF
:1001D000FFF7F2FF03BC04F098FA000009488047DB
:1001E00009480047FEE7FEE7FEE7FEE7FEE7FEE719
:1001F000FEE7FEE7FEE7FEE704480549034A054B34
:10020000704700001D45000831010008E80100208A
:10021000E8050020E8010020704700000FB4044901
:1002200010B503AA029800F0FFF810BC5DF814FBAB
:10023000980000202DE9F0410E460446002020627F
:100240002046E168884730B3252805D0D4E901214C
:100250009047206A401CF2E7E16820460027884763
:10026000050018D0A5F14100192802D820354FF417
:1002700000673246294620462760FFF793FF40B1CA
:10028000012804D0F61D26F007060836D8E7361DEB
:10029000D6E72846DAE7206ABDE8F0812DE9F0418B
:1002A0000646002410687529314616A510D0AFF314
:1002B0000080002802DA404213A507E031688A076F
:1002C00001D512A502E0490704D511A5012401E0DA
:1002D000AFF3008000210A2206F1240709E0B0FBF9
:1002E000F2FCB0FBF2F302FB1C00303078541846ED
:1002F000491C0028F3D123462A463046BDE8F04188
:1003000000F038B8000000002D0000002B000000B5
:100310002000000070B504460D4621461068AFF37A
:1003200000802188090502D50F4A7A4402E00E4A6E
:100330007A440E32002104F1240305E000F00F0698
:100340000009965D5E54491C0028F7D120780023EF
:10035000000704D5702D02D009B1022311322046C6
:10036000BDE8704000F006B80A48000070477047CA
:10037000704770472DE9F0470D469946924604466E
:1003800000F124080168880604D5E06921F0100115
:10039000216000E00120A84201DD471B00E00027AA
:1003A000A1697A1902EB0900081AA0612078C00639
:1003B00002D42046AFF30080002608E0D4E90121F2
:1003C0001AF806009047206A401C761C20624E45B1
:1003D000F4DB2078C0060AD52046AFF3008006E0A3
:1003E000D4E9012130209047206A401C2062381E49
:1003F000A7F10107F4DC07E0D4E9012118F80500B2
:100400009047206A401C2062281EA5F10105F3DCFC
:100410002046AFF300802078000602D50220BDE818
:10042000F0870120FBE70000074B70B50D467B44C9
:1004300000F011F80446284600F020F810B14FF003
:10044000FF3070BD204670BD7F43000001694A1C2B
:1004500002610878704700B58FB0CDE90131002105
:10046000059105497944CDE9031011466846FFF727
:10047000E1FE0FB000BD0000E5FFFFFF007B00F0D4
:1004800080007047754600F02BF8AE4605006946BF
:10049000534620F00700854618B020B5FFF7ACFEA4
:1004A000BDE820404FF000064FF000074FF0000875
:1004B0004FF0000B21F00701AC46ACE8C009ACE8F6
:1004C000C009ACE8C009ACE8C0098D46704710B55A
:1004D0000446AFF300802046BDE81040FFF777BE2A
:1004E0000048704788010020FEE770473EB50821AC
:1004F000002000F001F94FF48070002400908DF886
:10050000044008208DF8050001258DF80650684646
:1005100000F046F817208DF808008DF809408DF896
:100520000A408DF80B5002A803F004FC3EBD000009
:1005300010B54FF48074204600F022F801280DD148
:10054000094A0020C2F898010121C2F89811074811
:10055000C0F88C1106480178491C01702046BDE89E
:10056000104000F007B800000080224200802142C5
:100570009000002001490860704700001404014009
:10058000064A014600201268044B0A4014331B68D7
:100590000B4202D0002A00D0012070470004014025
:1005A00030B51A4A8379016853B313688B431360DB
:1005B000111D0B680468A3430B60017911440B689B
:1005C000046823430B60114B083319680468A14386
:1005D00019601C1D21680568A94321604179102913
:1005E00005D011440A68006802430A6030BD1968EA
:1005F000026811431960216800680143216030BD21
:100600000079104402688A43026030BD0004014052
:100610008000A0F1C0400029016802D041F0010132
:1006200001E0024A1140016070470000FEFF0F0028
:1006300010B5D0E901121143D0E903231A43114345
:100640004269114382691143C2691143026A11432D
:10065000426A1143826A1143C26A1143026B114319
:1006600002689200A2F1C04211608168082907D196
:1006700001688900A1F1C0410A6842F040020A60A5
:10068000416BD1E9002342EA03128B688C891B027B
:1006900043EA04431A430B8A42EA03520B7D8969F9
:1006A00042EA03620A4301688900A1F1C0414A603D
:1006B000C16AB1F5804F08D000686FF070418000CA
:1006C000A0F1C040C0F8041110BD816BD1E9002336
:1006D00042EA03128B680C8A1B0243EA04531A4352
:1006E0000B7D896942EA036200680A438000A0F139
:1006F000C040C0F8042110BD10B58A0721F00304E2
:100700000649120F21440F238C6893409C438C6050
:100710008B68904003438B6010BD000000000140D7
:10072000F0B5CC78002204F00F03E40601D58C78F4
:1007300023430C784FF00F0C14F0FF0F4FF0010E15
:100740001BD005680E880EFA02F42640A64210D18E
:1007500096000CFA06F725EA070703FA06F5CE78A5
:100760003D43282E02D0482E02D002E0446100E032
:100770000461521C082AE5D305600A88FF2A1CD9A7
:100780004468002202F108060EFA06F50E882E4093
:10079000AE420ED196000CFA06F7BC4303FA06F7F8
:1007A000CE783C43282E00D14561CE78482E00D12A
:1007B0000561521C082AE5D34460F0BDF0B5144C25
:1007C000002801DAE36900E06368450D2E0185B277
:1007D000C0F30157B540C0F30342032F05D0C60252
:1007E0000AD503269640B34307E023F0706263689E
:1007F00023F07063636002E0AB4343F0706201B1C9
:100800002A43002801DAE261F0BD6260F0BD000019
:100810000000014001617047FEE700002DE9F04350
:10082000174F0646002438887D884543B888A0F5D0
:10083000D041043902D1B879012807D000210846F7
:1008400003F0DAF803F03AFA0E4815E00020B87128
:100850004FF02A09A7F80A904FF02B08A7F80C8050
:10086000014603F0C9F80120B871A7F80A80A7F87B
:100870000C90E7E70680641CAC42FBD3BDE8F08334
:10088000B00000200008006C2DE9F04F4A492A23EF
:100890002B24898845F2105A4FF4305B4FF4285EC0
:1008A0004FF448754FF0F00C49F241394FF4A077FE
:1008B00045F210364FF4F07280B13F484FF0010816
:1008C000494580F806800780A0F802C001D0B142F7
:1008D0003ED12C2505814381848157E036484FF075
:1008E0000008494580F80680A0F800C0478006D07F
:1008F000A1F5D04CBCF1040C01D0B1420CD12C2597
:1009000005814381A1F5D0438481043B01D0B142EC
:1009100044D10780428041E0514507D1A0F808B09A
:10092000A0F80AE04FF42C5181810EE0A1F5C856E1
:10093000633E06D022210181202141812121818134
:100940002CE02C210181448183810280458025E0B7
:10095000A1F5D04CBCF1040C09D051450BD1A0F845
:1009600008B0A0F80AE04FF42C53838121E02C2535
:100970000581448109E0A1F5C85CBCF1630C12D08B
:10098000222303812123438120238381A1F5D043A6
:10099000043B01D0B14201D102804780BDE8F04F55
:1009A000002002F055BF4FF02C0CA0F808C0438186
:1009B000848105804280E9E7B00000202DE9F04FF6
:1009C00001210E029FB0304603F08EFB01214FF44F
:1009D000B47003F095FB0127ADF83C704FF01008A0
:1009E0008DF83F8003248DF83E400FA9FE48FFF7A5
:1009F00097FE4CF23370ADF83C0018258DF83F504F
:100A00008DF83E400FA9F948FFF78AFE4FF6807037
:100A1000ADF83C008DF83F508DF83E400FA9F448EA
:100A2000FFF77EFE41F20100ADF83C008DF83F502B
:100A30008DF83E400FA9EF48FFF772FE00200F210E
:100A4000CDE918011A901B901C901D901090CDE9D3
:100A50001104CDE91607149006211590CDE9001078
:100A6000CDE90208139004903101CDE90801069008
:100A7000059007908900CDE90A010C9017A80D9008
:100A800010A80E906846FFF7D3FD01210620FFF75E
:100A9000BFFD322003F058FE002002F0AFFED64D1D
:100AA000D64C49F24139A88046F6040A45F2103B7B
:100AB00045F210574FF6FF78FF2804D3404502D087
:100AC000B0F5134F70D1D320208002F08DFEA880A6
:100AD00002F08AFEA88002F087FE08EA0020414664
:100AE000A88002F081FEAA881043A88048455BD008
:100AF000BF20208002F078FEA88002F075FEA8805A
:100B000002F072FEA88002F06FFE01EA0020A880C9
:100B100002F06AFEAA881043A880504544D0D42031
:100B2000208002F061FEA88002F05EFEA88002F044
:100B30005BFE01EA0020A88002F056FEAA8810435E
:100B4000A880584530D04FF45A40208002F04CFE27
:100B5000A8804FF45B40208002F046FE01EA0020AE
:100B6000A8804FF45C40208002F03EFEAA8810432B
:100B7000A880B0F5004F7DD0B84215D0A1202080CC
:100B800002F032FEA88002F02FFE01EA0020A880C9
:100B900002F02AFEA9880843A0F5AE41A880613979
:100BA00002D141F66310A880A98895A0FFF736FB13
:100BB000A888924DAD1C48457ED1CF2020800020D2
:100BC0002880C120288030202880ED2020806420CB
:100BD0002880032028801220288081202880E82077
:100BE000208085202880102028807A202880CB2013
:100BF0002080392028802C20288000202880342044
:100C0000288002202880F720208020202880EA20C9
:100C10002080002028802880C02020801B20288061
:100C2000C120208001202880C520208030202880FD
:100C30002880C7202080B7202880362020804820A8
:100C400028803A20208055202880B1202080002054
:100C500028801A202880B62020800A202880A22000
:100C60002880F2202080002028802620208001205B
:100C7000288000E051E0E02020800F2028802A20FA
:100C8000288028202880082028800E2028800820FE
:100C9000288054202880A9202880432028800A20EA
:100CA00028800F2028800020288028802880288005
:100CB000E1202080002000E031E0288015202880FD
:100CC00017202880072028801120288006202880CF
:100CD0002B202880562028803C2028800520288032
:100CE000102028800F2028803F20288028800F2077
:100CF00028802B2020800020288028800120288028
:100D00003F2028802A2020800020288028802880DA
:100D1000EF2028801120208084E0AF8044E75045F8
:100D200076D111202080142003F00EFDD0202080E9
:100D300007202880422028801D202880D120208064
:100D4000002028801A20288009202880D220208096
:100D50000120288022202880C02020801020288088
:100D60003B20288000202880022028801120288015
:100D7000C520208003202880C820208000202880D3
:100D800025202880212028800520288000202880F8
:100D90000A20288065202880252028807720288028
:100DA000502028800F20288000202880F8202080D4
:100DB00001202880FE20208000202880022028801A
:100DC0002020208036202080082028803A20208083
:100DD000552028802B20208000202880288001207A
:100DE00028803F20288014E0000C014000140140BE
:100DF0000018014000200140B0000020FE07006CF8
:100E0000204C43442049443A25780D0A0000000054
:100E10000EE02A20208000202880288001202880C1
:100E2000DF202880782003F08FFC292001F02DBCE2
:100E300058457DD1ED20208001202880FE2028808B
:100E4000EE202080DE20288021202880F1202080B4
:100E500001202880DF20208010202880C4202080CE
:100E60008F202880C620208000202880E220288033
:100E700028802880BF202080AA202880B0202080C1
:100E80000D202880002028800D2028800020288028
:100E90001120288000202880192028800020288008
:100EA00021202880002028802D20288000202880D4
:100EB0003D202880002028805D2028800020288078
:100EC0005D20288000202880B1202080802028807C
:100ED000002028808B2028800020288096202880D1
:100EE00000202880B2202080002028802880022036
:100EF0002880002028800320288000202880B3201C
:100F00002080002028802880288028802880288031
:100F10002880288028802880288028802880288091
:100F2000288028802880288028802880288000E049
:100F3000FEE3288028802880B42020808B20288011
:100F4000002028809620288000202880A12028804A
:100F500000202880B52020800220288000202880C2
:100F6000032028800020288004202880002028805A
:100F7000B6202080002028802880B72020800020F4
:100F8000288028803F202880002028805E2028801C
:100F90000020288064202880002028808C20288041
:100FA00000202880AC20288000202880DC20288099
:100FB0000020288070202880002028809020288011
:100FC00000202880EB20288000202880DC2028803A
:100FD00000202880B82020800020288028802880B9
:100FE00028802880288028802880BA2020802420FB
:100FF00028800020288028802880C1202080202070
:101000002880002028805420288000202880FF206D
:10101000288000202880C22020800A2028800020EC
:1010200028800420288000202880C32020803C20A5
:101030002880002028803A2028800020288039201D
:1010400028800020288037202880002028803C200D
:101050002880002028803620288000202880322008
:101060002880002028802F202880002028802C2005
:101070002880002028802920288000202880262001
:1010800028800020288024202880002028802420F8
:1010900028800020288023202880002028803C20D1
:1010A00028800020288036202880002028803220B8
:1010B0002880002028802F202880002028802C20B5
:1010C00028800020288029202880002028802620B1
:1010D00028800020288024202880002028802420A8
:1010E0002880002028802320288000202880C420F9
:1010F0002080622028800020288005202880002071
:1011000028808420288000202880F020288000204B
:1011100028801820288000202880A42028800020F3
:101120002880182028800020288050202880002037
:1011300028800C202880002028801720288000206C
:1011400028809520288000202880F32028800020F7
:101150002880E620288000202880C520208032209A
:1011600028800020288044202880002028806520B6
:101170002880002028807620288000202880882051
:10118000288000202880C620208020202880002061
:101190002880172028800020288001202880002017
:1011A0002880C72020800020288028802880288050
:1011B000C820208000202880288028802880C920FE
:1011C000208000202880288028802880288028806F
:1011D00028802880288028802880288028802880CF
:1011E00028802880E0202080162028800020288069
:1011F0001C20288000202880212028800020288092
:101200003620288000202880462028800020288042
:1012100052202880002028806420288000202880F8
:101220007A202880002028808B2028800020288099
:101230009920288000202880A8202880002028804D
:10124000B920288000202880C42028800020288001
:10125000CA20288000202880D220288000202880D2
:10126000D920288000202880E020288000202880A5
:10127000F320288000202880E1202080162028806C
:10128000002028801C202880002028802220288000
:1012900000202880362028800020288045202880B3
:1012A0000020288052202880002028806420288068
:1012B000002028807A202880002028808B20288009
:1012C000002028809920288000202880A8202880BD
:1012D00000202880B920288000202880C420288071
:1012E00000202880CA20288000202880D220288042
:1012F00000202880D820288000202880E020288016
:1013000000202880F320288000202880E2202080F0
:1013100005202880002028800B202880002028809D
:101320001B2028800020288034202880002028804E
:1013300044202880002028804F20288000202880FA
:1013400061202880002028807920288000202880A3
:10135000882028800020288097202880002028804E
:10136000A620288000202880B72028800020288000
:10137000C220288000202880C720288000202880C4
:10138000D120288000202880D62028800020288096
:10139000DD20288000202880F3202880002028805D
:1013A000E320208005202880002028800A20288033
:1013B000002028801C2028800020288033202880BE
:1013C0000020288044202880002028805020288069
:1013D0000020288062202880002028807820288013
:1013E00000202880882028800020288097202880BE
:1013F00000202880A620288000202880B720288070
:1014000000202880C220288000202880C720288033
:1014100000202880D120288000202880D520288006
:1014200000202880DD20288000202880F3202880CC
:1014300000202880E42020800120288000202880AF
:101440000120288000202880022028800020288079
:101450002A202880002028803C2028800020288006
:101460004B202880002028805D20288000202880B4
:101470007420288000202880842028800020288054
:101480009320288000202880A22028800020288007
:10149000B320288000202880BE20288000202880BB
:1014A000C420288000202880CD202880002028808B
:1014B000D320288000202880DD202880002028805C
:1014C000F320288000202880E5202080002028802C
:1014D0002880288028800220288000202880292039
:1014E0002880002028803C202880002028804B2055
:1014F0002880002028805D202880002028807420FB
:1015000028800020288084202880002028809320A4
:10151000288000202880A220288000202880B32056
:10152000288000202880BE20288000202880C42019
:10153000288000202880CD20288000202880D320EB
:10154000288000202880DC20288000202880F320AC
:10155000288000202880E62020801120288000207C
:1015600028803420288000202880562028800020D1
:10157000288076202880002028807720288000205E
:10158000288066202880002028808820288000204D
:1015900028809920288000202880BB2028800020D7
:1015A000288099202880002028806620288000201C
:1015B0002880552028800020288055202880002061
:1015C0002880452028800020288043202880002073
:1015D00028804420288000202880E7202080322096
:1015E0002880002028805520288000202880762010
:1015F00028800020288066202880002028806720FE
:1016000028800020288067202880002028808720CC
:101610002880002028809920288000202880BB2056
:10162000288000202880992028800020288077208A
:1016300028800020288044202880002028805620F0
:101640002880002028802320288000202880332024
:101650002880002028804520288000202880E8203D
:101660002080002028802880992028800020288041
:10167000872028800020288088202880002028803B
:10168000772028800020288066202880002028805D
:101690008820288000202880AA20288000202880F8
:1016A000BB202880002028809920288000202880C6
:1016B000662028800020288055202880002028804F
:1016C0005520288000202880442028800020288061
:1016D0004420288000202880552028800020288051
:1016E000E9202080AA2028800020288028802880C7
:1016F0002080AA202880CF202080002028802880D9
:101700002880288028802880288028802880288099
:101710002880288028802880288028802880F02021
:10172000208000202880502028800020288000E091
:101730002CE028802880F320208000202880F920B9
:101740002080062028801020288029202880002042
:1017500028803A2020805520288011202080642075
:1017600002F0F2FF292020803520208000202880F0
:1017700051202080FF202880532020802C2028808A
:1017800055202080822028802C20FCE3B8427DD187
:101790004FF470435521184602F09AFA4FF20105B2
:1017A000AA21284602F094FA6E1C5221304602F01B
:1017B0008FFAAF1C0821384602F08AFA4FF204096A
:1017C0000121484602F084FA0D214FF4304002F026
:1017D0007FFA0D214BF2010002F07AFA0D214BF253
:1017E000020002F075FA4FF4364A3421504602F0F6
:1017F0006FFA34214BF2016002F06AFA34214BF2A5
:10180000026002F065FA4FF4314B0D21584602F0A8
:101810005FFA0D214BF2011002F05AFA0D214BF242
:10182000021002F055FA34214FF4374002F050FA1A
:1018300034214BF2017002F04BFA34214BF202706A
:1018400002F046FA00214FF4324002F041FA002142
:101850004BF2012002F03CFA00214BF2022002F090
:1018600037FA24214FF4384002F032FA24214BF6A3
:10187000010002F02DFA24214BF6020002F028FAB2
:1018800001214FF43F4002F023FA00E0FEE30F2174
:101890004FF4334002F01CFA0F214BF2013002F0FA
:1018A00017FA0F214BF2023002F012FA34214FF4F2
:1018B000394002F00DFA34214BF6011002F008FA1B
:1018C00034214BF6021002F003FA08214FF43540A0
:1018D00002F0FEF908214BF2015002F0F9F908215B
:1018E0004BF2025002F0F4F903214FF4424002F0AF
:1018F000EFF924214FF43A4002F0EAF924214BF6A3
:10190000012002F0E5F924214BF6022002F0E0F973
:1019100000214FF43C4002F0DBF978214BF6014006
:1019200002F0D6F900214BF6024002F0D1F9002175
:101930004FF43D4002F0CCF978214BF6015002F013
:10194000C7F900214BF6025002F0C2F900214FF412
:101950003E4002F0BDF964214BF6016002F0B8F997
:1019600000214FF4514002F0B3F933214DF2011040
:1019700002F0AEF900214DF2021002F0A9F9342173
:101980004DF2031002F0A4F900214DF2041002F010
:101990009FF93A214DF2051002F09AF900214DF21B
:1019A000061002F095F94A214DF2071002F090F965
:1019B00000214DF2081002F08BF95C214DF2091064
:1019C00002F086F900214DF20A1002F081F981211E
:1019D0004DF20B1002F07CF900214DF20C1002F0D8
:1019E00077F9A6214DF20D1002F072F900214DF2A7
:1019F0000E1002F06DF9E5214DF20F1002F068F9BA
:101A000001214DF2101002F063F913214DF2111073
:101A100002F05EF901214DF2121002F059F9542141
:101A20004DF2131002F054F901214DF2141002F09E
:101A30004FF982214DF2151002F04AF901214DF2C1
:101A4000161002F045F9CA214DF2171002F040F9C4
:101A500002214DF2181002F03BF900214DF219104D
:101A600002F036F902214DF21A1002F031F901218B
:101A70004DF21B1002F02CF902214DF21C1002F065
:101A800027F934214DF21D1002F022F902214DF206
:101A90001E1002F01DF967214DF21F1002F018F917
:101AA00002214DF2201002F013F984214DF2211091
:101AB00002F00EF902214DF2221002F009F9A421E0
:101AC0004DF2231002F004F902214DF2241002F02D
:101AD000FFF8B7214DF2251002F0FAF802214DF27D
:101AE000261002F0F5F8CF214DF2271002F0F0F8A1
:101AF00002214DF2281002F0EBF8DE214DF2291000
:101B000002F0E6F802214DF22A1002F0E1F8F2218B
:101B10004DF22B1002F0DCF802214DF22C1002F0F5
:101B2000D7F8FE214DF22D1002F0D2F803214DF22C
:101B30002E1002F0CDF810214DF22F1002F0C8F84F
:101B400003214DF2301002F0C3F833214DF2311071
:101B500002F0BEF803214DF2321002F0B9F86D2107
:101B60004DF2331002F0B4F800214FF4524002F06D
:101B7000AFF833214DF2012002F0AAF800214DF216
:101B8000022002F0A5F834214DF2032002F0A0F863
:101B900000214DF2042002F09BF83A214DF205207D
:101BA00002F096F800214DF2062002F091F84A2149
:101BB0004DF2072002F08CF800214DF2082002F0CF
:101BC00087F85C214DF2092002F082F800214DF2E5
:101BD0000A2002F07DF881214DF20B2002F078F806
:101BE00000214DF20C2002F073F8A6214DF20D20D9
:101BF00002F06EF800214DF20E2002F069F8E521A6
:101C00004DF20F2002F064F801214DF2102002F095
:101C10005FF813214DF2112002F05AF801214DF224
:101C2000122002F055F854214DF2132002F050F822
:101C300001214DF2142002F04BF882214DF21520C3
:101C400002F046F801214DF2162002F041F8CA21B7
:101C50004DF2172002F03CF802214DF2182002F05C
:101C600037F800214DF2192002F032F802214DF22E
:101C70001A2002F02DF801214DF21B2002F028F865
:101C800002214DF21C2002F023F834214DF21D20D8
:101C900002F01EF802214DF21E2002F019F8672111
:101CA0004DF21F2002F014F802214DF2202002F024
:101CB0000FF884214DF2212002F00AF802214DF2A2
:101CC000222002F005F8A4214DF2232002F000F8B2
:101CD00002214DF2242001F0FBFFB7214DF2252017
:101CE00001F0F6FF02214DF2262001F0F1FFCF2195
:101CF0004DF2272001F0ECFF02214DF2282001F0E7
:101D0000E7FFDE214DF2292001F0E2FF02214DF232
:101D10002A2001F0DDFFF2214DF22B2001F0D8FF47
:101D200002214DF22C2001F0D3FFFE214DF22D2097
:101D300001F0CEFF03214DF22E2001F0C9FF10214A
:101D40004DF22F2001F0C4FF03214DF2302001F0AD
:101D5000BFFF33214DF2312001F0BAFF03214DF2D4
:101D6000322001F0B5FF6D214DF2332001F0B0FFBC
:101D700000214FF4534001F0ABFF33214DF201300D
:101D800001F0A6FF00214DF2023001F0A1FF342145
:101D90004DF2033001F09CFF00214DF2043001F0C0
:101DA00097FF3A214DF2053001F092FF00214DF2EC
:101DB000063001F08DFF4A214DF2073001F088FF17
:101DC00000214DF2083001F083FF5C214DF2093013
:101DD00001F07EFF00214DF20A3001F079FF8121F0
:101DE0004DF20B3001F074FF00214DF20C3001F088
:101DF0006FFFA6214DF20D3001F06AFF00214DF278
:101E00000E3001F065FFE5214DF20F3001F060FF6B
:101E100001214DF2103001F05BFF13214DF2113022
:101E200001F056FF01214DF2123001F051FF542113
:101E30004DF2133001F04CFF01214DF2143001F04E
:101E400047FF82214DF2153001F042FF01214DF292
:101E5000163001F03DFFCA214DF2173001F038FF76
:101E600002214DF2183001F033FF00214DF21930FC
:101E700001F02EFF02214DF21A3001F029FF01215D
:101E80004DF21B3001F024FF02214DF21C3001F015
:101E90001FFF34214DF21D3001F01AFF02214DF2D7
:101EA0001E3001F015FF67214DF21F3001F010FFC9
:101EB00002214DF2203001F00BFF84214DF2213040
:101EC00001F006FF02214DF2223001F001FFA421B2
:101ED0004DF2233001F0FCFE02214DF2243001F0DE
:101EE000F7FEB7214DF2253001F0F2FE02214DF24E
:101EF000263001F0EDFECF214DF2273001F0E8FE53
:101F000002214DF2283001F0E3FEDE214DF22930AE
:101F100001F0DEFE02214DF22A3001F0D9FEF2215D
:101F20004DF22B3001F0D4FE02214DF22C3001F0A5
:101F3000CFFEFE214DF22D3001F0CAFE03214DF2FD
:101F40002E3001F0C5FE10214DF22F3001F0C0FE01
:101F500003214DF2303001F0BBFE33214DF2313020
:101F600001F0B6FE03214DF2323001F0B1FE6D21D9
:101F70004DF2333001F0ACFE00214FF4544001F03B
:101F8000A7FE332100E080E34DF2014001F0A0FE06
:101F900000214DF2024001F09BFE34214DF203403E
:101FA00001F096FE00214DF2044001F091FE3A212D
:101FB0004DF2054001F08CFE00214DF2064001F08B
:101FC00087FE4A214DF2074001F082FE00214DF2CA
:101FD000084001F07DFE5C214DF2094001F078FEE1
:101FE00000214DF20A4001F073FE81214DF20B40B9
:101FF00001F06EFE00214DF20C4001F069FEA621B9
:102000004DF20D4001F064FE00214DF20E4001F052
:102010005FFEE5214DF20F4001F05AFE01214DF225
:10202000104001F055FE13214DF2114001F050FE19
:1020300001214DF2124001F04BFE54214DF21340AC
:1020400001F046FE01214DF2144001F041FE8221D3
:102050004DF2154001F03CFE01214DF2164001F019
:1020600037FECA214DF2174001F032FE02214DF237
:10207000184001F02DFE00214DF2194001F028FE1C
:1020800002214DF21A4001F023FE00E0FFE201219F
:102090004DF21B4001F01CFE02214DF21C4001F0EC
:1020A00017FE34214DF21D4001F012FE02214DF2C7
:1020B0001E4001F00DFE67214DF21F4001F008FEA9
:1020C00002214DF2204001F003FE84214DF2214017
:1020D00001F0FEFD02214DF2224001F0F9FDA421A4
:1020E0004DF2234001F0F4FD02214DF2244001F0B5
:1020F000EFFDB7214DF2254001F0EAFD02214DF23E
:10210000264001F0E5FDCF214DF2274001F0E0FD32
:1021100002214DF2284001F0DBFDDE214DF2294085
:1021200001F0D6FD02214DF22A4001F0D1FDF2214D
:102130004DF22B4001F0CCFD02214DF22C4001F07C
:10214000C7FDFE214DF22D4001F0C2FD03214DF2ED
:102150002E4001F0BDFD10214DF22F4001F0B8FDE1
:1021600003214DF2304001F0B3FD33214DF23140F7
:1021700001F0AEFD03214DF2324001F0A9FD6D21C9
:102180004DF2334001F0A4FD00214FF4554001F021
:102190009FFD33214DF2015001F09AFD00214DF2D7
:1021A000025001F095FD34214DF2035001F090FDF5
:1021B00000214DF2045001F08BFD3A214DF2055003
:1021C00001F086FD00214DF2065001F081FD4A210B
:1021D0004DF2075001F07CFD00214DF2085001F056
:1021E00077FD5C214DF2095001F072FD00214DF2A6
:1021F0000A5001F06DFD81214DF20B5001F068FD98
:1022000000214DF20C5001F063FDA6214DF20D505E
:1022100001F05EFD00214DF20E5001F059FDE52167
:102220004DF20F5001F054FD01214DF2105001F01C
:102230004FFD13214DF2115001F04AFD01214DF2E5
:10224000125001F045FD54214DF2135001F040FDB4
:1022500001214DF2145001F03BFD82214DF2155049
:1022600001F036FD01214DF2165001F031FDCA2179
:102270004DF2175001F02CFD02214DF2185001F0E3
:1022800027FD00214DF2195001F022FD02214DF2EF
:102290001A5001F01DFD01214DF21B5001F018FDF7
:1022A00002214DF21C5001F013FD34214DF21D505E
:1022B00001F00EFD02214DF21E5001F009FD6721D3
:1022C0004DF21F5001F004FD02214DF2205001F0AB
:1022D000FFFC84214DF2215001F0FAFC02214DF265
:1022E000225001F0F5FCA4214DF2235001F0F0FC46
:1022F00002214DF2245001F0EBFCB7214DF22550A4
:1023000001F0E6FC02214DF2265001F0E1FCCF2164
:102310004DF2275001F0DCFC02214DF2285001F073
:10232000D7FCDE214DF2295001F0D2FC02214DF202
:102330002A5001F0CDFCF2214DF22B5001F0C8FCE7
:1023400002214DF22C5001F0C3FCFE214DF22D5024
:1023500001F0BEFC03214DF22E5001F0B9FC10211A
:102360004DF22F5001F0B4FC03214DF2305001F03A
:10237000AFFC33214DF2315001F0AAFC03214DF2A4
:10238000325001F0A5FC6D214DF2335001F0A0FC5C
:1023900000214FF4564001F09BFC33214DF20160C7
:1023A00001F096FC00214DF2026001F091FC342115
:1023B0004DF2036001F08CFC00214DF2046001F04D
:1023C00087FC3A214DF2056001F082FC00214DF2BC
:1023D000066001F07DFC4A214DF2076001F078FCB7
:1023E00000214DF2086001F073FC5C214DF20960A0
:1023F00001F06EFC00214DF20A6001F069FC8121C0
:102400004DF20B6001F064FC00214DF20C6001F014
:102410005FFCA6214DF20D6001F05AFC00214DF247
:102420000E6001F055FCE5214DF20F6001F050FC0B
:1024300001214DF2106001F04BFC13214DF21160AF
:1024400001F046FC01214DF2126001F041FC5421E3
:102450004DF2136001F03CFC01214DF2146001F0DB
:1024600037FC82214DF2156001F032FC01214DF262
:10247000166001F02DFCCA214DF2176001F028FC16
:1024800002214DF2186001F023FC00214DF2196089
:1024900001F01EFC02214DF21A6001F019FC01212D
:1024A0004DF21B6001F014FC02214DF21C6001F0A2
:1024B0000FFC34214DF21D6001F00AFC02214DF2A7
:1024C0001E6001F005FC67214DF21F6001F000FC69
:1024D00002214DF2206001F0FBFB84214DF22160CE
:1024E00001F0F6FB02214DF2226001F0F1FBA42184
:1024F0004DF2236001F0ECFB02214DF2246001F06B
:10250000E7FBB7214DF2256001F0E2FB02214DF21D
:10251000266001F0DDFBCF214DF2276001F0D8FBF2
:1025200002214DF2286001F0D3FBDE214DF229603B
:1025300001F0CEFB02214DF22A6001F0C9FBF2212D
:102540004DF22B6001F0C4FB02214DF22C6001F032
:10255000BFFBFE214DF22D6001F0BAFB03214DF2CD
:102560002E6001F0B5FB10214DF22F6001F0B0FBA1
:1025700003214DF2306001F0ABFB33214DF23160AD
:1025800001F0A6FB03214DF2326001F0A1FB6D21A9
:102590004DF2336001F09CFB5521184601F098FB89
:1025A000AA21284601F094FB5221304601F090FB0D
:1025B0000821384601F08CFB0021484601F088FBD9
:1025C000CC21584601F084FB00214BF2011001F0B0
:1025D0007FFB0521504601F07BFB70214FF4374013
:1025E00001F076FB70214BF2017001F071FB0121CB
:1025F0004FF4384001F06CFB03214BF6010001F071
:1026000067FB03214BF6020001F062FB03214BF64E
:10261000030001F05DFB02214FF43C4001F058FB48
:1026200000214BF6014001F053FB00214BF6024024
:1026300001F04EFBD0214FF4494001F049FB02214B
:102640004CF6011001F044FB50214CF6021001F051
:102650003FFB50214CF6031001F03AFB50214CF6A1
:10266000041001F035FB00214FF4545001F030FB11
:1026700055214FF4685001F02BFB4FF48850208017
:10268000782002F07BF84FF424502080FDE3A0F581
:1026900013414FF4E06940F23F1A4FF4274B2539BC
:1026A0002ED0A0F5134140F2077728397DD0A0F550
:1026B00013414FF4887B203978D0A0F5134131398C
:1026C00075D0A0F5A841083972D0A0F5A8514FF4F3
:1026D000407B05396DD0A0F5354105396AD0A0F5AC
:1026E0004541053967D0A0F58A4131397ED0A0F542
:1026F0008A4135397BD0A0F5C851633978D0C5E718
:1027000047F6F001E52001F0E3FA3146012001F03F
:10271000DFFA4946022001F0DBFA41F230010320E2
:1027200001F0D6FA0021042001F0D2FA40F2022191
:10273000082001F0CDFA0021092001F0C9FA00219A
:102740000A2001F0C5FA00210C2001F0C1FA002195
:102750000D2001F0BDFA00210F2001F0B9FA00218F
:10276000102001F0B5FA0721112001F0B1FA002183
:10277000122001F0ADFA0021132001F0A9FA002186
:10278000072001F0A5FA41F29061102001F0A0FAB3
:1027900040F22721112001F09BFA9D21122001F027
:1027A00097FA4FF4C851132006E081E03DE1E2E1E1
:1027B000B8E253E3FEE3FEE301F08AFA2521292083
:1027C00001F086FA0D212B2001F082FA072130203A
:1027D00001F07EFA40F20331312001F079FA032151
:1027E000322001F075FA40F2062102E0FEE3FEE33A
:1027F000FEE3352001F06CFA0821362001F068FA7A
:1028000040F20641372001F063FA4FF4417138205D
:1028100001F05EFA0721392001F05AFA40F2026114
:102820003C2001F055FA08213D2001F051FA002129
:10283000502001F04DFAEF21512001F049FA00211A
:10284000522001F045FA5146532001F041FA594611
:10285000602001F03DFA0121612001F039FA0021E8
:102860006A2001F035FA0021802001F031FA0021C0
:10287000812001F02DFA0021822001F029FA0021A7
:10288000832001F025FA0021842001F021FA0021A3
:10289000852001F01DFA1021902001F019FA4FF463
:1028A000C061922001F014FA40F233110720FDE3D9
:1028B00041F28F01EC2001F00BFA41F23421EF20BC
:1028C00001F006FA3146012001F002FA49460220E1
:1028D00001F0FEF941F23001032001F0F9F9002185
:1028E000042001F0F5F940F20221082001F0F0F98E
:1028F0000021092001F0ECF900210A2001F0E8F99B
:1029000001210C2001F0E4F900210D2001F0E0F993
:1029100000210F2001F0DCF90021102001F0D8F98E
:102920000721112001F0D4F90021122001F0D0F983
:102930000021132001F0CCF90121072001F0C8F992
:10294000322001F001FF41F29041102001F0C0F966
:1029500040F22721112001F0BBF9322001F0F4FEF2
:102960008A21122001F0B4F9322001F0EDFE4FF47B
:10297000D051132001F0ACF90621292001F0A8F96B
:102980000D212B2001F0A4F9322001F0DDFE002101
:10299000202001F09DF90021212001F099F9322039
:1029A00001F0D2FE0021302001F092F940F20461E2
:1029B000312001F08DF940F20531322001F088F923
:1029C0000021352001F084F940F60941362001F05C
:1029D0007FF94FF40171372001F07AF940F20131AB
:1029E000382001F075F93946392001F071F90021DC
:1029F0003C2001F06DF940F60A213D2001F068F914
:102A0000322001F0A1FE0021502001F061F9EF21F8
:102A1000512001F05DF90021522001F059F9514691
:102A2000532001F055F9594651E10021084601F0C3
:102A30004FF93146012001F04BF94946022001F0DF
:102A400047F941F23001032001F042F9002104204E
:102A500001F03EF940F20221082001F039F900218D
:102A6000092001F035F900210A2001F031F9012196
:102A70000C2001F02DF900210D2001F029F9002191
:102A80000F2001F025F9322001F05EFE40F2011125
:102A9000072001F01DF9322001F056FE4FF4865157
:102AA000102001F015F90721112001F011F95B4602
:102AB0005946122001F00CF94FF43061132001F057
:102AC00007F90021292001F003F944F210012B201D
:102AD00001F0FEF80021502001F0FAF8EF2151201A
:102AE00001F0F6F80021522001F0F2F8514653208F
:102AF00001F0EEF84FF41C51602001F0E9F80121DB
:102B0000612001F0E5F800216A2001F0E1F80021E0
:102B1000802001F0DDF80021812001F0D9F80021AA
:102B2000822001F0D5F80021832001F0D1F80021A6
:102B3000842001F0CDF80021852001F0C9F8102192
:102B4000902001F0C5F80021922001F0C1F8012188
:102B5000932001F0BDF81946952001F0B9F8002145
:102B6000972001F0B5F80021982001F0B1F840F26B
:102B70007311072085E341F21401E72001F0A8F862
:102B80003146012001F0A4F84FF40071022001F059
:102B90009FF841F23801032001F09AF840F2022137
:102BA000082001F095F80021092001F091F800219A
:102BB0000A2001F08DF800210C2001F089F8002195
:102BC0000D2001F085F800210F2001F081F800218F
:102BD000102001F07DF80721112001F079F8002183
:102BE000122001F075F80021132001F071F8C820BF
:102BF00001F0AAFD41F29061102001F069F840F265
:102C00002721112001F064F8322001F09DFD0C21F4
:102C1000122001F05DF8322001F096FD4FF40061C2
:102C2000132001F055F81121292001F051F80B2152
:102C30002B2001F04DF8322001F086FD00212020EC
:102C400001F046F853465146212001F041F8002199
:102C5000302001F03DF84FF483742146312001F01B
:102C600037F80021322001F033F84FF4017135209C
:102C700001F02EF841F20A61362001F029F83946B8
:102C8000372001F025F82146382001F021F8394697
:102C9000392001F01DF840F202413C2001F018F803
:102CA00040F60F413D2001F013F80021502001F0C3
:102CB0000FF8EF21512001F00BF80021522001F014
:102CC00007F81946532001F003F84FF41C51602017
:102CD00000F0FEFF0121612000F0FAFF00216A20D0
:102CE00000F0F6FF0021802000F0F2FF002181209B
:102CF00000F0EEFF0021822000F0EAFF0021832097
:102D000000F0E6FF0021842000F0E2FF0021852092
:102D100000F0DEFF1021902000F0DAFF4FF4C061D8
:102D20009220FDE33146012000F0D2FF4946022007
:102D300000F0CEFF41F23001032000F0C9FF002176
:102D4000042000F0C5FF40F20721082000F0C0FF7A
:102D50000021092000F0BCFF00210A2000F0B8FF8C
:102D600000210C2000F0B4FF00210D2000F0B0FF86
:102D700000210F2000F0ACFF142001F0E5FC41F22F
:102D8000B061102000F0A4FF0121112000F0A0FF8D
:102D90000121172000F09CFF4FF49C71122000F0DD
:102DA00097FF4FF40061132000F092FF09212920C2
:102DB00000F08EFF09212A2000F08AFF0021A420C4
:102DC00000F086FF0021502000F082FFEF2151200B
:102DD00000F07EFF0021522000F07AFF5146532080
:102DE00000F076FF4FF41C51602000F071FF0121CC
:102DF000612000F06DFF00216A2000F069FF0021D2
:102E0000802000F065FF0021812000F061FF00219B
:102E1000822000F05DFF0021832000F059FF002197
:102E2000842000F055FF0021852000F051FF132180
:102E3000902000F04DFF0021922000F049FF032177
:102E4000932000F045FF5946952000F041FF40F2E5
:102E50007311072000F03CFF322011E10021072010
:102E600000F036FF322001F06FFC4FF48E7112201B
:102E700000F02EFF0121A42000F02AFF0F210820DE
:102E800000F026FF08210A2000E07BE300F020FF8D
:102E900008210D2000F01CFF3946302000F018FFFB
:102EA0000721312000F014FF40F20361322000F0CE
:102EB0000FFF4C464946332000F00AFF40F2022142
:102EC000342000F005FF0221352000F001FF41F61B
:102ED0000F71362000F0FCFE3946372000F0F8FE76
:102EE0000021382000F0F4FE0021392000F0F0FE2F
:102EF00039463A2000F0ECFE00213B2000F0E8FECD
:102F000007213C2000F0E4FE00213D2000F0E0FE1F
:102F1000322001F019FC0121072000F0D9FE012127
:102F2000172000F0D5FE322001F00EFC4FF4BD5109
:102F3000102000F0CDFE40F21721112000F0C8FE55
:102F40004FF48F71122000F0C3FE4FF47061132014
:102F500000F0BEFE00212A2000F0BAFE0A2129203E
:102F600000F0B6FE4FF49F71122000F0B1FE002178
:102F7000502000F0ADFEEF21512000F0A9FE00210D
:102F8000522000F0A5FE5146532000F0A1FE4FF460
:102F90001C51602000F09CFE0121612000F098FE91
:102FA00000216A2000F094FE0021802000F090FEB5
:102FB000002101E067E065E1812000F089FE002149
:102FC000822000F085FE0021832000F081FE002198
:102FD000842000F07DFE0021852000F079FE132181
:102FE000902000F075FE5946922002E013E2CAE2FA
:102FF00071E300F06DFE0521932000F069FE0021D1
:10300000952000F065FE0021972000F061FE002170
:10301000982000F05DFE3146012000F059FE214667
:10302000022000F055FE41F23801032000F050FE6E
:103030000021042000F04CFE00210C2000F048FE8E
:1030400000210F2000F044FE0021202000F040FE6F
:103050000021212000F03CFE2121072000F038FE55
:10306000142001F071FB6121072000F031FE1420D3
:1030700001F06AFB40F27311072000F029FE1420D2
:1030800001F062FBA1E30021084600F021FE0021CF
:10309000084600F01DFE0021084600F019FE002140
:1030A000084600F015FE0121A42000E0E5E000F054
:1030B0000FFE142001F048FB4FF41C542146602001
:1030C00000F006FE40F202252946082000F000FE2E
:1030D0004FF40571302000F0FBFD43F215713120F3
:1030E00000F0F6FD40F20461322000F0F1FD40F600
:1030F0001661332000F0ECFD42F21121342000F083
:10310000E7FD4FF4A851352000F0E2FD48F20751E9
:10311000362000F0DDFD41F20741372000F0D8FDF8
:1031200041F20341382000F0D3FD2021392000F086
:10313000CFFD1A21902000F0CBFD0021102000F0DF
:10314000C7FD0721112000F0C3FD0021122000F06F
:10315000BFFD0021132000F0BBFD142001F0F4FAA4
:103160004FF4E661102000F0B3FD40F2371111205A
:1031700000F0AEFD142001F0E7FA4FF4DC711220EC
:1031800000F0A6FD142001F0DFFA4FF47061132067
:1031900000F09EFD80212A2000F09AFD4821292080
:1031A00000F096FD142001F0CFFA3146012000F026
:1031B0008FFD4946022000F08BFD41F238010320CB
:1031C00000F086FD2946082000F082FD00210A203B
:1031D00000F07EFD00210C2000F07AFD00210D2082
:1031E00000F076FD30210E2000F072FD002150200D
:1031F00000F06EFDEF21512000F06AFD0021522009
:1032000000F066FD5146532000F062FD214660202B
:1032100000F05EFD0121612000F05AFD00216A20CE
:1032200000F056FD1121902000F052FD4FF4C061D6
:10323000922000F04DFD40F20241932000F048FD45
:103240000221942000F044FD142001F07DFA0121B8
:10325000072000F03DFD142001F076FA61210720DF
:1032600000F036FD40F27311072000F031FD00211F
:10327000202000F02DFD0021212000F029FD222139
:1032800000207DE10021084600F022FD00210846D3
:1032900000F01EFD142001F057FA0021084600F04E
:1032A00017FD0021084600F013FD0021084600F03C
:1032B0000FFD0021084600F00BFD0121A42000F0C5
:1032C00007FD142001F040FA4FF41C51602000F07B
:1032D000FFFC40F60601082000F0FAFC40F2037300
:1032E0001946302000F0F4FC0121312000F0F0FC00
:1032F0000421322000F0ECFC4FF48171332000F007
:10330000E7FC5C465946342000F0E2FC40F2031131
:10331000352000F0DDFC1F21362000F0D9FC1946D5
:10332000372000F0D5FC0121382000F0D1FC042129
:10333000392000F0CDFC1521902000F0C9FC4FF49D
:103340008261102000F0C4FC40F24721112000F0FF
:10335000BFFC4FF4DE71122000F0BAFC4FF4606144
:10336000132000F0B5FC782001F0EEF93146012081
:1033700000F0AEFC4FF40071022000F0A9FC41F215
:103380003001032000F0A4FC08210A2000F0A0FC7A
:1033900000210C2000F09CFC20210E2000F098FC65
:1033A00000210F2000F094FC0021202000F090FC70
:1033B0000021212000F08CFC3D212A2000F088FC17
:1033C000142001F0C1F92D21292000F081FC0021F9
:1033D000502000F07DFC4DF2EF01512000F078FC10
:1033E0000021522000F074FC5146532000F070FC84
:1033F0000021612000F06CFC00216A2000F068FCD4
:103400002146922000F064FC0521932000F060FC2E
:103410003146FFF7AEBB0121002000F059FC0A2025
:1034200001F092F941F22861102000F051FC0E21C8
:10343000122000F04DFC40F63921132000F048FC2A
:103440000A2001F081F94021112000F041FC5021B7
:10345000152000F03DFC0A2001F076F91E21122013
:1034600000F036FC0A2001F06FF94FF4B151102042
:1034700000F02EFC42F63921132000F029FC0A202E
:1034800001F062F93146012000F022FC5946022089
:1034900000F01EFC41F23801032000F019FC40F25C
:1034A0000221082000F014FC08210A2000F010FC82
:1034B0000021302000F00CFC40F20241312000F0ED
:1034C00007FC4FF48371322000F002FC40F20351FC
:1034D000332000F0FDFB4FF48271342000F0F8FB44
:1034E00040F20131352000F0F3FB3946362000F080
:1034F000EFFB40F20531372000F0EAFB4FF4027198
:10350000382000F0E5FB40F60B71392000F0E0FBBD
:103510000221412000F0DCFB4FF41C51602000E050
:10352000D4E000F0D5FB0121612000F0D1FB4FF485
:103530000471902000F0CCFB4FF48571922000F0D4
:10354000C7FB0421932000F0C3FB3146A02000F00C
:10355000BFFB0121072000F0BBFB2121072000F069
:10356000B7FB2321072000F0B3FB3321072000F035
:10357000AFFB40F23311072000F0AAFB0021A0208E
:1035800000F0A6FB21E13021152000F0A1FB102165
:103590009A2000F09DFB2021112000F099FB43F2BE
:1035A0002841102000F094FB0221122000F090FB33
:1035B00041F23801132000F08BFB282001F0C4F801
:1035C0001221084600F084FB282001F0BDF843F2E8
:1035D0002041102000F07CFB43F23801132000F062
:1035E00077FB462001F0B0F80021302000F070FB9E
:1035F00040F20241312000F06BFB40F207313220F3
:1036000000F066FB4FF44171332000F061FB0421B0
:10361000342000F05DFB40F20141352000F058FB02
:103620003946362000F054FB40F20531372000F0D7
:103630004FFB4FF4C2631946382000F049FB19468E
:10364000392000F045FB3146012000F041FB59468E
:10365000022000F03DFB41F23001032000F038FB76
:1036600040F60801082000F033FB08210A2000F092
:103670002FFB4FF41C51602000F02AFB0121612038
:1036800000F026FB4FF49F71902000F021FB3146A3
:10369000922000F01DFB3146932000F019FB4FF4FF
:1036A0004051A02000F014FB1021A32000F010FBDB
:1036B0000121072000F00CFB2121072000F008FB6E
:1036C0002321072000F004FB3321072000F000FB3A
:1036D00040F233119DE6E220208023202880022042
:1036E000288004202880642001F048F8E020208011
:1036F000012028800A2001F027F8E0202080032004
:1037000028800C2001F020F8012020800A2001F000
:103710001BF8E620208003202880FF2028802880B6
:10372000B0202080202028800020288003202880AE
:1037300040F21F3028800120288040F2DF102880CE
:1037400000202880B42020800420288040F21F40E0
:10375000288000202880D2202880002028802880EF
:1037600028802880B6202080022028804FF4037013
:1037700028800020288022202880092028800020FE
:1037800028802880F0202080032028802920208085
:10379000D020208000202880BE2020800520288086
:1037A000FE20288001202880FF20288000202880FB
:1037B000B82020800F20288001202880BA20208077
:1037C00001202880642000F025F80020FDF75CF837
:1037D00004490120C1F880014046FDF71FF81FB0E1
:1037E000BDE8F08F00802142034808B50088ADF89D
:1037F0000000BDF8000008BD0008006C044910B5C9
:103800000880052000F0BAFFBDE81040FFF7ECBFCC
:10381000FE07006C0C4A10B5BE211180941C0521D6
:10382000218001F078F84FF06632084B01F086F8FD
:1038300001F044F8208001202080FF20208000201B
:103840002080208010BD0000FE07006C66660440EA
:10385000F0B5674E00233146B279898846F60407F1
:1038600041F66314012A01D02AB11DE0B9421BD0F0
:10387000A14202D118E0A14216D1082814D2DFE8F3
:1038800000F00406080A0C0E101206200CE00720B7
:103890000AE0042008E0052006E0012004E0002002
:1038A00002E0032000E00220A1F5134C45F21032A3
:1038B00045F21055BCF1410C07D0B94205D09142F8
:1038C00003D0A94201D0A14275D1082812D2DFE865
:1038D00000F0110406080A0C0E1080230AE04023B1
:1038E00008E0C02306E0202304E0602302E0A023D8
:1038F00000E0E023A94202D14FF4585000E0362006
:10390000914205D0A94203D0A14201D043F008035F
:10391000B94201D143F00203194600F0D9F9B28847
:10392000A2420AD098063088718802D5884202D314
:1039300003E0884201D9318070802E48811CAA4260
:103940007289028021D100230B80531C0380002345
:103950000B80931C038033885B1E1C0A0C80D21CD6
:103960000280DAB20A80B289028000230B80531CE5
:10397000038000230B80931C038073885B1E1C0A4A
:103980000C80D21C0280D8B212E000220A800A8089
:103990003288521E130A0B80D2B20A80B28902808A
:1039A0000020088008807088401E020A0A80C0B289
:1039B0000880F0BDFFE7082812D2DFE800F0040617
:1039C00008110A0C0E1030230AE0102308E020230F
:1039D00006E0382304E0282302E0182300E008234F
:1039E000BDE8F040032043F4805100F071B90000BD
:1039F000B0000020FE07006C2DE9F04F4E4F0B4643
:103A00003A46BD880C0ADFF834B191895289A5F590
:103A100013464FEA102C0BF1020A413E1DD0A5F5CA
:103A2000A646103E19D03E46BE4696F80690368809
:103A3000A5F5D047A6EB0008A8F10108043F17D070
:103A4000A5F5C857633F28D0A5F5AA477646103F8D
:103A500051D0B9F1010F63D064E0ABF800205246B9
:103A6000AAF800C0C0B2AAF80000ABF800100FE03E
:103A7000B9F1010F01D11FFA88F0ABF80020050A57
:103A80005246AAF80050C0B2AAF80000ABF80010E5
:103A90001480D8B21080BDE8F08FB9F1000F1BD0B0
:103AA000ABF800205246AAF800C0C0B2AAF8000045
:103AB000761E300AAAF80000F0B21080ABF80010B1
:103AC00011461480D8B21080BEF80200401E020ACF
:103AD0000A80C0B20880DEE71FFA88F0ABF8002049
:103AE00000265246AAF80060AAF80060060AAAF862
:103AF0000060C0B2E1E7ABF80020AAF800C0521C99
:103B0000ABF80020C0B2AAF80000ABF80010AAF889
:103B10000040491CABF80010D8B2AAF80000BAE780
:103B20001FFA88F00146104600F0D2F8B089BDE8CF
:103B3000F04F194600F0CCB8B0000020FE07006C32
:103B40002DE9FC4F044691464844401E86B2C818F1
:103B5000401E83B2009004EB0900401EC0F3072E04
:103B6000DFF850C100980D46C0F3072B6046BCF843
:103B700004204FEA112881894089A2F513474FEAB2
:103B8000142A413F10D0A2F5A647103F0CD0A2F551
:103B9000D047043F08D09CF8067041F6631C01979B
:103BA000012F13D1624511D1434F3880B81CA0F8C2
:103BB00000A0E2B20280A0F800E0F2B202803980F8
:103BC000A0F80080E9B2018059461CE0394F6245F7
:103BD0003F881DD1A7EB0902121B374C009B92B204
:103BE0009BB22080160AA01C0680D6B206804A44EA
:103BF000521E160A0680D2B202802180A0F80080F0
:103C0000E9B20180190A0180D9B20180BDE8FC8FB8
:103C1000A2F5A04CBCF5A26C1FD0019801283FD0A2
:103C2000B04621462E4650204FF0510A4FF052091F
:103C3000532700F04DF84146504600F049F8314610
:103C4000484600F045F81946384600F041F8294644
:103C50002046BDE8FC4FFFF7CFBE174A1080971CE7
:103C6000A7F800A000F1010CA2F800C0E4B23C806B
:103C7000841C1480A7F800E0C01C1080F0B23880CB
:103C80001180A7F80080481C1080E8B23880881C9A
:103C90001080A7F800B0C91C1180D8B23880B5E7F1
:103CA000B81B401E86B2381B9846401E294683B278
:103CB000B9E70000B0000020FE07006C024803498D
:103CC0000089088070470000B0000020FE07006CEB
:103CD000024A1080901C018070470000FE07006CB3
:103CE00038B50121482000F00BFA2024ADF800403F
:103CF00010208DF8030003200B4D8DF8020069465B
:103D00002846FCF70DFD20212846FCF783FDADF881
:103D10000040064C69462046FCF702FD2021204663
:103D2000FCF778FD38BD0000000C01400018014090
:103D3000FEE7704730B50F23C27801780125F2B154
:103D4000144A126801F1E02102F4E062C2F5E06277
:103D5000120AC2F10404D3404278A24084781C4085
:103D60001443220181F80024007800F01F018D40E7
:103D70004009800000F1E020C0F8005130BD01F0A2
:103D80001F0085404809800000F1E020C0F8805104
:103D900030BD00000CED00E0024908430249086014
:103DA000704700000000FA050CED00E0F8B50025B2
:103DB000012140F23D1000F0A3F94FF48074ADF8FA
:103DC000004048268DF803600320264F8DF802003E
:103DD00069463846FCF7A4FC21463846FCF71AFD34
:103DE0001820ADF80000204F10248DF803406946DC
:103DF0003846FCF795FC18213846FCF70BFDFF20F0
:103E0000ADF800008DF8036069461848FCF788FC9F
:103E10004020ADF80000164E8DF80340694630464C
:103E2000FCF77EFC40213046FCF7F4FC4FF44046A2
:103E3000ADF800608DF803400E4C69462046FCF753
:103E40006FFC31462046FCF7E5FC01210A48FCF7EF
:103E5000B5FC00F0ABF9294608A0FCF7DFF9022019
:103E6000F8BD000000080140000C014000100140B6
:103E70000014014000200140000230004849443A4B
:103E800025640D0A0000000010B50621A62000F0F0
:103E9000C3FA8021602000F0BFFA8021BDE8104005
:103EA000612000F0B9BA2DE9F0470546C0F5A070D1
:103EB00000EBD0704708C1F1F00000EBD0700C4669
:103EC00046084621122000F0A7FA3F21172000F0F3
:103ED000A3FA5021182000F09FFA0321192000F0C6
:103EE0009BFA78211A2000F097FA0021322000F086
:103EF00093FA5021292000F08FFA78212C2000F02D
:103F00008BFA172000F0E4F900EB9700C1B21720FC
:103F100000F082FAC5F387018A46182000F07CFA87
:103F2000192000F0D5F900EB5600C1B2192000F0BD
:103F300073FAC4F3470189461A2000F06DFA322063
:103F400000F0C6F98046F007400E07F0030104F0C8
:103F5000010640EA011040EA860105F0030421430E
:103F600041EA0801322000F057FA5146292000F0BA
:103F700053FA49462C2000F04FFA2A2000F0A8F905
:103F800044EA080444EA8601BDE8F0472A2000F02C
:103F900043BA00002DE9F05F494800273E4600780B
:103FA0003D463C4600287DD00420FFF751FC4549A2
:103FB000F0234FF4A07208884988A0F5A070F0396A
:103FC00001EBD17100EBD070C1F34F01C0F34F0092
:103FD000FFF7B6FDFFF772FE3B48BA46C0F8B8A13E
:103FE0003A4B102119601A1F116019604FF0010C33
:103FF000C0F8B8C11160DFF8D89050468B4696469D
:104000004FF6FF7C314BC3F800B0D9F80820CEF84A
:1040100000B0D2B20CEA0222C3F800B0D9F80830DE
:10402000CEF800B0DBB213434FEAD3282949C3F3DB
:10403000451203F01F0381F800804A708B70B8F1BD
:10404000080F05D2202B03D2202A01D2002100E044
:104050006146214A11801F4A121D32F81420824203
:1040600017D13C2C15D8142C04D209040FD4761C7B
:10407000F6B20CE0282C04D2090408D57F1CFFB24C
:1040800005E03C2C03D2090401D46D1CEDB2641C84
:10409000E4B2401CB0F5963FB4D30949504681F8CC
:1040A00000A000E00AE00D2F01D80C4904E00D2E1D
:1040B00004D90D2D02D90A49C1F89401BDE8F09F39
:1040C00090000020B000002000002442140C0140A9
:1040D00000100140000000200008006C0000234296
:1040E0000080214270470000044A0029516901D034
:1040F000014300E08143516170470000001002401D
:10410000044A0029916901D0014300E08143916193
:10411000704700000010024030B5204A5168204B23
:1041200011F00C0103D0042901D0082901D003604B
:1041300012E05168536801F470114FF0020413F457
:10414000803F04EB914102D053689B0301D5154B8E
:1041500000E0134B5943016051680F2303EA11112A
:10416000114B5C5C0168E14041605468072505EA39
:1041700014241C5D21FA04F48460546805EAD424F4
:104180001B5DD940C1605268032303EA9232064B9B
:104190001B1F9A5CB1FBF2F1016130BD00100240BF
:1041A00000127A0000093D00A000002038B501216E
:1041B0004FF49070FFF7A4FF4FF40055ADF8005096
:1041C00048208DF803000320114C8DF80200694649
:1041D0002046FCF7A5FA29462046FCF71BFB0820E1
:1041E000ADF8000010200B4D8DF8030069462846FD
:1041F000FCF796FA08212846FCF70CFB606820F4CF
:1042000070006060606840F44010606038BD00007D
:10421000002001400014014070B5322000F0AEFAD9
:104220000C4D0120C5F8B4010B4EC6F88C013220AC
:1042300005F5DA7506F5C67600F0A0FA00243460BC
:10424000322000F09BFA2C60BDE87040322000F074
:1042500095BA000000002442008022422DE9F04778
:10426000184F0024786820F470007860786840F473
:1042700000007860DFF85090144E08254FF00108D8
:10428000A246322000F07AFAC6F88C816006040E4D
:10429000D9F8340108B1641CE4B2322000F06EFA9F
:1042A000C6F88CA16D1E15F0FF05EAD1786820F4E0
:1042B00070007860786840F4401078602046BDE86F
:1042C000F0870000002001400000244200802242CC
:1042D00010B5044600F022F8422000F055F86420A2
:1042E00000F04CFA204600F04FF8642000F046FA47
:1042F00000F02EF8642000F041FA00F00FF843209F
:1043000000F042F8642000F039FAFFF7A7FF0446F6
:10431000FFF782FF00F01CF8204610BD70B50A4E72
:104320000120C6F8B401094DC5F88C01322005F50D
:10433000C67506F5DA7600F021FA002434603220E2
:1043400000F01CFA2C6070BD000024420080224264
:1043500070B50B4C0020C4F8B401322004F5DA74B7
:1043600000F00CFA07480125C0F88C51322000F00B
:1043700005FA2560BDE87040322000F0FFB900006A
:1043800000002442008022422DE9F04700241F4E05
:104390001F4F0546A0464FF00109280601D54846A3
:1043A00000E04046C6F8B4016806050E322000F071
:1043B000E5F9C7F88C91322000F0E0F9C7F88C815C
:1043C000641CE4B2082CE8D3124C606820F470003E
:1043D0006060606840F400006060322000F0CEF958
:1043E000C7F88C91322000F0C9F9D6F8340100B139
:1043F0000120C7F88C81616821F4700161606168F7
:1044000041F440116160BDE8F087000000002442E3
:10441000008022420020014070B50D46064600246F
:10442000FFF77CFF4220FFF7AFFF00B101246420BB
:1044300000F0A4F93046FFF7A7FF00B10124642083
:1044400000F09CF92846FFF79FFF00B10124FFF719
:104450007FFF204670BD70470CB5002226480092B1
:104460000192016841F4803101604FF4A06301685A
:1044700001F4003101910099491C0091019911B991
:1044800000999942F3D10168890333D50121019143
:104490001A490A6842F010020A600A6822F0030210
:1044A0000A600A6842F002020A604168416041689D
:1044B0004160416841F480614160416821F47C11B0
:1044C0004160416841F4E8114160016841F0807148
:1044D000016001688901FCD5416821F00301416058
:1044E000416841F0020141604168C1F38101022944
:1044F000FAD10CBD01920CBD001002400020024018
:104500004FF0E0210428086903D020F0040008617E
:10451000704740F00400FAE7704700000F4810B5FC
:10452000016841F00101016041680D4A114041609C
:1045300001680C4A11400160016821F4802101608A
:10454000416821F4FE0141604FF41F018160FFF7D3
:1045500083FF05494FF00060086010BD0010024065
:104560000000FFF8FFFFF6FE08ED00E070B5154C07
:1045700040F22551204600F035F800280ED02046A4
:1045800000F0BEF8104AC1B21088030406D44404F7
:104590004FF0000306D50A2901D0138070BD40F406
:1045A00000400DE00D2909D0C0F30D04074D401C5B
:1045B00080B229551080C728EFD870BD40F48040E4
:1045C000108070BD0038014096000020BE00002021
:1045D0000029818902D041F4005101E021F4005109
:1045E0008181704770B501F01F0501260024C1F3D9
:1045F000421306FA05F2012B0FD0022B0FD0838A4B
:104600004FEA11210088134206FA01F600EA06007B
:1046100001D000B10124204670BD8389F0E7038AF0
:10462000EEE710B5C1F3421301F01F040121A140D0
:10463000012B07D0022B07D01430002A026805D0C6
:104640000A4304E00C30F8E71030F6E78A430260D2
:1046500010BD000030B50446008A85B00D464CF60A
:10466000FF710840E98801432182A0894EF6F311C9
:104670000840A9882A8911436A8902431143A1810C
:10468000A08A4FF6FF410840A9890143A1826846EC
:10469000FFF742FD1948844201D1039800E00298D7
:1046A000A189090400EBC00101EB0010296801D5C4
:1046B000490000E08900B0FBF1F06422B0FBF2F1A8
:1046C00009010B096FF018056B4300EB8300A38908
:1046D0001D044FF0320306D503EBC000B0FBF2F02F
:1046E00000F0070005E003EB0010B0FBF2F000F073
:1046F0000F000843208105B030BD000000380140A4
:104700008088C0F308007047FEE7704710B56FF06F
:104710000400FFF7F5FE094809490068B0FBF1F015
:104720000849C0B200EB40020870C2EBC0104FF65F
:10473000FF7202EAC000488010BD00007C0000202B
:1047400000127A00920000200B49498848434FF03C
:10475000E021486100238B61086940F00100086195
:104760000869C20701D0C003FAD5086920F001002A
:1047700008618B6170470000920000200B490978A6
:1047800048434FF0E021486100238B61086940F005
:10479000010008610869C20701D0C003FAD50869A1
:1047A00020F0010008618B6170470000920000203A
:1047B00004490A885206FCD5024AC1B2121D118072
:1047C00070470000003801400024FFF79FFF4FF4BE
:1047D000A060FFF7E1FA4FF4E13000F01FF8FFF7B7
:1047E0007FFAFCF7EBF8FFF7E1FAF0214FF4A07045
:1047F000FFF759FB0520FFF7A7FF2046FFF744FB13
:1048000005490020C1F8BC01FBF770FE0020FCF751
:1048100005F8FFF7BFFBFCE70000244270B5054632
:1048200086B0012144F20400FFF76AFC4FF40070E7
:10483000ADF8100003248DF8124018201D4E8DF89D
:10484000130004A93046FBF76BFF3015ADF81000DC
:1048500004208DF8130004A93046FBF761FF2520E2
:104860008DF814008DF815408DF8164001208DF854
:10487000170005A8FFF75EFA0020ADF80400ADF8B8
:104880000600ADF80800ADF80C000C200A4CADF89D
:104890000A00009569462046FFF7DCFE012240F23F
:1048A00025512046FFF7BDFE01212046FFF790FE6F
:1048B00006B070BD00080140003801404FEA1153B6
:1048C000A3F58063D3F11E03A8BFD3F1200C08DB4E
:1048D0004FF0004242EAC12252EA505232FA03F04B
:1048E000704709420BD4102BC4BF0020704703F55A
:1048F000787CBCF1FF3F05D04FF0FF3070474FF0A0
:104900000000704770B500F0C3F800BF49922480E2
:1049100000207047F0E7B0FA80F310FA03F10AD0F4
:10492000C3F11D0303F580634FEA41504FEA035280
:1049300002EBD12170474FF000007047DFF848C10B
:1049400070B51CEA111E1EBF1CEA13159EEA0C0F5F
:1049500095EA0C0F00F06F8081EA030423EA4C1300
:104960004EEAD47E21EA4C1141F4801143F48013C5
:10497000AE44A1FB024CA0FB0365AEF17F7E36196D
:1049800055EB0C05A1FB034C4CF10003A0FB021CF2
:1049900016EB0C06654153F10003094218BF46F0BF
:1049A000010613F4007F0BD14FEA03314FEA0530C3
:1049B000340341EA155140EA16506FF003020AE051
:1049C0004FEAC3214FEAC520F40241EA555140EABB
:1049D00056506FF0020202EB2E4201EB025585EABF
:1049E000CE710AD05FEA440C18BF24F0004450F1A5
:1049F000000041F1000120EAD47040F2FE7C6245E3
:104A000000D270BDA84214BF4FF080444FF0404424
:104A1000002E08BF0024BEF1806FA8BFA1F1C041E5
:104A2000BDE8704080F282804FF0000001F1C0418B
:104A300001F0004170479EEA0C0F0CEA131518BFF5
:104A400095EA0C0F06D04FF0000081EA030E0EF03D
:104A5000004170BD00F01CF88900013E00F007B86D
:104A600000F009B84FEA430C5FEA5C5C08D081EAC9
:104A7000030100F05BB84FEA410C5FEA5C5CF6D1E1
:104A80004FF00000014970470000FF070000F87F69
:104A90000EF1020E2EF0030E5EF8046B364205D4C2
:104AA000012A43EB030515F5001F12D8012841EB3D
:104AB000010C1CF5001F0CD80ED14FEAD17C15F566
:104AC000001F0CEB4C0C0CF1020C08BF4CEBD37C20
:104AD00004E04FF0080C01E04FEAD37C0CEB4C05EE
:104AE00026FA05F606F00706B6F1040C06D20EEB20
:104AF000860CBDE870404CF0010C6047DFE80CF01C
:104B0000090B02024FF000414FF00000A1F5002117
:104B100070BD19461046012851EB010418BFD4F5A9
:104B2000001484BF002001F0004170BD0808A0F50A
:104B300000114FEA310170473031323334353637A6
:104B400038394142434445464030580030313233D1
:104B500034353637383961626364656640307800D1
:104B6000804B000800000020B00000006C0100082D
:104B7000304C0008B0000020380500008801000813
:104B800000000000163A173A183A193A1A3A563BFA
:104B9000573B583B593B5A3B963C973C983C993C79
:104BA0009A3CD63DD73DD83DD93DDA3D0A7D0B7DB7
:104BB0000C7D0D7D4A7E4B7E4C7E4D7E8A7F8B7FA9
:104BC0008C7F8D7FCA80CB80CC80CD800A820B8287
:104BD0000C820D82D6CED7CED8CED9CEDACE16D094
:104BE00017D018D019D01AD056D157D158D159D181
:104BF0005AD196D297D298D299D29AD200A24A0488
:104C0000000000000000000001020304060708097C
:104C10000000000000000000000000000204060880
:104C20000000000001020304010203040607080952
:0400000508000131BD
:00000001FF
