:020000040800F2
:10000000100800202D400008190400081B040008F7
:100010001F04000823040008270400080000000053
:100020000000000000000000000000002B04000899
:100030002D040008000000002F040008310400080F
:100040004740000847400008474000084740000874
:100050004740000847400008474000084740000864
:100060004740000847400008474000084740000854
:100070004740000847400008474000084740000844
:100080004740000847400008474000084740000834
:100090004740000847400008474000084740000824
:1000A0004740000847400008474000084740000814
:1000B000B13C00086B3D000847400008474000087D
:1000C00047400008474000084740000847400008F4
:1000D00047400008A13F000847400008474000088B
:1000E00085060008474000084740000800F002F875
:1000F00000F03AF80AA090E8000C82448344AAF188
:100100000107DA4501D100F02FF8AFF2090EBAE885
:100110000F0013F0010F18BFFB1A43F0010318473B
:100120006467000084670000103A24BF78C878C173
:10013000FAD8520724BF30C830C144BF04680C60ED
:10014000704700000023002400250026103A28BF35
:1001500078C1FBD8520728BF30C148BF0B60704739
:100160001FB51FBD10B510BD05F012FD1146FFF7FC
:10017000F7FF00F0AEF805F030FD03B4FFF7F2FF33
:1001800003BC03F0AFFE00002DE9F0470024A146B8
:100190000027A046A2468D48007802287DD1042081
:1001A00000F0CBFE0021084605F024FD00F0CBFD59
:1001B0000020874908608749C1F8840101208449EB
:1001C0000C390860002008600120814908608149DD
:1001D000C1F88401002655E04FF088307E49086060
:1001E00000207B490C3908607B4808300068C5B2A4
:1001F00001207849C1F884014FF6FF7000EA052517
:100200000020C1F88401744808300068C0B205437A
:1002100001206F490C3908604FF033306E49086097
:1002200088156E490861400048616B480C300560D4
:1002300080204861086180000861694830F8140036
:10024000B0421ED13C2C1CDC142C05DA05F4004015
:10025000A8B9781CC7B212E0282C07DA05F40040D0
:1002600068B109F1010000F0FF0908E03C2C06DA52
:1002700005F4004018B908F1010000F0FF08601C07
:10028000C4B2761CB6F5963FA6D300204F4908703D
:100290000024B9F10D0F01DC824617E0B9F10D0F12
:1002A00006DD0D2F04DDB8F10D0F01DD4FF0010A61
:1002B0000D2F04DCB8F10D0F01DD4FF0020A0D2FF8
:1002C00004DDB8F10D0F01DC4FF0030A5046BDE824
:1002D000F0871CB503F07EFD4FF4165003F011FEBD
:1002E00000F098F901F016F803F03EFB4FF4784067
:1002F0003C4908803CA010210B46C822CDE90010E3
:100300006E213C2003F0F2FA18E03BA010210B46CE
:10031000C822CDE90010E6213C2003F0E7FAC8200E
:1003200003F095FD4FF6FF70F623EF22E6210090D3
:100330003C2003F06CF8C82003F089FD00F0FCF9C4
:100340000028E2D130A010210B46C822CDE90010D0
:100350006E213C2003F0CAFA40F2DC5003F077FD36
:1003600000F0BDF9012000F0DBFA022000F03BFABA
:1003700000201649087016491C31086025E0FFF777
:1003800003FF044634B1012C07D0022C0CD0032CFF
:1003900018D110E003F048FC15E003F021FC4FF405
:1003A000FA7003F054FD0EE003F033FC4FF4FA70E2
:1003B00003F04DFD07E003F022FC4FF4FA7003F068
:1003C00046FD00E000BF00BF00BFD8E700000020EE
:1003D0009001214200002142000C01400010014028
:1003E00002000020900000204F5637363730204959
:1003F0006E69742E2E2E00004F563736373020454A
:1004000072726F72212100004F5637363730204903
:100410006E6974204F4B0000704700BFFEE700BFBD
:10042000FEE700BFFEE700BFFEE77047704770477A
:10043000704700000CB50020019000906C480068E7
:1004400040F480306A49086000BF6948006800F4E1
:10045000003000900198401C0190009818B9019854
:10046000B0F5A06FF1D16248006800F4003010B11F
:100470000120009001E0002000900098012843D165
:100480005C48006840F010005A490860084600685F
:1004900020F0030008600846006840F00200086091
:1004A00053484068524948600846406848600846DA
:1004B000406840F4806048600846406820F47C1042
:1004C00048600846406840F4E81048600846006804
:1004D00040F08070086000BF4548006800F0007080
:1004E0000028F9D04248406820F0030040494860A5
:1004F0000846406840F00200486000BF3C48406841
:1005000000F00C000828F9D10CBD10B5FFF792FFE0
:1005100010BD10B53648006840F00100344908604D
:100520000846406834490840314948600846006838
:10053000324908402E4908600846006820F48020AF
:1005400008600846406820F4FE0048604FF41F0031
:100550008860FFF7DAFF4FF000602949086010BD9E
:1005600010B5002100200022214B5B6803F00C0134
:1005700021B1042906D0082928D107E0214B224CBB
:10058000236027E01F4B204C236023E0184B5B685F
:1005900003F47010164B5B6803F48032022303EB04
:1005A000904022B9194B4343174C23600DE0104B88
:1005B0005B6803F4003323B1144B4343124C2360B4
:1005C00003E0104B4343104C236003E00D4B0E4CF3
:1005D000236000BF00BF064B5B68C3F303130C4CE2
:1005E000E15C094B1B68CB40074C236010BD000049
:1005F00000100240002002400000FFF8FFFFF6FE5E
:1006000008ED00E000127A007C00002000093D00A7
:10061000800000201848806940F004001649886175
:100620000846806940F0200088611448006820F086
:100630000F00124908600846006840F00300086097
:100640000E480830006840F480700C49083108609A
:100650000B48006820F4706009490860084600688B
:1006600040F44070086006480C30006840F0040018
:1006700003490C3108607047001002400408014033
:100680000014014010B54FF4004004F055FB012860
:1006900020D12648007802281CDA2448007850B976
:1006A00000202349086001202249C1F88001204927
:1006B0003031086009E000201D49303108601D49D3
:1006C000C1F8800101201A49086018480078401CD0
:1006D000164908704FF4004004F03FFB10BD0EB502
:1006E0000F21002003F0A6FE012003F0E3FB4FF4EE
:1006F0000040019000208DF808000C208DF80900C2
:1007000001208DF80A0001A804F0B0FA28208DF825
:10071000000000208DF8010001208DF802008DF806
:100720000300684603F0A7FC0EBD00000000002097
:10073000800121420000214238B5002501210C2012
:1007400004F01EF84FF40040ADF8000048208DF88A
:10075000030003208DF802006946AE4803F054FD03
:1007600041F61300ADF8000010208DF80300694633
:10077000A84803F049FD41F61301A64803F0F1FD36
:10078000012003F097FB00F049F98021122000F0CE
:1007900032FA08B1012038BD322003F058FB0B209B
:1007A00000F048FA0446732C01D00220F3E70A2037
:1007B00000F040FA0446762C01D00220EBE7002539
:1007C0000DE0954A02EB45025178934A12F8150064
:1007D00000F011FA022003F03AFB681C85B2552D97
:1007E000EFD30020D7E72DE9F0410446E7250026A6
:1007F0000027012C06D0022C08D0032C0AD0042C90
:1008000010D10BE0E5255A265C270BE0E52558269C
:10081000602707E0E52584264C2703E0E52596269A
:10082000402700BF00BF2946132000F0E4F93146FD
:10083000012000F0E0F93946022000F0DCF9BDE8C3
:10084000F0812DE9F0410446802522265E2734B14F
:10085000012C08D0032C0AD0042C10D10BE0402529
:1008600011262F270BE066251B264B2707E099252D
:100870002826712703E0C02533268D2700BF00BF3F
:1008800029464F2000F0B7F92946502000F0B3F96F
:100890000021512000F0AFF93146522000F0ABF9B1
:1008A0003946532000F0A7F92946542000F0A3F957
:1008B0009E21582000F09FF9BDE8F08170B50446F4
:1008C000002534B1012C06D0032C06D0042C08D10D
:1008D00005E0B02505E0982503E0182501E0302566
:1008E00000BF00BF2946552000F085F970BD70B5E6
:1008F0000446402534B1012C06D0032C06D0042C2C
:1009000008D105E0302505E0382503E0502501E059
:10091000602500BF00BF2946562000F06CF970BD6D
:100920002DE9F04104460425C0268027072C1DD25E
:10093000DFE804F01C04080C10141800242580269D
:10094000802713E01425802680270FE01425C02679
:1009500080270BE014254026402707E01425802639
:10096000C02703E01425A026402700BF00BF29466A
:100970003A2000F040F93146682000F03CF9394651
:10098000672000F038F9BDE8F0812DE9F047054611
:100990000E469046994605EB48001FFA80FA06EB92
:1009A000490087B2B7F5447F02DDA7F5447087B2EE
:1009B000032000F03FF9044604F0F0040AF00301BC
:1009C000284661F39F0004432146032000F013F9F9
:1009D000C5F38701192000F00EF9CAF387011A2028
:1009E00000F009F9322000F025F9044604F0C004B3
:1009F00007F00701304661F3DF000443C6F3C70187
:100A0000172000F0F8F8C7F3C701182000F0F3F83A
:100A1000BDE8F08700080140C85C000808B5012166
:100A2000102003F0ADFE3020ADF8000010208DF84E
:100A3000030003208DF802006946924803F0E4FBAE
:100A40003021904803F08DFC8E48006820F470003F
:100A50008C4908600846006840F44010086008BDF2
:100A600010B50120884908608849C1F890013220FA
:100A700003F0C9F9002084490860322003F0C3F96B
:100A800000208249C1F8900110BD10B500207E49B8
:100A90000860322003F0B7F901207C49C1F89001C9
:100AA000322003F0B0F9012077490860322003F0CA
:100AB000AAF910BD10B5322003F0A5F90120724942
:100AC00008607249C1F89001322003F09CF90020BF
:100AD0006D49091F0860322003F095F900206B4929
:100AE000C1F89401322003F08EF910BD70B50446B0
:100AF00000261BE004F0800018B101206249086064
:100B000002E00020604908606006040E322003F015
:100B10007AF901205C49091F0860322003F073F95B
:100B200000205A49C1F89001701CC6B2082EE1DBC2
:100B30005448006820F47000524908600846006874
:100B400040F400000860322003F05DF901204E49B6
:100B5000091F0860322003F056F94C48D0F8140100
:100B600008B1012500E0002500204749091F086061
:100B70004448006820F47000424908600846006854
:100B800040F440100860284670BD70B500243D4810
:100B9000006820F470003B4908600846006840F493
:100BA00000000860082517E0322003F02CF901202E
:100BB0003549091F08606006040E3448D0F8140156
:100BC00008B1601CC4B2322003F01DF900202E4988
:100BD000091F0860681EC5B2002DE5DC29480068C1
:100BE00020F47000274908600846006840F440106F
:100BF0000860204670BD70B505460C460026FFF71C
:100C00002FFF4220FFF772FF00B10126642003F09E
:100C1000FAF82846FFF76AFF00B10126642003F0C6
:100C2000F2F82046FFF762FF00B10126FFF72DFF23
:100C3000304670BD70B504460025FFF711FF422015
:100C4000FFF754FF642003F0DEF82046FFF74EFF65
:100C5000642003F0D8F8FFF718FF642003F0D3F8FE
:100C6000FFF7FEFE4320FFF741FF642003F0CBF8BF
:100C7000FFF78BFF0546FFF71DFFFFF706FF28462E
:100C800070BD000000100140940122420000224289
:100C90004FF48071FD4A516149005161FC4908607F
:100CA00080215161116189001161704710B54FF0C9
:100CB0008830F7490C390860091D08600020F449A4
:100CC00008608815F149086140004861402048618A
:100CD000F048808848F68911884202D1022003F04A
:100CE00092F84020E9490861E948001F006884B291
:100CF000481508614FF03330E5490C390860091D8B
:100D000008604FF6FF70E2490860204610BD10B53C
:100D100004460B462046FFF7BBFF4FF48070DB49CB
:100D2000086140004861DA4803608020486108613A
:100D30008000086110BD10B504462046FFF7A8FFEB
:100D4000FFF7B4FF10BD00B5D249C879FFF7A0FF87
:100D500000BD4FF48071CD4A116149005161CC4909
:100D6000086080215161116189001161704730B5BF
:100D7000014601F01F04C1F34513CA0AE50205EB61
:100D800043151544A8B230BD2DE9F04105460E4685
:100D9000C0480088A84203DDBE484088B04202DC5B
:100DA0000020BDE8F0813146284604F023FFB94811
:100DB000808849F24131884205D0B648808846F69D
:100DC0000401884203D12E20FFF762FF02E02220B7
:100DD000FFF75EFF4FF08830AD490C390860091D00
:100DE00008604FF6FF70AA4908608815A749086196
:100DF0004000486140204861012003F004F8402091
:100E0000A24908614861012002F0FDFF40209F498E
:100E100008619F48001F006884B29E48808849F29C
:100E2000413188420ED14020984948610861984874
:100E3000001F00681FFA80F8E7B24FF6FF7000EA63
:100E400007270DE09348808846F60401884207D1C1
:100E500040208E49486108618D48001F006884B2B7
:100E60004FF40070894908614FF0333088490C39DC
:100E70000860091D08604FF6FF70854908608548C5
:100E8000808849F22531884216D08248808844F211
:100E90003551884210D07F488088091F88420BD086
:100EA0007C48808848F68911884205D07948808836
:100EB0004BF20551884201D1204672E7754880887F
:100EC00049F24131884207D1E012C002B91240EA2A
:100ED000411040EAE82064E72046FFF748FF60E75A
:100EE00000B56C48808849F24131884205D0694894
:100EF000808846F60401884203D12920FFF7C8FE06
:100F000004E040F273110720FFF701FF00BD00B5B8
:100F10006048808849F24131884205D05D48808828
:100F200046F60401884203D12820FFF7B1FE03E012
:100F300000210720FFF7EBFE00BDF0B505460024B9
:100F400000275448807901281ED15248808846F6EF
:100F50000401884218D0082D15D2DFE805F00406F8
:100F6000080A0C0E101206250DE007250BE00425DB
:100F700009E0052507E0012505E0002503E003253C
:100F800001E0022500BF00BF4248808849F241319C
:100F9000884205D03F48808846F6040188427BD1CC
:100FA000082D1CD2DFE805F00406090C0F121518F5
:100FB00000BF14E044F0800411E044F040040EE06F
:100FC00044F0C0040BE044F0200408E044F0600466
:100FD00005E044F0A00402E044F0E00400BF00BFDC
:100FE000362744F008042B48808846F604018842DE
:100FF00001D144F0020421463846FFF788FE04F090
:10100000200068B12348008822494988884214DAC0
:101010002048068840881F490880084646800CE022
:101020001C4800881B494988884206DD1948068803
:10103000408818490880084646801649087AFFF714
:1010400027FE4FF48070114908614000486100207C
:101050000F49086080200D494861086180000861DF
:101060004010086140004861002009490860802064
:10107000064948610861800008614010086140002D
:10108000486104480088401E001206E0001001403C
:101090000C0C0140DC00002058E0FE490860802074
:1010A000FD49486108618000086140100861400006
:1010B0004861FA480078401EC0B2F64908608020B6
:1010C000F5494861086180000861F449487AFFF7F2
:1010D000DFFD4FF48070F049086140004861002056
:1010E000EC4908608020EC49486108618000086193
:1010F00040100861400048610020E64908608020F7
:10110000E5494861086180000861401008614000BD
:101110004861E2484088401E0012DE490860802095
:10112000DD494861086180000861401008614000A5
:101130004861DA488078401EC0B2D64908608020F5
:10114000D549486108618000086131E0082D1CD252
:10115000DFE805F004070A0D0F12151844F03004FB
:1011600013E044F0100410E044F020040DE000BF50
:101170000BE044F0380408E044F0280405E044F0B3
:10118000180402E044F0080400BF00BFC348808890
:1011900048F68911884204D1112746F240000443E1
:1011A00002E0032744F4805421463846FFF7AFFDA0
:1011B000F0BD70B504460D462946204604F01AFDE0
:1011C000FFF7C1FD4FF48070B349086140004861EA
:1011D000B3480088AF4908608020AF494861086182
:1011E0008000086170BD10B50446002C3DD1AB49AC
:1011F0008871F02008804FF4A070488008468088ED
:1012000049F24131884205D0A448808846F604015D
:10121000884214D12C20A149C8712A2008722B20A1
:1012200048720846808846F6040188424ED14FF441
:10123000A0709A4908804FF4F070488046E09748C3
:10124000808848F68911884207D122209349C871C5
:101250004E2008724F20487238E022208F49C87112
:10126000202008722120487230E08C48808846F6A1
:10127000040188422AD00120884988714FF4A07067
:101280000880F02048800846808849F24131884231
:1012900007D12C208149C8712A2008722B2048725E
:1012A00014E07E48808848F68911884207D12220C0
:1012B0007A49C8714F2008724E20487206E02220F9
:1012C0007649C87121200872202048720020FFF75B
:1012D00034FE10BD70B5044600267048058840886D
:1012E00045430021084604F085FCFFF72CFD00BFB4
:1012F0000DE04FF48070684908614000486165481E
:10130000046080204861086180000861761CAE425C
:10131000EFD370BD10B56348806940F008006149A3
:1013200088610846806940F010008861084680693D
:1013300040F001008861012002F0BCFD5648406881
:101340006FF30B00544948600846406840F233315F
:101350000843514948600846006820F07F40086013
:101360000846006840F04C5008600846C06840F4E9
:10137000F860C8604FF03330464908390860091FEB
:1013800008604FF6FF7043490860322002F05FFDAD
:1013900001210020FFF7BBFC322002F058FD0020A5
:1013A000FFF7C9FC3D49888008468088FF280ADB92
:1013B000084680884FF6FF71884204D037488088FD
:1013C000B0F5134F4BD1D320FFF762FCFFF76EFC53
:1013D000FFF76CFCFFF76AFC30498880084680887C
:1013E0004FF6FF7101EA00202C498880FFF75EFC70
:1013F0002A4989880843294988800846808849F213
:10140000413188421BD0BF20FFF742FCFFF74EFC62
:10141000FFF74CFCFFF74AFCFFF748FC1F498880A8
:10142000084680884FF6FF7101EA00201B4988803A
:10143000FFF73CFC194989880843184988801748F8
:10144000808849F24131884209D01448808846F6A4
:101450000401884203D049F24130104988800F4886
:10146000808849F2413188427ED1CF20FFF710FCBD
:101470004FF4807008490861400048610020054928
:1014800008608020044948610861800008614010BC
:10149000086109E00C0C014000100140DC00002054
:1014A000900000200010024040004861C120FE4929
:1014B00008608020FD494861086180000861401093
:1014C0000861400048613020F74908608020F749F2
:1014D0004861086180000861ED20FFF7D9FB4FF4F7
:1014E0008070F2490861400048616420EE4908605C
:1014F0008020EE4948610861800008614010086161
:10150000400048610320E84908608020E7494861BD
:1015100008618000086140100861400048611220A5
:10152000E14908608020E149486108618000086164
:1015300040100861400048618120DB49086080203C
:10154000DA494861086180000861E820FFF7A0FBE4
:101550004FF48070D5490861400048618520D24928
:1015600008608020D14900E081E348610861800083
:10157000086140100861400048611020CA490860B5
:101580008020CA49486108618000086140100861F4
:10159000400048617A20C44908608020C3494861FE
:1015A000086180000861CB20FFF772FB4FF4807068
:1015B000BE490861400048613920BB49086080206D
:1015C000BA49486108618000086140100861400024
:1015D00048612C20B44908608020B4494861086102
:1015E0008000086140100861400048610020AE4959
:1015F00008608020AD4948610861800008614010A2
:101600000861400048613420A74908608020A7494C
:10161000486108618000086140100861400048612D
:101620000220A14908608020A0494861086180002B
:101630000861F720FFF72CFB4FF480709B4908618D
:1016400040004861202098490860802097494861FF
:10165000086180000861EA20FFF71AFB4FF48070F0
:10166000924908614000486100208F49086080204D
:101670008E4948610861800008614010086140009F
:1016800048610020884908608020884948610861D5
:1016900080000861C020FFF7FBFA4FF48070834997
:1016A0000861400048611B207F49086080207F4915
:1016B0004861086180000861C120FFF7E9FA4FF432
:1016C00080707A49086140004861012076490860CD
:1016D000802076494861086180000861C520FFF7D5
:1016E000D7FA4FF48070714908614000486130209A
:1016F0006D49086080206D4948610861800008617B
:10170000401008614000486130206749086080202F
:1017100066494861086180000861C720FFF7B8FA90
:101720004FF480706149086140004861B7205E490C
:10173000086080205D4948610861800008613620AA
:10174000FFF7A6FA4FF480705849086140004861DD
:10175000482055490860802054494861086180004C
:1017600008613A20FFF794FA4FF480704F490861FE
:101770004000486155204C49086080204B49486131
:10178000086180000861B120FFF782FA4FF4807091
:1017900046490861400048610020434908608020B4
:1017A00042494861086180000861401008614000BA
:1017B00048611A203C49086080203C494861086122
:1017C00080000861B620FFF763FA4FF48070374954
:1017D0000861400048610A2033490860802033498D
:1017E000486108618000086140100861400048615C
:1017F000A2202D49086080202C49486108618000A2
:101800000861F220FFF744FA4FF48070274908611D
:101810004000486100202449086080202349486135
:101820000861800008612620FFF732FA4FF48070CB
:101830001E4908614000486101201B490860802062
:101840001A494861086180000861E020FFF720FA2A
:101850004FF4807015490861400048610F2012491B
:1018600008608020114948610861800008614010CB
:101870000861400048612A200B49086080200B491C
:1018800048610861800008614010086140004861BB
:1018900028200549086080200449486108618000CB
:1018A00008614010086103E00C0C01400010014089
:1018B000400048610820FE4908608020FD494861D9
:1018C00008618000086140100861400048610E20F6
:1018D000F74908608020F749486108618000086185
:1018E00040100861400048610820F14908608020EC
:1018F000F0494861086180000861401008614000BB
:1019000048615420EA4908608020EA49486108613A
:10191000800008614010086140004861A920E44946
:1019200008608020E3494861086180000861401038
:101930000861400048614320DD4908608020DD499E
:1019400048610861800008614010086140004861FA
:101950000A20D74908608020D64948610861800084
:10196000086140100861400048610F20D0490860BC
:101970008020D049486108618000086140100861FA
:10198000400048610020CA4908608020C949486178
:101990000861800008614010086140004861002033
:1019A000C34908608020C34948610861800008611C
:1019B00040100861400048610020BD490860802057
:1019C000BC4948610861800008614010086140001E
:1019D00048610020B64908608020B6494861086126
:1019E00080000861E120FFF753F94FF48070B1499E
:1019F0000861400048610020AD4908608020AD4981
:101A00004861086180000861401008614000486139
:101A10001520A74908608020A64948610861800018
:101A2000086140100861400048611720A049086023
:101A30008020A04948610861800008614010086169
:101A40004000486107209A49086080209949486110
:101A50000861800008614010086140004861112061
:101A600093490860802093494861086180000861BB
:101A7000401008614000486106208D4908608020C0
:101A80008C4948610861800008614010086140008D
:101A900048612B208649086080208649486108619A
:101AA000800008614010086140004861562080496C
:101AB000086080207F49486108618000086140100B
:101AC0000861400048613C207949086080207949DC
:101AD0004861086180000861401008614000486169
:101AE00005207349086080207249486108618000C0
:101AF0000861401008614000486110206C4908608E
:101B000080206C49486108618000086140100861CC
:101B1000400048610F20664908608020654948619F
:101B200008618000086140100861400048613F2062
:101B30005F49086080205F49486108618000086152
:101B400040100861400048613F20594908608020EA
:101B500058494861086180000861401008614000F0
:101B600048610F205249086080205249486108614D
:101B7000800008612B20FFF78BF84FF480704D49EF
:101B800008614000486100204949086080204949B7
:101B900048610861800008614010086140004861A8
:101BA0000020434908608020424948610861800064
:101BB0000861401008614000486101203C4908600C
:101BC00080203C494861086180000861401008613C
:101BD000400048613F20364908608020354948610F
:101BE0000861800008612A20FFF752F84FF48070E6
:101BF000304908614000486100202D49086080207C
:101C00002C4948610861800008614010086140006B
:101C10004861002026490860802026494861086103
:101C200080000861401008614000486100202049A0
:101C3000086080201F4948610861800008614010E9
:101C4000086140004861EF20194908608020194967
:101C500048610861800008611120FFF719F87820B9
:101C600002F0F5F82920FFF713F801F0C5BB124880
:101C7000808846F6040188427ED11120FFF708F8DB
:101C8000142002F0E4F8D020FFF702F84FF480703F
:101C90000849086140004861072005490860802024
:101CA000044948610861800008614010086105E04E
:101CB0000C0C014000100140DC0000204000486195
:101CC0004220FE4908608020FD494861086180008B
:101CD000086140100861400048611D20F749086014
:101CE0008020F7494861086180000861D120FEF733
:101CF000CFFF4FF48070F249086140004861002036
:101D0000EE4908608020EE49486108618000086162
:101D100040100861400048611A20E84908608020AE
:101D2000E74948610861800008614010086140008F
:101D300048610920E14908608020E1494861086163
:101D400080000861D220FEF7A3FF4FF48070DC49C9
:101D50000861400048610120D84908608020D849C6
:101D600048610861800008614010086140004861D6
:101D70002220D249086000E0D4E18020D0494861A7
:101D8000086180000861C020FEF782FF4FF4807078
:101D9000CB490861400048611020C8490860802094
:101DA000C74948610861800008614010086140002F
:101DB00048613B20C14908608020C14948610861F1
:101DC0008000086140100861400048610020BB4964
:101DD00008608020BA4948610861800008614010AD
:101DE0000861400048610220B44908608020B4497D
:101DF0004861086180000861401008614000486146
:101E00001120AE4908608020AD494861086180001A
:101E10000861C520FEF73CFF4FF48070A8490861B7
:101E2000400048610320A54908608020A44948611A
:101E3000086180000861C820FEF72AFF4FF4807017
:101E40009F4908614000486100209C49086080204B
:101E50009B494861086180000861401008614000AA
:101E600048612520954908608020954948610861AE
:101E700080000861401008614000486121208F49BE
:101E8000086080208E494861086180000861401028
:101E90000861400048610520884908608020884921
:101EA0004861086180000861401008614000486195
:101EB00000208249086080208149486108618000D3
:101EC000086140100861400048610A207B490860B1
:101ED00080207B49486108618000086140100861EA
:101EE0004000486165207549086080207449486158
:101EF00008618000086140100861400048612520A9
:101F00006E49086080206E49486108618000086160
:101F100040100861400048617720684908608020CF
:101F2000674948610861800008614010086140000D
:101F3000486150206149086080206149486108611A
:101F40008000086140100861400048610F205B4933
:101F5000086080205A49486108618000086140108B
:101F600008614000486100205449086080205449BD
:101F70004861086180000861F820FEF789FE4FF48F
:101F800080704F4908614000486101204B4908605A
:101F900080204B494861086180000861FE20FEF7FF
:101FA00077FE4FF480704649086140004861002088
:101FB0004249086080204249486108618000086108
:101FC000401008614000486102203C4908608020C0
:101FD0003B4948610861800008612020FEF758FEF7
:101FE0003620FEF755FE4FF48070354908614000F9
:101FF0004861082031490860802031494861086102
:10200000800008613A20FEF743FE4FF480702C49AF
:10201000086140004861552028490860802028490F
:1020200048610861800008612B20FEF731FE4FF403
:102030008070234908614000486100201F49086002
:1020400080201F49486108618000086140100861D4
:102050004000486100201949086080201849486103
:10206000086180000861401008614000486101205B
:1020700012490860802012494861086180000861A7
:1020800040100861400048613F200C4908608020F2
:102090000B4948610861800008612A20FEF7F8FDBD
:1020A0004FF48070064908614000486100200349F0
:1020B0000860802002494861086103E00C0C01407F
:1020C0000010014080000861401008614000486134
:1020D0000020FE4908608020FD49486108618000B9
:1020E000086140100861400048610120F74908601C
:1020F0008020F7494861086180000861401008614C
:1021000040004861DF20F14908608020F0494861C3
:10211000086180000861782001F099FE2920FEF70F
:10212000B7FDA2E5EB48808849F2253188427DD190
:1021300047F6F001E520FEF7EAFD4FF4807101203B
:10214000FEF7E5FD4FF4E0610220FEF7E0FD41F20D
:1021500030010320FEF7DBFD00210420FEF7D7FD50
:1021600040F202210820FEF7D2FD00210920FEF7EF
:10217000CEFD00210A20FEF7CAFD00210C20FEF74B
:10218000C6FD00210D20FEF7C2FD00210F20FEF745
:10219000BEFD00211020FEF7BAFD07211120FEF739
:1021A000B6FD00211220FEF7B2FD00211320FEF73C
:1021B000AEFD00210720FEF7AAFD41F2906110203C
:1021C000FEF7A5FD40F227211120FEF7A0FD9D217D
:1021D0001220FEF79CFD4FF4C8511320FEF797FD27
:1021E00025212920FEF793FD0D212B20FEF78FFDE1
:1021F00007213020FEF78BFD40F203313120FEF73E
:1022000086FD03213220FEF782FD40F206213520B3
:10221000FEF77DFD08213620FEF779FD40F20641EC
:102220003720FEF774FD4FF4417100E058E038208C
:10223000FEF76DFD07213920FEF769FD40F20261CE
:102240003C20FEF764FD08213D20FEF760FD0021E3
:102250005020FEF75CFDEF215120FEF758FD0021D4
:102260005220FEF754FD40F23F115320FEF74FFD80
:102270004FF427416020FEF74AFD01216120FEF75F
:1022800046FD00216A20FEF742FD00218020FEF776
:102290003EFD00218120FEF73AFD00218220FEF75D
:1022A00036FD00218320FEF732FD00218420FEF759
:1022B0002EFD00218520FEF72AFD10219020FEF73B
:1022C00026FD4FF4C0619220FEF721FD40F233114C
:1022D0000720FEF71CFD22210020FEF718FDC4E4B4
:1022E0007C48808849F2283188427DD141F28F01B3
:1022F000EC20FEF70CFD41F23421EF20FEF707FD44
:102300004FF480710120FEF702FD4FF4E0610220DE
:10231000FEF7FDFC41F230010320FEF7F8FC00213E
:102320000420FEF7F4FC40F202210820FEF7EFFC47
:1023300000210920FEF7EBFC00210A20FEF7E7FC54
:1023400001210C20FEF7E3FC00210D20FEF7DFFC4D
:1023500000210F20FEF7DBFC00211020FEF7D7FC48
:1023600007211120FEF7D3FC00211220FEF7CFFC3D
:1023700000211320FEF7CBFC01210720FEF7C7FC4C
:10238000322001F064FD41F290411020FEF7BFFCC5
:1023900040F227211120FEF7BAFC322001F057FD50
:1023A0008A211220FEF7B3FC322001F050FD4FF4D9
:1023B000D0511320FEF7ABFC06212920FEF7A7FC25
:1023C0000D212B20FEF7A3FC322001F040FD00215F
:1023D0002020FEF79CFC00212120FEF798FC3220F3
:1023E00001F035FD002100E07CE03020FEF78FFC9D
:1023F00040F204613120FEF78AFC40F205313220C0
:10240000FEF785FC00213520FEF781FC40F60941EE
:102410003620FEF77CFC4FF401713720FEF777FC85
:1024200040F201313820FEF772FC40F2077139208A
:10243000FEF76DFC00213C20FEF769FC40F60A2106
:102440003D20FEF764FC322001F001FD0021502008
:10245000FEF75DFCEF215120FEF759FC00215220D0
:10246000FEF755FC40F23F115320FEF750FC4FF4AD
:1024700027416020FEF74BFC01216120FEF747FC5D
:1024800000216A20FEF743FC00218020FEF73FFC7C
:1024900000218120FEF73BFC00218220FEF737FC63
:1024A00000218320FEF733FC00218420FEF72FFC5F
:1024B00000218520FEF72BFC10219020FEF727FC41
:1024C0004FF4C0619220FEF722FC05E00C0C0140A5
:1024D00000100140DC00002040F233110720FEF71D
:1024E00016FC1EE6FE48808849F2203188427DD1E4
:1024F00000210846FEF70BFC4FF480710120FEF727
:1025000006FC4FF4E0610220FEF701FC41F23001CD
:102510000320FEF7FCFB00210420FEF7F8FB40F24D
:1025200002210820FEF7F3FB00210920FEF7EFFB54
:1025300000210A20FEF7EBFB01210C20FEF7E7FB50
:1025400000210D20FEF7E3FB00210F20FEF7DFFB4B
:10255000322001F07CFC40F201110720FEF7D7FB8E
:10256000322001F074FC4FF486511020FEF7CFFBAF
:1025700007211120FEF7CBFB4FF488711220FEF7E4
:10258000C6FB4FF430611320FEF7C1FB0021292068
:10259000FEF7BDFB44F210012B20FEF7B8FB002133
:1025A0005020FEF7B4FBEF215120FEF7B0FB0021D5
:1025B0005220FEF7ACFB40F23F115320FEF7A7FB81
:1025C0004FF41C516020FEF7A2FB01216120FEF7B1
:1025D0009EFB00216A20FEF79AFB00218020FEF777
:1025E00096FB00218120FEF792FB00E02EE0002107
:1025F0008220FEF78CFB00218320FEF788FB002160
:102600008420FEF784FB00218520FEF780FB10214B
:102610009020FEF77CFB00219220FEF778FB012141
:102620009320FEF774FB4FF488719520FEF76FFB43
:1026300000219720FEF76BFB00219820FEF767FB37
:1026400040F273110720FEF762FB6AE5A448808818
:1026500049F2313188427DD141F21401E720FEF781
:1026600056FB4FF480710120FEF751FB4FF40071CF
:102670000220FEF74CFB41F238010320FEF747FB36
:1026800040F202210820FEF742FB00210920FEF75C
:102690003EFB00210A20FEF73AFB00210C20FEF74A
:1026A00036FB00210D20FEF732FB00210F20FEF744
:1026B0002EFB00211020FEF72AFB07211120FEF738
:1026C00026FB00211220FEF722FB00211320FEF73B
:1026D0001EFBC82001F0BBFB41F290611020FEF709
:1026E00016FB40F227211120FEF711FB322001F0EA
:1026F000AEFB0C211220FEF70AFB322001F0A7FBF3
:102700004FF400611320FEF702FB11212920FEF790
:10271000FEFA0B212B20FEF7FAFA322001F097FB8C
:1027200000212020FEF7F3FA40F23F112120FEF7AE
:10273000EEFA00213020FEF7EAFA4FF483713120DF
:10274000FEF7E5FA00213220FEF7E1FA4FF40171BD
:10275000352000E064E0FEF7DAFA41F20A61362043
:10276000FEF7D5FA40F207713720FEF7D0FA4FF4A2
:1027700083713820FEF7CBFA40F207713920FEF75B
:10278000C6FA40F202413C20FEF7C1FA40F60F4182
:102790003D20FEF7BCFA00215020FEF7B8FAEF21E9
:1027A0005120FEF7B4FA00215220FEF7B0FA40F2B1
:1027B0003F115320FEF7ABFA4FF41C516020FEF797
:1027C000A6FA01216120FEF7A2FA00216A20FEF795
:1027D0009EFA00218020FEF79AFA00218120FEF760
:1027E00096FA00218220FEF792FA00218320FEF75C
:1027F0008EFA00218420FEF78AFA00218520FEF758
:1028000086FA10219020FEF782FA4FF4C0619220E0
:10281000FEF77DFA40F233110720FEF778FA80E4E4
:102820002F48808845F2084188427DD14FF480715D
:102830000120FEF76CFA4FF4E0610220FEF767FA20
:1028400041F230010320FEF762FA00210420FEF776
:102850005EFA40F207210820FEF759FA002109200C
:10286000FEF755FA00210A20FEF751FA00210C204C
:10287000FEF74DFA00210D20FEF749FA00210F2046
:10288000FEF745FA142001F0E2FA41F2B06110209F
:10289000FEF73DFA01211120FEF739FA0121172038
:1028A000FEF735FA4FF49C711220FEF730FA4FF420
:1028B00000611320FEF72BFA09212920FEF727FAE1
:1028C00009212A20FEF723FA0021A420FEF71FFA8F
:1028D00000215020FEF71BFAEF21512002E00000FA
:1028E000DC000020FEF713FA00215220FEF70FFA59
:1028F00040F23F115320FEF70AFA4FF41C516020BA
:10290000FEF705FA01216120FEF701FA00216A2095
:10291000FEF7FDF900218020FEF7F9F90021812062
:10292000FEF7F5F9002100E028E08220FEF7EFF93C
:1029300000218320FEF7EBF900218420FEF7E7F960
:1029400000218520FEF7E3F913219020FEF7DFF93F
:1029500000219220FEF7DBF903219320FEF7D7F93F
:102960004FF488719520FEF7D2F940F273110720D9
:10297000FEF7CDF9322001F06AFAB0E4FE48808813
:1029800041F2055188427DD100210720FEF7BFF9B1
:10299000322001F05CFA4FF48E711220FEF7B7F985
:1029A0000121A420FEF7B3F90F210820FEF7AFF9AB
:1029B00008210A20FEF7ABF908210D20FEF7A7F940
:1029C00040F207713020FEF7A2F907213120FEF70F
:1029D0009EF940F203613220FEF799F94FF4E0616D
:1029E0003320FEF794F940F202213420FEF78FF9EC
:1029F00002213520FEF78BF941F60F713620FEF7E4
:102A000086F940F207713720FEF781F9002138205E
:102A1000FEF77DF900213920FEF779F940F20771C0
:102A20003A20FEF774F900213B20FEF770F90721E8
:102A30003C20FEF76CF900213D20FEF768F93220BA
:102A400001F005FA01210720FEF761F901211720A5
:102A5000FEF75DF9322001F0FAF94FF4BD51102074
:102A6000FEF755F940F217211120FEF750F94FF407
:102A70008F711220FEF74BF94FF470611320FEF7AF
:102A800046F900E095E000212A20FEF740F90A21EE
:102A90002920FEF73CF94FF49F711220FEF737F919
:102AA00000215020FEF733F9EF215120FEF72FF9D6
:102AB00000215220FEF72BF940F23F115320FEF780
:102AC00026F94FF41C516020FEF721F90121612005
:102AD000FEF71DF900216A20FEF719F90021802078
:102AE000FEF715F900218120FEF711F9002182205F
:102AF000FEF70DF900218320FEF709F9002184205B
:102B0000FEF705F900218520FEF701F91321902039
:102B1000FEF7FDF84FF440719220FEF7F8F805211A
:102B20009320FEF7F4F800219520FEF7F0F800213D
:102B30009720FEF7ECF800219820FEF7E8F84FF414
:102B400080710120FEF7E3F84FF4E0610220FEF708
:102B5000DEF841F238010320FEF7D9F80021042005
:102B6000FEF7D5F800210C20FEF7D1F800210F2048
:102B7000FEF7CDF800212020FEF7C9F80021212022
:102B8000FEF7C5F821210720FEF7C1F8142001F057
:102B90005EF961210720FEF7BAF8142001F057F919
:102BA00040F273110720FEF7B2F8142001F04FF93C
:102BB00097E4714880884BF2055188427ED100210C
:102BC0000846FEF7A4F800210846FEF7A0F8002109
:102BD0000846FEF79CF800210846FEF798F8012108
:102BE000A420FEF794F8142001F031F94FF41C51A1
:102BF0006020FEF78CF840F202210820FEF787F8EB
:102C00004FF405713020FEF782F843F21571312040
:102C1000FEF77DF840F204613220FEF778F840F6C6
:102C200016613320FEF773F842F211213420FEF7CB
:102C30006EF84FF4A8513520FEF769F848F20751B5
:102C40003620FEF764F841F207413720FEF75FF8BF
:102C500041F203413820FEF75AF820213920FEF7CF
:102C600056F81A219020FEF752F800211020FEF7A6
:102C70004EF807211120FEF74AF800211220FEF736
:102C800046F800211320FEF742F8142001F0DFF887
:102C90004FF4E6611020FEF73AF840F237111120A8
:102CA000FEF735F8142001F0D2F84FF4DC71122051
:102CB000FEF72DF8142001F0CAF800E087E04FF489
:102CC00070611320FEF723F880212A20FEF71FF8F9
:102CD00048212920FEF71BF8142001F0B8F84FF422
:102CE00080710120FEF713F84FF4E0610220FEF737
:102CF0000EF841F238010320FEF709F840F20221F4
:102D00000820FEF704F800210A20FEF700F8002151
:102D10000C20FDF7FCFF00210D20FDF7F8FF30210E
:102D20000E20FDF7F4FF00215020FDF7F0FFEF210A
:102D30005120FDF7ECFF00215220FDF7E8FF40F2A3
:102D40003F115320FDF7E3FF4FF41C516020FDF7C6
:102D5000DEFF01216120FDF7DAFF00216A20FDF787
:102D6000D6FF11219020FDF7D2FF4FF4C0619220D1
:102D7000FDF7CDFF02E00000DC00002040F2024140
:102D80009320FDF7C4FF02219420FDF7C0FF14201B
:102D900001F05DF801210720FDF7B9FF142001F0D3
:102DA00056F861210720FDF7B2FF40F273110720AA
:102DB000FDF7ADFF00212020FDF7A9FF0021212014
:102DC000FDF7A5FF22210020FDF7A1FF14E3FE4837
:102DD00080884CF2055188427ED100210846FDF7DB
:102DE00096FF00210846FDF792FF142001F02FF80E
:102DF00000210846FDF78BFF00210846FDF787FFFD
:102E000000210846FDF783FF00210846FDF77FFFFC
:102E10000121A420FDF77BFF142001F018F84FF4E6
:102E20001C516020FDF773FF40F606010820FDF7F6
:102E30006EFF40F203713020FDF769FF0121312060
:102E4000FDF765FF04213220FDF761FF4FF481712A
:102E50003320FDF75CFF4FF440713420FDF757FF3E
:102E600040F203113520FDF752FF1F213620FDF7F8
:102E70004EFF40F203713720FDF749FF0121382052
:102E8000FDF745FF04213920FDF741FF1521902072
:102E9000FDF73DFF4FF482611020FDF738FF40F24F
:102EA00047211120FDF733FF4FF4DE711220FDF7AB
:102EB0002EFF4FF460611320FDF729FF782000F00A
:102EC000C6FF4FF480710120FDF721FF4FF4007120
:102ED0000220FDF71CFF00E050E041F2300103202A
:102EE000FDF715FF08210A20FDF711FF00210C2036
:102EF000FDF70DFF20210E20FDF709FF00210F2017
:102F0000FDF705FF00212020FDF701FF0021212012
:102F1000FDF7FDFE3D212A20FDF7F9FE142000F00B
:102F200096FF2D212920FDF7F2FE00215020FDF70C
:102F3000EEFE4DF2EF015120FDF7E9FE0021522097
:102F4000FDF7E5FE40F23F115320FDF7E0FE0021C2
:102F50006120FDF7DCFE00216A20FDF7D8FE4FF46A
:102F600040719220FDF7D3FE05219320FDF7CFFE9F
:102F70004FF480710720FDF7CAFE3DE29248808839
:102F800048F6891188427DD101210020FDF7BFFE5E
:102F90004AF6A4010320FDF7BAFE00210C20FDF73C
:102FA000B6FE40F60C010D20FDF7B1FE4FF42C519A
:102FB0000E20FDF7ACFEB0211E20FDF7A8FE42F664
:102FC0003F310120FDF7A3FE4FF4C0610220FDF761
:102FD0009EFE00211020FDF79AFE46F27801112096
:102FE000FDF795FE00210520FDF791FE002106204A
:102FF000FDF78DFE4EF61C711620FDF788FE0321AD
:103000001720FDF784FE40F233210720FDF77FFEF5
:1030100000210B20FDF77BFE00210F20FDF777FE3E
:1030200000214120FDF773FE00214220FDF76FFED5
:1030300000214820FDF76BFE40F23F114920FDF7CB
:1030400066FE00214A20FDF762FE00214B20FDF7BD
:103050005EFE4FF46F414420FDF759FE00214520EC
:10306000FDF755FE40F23F114620FDF750FE40F2BD
:1030700007713020FDF74BFE4FF401713120FDF751
:1030800046FE00E03DE04FF401713220FDF73FFEC7
:1030900040F202513320FDF73AFE40F2075134204E
:1030A000FDF735FE4FF401713520FDF730FE4FF48A
:1030B00001713620FDF72BFE40F202513720FDF75B
:1030C00026FE40F202313A20FDF721FE40F20231A5
:1030D0003B20FDF71CFE00212320FDF718FE0021F8
:1030E0002420FDF714FE4FF400412520FDF70FFECC
:1030F00000214F20FDF70BFE00214E20FDF707FEBB
:103100007AE13148808844F2315188427DD10121F1
:103110000020FDF7FCFD0A2000F099FE41F2286135
:103120001020FDF7F4FD0E211220FDF7F0FD40F612
:1031300039211320FDF7EBFD0A2000F088FE402125
:103140001120FDF7E4FD50211520FDF7E0FD0A20D8
:1031500000F07DFE1E211220FDF7D9FD0A2000F0AF
:1031600076FE4FF4B1511020FDF7D1FD42F6392122
:103170001320FDF7CCFD0A2000F069FE4FF48071AA
:103180000120FDF7C4FD4FF440710220FDF7BFFDA3
:1031900041F238010320FDF7BAFD40F20221082078
:1031A000FDF7B5FD08210A20FDF7B1FD0021302013
:1031B000FDF7ADFD40F202413120FDF7A8FD4FF4CF
:1031C0008371322002E00000DC000020FDF79FFD4B
:1031D00040F203513320FDF79AFD4FF48271342001
:1031E000FDF795FD40F201313520FDF790FD40F2ED
:1031F00007713620FDF78BFD40F205313720FDF7D2
:1032000086FD4FF40271382000E040E0FDF77FFDBD
:1032100040F60B713920FDF77AFD02214120FDF7C0
:1032200076FD4FF41C516020FDF771FD01216120F6
:10323000FDF76DFD4FF404719020FDF768FD4FF42C
:1032400085719220FDF763FD04219320FDF75FFD5A
:103250004FF48071A020FDF75AFD01210720FDF7F2
:1032600056FD21210720FDF752FD23210720FDF700
:103270004EFD33210720FDF74AFD40F233110720B0
:10328000FDF745FD0021A020FDF741FDB4E0F74822
:10329000808844F235518842F8D130211520FDF75D
:1032A00036FD10219A20FDF732FD20211120FDF777
:1032B0002EFD43F228411020FDF729FD02211220A6
:1032C000FDF725FD41F238011320FDF720FD2820F0
:1032D00000F0BDFD12210846FDF719FD282000F081
:1032E000B6FD43F220411020FDF711FD43F23801F5
:1032F0001320FDF70CFD462000F0A9FD0021302031
:10330000FDF705FD40F202413120FDF700FD40F2DE
:1033100007313220FDF7FBFC4FF441713320FDF7FC
:10332000F6FC04213420FDF7F2FC40F20141352087
:10333000FDF7EDFC40F207713620FDF7E8FC40F2A6
:1033400005313720FDF7E3FC4FF4C2613820FDF76B
:10335000DEFC4FF4C2613920FDF7D9FC4FF48071D7
:103360000120FDF7D4FC4FF440710220FDF7CFFCA3
:1033700041F230010320FDF7CAFC40F608010820A5
:10338000FDF7C5FC08210A20FDF7C1FC4FF41C51D4
:103390006020FDF7BCFC01216120FDF7B8FC4FF473
:1033A0009F719020FDF7B3FC4FF480719220FDF7E0
:1033B000AEFC4FF480719320FDF7A9FC4FF440510F
:1033C000A020FDF7A4FC1021A320FDF7A0FC012103
:1033D0000720FDF79CFC21210720FDF798FC232105
:1033E0000720FDF794FC33210720FDF790FC40F205
:1033F00033110720FDF78BFC0020FDF7F4FE0120C0
:103400009B4908604FF6FF70FDF764FF10BD2DE982
:10341000F05F05460E4617469846DDF828A04FF0A7
:10342000000B781B401C1FFA80FB34461EE021462F
:10343000284602F0DFFBFDF786FC4FF0000911E0A3
:103440004FF480708B490861400048618A48C0F899
:1034500000A08020486108618000086109F1010036
:103460001FFA80F9D945EBDB601C84B24445DEDDF0
:10347000BDE8F09F2DE9FF4F85B081468A460020C8
:10348000049003900798A0EB09050898A0EB0A06A2
:10349000CDF80890CDF804A0002D01DD012705E04E
:1034A0000DB9002702E04FF0FF376D42002E02DD1C
:1034B0004FF0010806E016B94FF0000802E04FF0A7
:1034C000FF387642B54201DD2C4600E034464FF02D
:1034D000000B21E0019A91B2029A90B2FDF769FEC9
:1034E0000498284404900398304403900498A04220
:1034F00005DD0498001B049002983844029003985C
:10350000A04205DD0398001B039001984044019000
:103510000BF101001FFA80FB601C8345DADD09B066
:10352000BDE8F08F2DE9F04104460D4616461F46D2
:103530002B46324629462046FFF79CFF3B46224653
:1035400029462046FFF796FF3B463246394620463D
:10355000FFF790FF3B46324629463046FFF78AFF89
:10356000BDE8F0812DE9F04706460F46904600245D
:1035700045460320A0EB480948E03A1B91B2721B74
:1035800090B2FDF716FE3A1B91B2721990B2FDF798
:1035900010FE7A1991B2321B90B2FDF70AFE3A1B67
:1035A00091B2721B90B2FDF704FE7A1B91B2321BEE
:1035B00090B2FDF7FEFD3A1991B2721990B2FDF783
:1035C000F8FD7A1B91B2321990B2FDF7F2FD7A192B
:1035D00091B2321990B2FDF7ECFD3A1991B2721B1B
:1035E00090B2FDF7E6FD641CB9F1000F03DAA0000C
:1035F000801D814404E0601B80000A3081446D1E00
:103600007A1991B2321990B2FDF7D3FDAC42B4DD14
:10361000BDE8F0872DE9F84F05460F4690461E4657
:1036200000971648B0F80090A8F1200000F0FF08BD
:103630000A9800285CD1002457E00C2E07D108EB33
:1036400048000F4901EB800010F804A004E00D4889
:1036500000EB081010F804A04FF0000B3FE00AF058
:10366000800088B10548A0F8009011E0DC0000203F
:10367000A8012242001001400C0C014090000020E3
:103680001E5E000892620008B2480088B2490880B5
:1036900039462846FDF78DFD4FEA4A604FEA106A29
:1036A000781C87B2AD480088A84204DCAA48A0F87C
:1036B0000090BDE8F88F0098381AB0420BD1009FF7
:1036C000681C85B2A5480088A84203DCA248A0F87F
:1036D0000090EEE706E00BF1010000F0FF0BBBF1FC
:1036E000080FBCDB00BF601CC4B2B442A5DB44E0E1
:1036F000002440E00C2E07D108EB4800984901EB6C
:10370000800010F804A004E0964800EB081010F8C0
:1037100004A04FF0000B28E00AF0800018B13946F1
:103720002846FDF746FD4FEA4A604FEA106A781CCA
:1037300087B28A484088A84203DC8748A0F80090F6
:10374000B7E70098381AB0420BD1009F681C85B2C9
:1037500082480088A84203DC7F48A0F80090A8E7D0
:1037600006E00BF1010000F0FF0BBBF1080FD3DB0B
:1037700000BF601CC4B2B442BCDB7748A0F8009024
:1037800000BF96E710B50246012000E050430B1E33
:10379000A1F10104E1B2F9D110BD2DE9FF4F81B0D3
:1037A000074691461E460E9D4FF0000A002439E060
:1037B000301B401EC1B20A20FFF7E4FFB9FBF0F056
:1037C0000A21B0FBF1F201FB1208BAF1000F16D189
:1037D000701EA04213DDB8F1000F0ED10020AB46E1
:1037E00005EBDB71491001FB0471009088B22B4698
:1037F00020220299FFF70EFF12E04FF0010A00208D
:10380000AB4605EBDB71491001FB0471009088B2F7
:1038100008F13001CAB22B460299FFF7FBFE00BF48
:10382000601CC4B2B442C3DB05B0BDE8F08F2DE923
:10383000FF4F83B0064692461F46DDE91048002040
:10384000029000254DE0781B401EC1B20A20FFF710
:1038500099FFBAFBF0F00A21B0FBF1F201FB12096B
:10386000029850BB781EA84227DDB9F1000F22D183
:1038700008F0800078B108F00100A34604EBDB718A
:10388000491001FB0561009088B22346302204995B
:10389000FFF7C0FE0EE008F00100A34604EBDB7169
:1038A000491001FB0561009088B22346202204994B
:1038B000FFF7B0FE13E00120029008F00100A346DC
:1038C00004EBDB71491001FB0561009088B209F13E
:1038D0003001CAB223460499FFF79CFE00BF681C62
:1038E000C5B2BD42AFDB07B0BDE8F08F2DE9F84FA0
:1038F00004460D4690469946DDE90A6704F0FF0A42
:1039000008EB04001FFA80F809EB05001FFA80F9A4
:1039100016E0444502DB5446A81985B24D4500DB4C
:1039200014E0002000903A78334629462046FFF7FD
:1039300071FE304606EBD07104EB61018CB27F1C46
:1039400038787E2802DC38782028E2DA00BFBDE82B
:10395000F88F00009200002090000020DC00002082
:103960001E5E00089262000808B50121042000F0E4
:1039700007FF0121084600F003FF0121102000F09D
:10398000FFFE4FF4E470ADF8000010208DF8030046
:1039900003208DF802006946A64800F035FC43F686
:1039A0000200ADF8000010208DF8030003208DF810
:1039B00002006946A04800F027FC4FF4E4719D48DE
:1039C00000F0D1FC43F602019B4800F0CCFC40F62D
:1039D0000F61C82000F09AF940F60F61C82000F08E
:1039E00035F908BD10B59548407810B1012814D1BB
:1039F00009E093480068401C91490860082801DBF1
:103A0000002008600AE08E480068401E8C4908606B
:103A1000082801DB0720086000E000BF00BF8848DD
:103A20000068082858D2DFE800F0040E18222C366F
:103A3000414C4FF4E4717F4800F095FC08217D482B
:103A400000F08FFC49E04FF4E4717A4800F08BFC01
:103A50008821784800F085FC3FE04FF4E471754818
:103A600000F081FC8021734800F07BFC35E04FF4CE
:103A7000E471704800F077FCC0216E4800F071FCE2
:103A80002BE04FF4E4716B4800F06DFC4021694875
:103A900000F067FC21E04FF4E471664800F063FC3D
:103AA0004FF4A071634800F05CFC16E04FF4E47141
:103AB000604800F058FC4FF480715E4800F051FC03
:103AC0000BE04FF4E4715B4800F04DFC4FF484715F
:103AD000584800F046FC00E000BF00BF10BD10B524
:103AE0005848407810B1012814D109E056480068C0
:103AF000401C55490860082801DB002008600AE0E6
:103B000051480068401E50490860082801DB072022
:103B1000086000E000BF00BF4B48006808285CD286
:103B2000DFE800F0040F1A25303B465043F602014F
:103B3000414800F018FC4FF400513F4800F011FCE0
:103B40004CE043F602013C4800F00DFC4FF44051BC
:103B5000394800F006FC41E043F60201364800F027
:103B600002FC4FF48051344800F0FBFB36E043F692
:103B70000201314800F0F7FB4FF4C0512E4800F02D
:103B8000F0FB2BE043F602012B4800F0ECFB4FF476
:103B90000061294800F0E5FB20E043F602012648D9
:103BA00000F0E1FB40F60201234800F0DAFB15E0EB
:103BB00043F60201204800F0D6FB02211E4800F027
:103BC000D0FB0BE043F602011B4800F0CCFB42F2B5
:103BD0000201194800F0C5FB00E000BF00BF10BDA6
:103BE0000020184948700120087014204860002007
:103BF0001249487001200870142048607047002066
:103C00000E4908700F494870012008701420486060
:103C1000704700200949487001200870142048604E
:103C200000200849087070470020044908700549C1
:103C3000087070470008014000100140BC000020DF
:103C400094000020CC000020980000207FB505469D
:103C50000C460121084600F0A0FDADF80850ADF873
:103C600004400020ADF80A00ADF8060001A94FF0AD
:103C7000804001F04FF901224121880701F0C1FC89
:103C80004FF4C06000F0F2F91C208DF80000002015
:103C90008DF8010002208DF8020001208DF803004C
:103CA000684600F0E8F90121880701F08FFC7FBD2C
:103CB00010B50121880701F052FF30B301218807B8
:103CC00001F05EFF4048007810B1012808D104E0FF
:103CD00000203D494860886003E0FFF783FE00E074
:103CE00000BF00BF3848007801280ED136488068F0
:103CF000401C35498860084680684968884204D37A
:103D00000020314908708860486010BD7FB50546C5
:103D10000C460121022000F040FDADF80850ADF83E
:103D200004400020ADF80A00ADF8060001A92748BC
:103D300001F0F0F801224121244801F062FC00F07A
:103D4000B3F81D208DF8000000208DF8010003203D
:103D50008DF8020001208DF80300684600F08BF911
:103D600001211A4801F032FC7FBD10B5012117482E
:103D700001F0F5FE30B30121144801F001FF1448B1
:103D8000007810B1012808D104E0002010494860F3
:103D9000886003E0FFF7A3FE00E000BF00BF0C480F
:103DA000007801280ED10A488068401C08498860C4
:103DB000084680684968884204D300200449087096
:103DC0008860486010BD0000BC0000200004004076
:103DD000CC00002010B56FF0040000F096F92E48DA
:103DE00000682E49B0FBF1F02D49087008460078B4
:103DF00000EB4001C1EBC0104FF6FF7101EAC000BB
:103E00002849088010BD0146254A12784A434FF0E0
:103E1000E0235A6100229A611A46126942F00102B7
:103E20001A6100BF4FF0E022106900F001021AB1E0
:103E300000F48032002AF5D04FF0E022126922F01F
:103E400001024FF0E0231A6100229A617047014697
:103E5000144A12884A434FF0E0235A6100229A61C3
:103E60001A46126942F001021A6100BF4FF0E022C7
:103E7000106900F001021AB100F48032002AF5D076
:103E80004FF0E022126922F001024FF0E0231A61A4
:103E900000229A61704700007C00002000127A0026
:103EA0009C0000209E00002010B54FF4C06000F080
:103EB000DDF810BD01464906084A926942F0010248
:103EC000064B9A61064A526822F0E062044B5A603F
:103ED0001A4652680A435A607047000000100240B8
:103EE00000000140014600BF704700BF4B4A1288E6
:103EF00002F04002002AF9D0C2B2484B1B1D1A80C2
:103F0000704710B586B00446012144F2040000F069
:103F100037FC424800F098FC4FF40070ADF81400F4
:103F200003208DF8160018208DF8170005A93C48CD
:103F300000F06AF94FF48060ADF8140004208DF8A9
:103F4000170005A9364800F05FF925208DF800001C
:103F500003208DF801008DF8020001208DF8030088
:103F6000684600F088F801940020ADF80800ADF82C
:103F70000A00ADF80C00ADF810000C20ADF80E00F2
:103F800001A9264800F0A3FC012240F22551234854
:103F900000F035FD0121214800F025FD06B010BDDF
:103FA00010B540F225511D4800F00EFE10B31B481D
:103FB00000F08AFDC4B21B48008800F40040C8B974
:103FC0001848008800F4804060B10A2C03D000201B
:103FD0001449088020E01348008840F4004011494B
:103FE000088019E00D2C06D10E48008840F480406E
:103FF0000C49088010E00B480088C0F30D000A4906
:104000000C5408480088401C06490880084600886F
:10401000C72801DD0020088010BD000000380140E5
:1040200000080140A4000020E60000200948804765
:1040300009480047FEE7FEE7FEE7FEE7FEE7FEE78A
:10404000FEE7FEE7FEE7FEE704480549054A064BA2
:104050007047000013050008ED0000081002002062
:1040600010080020100400201004002031490143F2
:10407000314A1160704770B5002100230F22C478C7
:1040800004B32D4C246804F4E064C4F5E064210A10
:10409000C1F10403CA40447804FA03F1847814405F
:1040A00021430901254C0678A155047804F01F0529
:1040B0000124AC4005786D11AD0005F1E025C5F88F
:1040C000004109E0047804F01F050124AC401C4DB8
:1040D0000678761145F8264070BD1A4A0A40024318
:1040E000154B1B1F1A60704739B1134A121D126815
:1040F0000243114B1B1D1A6006E00F4A121D126885
:1041000082430D4B1B1D1A607047042808D14FF0E5
:10411000E021096941F004014FF0E022116107E05C
:104120004FF0E021096921F004014FF0E022116114
:10413000704700000000FA050CED00E000E400E02C
:1041400080E100E080FFFF1F10B50446CC488442A8
:1041500008D10121042000F02DFB0021042000F0F3
:1041600029FB46E0C748844208D10121082000F01D
:1041700021FB0021082000F01DFB3AE0C2488442E8
:1041800008D10121102000F015FB0021102000F0C3
:1041900011FB2EE0BD48844208D10121202000F00F
:1041A00009FB0021202000F005FB22E0B8488442F2
:1041B00008D10121402000F0FDFA0021402000F04C
:1041C000F9FA16E0B348844208D10121802000F0BA
:1041D000F1FA0021802000F0EDFA0AE0AE488442B6
:1041E00007D10121801500F0E5FA0021A01500F0AB
:1041F000E1FA10BD10B50121084600F0DBFA0021FC
:10420000012000F0D7FA10BD2DE9F041024600254B
:104210000026002000230024002791F803C00CF0A2
:104220000F0591F803C00CF0100CBCF1000F03D087
:1042300091F802C04CEA050591F800C0BCF1000FEE
:1042400031D0146800202BE04FF0010C0CFA00F381
:10425000B1F800C00CEA03069E4220D183004FF063
:104260000F0C0CFA03F7BC4305FA03FC4CEA0404F8
:1042700091F803C0BCF1280F06D14FF0010C0CFAE5
:1042800000FCC2F814C00AE091F803C0BCF1480F6A
:1042900005D14FF0010C0CFA00FCC2F810C0401C14
:1042A0000828D1D31460B1F800C0BCF1FF0F34DD91
:1042B000546800202EE000F1080C4FF0010808FAC5
:1042C0000CF3B1F800C00CEA03069E4221D1830032
:1042D0004FF00F0C0CFA03F7BC4305FA03FC4CEA51
:1042E000040491F803C0BCF1280F05D100F1080CBB
:1042F00008FA0CF8C2F8148091F803C0BCF1480F1A
:1043000007D100F1080C4FF0010808FA0CF8C2F8C8
:104310001080401C0828CED35460BDE8F0814FF6D1
:10432000FF710180022181700421C1707047024633
:10433000002093680B400BB1012000E00020704783
:104340000146886880B2704702460020D3680B405F
:104350000BB1012000E0002070470146C86880B220
:10436000704701617047416170470AB1016100E027
:1043700041617047C16070474FF480320A438261E7
:104380008161826182698269704702460020434BE5
:1043900018684FF68073184040EA021008433F4BFC
:1043A000186070473E49C8617047F0B50A4600235F
:1043B00000240021002500F00046B6F1004F02D194
:1043C000364EF16901E0354E7168C0F3034583B2A2
:1043D00000F44016B6F5401F08D121F070612F4E51
:1043E000766826F070662D4F7E6012E000F480162D
:1043F000B6F5801F06D1032606FA05F4A14341F065
:10440000706106E0460D360103FA06F6B14341F04D
:10441000706122B1460D360103FA06F6314300F011
:104420000046B6F1004F02D11C4EF16101E01B4E77
:104430007160F0BD30B500228B071C0F0F2303FA0B
:1044400004F2164B08338C1053F824309343134C6A
:1044500008348D1044F8253023468C1053F824304E
:104460008C07240F00FA04F423430C4C08348D10FD
:1044700044F8253030BD0A49DC310860704700003F
:1044800000080140000C01400010014000140140F0
:1044900000180140001C01400020014000000140C4
:1044A00000002042DF48006840F00100DD4908605C
:1044B00008464068DC490840DA4948600846006818
:1044C000DA490840D74908600846006820F480208F
:1044D00008600846406820F4FE0048604FF41F0062
:1044E00088607047CF49096821F48031CD4A116056
:1044F0001146096821F480211160B0F5803F03D096
:10450000B0F5802F0ED106E0C649096841F480312C
:10451000C44A116007E0C349096841F4A021C14AB7
:10452000116000E000BF00BF704710B501460022D7
:10453000002300204A11012A02D1BA4C236806E068
:10454000022A02D1B74C236A01E0B64C636A01F03B
:104550001F02012494401C400CB1012000E0002007
:1045600010BD38B5002000900024002500BF312088
:10457000FFF7DBFF05460098401C00900098B0F55F
:10458000A06F01D0002DF2D03120FFF7CEFF08B18F
:10459000012400E00024204638BD01460020A14A45
:1045A000106820F0F80040EAC10010607047A04990
:1045B00008607047024600209A4B586820F47C102F
:1045C00042EA01031843974B5860704798490866C0
:1045D000704701460020934A506820F003000843CA
:1045E000506070478F48406800F00C0070470146EB
:1045F00000208C4A506820F0F0000843506070475B
:1046000001460020874A506820F4E060084350606B
:10461000704701460020834A506820F4605040EA09
:10462000C1005060704729B17E4A527A02437D4BE7
:104630005A7204E07B4A527A82437A4B5A7270472C
:104640007B49D8310860704701460020754A5068A0
:1046500020F440400843506070470021714A2032E6
:104660001170704A82F82010012802D004280AD163
:1046700004E001216B4A2032117005E00521694AEE
:104680002032117000E000BF00BF70476949086028
:1046900070476449096A0143624A1162704765497B
:1046A00044390860704730B50021002200240023FF
:1046B0005C4D6D6805F00C0121B1042905D0082975
:1046C00023D105E05C4D056022E05B4D05601FE0F5
:1046D000544D6D6805F47012524D6D6805F48034C8
:1046E000022505EB92421CB9544D554305600BE081
:1046F0004C4D6D6805F400351DB1504D55430560B6
:1047000002E04D4D5543056002E04B4D056000BF92
:1047100000BF444D6D6805F0F0010909484D6B5C20
:104720000568DD4045603F4D6D6805F4E061090AAC
:10473000434D6B5C4568DD4085603A4D6D6805F41E
:104740006051C90A3E4D6B5C4568DD40C560354D22
:104750006D6805F44041890B3A4D6B5CC568B5FB4B
:10476000F3F5056130BD29B12E4A526902432D4B44
:104770005A6104E02B4A526982432A4B5A617047BE
:1047800029B1284A92690243264B9A6104E0254ADE
:1047900092698243234B9A61704729B1214AD269B9
:1047A0000243204BDA6104E01E4AD26982431D4B6A
:1047B000DA61704729B11B4AD2680243194BDA60AB
:1047C00004E0184AD2688243164BDA60704729B178
:1047D000144A12690243134B1A6104E0114A126928
:1047E0008243104B1A617047124940390860704784
:1047F0000F49C86470470B49C87170470948406A3F
:1048000040F0807007494862704701460020054A21
:1048100092680A400AB1012000E000207047014977
:1048200088727047001002400000FFF8FFFFF6FE9C
:10483000000042428004424200127A0000093D001A
:10484000A6000020B600002010B50446FB488442B4
:1048500009D101218803FFF7ADFF00214FF480400B
:10486000FFF7A8FF32E0F648844209D1012148044D
:10487000FFF7ADFF00214FF40030FFF7A8FF25E060
:10488000F048844209D101218804FFF7A0FF0021EC
:104890004FF48020FFF79BFF18E0EB48844209D1DA
:1048A0000121C804FFF793FF00214FF40020FFF718
:1048B0008EFF0BE0E548844208D101210805FFF78F
:1048C00086FF00214FF48010FFF781FF10BD2DE916
:1048D000F04786B005460E460024A24600BFA1461A
:1048E0000027B08900B100BF2F462C8A4CF6FF701C
:1048F0000440F08804432C82AC894EF6F310044047
:10490000B08831890843718908430443AC81AC8A7B
:104910004FF6FF400440B0890443AC8201A8FFF782
:10492000C2FEC648874202D1DDF810A001E0DDF8E2
:104930000CA0A88900F4004040B10AEBCA0000EBCB
:104940000A1031684900B0FBF1F807E00AEBCA0031
:1049500000EB0A1031688900B0FBF1F86420B8FB65
:10496000F0F004012009642101FB1089A88900F4FA
:10497000004040B1322000EBC900B0FBF1F000F084
:104980000700044308E0322000EB09106421B0FB6B
:10499000F1F000F00F0004432C8106B0BDE8F08771
:1049A0004FF41651016000218180C18001810C21EA
:1049B000418100218181704710B502460020108A94
:1049C0004FF2FF0318400B884C8823438C88234305
:1049D000CC8823431843108210BD00210180418000
:1049E0008180C180704721B1828942F40052828166
:1049F00004E082894DF6FF731A4082817047F0B55A
:104A00000346002400260025002040F66A17B9421C
:104A100000D100BF1846C1F3421401F01F06012760
:104A200007FA06F5012C01D10C3004E0022C01D16B
:104A3000103000E014301AB107682F43076002E01D
:104A40000768AF430760F0BD1AB1838A0B438382C6
:104A500002E0838A8B4383827047028A4FF6F073A9
:104A60001A400282028A0A430282704782894FF208
:104A7000FF731A40828182890A438281704721B183
:104A8000828942F00202828104E082894FF6FD733E
:104A90001A4082817047028A4FF6DF731A40028201
:104AA000028A0A430282704721B1028A42F480429C
:104AB000028204E0028A4BF6FF731A4002827047BA
:104AC000C1F308028280704701468888C0F308005D
:104AD0007047818941F0010181817047028BD2B218
:104AE0000283028B42EA012202837047028B02F4A6
:104AF0007F420283028B0A430283704721B1828A7C
:104B000042F02002828204E0828A4FF6DF731A406C
:104B10008282704721B1828A42F01002828204E0D0
:104B2000828A4FF6EF731A408282704721B1828ADF
:104B300042F00802828204E0828A4FF6F7731A403C
:104B40008282704721B1828942F40042828103E06F
:104B50008289C2F30E028281704721B1828A42F4B7
:104B60000062828204E0828A4FF2FF731A408282DE
:104B70007047828A4FF6FB731A408282828A0A4308
:104B80008282704721B1828A42F00202828204E06E
:104B9000828A4FF6FD731A408282704702460020D7
:104BA000B1F5007F00D100BF13880B400BB101208D
:104BB00000E00020704701F40072B2F5007F00D1E0
:104BC00000BFCA430280704770B50246002400232C
:104BD0000025002040F66A16B14200D100BFC1F3A3
:104BE000421501F01F03012606FA03F3012D02D13D
:104BF0009689334006E0022D02D1168A334001E047
:104C0000968A33400C12012606FA04F416883440C2
:104C100013B10CB1012000E0002070BD10B50022DE
:104C2000002340F66A14A14200D100BF0A120124F9
:104C30009440A3B2DC43048010BD00000038014062
:104C40000044004000480040004C0040005000403C
:104C5000002044490860091D0860091D0860091DFD
:104C6000086041483F4914310860704700213D49C0
:104C70008279002A3AD00A46126803689A430B46A2
:104C80001A600A1D126803689A430B1D1A600279A4
:104C900011440A6803681A430A60324A08321268EB
:104CA00003689A432F4B08331A601A1D1268036871
:104CB0009A432C4B0C331A604279102A0ED11A1FDA
:104CC000126803681A43274B08331A601A1D1268CA
:104CD00003681A43234B0C331A600DE021494279D3
:104CE00011440A6803681A430A6005E00279114416
:104CF0000A6803689A430A607047002101600171E5
:104D00000C214171002181717047164910310968E9
:104D10000143144A10321160704701460020114AC5
:104D2000143212680A400AB1012000E000207047E6
:104D30000C49143108607047014600200022094BDD
:104D40001B6803EA0102074B14331B680B4013B1C5
:104D50000AB1012000E000207047024914310860C8
:104D60007047000000040140FFFF0F0010B504462B
:104D7000FE48844208D10121C014FFF71BFD002129
:104D8000E014FFF717FDC4E0B4F1804F08D1012112
:104D90000846FFF71CFD00210120FFF718FDB8E0D1
:104DA000F348844208D101210220FFF710FD0021C1
:104DB0000220FFF70CFDACE0EE48844208D101214F
:104DC0000420FFF704FD00210420FFF700FDA0E010
:104DD000E948844208D101210820FFF7F8FC0021AE
:104DE0000820FFF7F4FC94E0E448844208D1012154
:104DF0001020FFF7ECFC00211020FFF7E8FC88E012
:104E0000DF48844208D101212020FFF7E0FC002187
:104E10002020FFF7DCFC7CE0DA48844208D1012145
:104E20004014FFF7C7FC00216014FFF7C3FC70E0DB
:104E3000D548844209D10121C804FFF7BBFC0021F9
:104E40004FF40020FFF7B6FC63E0D048844209D15C
:104E500001210805FFF7AEFC00214FF48010FFF799
:104E6000A9FC56E0CA48844209D101214805FFF750
:104E7000A1FC00214FF40010FFF79CFC49E0C5485D
:104E8000844208D101214020FFF7A1FC00214020ED
:104E9000FFF79DFC3DE0C048844208D101218020FD
:104EA000FFF795FC00218020FFF791FC31E0BB4823
:104EB000844208D101218015FFF789FC0021A0154B
:104EC000FFF785FC25E0B648844209D1012108049A
:104ED000FFF770FC00214FF48030FFF76BFC18E007
:104EE000B048844209D101214804FFF763FC002146
:104EF0004FF40030FFF75EFC0BE0AB48844208D172
:104F000001218804FFF756FC00214FF48020FFF7B1
:104F100051FC10BD00220288944B98420ED0994B50
:104F200098420BD0B0F1804F08D0914B984205D0F9
:104F3000904B984202D0904B984204D14FF68F7319
:104F40001A404B881A438D4B984207D08C4B98429D
:104F500004D04FF6FF431A40CB881A4302808B8857
:104F600083850B880385814B98420BD0854B9842F3
:104F700008D08B4B984205D08A4B984202D08A4B7E
:104F8000984201D10B7A038601238382704770B562
:104F9000002400220023058C4FF6FE763540058460
:104FA000028C8388048B4FF68F752C40B51E2C40E5
:104FB0000D882C43751E2A400D892A434D882A43AB
:104FC0006A4DA8420BD06F4DA84208D0744DA8423C
:104FD00005D0744DA84202D0734DA84213D14FF6AC
:104FE000F7752A404D892A434FF6FB752A408D8874
:104FF0002A434FF6FF652B404FF6FF552B408D8916
:105000002B43CD892B4383800483CD8885860284FE
:1050100070BD70B5002400220023058C4FF6EF769A
:1050200035400584028C8388048B48F6FF752C403C
:105030004FF6FF452C400D884FF6FF7606EA052512
:105040002C434FF6DF752A400D8906EA05152A43E1
:105050004D8806EA05152A43444DA84202D0494D21
:10506000A8421DD14FF67F752A404D894FF6FF7635
:1050700006EA05152A434FF6BF752A408D8806EAD1
:1050800005152A434FF6FF352B404FF2FF752B4095
:105090008D8906EA85052B43CD8906EA85052B43D4
:1050A00083800483CD880587028470BD70B5002499
:1050B00000220023058C4FF6FF6635400584028CE4
:1050C0008388848B4FF68F752C404FF6FC752C40EF
:1050D0000D882C434FF6FF552A400D894FF6FF7679
:1050E00006EA05252A434D8806EA05252A431F4D71
:1050F000A84202D0234DA8421DD14FF2FF752A408D
:105100004D894FF6FF7606EA05252A434FF6FF350F
:105110002A408D8806EA05252A434EF6FF752B4066
:105120004DF6FF752B408D8906EA05152B43CD8979
:1051300006EA05152B4383808483CD888587028406
:1051400070BD70B5002200230024058C4EF6FF765A
:1051500035400584038C8488828B48F6FF752A408D
:105160004FF6FF452A400D8820E00000002C01404A
:105170000004004000080040000C00400010004007
:105180000014004000340140004C01400050014038
:105190000054014000180040001C00400020004066
:1051A0000040014000440140004801404FF6FF76B6
:1051B00006EA05252A434DF6FF752B400D8906EAC0
:1051C00005352B434D8806EA05352B43FA4DA84299
:1051D00002D0FA4DA84208D14BF6FF752C408D89BC
:1051E0004FF6FF7606EA85152C4384808283CD88AE
:1051F000A0F84050038470BD828B4FF2FF331A40F9
:105200008283828B4FF6FF7303EA01231A43828362
:105210007047F0B50C461546002200210026078C89
:105220004EF6FF7C07EA0C070784828B018C4FF651
:10523000FF7707EA043640F6FF473A404FF6FF771C
:1052400007EA05273A434FF6FF7707EA03373A4361
:10525000D94FB8420ED0D94FB8420BD0B0F1804FE1
:1052600008D0D74FB84205D0D64FB84202D0D64F5B
:10527000B84206D14DF6FF77394046F4805739439E
:1052800005E047F6FF57394044F48057394382839D
:105290000184F0BD828B4FF6F3731A408283828BB8
:1052A0000A4382837047F0B50C4615460022002160
:1052B0000026078C4FF6FF6C07EA0C070784828BE9
:1052C000018C4FF6FF7707EA04264FF60C773A4039
:1052D0004FF6FF7707EA03172F433A43B64FB8421A
:1052E0000ED0B64FB8420BD0B0F1804F08D0B44FBB
:1052F000B84205D0B34FB84202D0B34FB84206D13E
:105300004FF6FF57394046F48077394305E04FF2B6
:10531000FF57394044F48077394382830184F0BDDC
:10532000028B4FF2FF331A400283028B4FF6FF735A
:1053300003EA01231A4302837047F0B50C46154671
:10534000002200210026078C4FF6EF7C07EA0C07AD
:105350000784028B018C4FF6FF7707EA041640F6AC
:10536000FF473A404FF6FF7707EA03373A434FF6D5
:10537000FF7707EA05273A438F4FB8420ED08F4F89
:10538000B8420BD0B0F1804F08D08D4FB84205D055
:105390008C4FB84202D08C4FB84206D14FF6DF771F
:1053A000394046F01007394305E04FF65F77394042
:1053B00044F01007394302830184F0BD028B4FF69D
:1053C000F3731A400283028B0A4302837047F0B5DD
:1053D0000C46154600220021068C4FF6FE773E4013
:1053E0000684028B018C4FF60C7632407E1C06EA56
:1053F00003162E433243704EB0420ED06F4EB04271
:105400000BD0B0F1804F08D06D4EB04205D06D4E3C
:10541000B04202D06C4EB04206D14FF6FD7631401C
:1054200044F00106314305E04FF6F576314044F093
:105430000106314302830184F0BD70B505460C4678
:105440005D4885420ED05D4885420BD0B5F1804F56
:1054500008D05B48854205D05A48854202D05A4858
:10546000854200D100E000BF208850B92389A2887E
:1054700061882846FFF7ABFFE1882846FFF79EFFCB
:1054800025E0208804280AD12389A288618828463B
:10549000FFF753FFE1882846FFF742FF17E0208817
:1054A00008280AD12389A28861882846FFF7FBFED5
:1054B000E1882846FFF7EEFE09E02389A28861888B
:1054C0002846FFF7A6FEE1882846FFF795FE70BD47
:1054D0002DE9F04105460C4600260127608808B9F1
:1054E000022600E00026A088012801D1022700E062
:1054F00001272088A0B92389A28861882846FFF760
:1055000066FFE1882846FFF759FF23893A4631466E
:105510002846FFF712FFE1882846FFF701FF13E056
:105520002389A28861882846FFF707FFE18828467B
:10553000FFF7F6FE23893A4631462846FFF747FF34
:10554000E1882846FFF73AFFBDE8F0810A884B88DA
:105550001A438B881A43CB881A430B891A434B8909
:105560001A438B891A43A0F8442070474FF6FF7105
:10557000818000210180C18041800172704700213B
:10558000018041808180C180018141818181C1810F
:105590007047002101804180012181800021C1806C
:1055A000018170470021018041808180C18001819B
:1055B0004181818170470000002C0140003401408E
:1055C0000004004000080040000C004021B10288A7
:1055D00042F00102028004E002884FF6FE731A4096
:1055E0000280704731B1B0F8442042F40042A0F884
:1055F000442005E0B0F84420C2F30E02A0F8442095
:1056000070471AB183890B43838102E083898B43FE
:10561000838170478182704741EA0203A0F84830D5
:1056200070471AB183890B43838102E083898B43DE
:105630008381704701894FF6F872114001817047EC
:105640000A46002101894FF68F73194011430181E9
:10565000704730B504460D4629462046FFF7F0FF57
:10566000208940F00700208130BD2DE9F04104463B
:105670000D4616461F46602D06D13B460122314697
:105680002046FFF75AFE05E03B4601223146204600
:10569000FFF79DFE29462046FFF7D2FF208940F004
:1056A00007002081BDE8F08130B50C46002101895A
:1056B000C9B24FF6FF7505EA032515432543294373
:1056C000018130BD2DE9F04105460E46174698464A
:1056D000002443463A4631462846FFF7E5FF2C8929
:1056E0004FF6F870044044F007044FF68F70044002
:1056F00044F070042C81BDE8F081F0B504460D46FD
:1057000016461F463B46324629462046FFF7CCFF49
:10571000208940F480402081F0BD0185828270475D
:105720000A46002101884FF68F731940114301800A
:105730007047F0B50C4615461E4600210022002396
:105740000189028B038C4FF6F877394021434FF6DD
:10575000FC473A4040F201173A434FF6DD773B40B1
:105760004FF6FF7707EA06172F433B430181028379
:105770000384F0BD0A460021018B4FF68F73194058
:105780001143018370470A460021018B48F6FF73DD
:1057900019404FF6FF7303EA022319430183704750
:1057A0000A460021818B4FF68F7319401143818384
:1057B00070470A460021818B48F6FF7319404FF667
:1057C000FF7303EA022319438183704721B10288E2
:1057D00042F08002028004E002884FF67F731A4094
:1057E0000280704721B1828842F00402828004E086
:1057F00082884FF6FB731A408280704721B18288FD
:1058000042F00802828004E082884FF6F7731A4063
:105810008280704721B1828842F00102828004E0D8
:1058200082884FF6FE731A40828070470A46002134
:10583000018B4FF6F77319401143018370470A46F5
:105840000021018B4FF2FF7319404FF6FF7303EAFB
:1058500002231943018370470A460021818B4FF6CA
:10586000F77319401143818370470A460021818BE9
:105870004FF2FF7319404FF6FF7303EA02231943F7
:10588000818370470A460021018B4FF6FB73194054
:105890001143018370470A460021018B4FF6FF3305
:1058A00019404FF6FF7303EA02231943018370473F
:1058B0000A460021818B4FF6FB7319401143818307
:1058C00070470A460021818B4FF6FF3319404FF68F
:1058D000FF7303EA02231943818370470A460021BC
:1058E000018B4FF67F7319401143018370470A46BD
:1058F0000021018BC1F30E014FF6FF7303EA02236F
:105900001943018370470A460021818B4FF67F734C
:1059100019401143818370470A460021818BC1F3EE
:105920000E014FF6FF7303EA022319438183704788
:105930000A460021018C4FF6FD7319401143018482
:1059400070470A460021018C4FF6F7731940114346
:10595000018470470A460021018C4FF6DF7319401D
:105960004FF6FF7303EA02131943018470470A4696
:105970000021018C4FF67F7319404FF6FF7303EA45
:1059800002131943018470470A460021018C4FF627
:10599000FF5319404FF6FF7303EA022319430184B2
:1059A00070470A460021018C4FF2FF7319404FF6F1
:1059B000FF7303EA02231943018470470A4600215A
:1059C000018C4DF6FF7319404FF6FF7303EA023363
:1059D00019430184704730B5002301248C40A3B2E1
:1059E000048C9C430484048C02FA01F5ADB22C4370
:1059F000048430BD30B5002304248C40A3B2048C51
:105A00009C430484048C02FA01F5ADB22C43048457
:105A100030BD70B50346002000241846183001251B
:105A20008D40ACB21D8CA5431D8409B1082909D154
:105A300000EB6100056825F07005056005681543F9
:105A400005600EE00D1FC5F34E052844056825F4DA
:105A5000E045056005684FF6FF7606EA0226354305
:105A6000056070BD21B1028842F00202028004E0AC
:105A700002884FF6FD731A400280704721B10288F8
:105A800042F00402028004E002884FF6FB731A40E1
:105A90000280704721B1828842F08002828004E057
:105AA00082884FF67F731A408280704702884FF6D3
:105AB000F7731A40028002880A4302807047828886
:105AC0004FF68F731A40828082880A438280704723
:105AD00002894FF6F8731A40028102890A43028153
