:020000040800F2
:10000000F80600202D0200084B440008770B00087A
:1000100049440008550700085D550008000000002D
:10002000000000000000000000000000334B00084A
:100030005707000800000000A9470008F54B00081A
:10004000470200084702000847020008470200086C
:100050004702000847020008590700084702000845
:1000600091070008C90700080108000847020008B6
:10007000470200084702000847020008470200083C
:10008000470200084702000847020008470200082C
:100090004702000847020008470200087D080008E0
:1000A000470200084702000847020008470200080C
:1000B00047020008314D0008654D0008470200085E
:1000C00047020008470200084702000847020008EC
:1000D00047020008C1530008470200084702000811
:1000E00047020008470200084702000847020008CC
:1000F00047020008470200084702000847020008BC
:100100004702000847020008214E00084702000885
:100110004702000847020008A94E000847020008ED
:10012000470200084702000847020008470200088B
:1001300000F002F800F06BF80AA090E8000C82448E
:100140008344AAF10107DA4501D100F060F8AFF26B
:10015000090EBAE80F0013F0010F18BFFB1A43F0A5
:100160000103184798860000B88600000A444FF043
:10017000000C10F8013B13F0070408BF10F8014B06
:100180001D1108BF10F8015B641E05D010F8016B4B
:10019000641E01F8016BF9D113F0080F1EBF10F8AF
:1001A000014BAD1C0C1B09D16D1E58BF01F801CBD2
:1001B000FAD505E014F8016B01F8016B6D1EF9D555
:1001C0009142D6D37047000000230024002500266A
:1001D000103A28BF78C1FBD8520728BF30C148BFAA
:1001E0000B607047642900F0B180752900F0AE8083
:1001F000782900F0E780632900F05982732900F024
:100200005E82002070471FB51FBD10B510BD00F005
:1002100071FA1146FFF7F7FF05F0BCFA00F08FFA0C
:1002200003B4FFF7F2FF03BC05F0A0F909488047CB
:1002300009480047FEE7FEE7FEE7FEE7FEE7FEE7C8
:10024000FEE7FEE7FEE7FEE704480549034A054BE3
:1002500070470000F94B000831010008F802002047
:10026000F8060020F8020020704700000FB404498F
:1002700010B503AA029800F027FA10BC5DF814FB31
:10028000600000200FB41CB5074B06AA7B446946EA
:100290000090059800F0E9F90020694600F0F8F9AF
:1002A0001CBC5DF814FB00000104000070B504469E
:1002B00085690068C10601D5302600E02026C00708
:1002C00007D070BDD4E9012130469047206A401C18
:1002D00020626D1EF6D570BD70B504468569007844
:1002E000C00707D170BDD4E9012120209047206AC2
:1002F000401C20626D1EF6D570BD70B50C460546DB
:10030000012A05D02878800600D5EA69002302E09A
:10031000012305E05B1C934202D2E05C0028F9D186
:10032000A869E618C01AA861286A184428622846F5
:10033000FFF7BCFF04E0D5E9012114F8010B904759
:10034000B442F8D32846FFF7C7FF70BD2DE9F0414E
:100350000646002410687529314616A510D0AFF363
:100360000080002802DA404213A507E031688A07BE
:1003700001D512A502E0490704D511A5012401E029
:10038000AFF3008000210A2206F1240709E0B0FB48
:10039000F2FCB0FBF2F302FB1C003030785418463C
:1003A000491C0028F3D123462A463046BDE8F041D7
:1003B00000F0FCB8000000002D0000002B00000041
:1003C0002000000070B504460D4621461068AFF3CA
:1003D00000802188090502D50F4A7A4402E00E4ABE
:1003E0007A440E32002104F1240305E000F00F06E8
:1003F0000009965D5E54491C0028F7D1207800233F
:10040000000704D5702D02D009B102231132204615
:10041000BDE8704000F0CAB8768200002DE9F05FB8
:10042000894604464FF0000ADFF874B1FB44C0F877
:1004300020A02046E1688847002874D0252806D0EF
:10044000D4E901219047206A401C2062F1E7002690
:100450005F462046E16888472028054607DB312DA6
:1004600005D2781910F8200C08B10643F1E7B0075F
:1004700001D526F00406C4F81CA00027C4F818A073
:100480002A2D09D0284605F06AF838B304EB87080E
:10049000303DC8F8185019E059F8041B204604EB09
:1004A00087029161E1688847012F054618D1E0690C
:1004B000002820DA26F020061DE0D8F8180000EB0E
:1004C000800005EB40003038C8F818002046E1688D
:1004D0008847054605F043F80028EED1012F0AD0E1
:1004E0002E2D08D12046E16888477F1C0546022F43
:1004F00046F02006C4DBA069002803DA404246F03B
:100500000106A061F00701D026F010066C2D0BD07B
:10051000682D09D04C2D39D06A2D35D0742D35D0A9
:100520007A2D33D016E038E0E1682F462046884720
:10053000B842054609D16C2F26D04FF48060E1689F
:10054000064320468847054604E06C2F1AD04FF436
:10055000807006430DB3A5F14100192802D820355B
:1005600046F400664A462946204626604E46FFF776
:1005700039FE80B101280BD0F61D26F0070000F1EE
:10058000080956E74020E4E78020D8E70020D6E7B6
:1005900006F104094DE7284652E7206ABDE8F09FBE
:1005A0004C82000070477047704770472DE9F04754
:1005B0000D4699469246044600F1240801688806D3
:1005C00004D5E06921F01001216000E00120A8427B
:1005D00001DD471B00E00027A1697A1902EB090041
:1005E000081AA0612078C00602D42046FFF75EFEFC
:1005F000002608E0D4E901211AF806009047206A95
:10060000401C761C20624E45F4DB2078C0060AD5DB
:100610002046FFF74BFE06E0D4E901213020904749
:10062000206A401C2062381EA7F10107F4DC07E0B5
:10063000D4E9012118F805009047206A401C206287
:10064000281EA5F10105F3DC2046FFF745FE2078C2
:10065000000602D50220BDE8F0870120FBE700007C
:1006600001694A1C02610878704700B58FB0CDE976
:1006700001310021059105497944CDE90310114666
:100680006846FFF7CBFE0FB000BD0000E5FFFFFF9F
:100690000A6802F8010B0A60704710B5436913B18C
:1006A000AFF3008001E0FFF728FE012010BD1278B3
:1006B00000F124010A7000224A700122EDE711685E
:1006C0004FF0FF32E9E70000074B70B50D467B4461
:1006D000FFF7CBFF0446284600F008F810B14FF0B2
:1006E000FF3070BD204670BDAB500000007B00F0B5
:1006F00080007047754600F029F8AE46050069464F
:10070000534620F00700854618B020B5FFF79CFD42
:10071000BDE820404FF000064FF000074FF0000802
:100720004FF0000B21F00701AC46ACE8C009ACE883
:10073000C009ACE8C009ACE8C0098D467047044662
:10074000AFF300802046FFF76BFD000000487047C4
:1007500098020020FEE7704710B50A2004F0DAFF87
:100760000121094800F0FCF9012806D10749D1F818
:10077000A00138B10020C1F8A001BDE8104001205F
:1007800000F09EB80120F6E70008014000802142F9
:1007900010B50A2004F0BEFF0421094800F0E0F97A
:1007A00030B90849D1F8940138B10020C1F894015A
:1007B000BDE81040042000F083B80120F6E70000F7
:1007C000001801400080214210B50A2004F0A2FF69
:1007D0000821094800F0C4F930B90849D1F894015A
:1007E00038B10020C1F89401BDE81040082000F0A5
:1007F00067B80120F6E7000000180140000023421E
:1008000010B50A2004F086FF1021094800F0A8F96D
:1008100030B90849D1F8940138B10020C1F89401E9
:10082000BDE81040102000F04BB80120F6E70000B2
:1008300000180140008021423EB50821002000F050
:1008400001F94FF48070002400908DF804400820D6
:100850008DF8050001258DF80650684600F046F831
:1008600017208DF808008DF809408DF80A408DF8A2
:100870000B5002A803F0EAFD3EBD000010B54FF496
:100880008074204600F022F801280DD1094A00208A
:10089000C2F898010121C2F898110748C0F88C11DC
:1008A00006480178491C01702046BDE8104000F060
:1008B00007B8000000802242008021425200002040
:1008C000014908607047000014040140064A0146CF
:1008D00000201268044B0A4014331B680B4202D0FC
:1008E000002A00D0012070470004014030B51A4AA8
:1008F0008379016853B313688B431360111D0B6830
:100900000468A3430B60017911440B680468234316
:100910000B60114B083319680468A14319601C1D52
:1009200021680568A94321604179102905D0114447
:100930000A68006802430A6030BD19680268114302
:100940001960216800680143216030BD00791044BE
:1009500002688A43026030BD000401408000A0F1BB
:10096000C0400029016802D041F0010101E0024AC3
:100970001140016070470000FEFF0F0010B5D0E984
:1009800001121143D0E903231A4311434269114371
:1009900082691143C2691143026A1143426A1143D9
:1009A000826A1143C26A1143026B114302689200CA
:1009B000A2F1C04211608168082907D1016889004D
:1009C000A1F1C0410A6842F040020A60416BD1E9DE
:1009D000002342EA03128B688C891B0243EA04431A
:1009E0001A430B8A42EA03520B7D896942EA036289
:1009F0000A4301688900A1F1C0414A60C16AB1F5AA
:100A0000804F08D000686FF070418000A0F1C040B6
:100A1000C0F8041110BD816BD1E9002342EA031232
:100A20008B680C8A1B0243EA04531A430B7D8969C5
:100A300042EA036200680A438000A0F1C040C0F8A7
:100A4000042110BD10B58A0721F003040649120FD6
:100A500021440F238C6893409C438C608B689040AA
:100A600003438B6010BD000000000140F0B5CC785E
:100A7000002204F00F03E40601D58C7823430C78A0
:100A80004FF00F0C14F0FF0F4FF0010E1BD0056854
:100A90000E880EFA02F42640A64210D196000CFAF7
:100AA00006F725EA070703FA06F5CE783D43282E18
:100AB00002D0482E02D002E0446100E00461521CE2
:100AC000082AE5D305600A88FF2A1CD94468002259
:100AD00002F108060EFA06F50E882E40AE420ED13F
:100AE00096000CFA06F7BC4303FA06F7CE783C43AF
:100AF000282E00D14561CE78482E00D10561521CC8
:100B0000082AE5D34460F0BDF0B5144C002801DAA2
:100B1000E36900E06368450D2E0185B2C0F301571B
:100B2000B540C0F30342032F05D0C6020AD5032601
:100B30009640B34307E023F07062636823F070636C
:100B4000636002E0AB4343F0706201B12A430028C6
:100B500001DAE261F0BD6260F0BD0000000001401A
:100B60000246002092680A4200D00120704741618D
:100B7000704701617047FEE708B50121442003F08A
:100B80002DFE1C20ADF8000048208DF803006946BA
:100B90000648FFF76BFF0120ADF8000028208DF814
:100BA000030069460248FFF761FF08BD00180140D5
:100BB000000801402DE9F0412E4C2F4F2F4D01260A
:100BC00008B1267001E02078A0B110212846FFF777
:100BD000C7FFB0B108212846FFF7C2FF88B1042142
:100BE0002846FFF7BDFF60B101213846FFF7B8FF87
:100BF000012806D010212846FFF7B2FF012824D093
:100C000035E00A2004F086FD0020207010212846DF
:100C1000FFF7A6FF80B108212846FFF7A1FF70B1BA
:100C200004212846FFF79CFF58B101213846FFF701
:100C300097FF012807D01AE00120BDE8F0810220CB
:100C4000FBE70320F9E70420F7E708212846FFF730
:100C500087FF01280BD104212846FFF781FF0128D7
:100C600005D101213846FFF77BFF00B9267000202F
:100C7000E3E70000480000200008014000180140A0
:100C80002DE9F043174F0646002438887D884543F8
:100C9000B888A0F5D041043902D1B879012807D02D
:100CA0000021084603F0A4F903F094FB0E4815E078
:100CB0000020B8714FF02A09A7F80A904FF02B08CE
:100CC000A7F80C80014603F093F90120B871A7F84A
:100CD0000A80A7F80C90E7E70680641CAC42FBD3BF
:100CE000BDE8F083C00100200008006C2DE9F04F42
:100CF0004A492A232B24898845F2105A4FF4305B45
:100D00004FF4285E4FF448754FF0F00C49F241392A
:100D10004FF4A07745F210364FF4F07280B13F489F
:100D20004FF00108494580F806800780A0F802C00E
:100D300001D0B1423ED12C2505814381848157E009
:100D400036484FF00008494580F80680A0F800C0FA
:100D5000478006D0A1F5D04CBCF1040C01D0B142C3
:100D60000CD12C2505814381A1F5D0438481043B1E
:100D700001D0B14244D10780428041E0514507D1C2
:100D8000A0F808B0A0F80AE04FF42C5181810EE0E1
:100D9000A1F5C856633E06D0222101812021418160
:100DA000212181812CE02C210181448183810280D9
:100DB000458025E0A1F5D04CBCF1040C09D051458B
:100DC0000BD1A0F808B0A0F80AE04FF42C538381AF
:100DD00021E02C250581448109E0A1F5C85CBCF126
:100DE000630C12D02223038121234381202383819A
:100DF000A1F5D043043B01D0B14201D1028047802C
:100E0000BDE8F04F002003F01FB84FF02C0CA0F805
:100E100008C04381848105804280E9E7C001002049
:100E20002DE9F04FDFF80C81934642460B46B8F8A7
:100E300004500C0ADFF800A19189060A5289A5F531
:100E400013470AF10209413F18D0A5F5A647103F04
:100E500014D0B7F500771CD04746A5F5C85CBE791D
:100E60003F883F1A7F1EBCF1630C27D0A5F5D04CFC
:100E7000BCF1040C3AD0012E4AD04AE0AAF8002076
:100E80004A46A9F80060C0B2A9F80000AAF800100C
:100E90003AE0AAF80020A9F80060521CAAF8002045
:100EA000C0B2A9F80000AAF80010A9F80040491C37
:100EB000AAF80010D8B2A9F8000033E006B9B8B219
:100EC000AAF80020050A4A46A9F80050C7B2A9F8B6
:100ED0000070A9F80050C0B2A9F80000AAF80010EC
:100EE000A9F80040D8B2A9F800000DE0012E00D109
:100EF000B8B2AAF80020050A4A46A9F80050C0B2C4
:100F0000A9F80000AAF800101480D8B2108009E0F7
:100F1000B8B20146104603F067FAB8F80C0019465B
:100F200003F062FAB8F80810AAF80010A9F800B0A7
:100F3000BDE8F08FC0010020FE07006C2DE9F843EA
:100F40001F4D1F468046AB88089EA3F5D04004384D
:100F500002D1A879012807D0A2EB0800401C85B275
:100F60000C46DFF8609028E02B880846991A002488
:100F7000AC713A462A24A3EB08036C812B27491E47
:100F80005B1EAF8189B29BB20096FFF7D7FF0120AD
:100F9000A8716F81AC81BDE8F8832146404603F01B
:100FA00027F803F017FA0020494602E00E80401CA3
:100FB00080B2A842FAD3641CA4B2BC42EDD9EAE7DD
:100FC000C00100200008006C2DE9F04F01210E0245
:100FD0009FB0304603F0EAFB01214FF4B47003F0F8
:100FE000FDFB0127ADF83C704FF010088DF83F80F5
:100FF00003248DF83E400FA9FE48FFF737FD4CF261
:101000003370ADF83C0018258DF83F508DF83E4008
:101010000FA9F948FFF72AFD4FF68070ADF83C00A4
:101020008DF83F508DF83E400FA9F448FFF71EFDA4
:1010300041F20100ADF83C008DF83F508DF83E4084
:101040000FA9EF48FFF712FD00200F21CDE918018D
:101050001A901B901C901D901090CDE91104CDE9C1
:101060001607149006211590CDE90010CDE902086D
:10107000139004903101CDE9080106900590079086
:101080008900CDE90A010C9017A80D9010A80E90C8
:101090006846FFF773FC01210620FFF75FFC322052
:1010A00004F038FB002002F0A5FED64DD64C49F2E4
:1010B0004139A88046F6040A45F2103B45F2105724
:1010C0004FF6FF78FF2804D3404502D0B0F5134F08
:1010D00070D1D320208002F083FEA88002F080FE31
:1010E000A88002F07DFE08EA00204146A88002F0B8
:1010F00077FEAA881043A88048455BD0BF20208097
:1011000002F06EFEA88002F06BFEA88002F068FE7E
:10111000A88002F065FE01EA0020A88002F060FECF
:10112000AA881043A880504544D0D420208002F0E3
:1011300057FEA88002F054FEA88002F051FE01EA9A
:101140000020A88002F04CFEAA881043A8805845D1
:1011500030D04FF45A40208002F042FEA8804FF475
:101160005B40208002F03CFE01EA0020A8804FF4A2
:101170005C40208002F034FEAA881043A880B0F5BD
:10118000004F7DD0B84215D0A120208002F028FE6B
:10119000A88002F025FE01EA0020A88002F020FECF
:1011A000A9880843A0F5AE41A880613902D141F673
:1011B0006310A880A98895A0FFF758F8A888924DD9
:1011C000AD1C48457ED1CF20208000202880C12042
:1011D000288030202880ED20208064202880032073
:1011E00028801220288081202880E82020808520E7
:1011F0002880102028807A202880CB202080392049
:1012000028802C202880002028803420288002205C
:101210002880F720208020202880EA2020800020BD
:1012200028802880C02020801B202880C12020808A
:1012300001202880C5202080302028802880C720D9
:101240002080B720288036202080482028803A201F
:10125000208055202880B1202080002028801A205E
:101260002880B62020800A202880A2202880F22012
:10127000208000202880262020800120288000E077
:1012800051E0E02020800F2028802A20288028207C
:101290002880082028800E202880082028805420BC
:1012A0002880A9202880432028800A2028800F2019
:1012B000288000202880288028802880E120208025
:1012C000002000E031E028801520288017202880A9
:1012D0000720288011202880062028802B202880A5
:1012E000562028803C202880052028801020288037
:1012F0000F2028803F20288028800F2028802B2046
:101300002080002028802880012028803F202880FD
:101310002A2020800020288028802880EF20288014
:101320001120208084E0AF8044E7504576D1112021
:101330002080142004F0EEF9D0202080072028809F
:10134000422028801D202880D12020800020288055
:101350001A20288009202880D2202080012028807F
:1013600022202880C0202080102028803B20288038
:10137000002028800220288011202880C52020807D
:1013800003202880C8202080002028802520288055
:101390002120288005202880002028800A202880FD
:1013A00065202880252028807720288050202880CC
:1013B0000F20288000202880F8202080012028800D
:1013C000FE202080002028800220288020202080ED
:1013D00036202080082028803A2020805520288030
:1013E0002B202080002028802880012028803F207A
:1013F000288014E0000C0140001401400018014056
:1014000000200140C0010020FE07006C204C434436
:101410002049443A25780D0A000000000EE02A20F9
:10142000208000202880288001202880DF2028803C
:10143000782004F06FF9292001F02DBC58457DD1AA
:10144000ED20208001202880FE202880EE202080B2
:10145000DE20288021202880F12020800120288083
:10146000DF20208010202880C42020808F2028802A
:10147000C620208000202880E22028802880288024
:10148000BF202080AA202880B02020800D20288026
:10149000002028800D20288000202880112028800E
:1014A00000202880192028800020288021202880E2
:1014B000002028802D202880002028803D202880A2
:1014C000002028805D202880002028805D20288042
:1014D00000202880B12020808020288000202880C3
:1014E0008B202880002028809620288000202880BB
:1014F000B220208000202880288002202880002020
:1015000028800320288000202880B320208000200D
:10151000288028802880288028802880288028808B
:10152000288028802880288028802880288028807B
:101530002880288028802880288000E0FEE32880FA
:1015400028802880B42020808B20288000202880BC
:101550009620288000202880A12028800020288034
:10156000B5202080022028800020288003202880A9
:10157000002028800420288000202880B620208099
:10158000002028802880B720208000202880288004
:101590003F202880002028805E202880002028808E
:1015A00064202880002028808C202880002028802B
:1015B000AC20288000202880DC2028800020288083
:1015C00070202880002028809020288000202880FB
:1015D000EB20288000202880DC2028800020288024
:1015E000B82020800020288028802880288028801B
:1015F000288028802880BA2020802420288000206D
:10160000288028802880C120208020202880002059
:1016100028805420288000202880FF202880002057
:101620002880C22020800A202880002028800420D2
:10163000288000202880C32020803C202880002093
:1016400028803A2028800020288039202880002007
:10165000288037202880002028803C2028800020F7
:1016600028803620288000202880322028800020F2
:1016700028802F202880002028802C2028800020EF
:1016800028802920288000202880262028800020EB
:1016900028802420288000202880242028800020E2
:1016A000288023202880002028803C2028800020BB
:1016B00028803620288000202880322028800020A2
:1016C00028802F202880002028802C20288000209F
:1016D000288029202880002028802620288000209B
:1016E0002880242028800020288024202880002092
:1016F00028802320288000202880C4202080622089
:101700002880002028800520288000202880842030
:10171000288000202880F0202880002028801820A1
:10172000288000202880A4202880002028801820DD
:1017300028800020288050202880002028800C202D
:1017400028800020288017202880002028809520CD
:10175000288000202880F320288000202880E62090
:10176000288000202880C52020803220288000206A
:1017700028804420288000202880652028800020A0
:10178000288076202880002028808820288000203B
:101790002880C62020802020288000202880172034
:1017A0002880002028800120288000202880C72051
:1017B000208000202880288028802880C820208041
:1017C00000202880288028802880C92020800020B0
:1017D00028802880288028802880288028802880C9
:1017E00028802880288028802880288028802880B9
:1017F000E020208016202880002028801C202880BF
:101800000020288021202880002028803620288061
:101810000020288046202880002028805220288010
:101820000020288064202880002028807A202880BA
:10183000002028808B202880002028809920288064
:1018400000202880A820288000202880B920288017
:1018500000202880C420288000202880CA202880DA
:1018600000202880D220288000202880D9202880AD
:1018700000202880E020288000202880F320288075
:1018800000202880E1202080162028800020288049
:101890001C202880002028802220288000202880EA
:1018A000362028800020288045202880002028809D
:1018B0005220288000202880642028800020288052
:1018C0007A202880002028808B20288000202880F3
:1018D0009920288000202880A820288000202880A7
:1018E000B920288000202880C4202880002028805B
:1018F000CA20288000202880D2202880002028802C
:10190000D820288000202880E020288000202880FF
:10191000F320288000202880E220208005202880D5
:10192000002028800B202880002028801B20288071
:10193000002028803420288000202880442028800F
:10194000002028804F2028800020288061202880C7
:101950000020288079202880002028808820288066
:10196000002028809720288000202880A62028801A
:1019700000202880B720288000202880C2202880CE
:1019800000202880C720288000202880D12028809F
:1019900000202880D620288000202880DD20288074
:1019A00000202880F320288000202880E320208049
:1019B00005202880002028800A20288000202880F8
:1019C0001C202880002028803320288000202880A8
:1019D0004420288000202880502028800020288053
:1019E00062202880002028807820288000202880FD
:1019F00088202880002028809720288000202880A8
:101A0000A620288000202880B72028800020288059
:101A1000C220288000202880C7202880002028801D
:101A2000D120288000202880D520288000202880F0
:101A3000DD20288000202880F320288000202880B6
:101A4000E420208001202880002028800120288098
:101A50000020288002202880002028802A2028803A
:101A6000002028803C202880002028804B202880CF
:101A7000002028805D202880002028807420288075
:101A8000002028808420288000202880932028801F
:101A900000202880A220288000202880B3202880D1
:101AA00000202880BE20288000202880C420288094
:101AB00000202880CD20288000202880D320288066
:101AC00000202880DD20288000202880F320288026
:101AD00000202880E5202080002028802880288081
:101AE00028800220288000202880292028800020AB
:101AF00028803C202880002028804B20288000203F
:101B000028805D20288000202880742028800020E4
:101B1000288084202880002028809320288000208E
:101B20002880A220288000202880B3202880002040
:101B30002880BE20288000202880C4202880002003
:101B40002880CD20288000202880D32028800020D5
:101B50002880DC20288000202880F3202880002096
:101B60002880E62020801120288000202880342032
:101B70002880002028805620288000202880762079
:101B80002880002028807720288000202880662058
:101B90002880002028808820288000202880992004
:101BA000288000202880BB202880002028809920C1
:101BB000288000202880662028800020288055204A
:101BC000288000202880552028800020288045205B
:101BD000288000202880432028800020288044205E
:101BE000288000202880E7202080322028800020C4
:101BF00028805520288000202880762028800020FA
:101C000028806620288000202880672028800020E7
:101C100028806720288000202880872028800020B6
:101C200028809920288000202880BB202880002040
:101C30002880992028800020288077202880002074
:101C400028804420288000202880562028800020DA
:101C5000288023202880002028803320288000200E
:101C600028804520288000202880E820208000202F
:101C7000288028809920288000202880872028809C
:101C80000020288088202880002028807720288035
:101C90000020288066202880002028808820288036
:101CA00000202880AA20288000202880BB202880AF
:101CB0000020288099202880002028806620288005
:101CC000002028805520288000202880552028804A
:101CD000002028804420288000202880442028805C
:101CE000002028805520288000202880E92020809E
:101CF000AA20288000202880288028802080AA20F0
:101D00002880CF20208000202880288028802880DC
:101D10002880288028802880288028802880288083
:101D200028802880288028802880F020208000209B
:101D30002880502028800020288000E02CE0288087
:101D40002880F320208000202880F9202080062091
:101D500028801020288029202880002028803A20F0
:101D600020805520288011202080642003F0D2FCA0
:101D700029202080352020800020288051202080AC
:101D8000FF202880532020802C2028805520208070
:101D9000822028802C20FCE3B8427DD14FF4704390
:101DA0005521184602F020FB4FF20105AA212846D2
:101DB00002F01AFB6E1C5221304602F015FBAF1CDC
:101DC0000821384602F010FB4FF204090121484671
:101DD00002F00AFB0D214FF4304002F005FB0D210B
:101DE0004BF2010002F000FB0D214BF2020002F069
:101DF000FBFA4FF4364A3421504602F0F5FA34210A
:101E00004BF2016002F0F0FA34214BF2026002F072
:101E1000EBFA4FF4314B0D21584602F0E5FA0D2153
:101E20004BF2011002F0E0FA0D214BF2021002F029
:101E3000DBFA34214FF4374002F0D6FA34214BF26A
:101E4000017002F0D1FA34214BF2027002F0CCFAA8
:101E500000214FF4324002F0C7FA00214BF201207A
:101E600002F0C2FA00214BF2022002F0BDFA242156
:101E70004FF4384002F0B8FA24214BF6010002F08A
:101E8000B3FA24214BF6020002F0AEFA01214FF41E
:101E90003F4002F0A9FA00E0FEE30F214FF4334087
:101EA00002F0A2FA0F214BF2013002F09DFA0F214D
:101EB0004BF2023002F098FA34214FF4394002F02C
:101EC00093FA34214BF6011002F08EFA34214BF6CE
:101ED000021002F089FA08214FF4354002F084FA2A
:101EE00008214BF2015002F07FFA08214BF2025018
:101EF00002F07AFA03214FF4424002F075FA2421ED
:101F00004FF43A4002F070FA24214BF6012002F01F
:101F10006BFA24214BF6022002F066FA00214FF4FE
:101F20003C4002F061FA78214BF6014002F05CFA85
:101F300000214BF6024002F057FA00214FF43D40D9
:101F400002F052FA78214BF6015002F04DFA0021CE
:101F50004BF6025002F048FA00214FF43E4002F0E6
:101F600043FA64214BF6016002F03EFA00214FF47F
:101F7000514002F039FA33214DF2011002F034FAE7
:101F800000214DF2021002F02FFA34214DF203101D
:101F900002F02AFA00214DF2041002F025FA3A214B
:101FA0004DF2051002F020FA00214DF2061002F069
:101FB0001BFA4A214DF2071002F016FA00214DF2E9
:101FC000081002F011FA5C214DF2091002F00CFA2F
:101FD00000214DF20A1002F007FA81214DF20B1098
:101FE00002F002FA00214DF20C1002F0FDF9A621D8
:101FF0004DF20D1002F0F8F900214DF20E1002F032
:10200000F3F9E5214DF20F1002F0EEF901214DF246
:10201000101002F0E9F913214DF2111002F0E4F969
:1020200001214DF2121002F0DFF954214DF213108C
:1020300002F0DAF901214DF2141002F0D5F98221F3
:102040004DF2151002F0D0F901214DF2161002F0F8
:10205000CBF9CA214DF2171002F0C6F902214DF258
:10206000181002F0C1F900214DF2191002F0BCF96C
:1020700002214DF21A1002F0B7F901214DF21B10A6
:1020800002F0B2F902214DF21C1002F0ADF9342138
:102090004DF21D1002F0A8F902214DF21E1002F0BF
:1020A000A3F967214DF21F1002F09EF902214DF2B3
:1020B000201002F099F984214DF2211002F094F9D8
:1020C00002214DF2221002F08FF9A4214DF22310CB
:1020D00002F08AF902214DF2241002F085F9B721AD
:1020E0004DF2251002F080F902214DF2261002F087
:1020F0007BF9CF214DF2271002F076F902214DF243
:10210000281002F071F9DE214DF2291002F06CF96D
:1021100002214DF22A1002F067F9F2214DF22B1044
:1021200002F062F902214DF22C1002F05DF9FE215D
:102130004DF22D1002F058F903214DF22E1002F04D
:1021400053F910214DF22F1002F04EF903214DF2F8
:10215000301002F049F933214DF2311002F044F908
:1021600003214DF2321002F03FF96D214DF2331090
:1021700002F03AF900214FF4524002F035F93321D0
:102180004DF2012002F030F900214DF2022002F060
:102190002BF934214DF2032002F026F900214DF2F3
:1021A000042002F021F93A214DF2052002F01CF939
:1021B00000214DF2062002F017F94A214DF20720C6
:1021C00002F012F900214DF2082002F00DF95C2115
:1021D0004DF2092002F008F900214DF20A2002F028
:1021E00003F981214DF20B2002F0FEF800214DF29F
:1021F0000C2002F0F9F8A6214DF20D2002F0F4F8BF
:1022000000214DF20E2002F0EFF8E5214DF20F20F3
:1022100002F0EAF801214DF2102002F0E5F8132156
:102220004DF2112002F0E0F801214DF2122002F0EF
:10223000DBF854214DF2132002F0D6F801214DF2C3
:10224000142002F0D1F882214DF2152002F0CCF8D2
:1022500001214DF2162002F0C7F8CA214DF21720D5
:1022600002F0C2F802214DF2182002F0BDF8002160
:102270004DF2192002F0B8F802214DF21A2002F0B6
:10228000B3F801214DF21B2002F0AEF802214DF20D
:102290001C2002F0A9F834214DF21D2002F0A4F810
:1022A00002214DF21E2002F09FF867214DF21F20FF
:1022B00002F09AF802214DF2202002F095F88421D4
:1022C0004DF2212002F090F802214DF2222002F07E
:1022D0008BF8A4214DF2232002F086F802214DF262
:1022E000242002F081F8B7214DF2252002F07CF87D
:1022F00002214DF2262002F077F8CF214DF227205F
:1023000002F072F802214DF2282002F06DF8DE2171
:102310004DF2292002F068F802214DF22A2002F045
:1023200063F8F2214DF22B2002F05EF802214DF20B
:102330002C2002F059F8FE214DF22D2002F054F825
:1023400003214DF22E2002F04FF810214DF22F20E4
:1023500002F04AF803214DF2302002F045F8332113
:102360004DF2312002F040F803214DF2322002F00C
:102370003BF86D214DF2332002F036F800214FF486
:10238000534002F031F833214DF2013002F02CF8C5
:1023900000214DF2023002F027F834214DF20330D3
:1023A00002F022F800214DF2043002F01DF83A212B
:1023B0004DF2053002F018F800214DF2063002F01F
:1023C00013F84A214DF2073002F00EF800214DF2C9
:1023D000083002F009F85C214DF2093002F004F8EF
:1023E00000214DF20A3001F0FFFF81214DF20B3048
:1023F00001F0FAFF00214DF20C3001F0F5FFA621AB
:102400004DF20D3001F0F0FF00214DF20E3001F0E1
:10241000EBFFE5214DF20F3001F0E6FF01214DF217
:10242000103001F0E1FF13214DF2113001F0DCFF1B
:1024300001214DF2123001F0D7FF54214DF213303B
:1024400001F0D2FF01214DF2143001F0CDFF8221C5
:102450004DF2153001F0C8FF01214DF2163001F0A8
:10246000C3FFCA214DF2173001F0BEFF02214DF229
:10247000183001F0B9FF00214DF2193001F0B4FF1E
:1024800002214DF21A3001F0AFFF01214DF21B3055
:1024900001F0AAFF02214DF21C3001F0A5FF34210A
:1024A0004DF21D3001F0A0FF02214DF21E3001F06F
:1024B0009BFF67214DF21F3001F096FF02214DF284
:1024C000203001F091FF84214DF2213001F08CFF8A
:1024D00002214DF2223001F087FFA4214DF223307A
:1024E00001F082FF02214DF2243001F07DFFB7217F
:1024F0004DF2253001F078FF02214DF2263001F037
:1025000073FFCF214DF2273001F06EFF02214DF213
:10251000283001F069FFDE214DF2293001F064FF1F
:1025200002214DF22A3001F05FFFF2214DF22B30F3
:1025300001F05AFF02214DF22C3001F055FFFE212F
:102540004DF22D3001F050FF03214DF22E3001F0FD
:102550004BFF10214DF22F3001F046FF03214DF2C9
:10256000303001F041FF33214DF2313001F03CFFBA
:1025700003214DF2323001F037FF6D214DF233303F
:1025800001F032FF00214FF4544001F02DFF3321C0
:1025900000E080E34DF2014001F026FF00214DF202
:1025A000024001F021FF34214DF2034001F01CFFF5
:1025B00000214DF2044001F017FF3A214DF2054091
:1025C00001F012FF00214DF2064001F00DFF4A21FB
:1025D0004DF2074001F008FF00214DF2084001F0E4
:1025E00003FF5C214DF2094001F0FEFE00214DF297
:1025F0000A4001F0F9FE81214DF20B4001F0F4FE9A
:1026000000214DF20C4001F0EFFEA6214DF20D40ED
:1026100001F0EAFE00214DF20E4001F0E5FEE52159
:102620004DF20F4001F0E0FE01214DF2104001F0AB
:10263000DBFE13214DF2114001F0D6FE01214DF2D7
:10264000124001F0D1FE54214DF2134001F0CCFEB6
:1026500001214DF2144001F0C7FE82214DF21540D8
:1026600001F0C2FE01214DF2164001F0BDFECA216B
:102670004DF2174001F0B8FE02214DF2184001F072
:10268000B3FE00214DF2194001F0AEFE02214DF2E1
:102690001A4001F0A9FE00E0FFE201214DF21B40CB
:1026A00001F0A2FE02214DF21C4001F09DFE3421FA
:1026B0004DF21D4001F098FE02214DF21E4001F046
:1026C00093FE67214DF21F4001F08EFE02214DF274
:1026D000204001F089FE84214DF2214001F084FE6A
:1026E00002214DF2224001F07FFEA4214DF2234051
:1026F00001F07AFE02214DF2244001F075FEB7216F
:102700004DF2254001F070FE02214DF2264001F00D
:102710006BFECF214DF2274001F066FE02214DF203
:10272000284001F061FEDE214DF2294001F05CFEFF
:1027300002214DF22A4001F057FEF2214DF22B40CA
:1027400001F052FE02214DF22C4001F04DFEFE211F
:102750004DF22D4001F048FE03214DF22E4001F0D4
:1027600043FE10214DF22F4001F03EFE03214DF2B9
:10277000304001F039FE33214DF2314001F034FE9A
:1027800003214DF2324001F02FFE6D214DF2334016
:1027900001F02AFE00214FF4554001F025FE3321BF
:1027A0004DF2015001F020FE00214DF2025001F0E7
:1027B0001BFE34214DF2035001F016FE00214DF2B4
:1027C000045001F011FE3A214DF2055001F00CFECB
:1027D00000214DF2065001F007FE4A214DF207504C
:1027E00001F002FE00214DF2085001F0FDFD5C21D8
:1027F0004DF2095001F0F8FD00214DF20A5001F0B0
:10280000F3FD81214DF20B5001F0EEFD00214DF260
:102810000C5001F0E9FDA6214DF20D5001F0E4FD50
:1028200000214DF20E5001F0DFFDE5214DF20F5079
:1028300001F0DAFD01214DF2105001F0D5FD132118
:102840004DF2115001F0D0FD01214DF2125001F076
:10285000CBFD54214DF2135001F0C6FD01214DF284
:10286000145001F0C1FD82214DF2155001F0BCFD64
:1028700001214DF2165001F0B7FDCA214DF217505B
:1028800001F0B2FD02214DF2185001F0ADFD002122
:102890004DF2195001F0A8FD02214DF21A5001F03D
:1028A000A3FD01214DF21B5001F09EFD02214DF2CE
:1028B0001C5001F099FD34214DF21D5001F094FDA2
:1028C00002214DF21E5001F08FFD67214DF21F5085
:1028D00001F08AFD02214DF2205001F085FD842196
:1028E0004DF2215001F080FD02214DF2225001F005
:1028F0007BFDA4214DF2235001F076FD02214DF223
:10290000245001F071FDB7214DF2255001F06CFD0E
:1029100002214DF2265001F067FDCF214DF22750E4
:1029200001F062FD02214DF2285001F05DFDDE2133
:102930004DF2295001F058FD02214DF22A5001F0CC
:1029400053FDF2214DF22B5001F04EFD02214DF2CC
:102950002C5001F049FDFE214DF22D5001F044FDB7
:1029600003214DF22E5001F03FFD10214DF22F506A
:1029700001F03AFD03214DF2305001F035FD3321D5
:102980004DF2315001F030FD03214DF2325001F093
:102990002BFD6D214DF2335001F026FD00214FF447
:1029A000564001F021FD33214DF2016001F01CFD84
:1029B00000214DF2026001F017FD34214DF2036059
:1029C00001F012FD00214DF2046001F00DFD3A21ED
:1029D0004DF2056001F008FD00214DF2066001F0A6
:1029E00003FD4A214DF2076001F0FEFC00214DF28B
:1029F000086001F0F9FC5C214DF2096001F0F4FC83
:102A000000214DF20A6001F0EFFC81214DF20B60D4
:102A100001F0EAFC00214DF20C6001F0E5FCA6217A
:102A20004DF20D6001F0E0FC00214DF20E6001F06E
:102A3000DBFCE5214DF20F6001F0D6FC01214DF2E7
:102A4000106001F0D1FC13214DF2116001F0CCFCBB
:102A500001214DF2126001F0C7FC54214DF21360C8
:102A600001F0C2FC01214DF2146001F0BDFC822195
:102A70004DF2156001F0B8FC01214DF2166001F035
:102A8000B3FCCA214DF2176001F0AEFC02214DF2F9
:102A9000186001F0A9FC00214DF2196001F0A4FCBE
:102AA00002214DF21A6001F09FFC01214DF21B60E2
:102AB00001F09AFC02214DF21C6001F095FC3421DA
:102AC0004DF21D6001F090FC02214DF21E6001F0FC
:102AD0008BFC67214DF21F6001F086FC02214DF254
:102AE000206001F081FC84214DF2216001F07CFC2A
:102AF00002214DF2226001F077FCA4214DF2236007
:102B000001F072FC02214DF2246001F06DFCB7214E
:102B10004DF2256001F068FC02214DF2266001F0C3
:102B200063FCCF214DF2276001F05EFC02214DF2E3
:102B3000286001F059FCDE214DF2296001F054FCBF
:102B400002214DF22A6001F04FFCF2214DF22B6080
:102B500001F04AFC02214DF22C6001F045FCFE21FF
:102B60004DF22D6001F040FC03214DF22E6001F08A
:102B70003BFC10214DF22F6001F036FC03214DF299
:102B8000306001F031FC33214DF2316001F02CFC5A
:102B900003214DF2326001F027FC6D214DF23360CC
:102BA00001F022FC5521184601F01EFCAA212846FE
:102BB00001F01AFC5221304601F016FC082138467B
:102BC00001F012FC0021484601F00EFCCC215846D1
:102BD00001F00AFC00214BF2011001F005FC052177
:102BE000504601F001FC70214FF4374001F0FCFB2E
:102BF00070214BF2017001F0F7FB01214FF43840D6
:102C000001F0F2FB03214BF6010001F0EDFB032183
:102C10004BF6020001F0E8FB03214BF6030001F044
:102C2000E3FB02214FF43C4001F0DEFB00214BF6B8
:102C3000014001F0D9FB00214BF6024001F0D4FB2A
:102C4000D0214FF4494001F0CFFB02214CF6011096
:102C500001F0CAFB50214CF6021001F0C5FB5021D7
:102C60004CF6031001F0C0FB50214CF6041001F0AB
:102C7000BBFB00214FF4545001F0B6FB55214FF43B
:102C8000685001F0B1FB4FF488502080782002F0AA
:102C90005BFD4FF424502080FEE3A0F513414FF478
:102CA000E06940F2022A4FF4274B253924D040F244
:102CB0000777C91E7ED04FF4887B08317BD011394D
:102CC0007AD0A0F5A841083977D0A0F5A8514FF4E3
:102CD000407B053972D0B1F5204170D0B1F58051FB
:102CE0006ED0A0F58A4131396BD0091F6AD0A0F5AA
:102CF000C851633967D0CFE747F6F001E52001F00E
:102D000073FB3146012001F06FFB4946022001F0C0
:102D10006BFB41F23001032001F066FB002104202F
:102D200001F062FB5146082001F05EFB0021092002
:102D300001F05AFB00210A2001F056FB00210C2073
:102D400001F052FB00210D2001F04EFB00210F206D
:102D500001F04AFB0021102001F046FB0721112061
:102D600001F042FB0021122001F03EFB0021132064
:102D700001F03AFB0021072001F036FB41F290619F
:102D8000102001F031FB40F22721112001F02CFB33
:102D90009D21122001F028FB4FF4C851132001F0AF
:102DA00023FB2521292001F01FFB0D212B2001F001
:102DB0001BFB09E077E033E1D8E1AEE24AE3FDE353
:102DC000FDE3FDE3FDE3FDE30721302001F00CFB13
:102DD00040F20331312001F007FB0321322001F0E2
:102DE00003FB40F20621352001F0FEFA08213620CF
:102DF00001F0FAFA40F20641372001F0F5FA4FF4FB
:102E00004171382001F0F0FA0721392001F0ECFA85
:102E100040F202613C2001F0E7FA08213D2001F078
:102E2000E3FA0021502001F0DFFAEF21512001F0F8
:102E3000DBFA0021522001F0D7FA40F23F11532073
:102E400001F0D2FA5946602001F0CEFA012161204A
:102E500001F0CAFA00216A2001F0C6FA00218020A0
:102E600001F0C2FA0021812001F0BEFA0021822087
:102E700001F0BAFA0021832001F0B6FA0021842083
:102E800001F0B2FA0021852001F0AEFA1021902065
:102E900001F0AAFA4FF4C061922001F0A5FA40F2C5
:102EA00033110720FDE341F28F01EC2001F09CFA81
:102EB00041F23421EF2001F097FA3146012001F070
:102EC00093FA4946022001F08FFA41F230010320C3
:102ED00001F08AFA0021042001F086FA5146082008
:102EE00001F082FA0021092001F07EFA00210A2077
:102EF00001F07AFA01210C2001F076FA00210D2070
:102F000001F072FA00210F2001F06EFA002110206A
:102F100001F06AFA0721112001F066FA002112205F
:102F200001F062FA0021132001F05EFA012107206E
:102F300001F05AFA322002F0EDFB41F290411020EC
:102F400001F052FA40F22721112001F04DFA32200F
:102F500002F0E0FB8A21122001F046FA322002F052
:102F6000D9FB4FF4D051132001F03EFA062129205D
:102F700001F03AFA0D212B2001F036FA322002F04E
:102F8000C9FB0021202001F02FFA0021212001F0AF
:102F90002BFA322002F0BEFB0021302001F024FA8F
:102FA00040F20461312001F01FFA40F20531322075
:102FB00001F01AFA0021352001F016FA40F6094115
:102FC000362001F011FA4FF40171372001F00CFAAC
:102FD00040F20131382001F007FA3946392001F07A
:102FE00003FA00213C2001F0FFF940F60A213D20C0
:102FF00001F0FAF9322002F08DFB0021502001F09F
:10300000F3F9EF21512001F0EFF90021522001F0F6
:10301000EBF940F23F11532001F0E6F9594651E136
:103020000021084601F0E0F93146012001F0DCF909
:103030004946022001F0D8F941F23001032001F0A5
:10304000D3F90021042001F0CFF95146082001F006
:10305000CBF90021092001F0C7F900210A2001F075
:10306000C3F901210C2001F0BFF900210D2001F06E
:10307000BBF900210F2001F0B7F9322002F04AFB22
:1030800040F20111072001F0AFF9322002F042FBBB
:103090004FF48651102001F0A7F90721112001F00B
:1030A000A3F95B465946122001F09EF94FF43061B6
:1030B000132001F099F90021292001F095F944F23B
:1030C00010012B2001F090F90021502001F08CF923
:1030D000EF21512001F088F90021522001F084F9FC
:1030E00040F23F11532001F07FF94FF41C51602052
:1030F00001F07AF90121612001F076F900216A20BE
:1031000001F072F90021802001F06EF90021812088
:1031100001F06AF90021822001F066F90021832084
:1031200001F062F90021842001F05EF90021852080
:1031300001F05AF91021902001F056F90021922057
:1031400001F052F90121932001F04EF91946952022
:1031500001F04AF90021972001F046F9002198205A
:1031600001F042F940F27311072085E341F21401A6
:10317000E72001F039F93146012001F035F94FF42B
:103180000071022001F030F941F23801032001F012
:103190002BF95146082001F027F90021092001F000
:1031A00023F900210A2001F01FF900210C2001F071
:1031B0001BF900210D2001F017F900210F2001F06B
:1031C00013F90021102001F00FF90721112001F05F
:1031D0000BF90021122001F007F90021132001F062
:1031E00003F9C82002F096FA41F29061102001F034
:1031F000FBF840F22721112001F0F6F8322002F00E
:1032000089FA0C21122001F0EFF8322002F082FA44
:103210004FF40061132001F0E7F81121292001F09B
:10322000E3F80B212B2001F0DFF8322002F072FAD4
:103230000021202001F0D8F840F23F131946212048
:1032400001F0D2F80021302001F0CEF84FF4837461
:103250002146312001F0C8F80021322001F0C4F8E5
:103260004FF40171352001F0BFF841F20A613620B8
:1032700001F0BAF83946372001F0B6F82146382077
:1032800001F0B2F83946392001F0AEF840F20241BF
:103290003C2001F0A9F840F60F413D2001F0A4F8D0
:1032A0000021502001F0A0F8EF21512001F09CF8FE
:1032B0000021522001F098F81946532001F094F8AB
:1032C0004FF41C51602001F08FF80121612001F0C2
:1032D0008BF800216A2001F087F80021802001F09E
:1032E00083F80021812001F07FF80021822001F085
:1032F0007BF80021832001F077F80021842001F081
:1033000073F80021852001F06FF81021902001F062
:103310006BF84FF4C0619220FDE33146012001F0CB
:1033200063F84946022001F05FF841F230010320C2
:1033300001F05AF80021042001F056F840F207216C
:10334000082001F051F80021092001F04DF800217A
:103350000A2001F049F800210C2001F045F8002175
:103360000D2001F041F800210F2001F03DF814205C
:1033700002F0D0F941F2B061102001F035F80121DE
:10338000112001F031F80121172001F02DF84FF440
:103390009C71122001F028F84FF40061132001F015
:1033A00023F80921292001F01FF809212A2001F022
:1033B0001BF80021A42001F017F80021502001F093
:1033C00013F8EF21512001F00FF80021522001F0F5
:1033D0000BF840F23F11532001F006F84FF41C5156
:1033E000602001F001F80121612000F0FDFF0021C3
:1033F0006A2000F0F9FF0021802000F0F5FF002195
:10340000812000F0F1FF0021822000F0EDFF00217B
:10341000832000F0E9FF0021842000F0E5FF002177
:10342000852000F0E1FF1321902000F0DDFF002156
:10343000922000F0D9FF0321932000F0D5FF5946D8
:10344000952000F0D1FF40F27311072000F0CCFF6F
:10345000322010E10021072000F0C6FF322002F0E8
:1034600059F94FF48E71122000F0BEFF0121A42003
:1034700000F0BAFF0F21082000F0B6FF08210A2053
:1034800000F0B2FF08210D2000F0AEFF39463020D9
:1034900000F0AAFF072100E06FE3312000F0A4FF55
:1034A00040F20361322000F09FFF4C464946332032
:1034B00000F09AFF5146342000F096FF022135209B
:1034C00000F092FF41F60F71362000F08DFF394673
:1034D000372000F089FF0021382000F085FF00210F
:1034E000392000F081FF39463A2000F07DFF0021AD
:1034F0003B2000F079FF07213C2000F075FF002100
:103500003D2000F071FF322002F004F90121072074
:1035100000F06AFF0121172000F066FF322002F060
:10352000F9F84FF4BD51102000F05EFF40F2172172
:10353000112000F059FF4FF48F71122000F054FF5A
:103540004FF47061132000F04FFF00212A2000F09B
:103550004BFF0A21292000F047FF4FF49F711220F2
:1035600000F042FF0021502000F03EFFEF215120EB
:1035700000F03AFF0021522000F036FF40F23F11E8
:10358000532000F031FF4FF41C51602000F02CFF5D
:103590000121612000F028FF00216A2000F024FFB3
:1035A0000021802000F020FF0021812000F01CFF7E
:1035B0000021822000F018FF002104E05EE05CE1C1
:1035C00025E2DBE282E3832000F00EFF002184206D
:1035D00000F00AFF0021852000F006FF1321902053
:1035E00000F002FF5946922000F0FEFE05219320D4
:1035F00000F0FAFE0021952000F0F6FE0021972051
:1036000000F0F2FE0021982000F0EEFE314601208D
:1036100000F0EAFE2146022000F0E6FE41F2380109
:10362000032000F0E1FE0021042000F0DDFE002177
:103630000C2000F0D9FE00210F2000F0D5FE002163
:10364000202000F0D1FE0021212000F0CDFE21211C
:10365000072000F0C9FE142002F05CF86121072069
:1036600000F0C2FE142002F055F840F2731107205A
:1036700000F0BAFE142002F04DF8A1E30021084644
:1036800000F0B2FE0021084600F0AEFE0021084620
:1036900000F0AAFE0021084600F0A6FE0121A420A9
:1036A00000E0E5E000F0A0FE142002F033F84FF453
:1036B0001C542146602000F097FE554651460820D4
:1036C00000F092FE4FF40571302000F08DFE43F2C1
:1036D0001571312000F088FE40F20461322000F0C4
:1036E00083FE40F61661332000F07EFE42F2112187
:1036F000342000F079FE4FF4A851352000F074FE1C
:1037000048F20751362000F06FFE41F207413720A2
:1037100000F06AFE41F20341382000F065FE2021EE
:10372000392000F061FE1A21902000F05DFE00219A
:10373000102000F059FE0721112000F055FE002155
:10374000122000F051FE0021132000F04DFE142045
:1037500001F0E0FF4FF4E661102000F045FE40F27A
:103760003711112000F040FE142001F0D3FF4FF478
:10377000DC71122000F038FE142001F0CBFF4FF472
:103780007061132000F030FE80212A2000F02CFE12
:103790004821292000F028FE142001F0BBFF31460B
:1037A000012000F021FE4946022000F01DFE41F2FA
:1037B0003801032000F018FE2946082000F014FE0E
:1037C00000210A2000F010FE00210C2000F00CFE69
:1037D00000210D2000F008FE30210E2000F004FE34
:1037E0000021502000F000FEEF21512000F0FCFDF0
:1037F0000021522000F0F8FD40F23F11532000F06C
:10380000F3FD2146602000F0EFFD0121612000F072
:10381000EBFD00216A2000F0E7FD1121902000F06F
:10382000E3FD4FF4C061922000F0DEFD40F2024162
:10383000932000F0D9FD0221942000F0D5FD142042
:1038400001F068FF0121072000F0CEFD142001F0F7
:1038500061FF6121072000F0C7FD40F273110720CE
:1038600000F0C2FD0021202000F0BEFD002121203B
:1038700000F0BAFD222100207DE10021084600F081
:10388000B3FD0021084600F0AFFD142001F042FF17
:103890000021084600F0A8FD0021084600F0A4FD24
:1038A0000021084600F0A0FD0021084600F09CFD24
:1038B0000121A42000F098FD142001F02BFF4FF40B
:1038C0001C51602000F090FD40F60601082000F039
:1038D0008BFD40F203731946302000F085FD012175
:1038E000312000F081FD0421322000F07DFD4FF4F5
:1038F0008171332000F078FD5C465946342000F099
:1039000073FD40F20311352000F06EFD1F213620BB
:1039100000F06AFD1946372000F066FD01213820CD
:1039200000F062FD0421392000F05EFD1521902099
:1039300000F05AFD4FF48261102000F055FD40F276
:103940004721112000F050FD4FF4DE71122000F0ED
:103950004BFD4FF46061132000F046FD782001F02C
:10396000D9FE3146012000F03FFD4FF400710220E6
:1039700000F03AFD41F23001032000F035FD08214E
:103980000A2000F031FD00210C2000F02DFD202147
:103990000E2000F029FD00210F2000F025FD002160
:1039A000202000F021FD0021212000F01DFD3D21FF
:1039B0002A2000F019FD142001F0ACFE2D21292051
:1039C00000F012FD0021502000F00EFD4DF2EF013D
:1039D000512000F009FD0021522000F005FD40F2C9
:1039E0003F11532000F000FD0021612000F0FCFC9D
:1039F00000216A2000F0F8FC2146922000F0F4FC3F
:103A00000521932000F0F0FC3146FFF7ADBB01210A
:103A1000002000F0E9FC0A2001F07CFE41F2286160
:103A2000102000F0E1FC0E21122000F0DDFC40F639
:103A30003921132000F0D8FC0A2001F06BFE402150
:103A4000112000F0D1FC5021152000F0CDFC0A20FF
:103A500001F060FE1E21122000F0C6FC0A2001F0D9
:103A600059FE4FF4B151102000F0BEFC42F639214E
:103A7000132000F0B9FC0A2001F04CFE3146012071
:103A800000F0B2FC5946022000F0AEFC41F23801D1
:103A9000032000F0A9FC5146082000F0A5FC0821F5
:103AA0000A2000F0A1FC0021302000F09DFC40F233
:103AB0000241312000F098FC4FF48371322000F075
:103AC00093FC40F20351332000F08EFC4FF48271DE
:103AD000342000F089FC40F20131352000F084FCF4
:103AE0003946362000F080FC40F20531372000F0E6
:103AF0007BFC4FF40271382000F076FC40F60B712D
:103B0000392000F071FC0221412000F06DFC4FF4DF
:103B10001C51602000E0D4E000F066FC012161202F
:103B200000F062FC4FF40471902000F05DFC4FF453
:103B30008571922000F058FC0421932000F054FC81
:103B40003146A02000F050FC0121072000F04CFC81
:103B50002121072000F048FC2321072000F044FC2D
:103B60003321072000F040FC40F23311072000F021
:103B70003BFC0021A02000F037FC21E13021152082
:103B800000F032FC10219A2000F02EFC20211120A0
:103B900000F02AFC43F22841102000F025FC02210D
:103BA000122000F021FC41F23801132000F01CFC2F
:103BB000282001F0AFFD1221084600F015FC282056
:103BC00001F0A8FD43F22041102000F00DFC43F26B
:103BD0003801132000F008FC462001F09BFD002175
:103BE000302000F001FC40F20241312000F0FCFBEB
:103BF00040F20731322000F0F7FB4FF441713320DF
:103C000000F0F2FB0421342000F0EEFB40F2014111
:103C1000352000F0E9FB3946362000F0E5FB40F2A4
:103C20000531372000F0E0FB4FF4C263194638201D
:103C300000F0DAFB1946392000F0D6FB31460120AE
:103C400000F0D2FB5946022000F0CEFB41F23001D9
:103C5000032000F0C9FB40F60801082000F0C4FB77
:103C600008210A2000F0C0FB4FF41C51602000F036
:103C7000BBFB0121612000F0B7FB4FF49F71902046
:103C800000F0B2FB3146922000F0AEFB31469320AB
:103C900000F0AAFB4FF44051A02000F0A5FB10213A
:103CA000A32000F0A1FB0121072000F09DFB2121B2
:103CB000072000F099FB2321072000F095FB33211A
:103CC000072000F091FB40F233119EE6E2202080B5
:103CD0001D2028800220288004202880642001F0F4
:103CE00033FDE0202080012028800A2001F012FD11
:103CF000E0202080032028800C2001F00BFD012013
:103D000020800A2001F006FDE62020802F20288058
:103D1000FF2028802880B0202080202028800020BC
:103D200028800320288040F21F302880012028802E
:103D300040F2DF10288000202880B420208004205A
:103D4000288040F21F402880002028802E202880D4
:103D500000202880288028802880B620208002200B
:103D600028804FF4037028800020288017202880A6
:103D700015202880002028802880F0202080032023
:103D8000288029202080D020208000202880BE206C
:103D9000208005202880FE20288001202880002007
:103DA000288028802880B8202080032028800120B7
:103DB0002880BA20208001202880642000F026F886
:103DC0000020FCF793FF05490120C1F8800140461F
:103DD000FCF756FF1FB0BDE8F08F000000802142C5
:103DE000034808B50088ADF80000BDF8000008BD24
:103DF0000008006C044910B50880052001F0A4FCFF
:103E0000BDE81040FFF7ECBFFE07006C0C4A10B590
:103E1000BE211180941C0521218002F082FE4FF00A
:103E20006632084B02F090FE02F04EFE2080012028
:103E30002080FF20208000202080208010BD0000F6
:103E4000FE07006C66660440F0B5674E00233146FD
:103E5000B279898846F6040741F66314012A01D035
:103E60002AB11DE0B9421BD0A14202D118E0A14203
:103E700016D1082814D2DFE800F00406080A0C0E58
:103E8000101206200CE007200AE0042008E00520BC
:103E900006E0012004E0002002E0032000E0022010
:103EA000A1F5134C45F2103245F21055BCF1410C0E
:103EB00007D0B94205D0914203D0A94201D0A14216
:103EC00075D1082812D2DFE800F0110406080A0CA8
:103ED0000E1080230AE0402308E0C02306E02023E0
:103EE00004E0602302E0A02300E0E023A94202D125
:103EF0004FF4585000E03620914205D0A94203D03B
:103F0000A14201D043F00803B94201D143F00203BA
:103F1000194600F069FAB288A2420AD098063088A1
:103F2000718802D5884202D303E0884201D93180EA
:103F300070802E48811CAA427289028021D1002300
:103F40000B80531C038000230B80931C0380338859
:103F50005B1E1C0A0C80D21C0280DAB20A80B28975
:103F6000028000230B80531C038000230B80931CD2
:103F7000038073885B1E1C0A0C80D21C0280D8B29E
:103F800012E000220A800A803288521E130A0B8037
:103F9000D2B20A80B289028000200880088070882E
:103FA000401E020A0A80C0B20880F0BDFFE7082860
:103FB00012D2DFE800F0040608110A0C0E103023BC
:103FC0000AE0102308E0202306E0382304E0282339
:103FD00002E0182300E00823BDE8F040032043F48A
:103FE000805100F001BA0000C0010020FE07006C03
:103FF0002DE9F04F4E4F0B463A46BD880C0ADFF8CC
:1040000034B191895289A5F513464FEA102C0BF172
:10401000020A413E1DD0A5F5A646103E19D03E46E7
:10402000BE4696F806903688A5F5D047A6EB000860
:10403000A8F10108043F17D0A5F5C857633F28D061
:10404000A5F5AA477646103F51D0B9F1010F63D0CC
:1040500064E0ABF800205246AAF800C0C0B2AAF84B
:104060000000ABF800100FE0B9F1010F01D11FFA09
:1040700088F0ABF80020050A5246AAF80050C0B2FA
:10408000AAF80000ABF800101480D8B21080BDE888
:10409000F08FB9F1000F1BD0ABF800205246AAF800
:1040A00000C0C0B2AAF80000761E300AAAF80000CC
:1040B000F0B21080ABF8001011461480D8B2108016
:1040C000BEF80200401E020A0A80C0B20880DEE785
:1040D0001FFA88F0ABF8002000265246AAF80060CC
:1040E000AAF80060060AAAF80060C0B2E1E7ABF8DF
:1040F0000020AAF800C0521CABF80020C0B2AAF8F9
:104100000000ABF80010AAF80040491CABF8001002
:10411000D8B2AAF80000BAE71FFA88F001461046A4
:1041200000F062F9B089BDE8F04F194600F05CB9C3
:10413000C0010020FE07006C2DE9FC4F04469146AB
:104140004844401E86B2C818401E83B2009004EB5B
:104150000900401EC0F3072EDFF850C100980D463D
:10416000C0F3072B6046BCF804204FEA1128818970
:104170004089A2F513474FEA142A413F10D0A2F517
:10418000A647103F0CD0A2F5D047043F08D09CF8BA
:10419000067041F6631C0197012F13D1624511D1BE
:1041A000434F3880B81CA0F800A0E2B20280A0F80B
:1041B00000E0F2B202803980A0F80080E9B201800C
:1041C00059461CE0394F62453F881DD1A7EB0902D3
:1041D000121B374C009B92B29BB22080160AA01C87
:1041E0000680D6B206804A44521E160A0680D2B213
:1041F00002802180A0F80080E9B20180190A0180C4
:10420000D9B20180BDE8FC8FA2F5A04CBCF5A26C30
:104210001FD0019801283FD0B04621462E4650209D
:104220004FF0510A4FF05209532700F0DDF8414694
:10423000504600F0D9F83146484600F0D5F8194606
:10424000384600F0D1F829462046BDE8FC4FFFF77C
:10425000CFBE174A1080971CA7F800A000F1010CF0
:10426000A2F800C0E4B23C80841C1480A7F800E0EF
:10427000C01C1080F0B238801180A7F80080481C64
:104280001080E8B23880881C1080A7F800B0C91CE4
:104290001180D8B23880B5E7B81B401E86B2381BF3
:1042A0009846401E294683B2B9E70000C0010020AD
:1042B000FE07006C2DE9F84F82461F460C468B46E0
:1042C000580700D0012000EBD70079084843203A76
:1042D000C0B202F0FF090026009041E00C2F10D080
:1042E000102F12D0182F3ED1204909EBC90001EB45
:1042F00080004FF00008855D28060AD51C4802881A
:104300000BE009EB49001B49F1E71B4901EB0910E0
:10431000EFE70A9828B91648428821465046FCF72C
:104320007FFD6806050E1548641CA4B24088A042B3
:1043300019D9A4EB0B00B84209D10AF101001FFA08
:1043400080FA0E485C46018851450CD906E008F118
:10435000010000F0FF08B8F1080FCDD3761CF6B2CB
:1043600000988642BAD3BDE8F88F0000A87700080D
:104370004A000020446D0008B8710008C001002008
:104380002DE9F84F044600F0FF0810190D46DDE94D
:104390000A761FFA80FA58191FFA80F94FF0000BBD
:1043A00011E0544502D3E819444685B24D450FD279
:1043B0003B4629462046CDF800B0FFF77BFF04EBD3
:1043C000570084B2761C3278A2F120005E28E8D92A
:1043D000BDE8F88F02480349008908807047000053
:1043E000C0010020FE07006C024A1080901C018072
:1043F00070470000FE07006C38B50121482000F02E
:10440000EDF92024ADF8004010208DF803000320C2
:104410000B4D8DF8020069462846FCF727FB20214A
:104420002846FCF7A6FBADF80040064C694620463E
:10443000FCF71CFB20212046FCF79BFB38BD00004D
:10444000000C014000180140FEE7704730B50F2313
:10445000C27801780125F2B1144A126801F1E02115
:1044600002F4E062C2F5E062120AC2F10404D34031
:104470004278A24084781C401443220181F8002431
:10448000007800F01F018D404009800000F1E0201D
:10449000C0F8005130BD01F01F0085404809800080
:1044A00000F1E020C0F8805130BD00000CED00E0CC
:1044B0000249084302490860704700000000FA05FD
:1044C0000CED00E0002130B1012806D0032806D011
:1044D000042807D105E0B02104E0982102E018216A
:1044E00000E03021552000F005BB70B58026222564
:1044F0005E2430B1012808D003280AD004280FD147
:104500000BE0402611252F240AE066261B254B24AC
:1045100006E099262825712402E0C02633258D2443
:1045200031464F2000F0E6FA3146502000F0E2FA22
:104530000021512000F0DEFA2946522000F0DAFA7C
:104540002146532000F0D6FA3146542000F0D2FA2A
:10455000BDE870409E21582000F0CCBA402130B117
:10456000012806D0032806D0042807D105E0302111
:1045700004E0382102E0502100E06021562000F0E4
:10458000B9BA0000F8B50024012140F23D1000F056
:1045900025F94FF48075ADF8005048268DF803607A
:1045A0000320354F8DF8020069463846FCF75EFA65
:1045B00029463846FCF7DDFA1820ADF800002F4FE9
:1045C00010258DF8035069463846FCF74FFA18213C
:1045D0003846FCF7CEFAFF20ADF800008DF80360F6
:1045E00069462748FCF742FA4020ADF80000254E06
:1045F0008DF8035069463046FCF738FA40213046C2
:10460000FCF7B7FA4FF44046ADF800608DF8035060
:104610001D4D69462846FCF729FA31462846FCF725
:10462000A8FA01211948FCF76FFA00F02DF9802152
:10463000122000F05FFA08B10120F8BD322001F02D
:1046400069F80B2000F0B2F9732804D10A2000F0B9
:10465000ADF9762801D00220F8BD0D4D05EB4400E0
:10466000417815F8140000F045FA641CA4B2A82C97
:10467000F4D30020F8BD000000080140000C014008
:1046800000100140001401400020014000023000F1
:104690000485000870B50025E7212C46012806D0C6
:1046A000022808D003280AD004280FD10BE0E52106
:1046B0005A255C240AE0E5215825602406E0E5211E
:1046C00084254C2402E0E52196254024132000F0A7
:1046D00011FA2946012000F00DFA2146BDE870408C
:1046E000022000F007BA70B50421C02480250728F5
:1046F00016D2DFE800F0150406090B0E1200242183
:1047000000E0142180240BE0142109E0142140244E
:1047100005E014218024C02502E01421A0244025B6
:104720003A2000F0E7F92146682000F0E3F9294635
:10473000BDE87040672000F0DDB92DE9F041054685
:1047400000EB420086B201EB430084B20F46B4F5A1
:10475000447F02D9A4F54474A4B2032000F026F9E2
:1047600006F00302294600F0F00062F39F010143C6
:10477000032000F0BFF9C5F38701192000F0BAF952
:10478000C6F387011A2000F0B5F9322000F00EF9C7
:10479000C7F3C701172000F0ADF9C4F3C701BDE8A6
:1047A000F041182000F0A6B970470000044A002923
:1047B000516901D0014300E081435161704700001D
:1047C00000100240044A0029D16901D0014300E0F1
:1047D0008143D1617047000000100240044A002963
:1047E000916901D0014300E081439161704700006D
:1047F0000010024030B5204A5168204B11F00C01E6
:1048000003D0042901D0082901D0036012E05168C7
:10481000536801F470114FF0020413F4803F04EB6D
:10482000914102D053689B0301D5154B00E0134B17
:104830005943016051680F2303EA1111114B5C5C6D
:104840000168E14041605468072505EA14241C5DB5
:1048500021FA04F48460546805EAD4241B5DD9402D
:10486000C1605268032303EA9232064B1B1F9A5C15
:10487000B1FBF2F1016130BD0010024000127A007C
:1048800000093D006800002038B501214FF4907008
:10489000FFF7A4FF4FF40055ADF8005048208DF805
:1048A00003000320114C8DF8020069462046FCF7F6
:1048B000DDF829462046FCF75CF90820ADF8000039
:1048C00010200B4D8DF8030069462846FCF7CEF802
:1048D00008212846FCF74DF9606820F470006060FC
:1048E000606840F44010606038BD00000020014066
:1048F0000014014070B5322000F026FF0C4D01205D
:10490000C5F8B4010B4EC6F88C01322005F5DA75F6
:1049100006F5C67600F018FF00243460322000F05F
:1049200013FF2C60BDE87040322000F00DBF000086
:1049300000002442008022422DE9F047184F002455
:10494000786820F470007860786840F4000078603F
:10495000DFF85090144E08254FF00108A24632208F
:1049600000F0F2FEC6F88C816006040ED9F834011E
:1049700008B1641CE4B2322000F0E6FEC6F88CA157
:104980006D1E15F0FF05EAD1786820F4700078609C
:10499000786840F4401078602046BDE8F087000059
:1049A00000200140000024420080224210B504464D
:1049B00000F022F8422000F055F8642000F0C4FE18
:1049C000204600F04FF8642000F0BEFE00F02EF804
:1049D000642000F0B9FE00F00FF8432000F042F828
:1049E000642000F0B1FEFFF7A7FF0446FFF782FF47
:1049F00000F01CF8204610BD70B50A4E0120C6F824
:104A0000B401094DC5F88C01322005F5C67506F5CF
:104A1000DA7600F099FE00243460322000F094FE33
:104A20002C6070BD000024420080224270B50B4C07
:104A30000020C4F8B401322004F5DA7400F084FEDA
:104A400007480125C0F88C51322000F07DFE25601A
:104A5000BDE87040322000F077BE00000000244224
:104A6000008022422DE9F04700241F4E1F4F0546CB
:104A7000A0464FF00109280601D5484600E040460F
:104A8000C6F8B4016806050E322000F05DFEC7F8D6
:104A90008C91322000F058FEC7F88C81641CE4B27F
:104AA000082CE8D3124C606820F4700060606068E5
:104AB00040F400006060322000F046FEC7F88C91A0
:104AC000322000F041FED6F8340100B10120C7F8D1
:104AD0008C81616821F470016160616841F440116A
:104AE0006160BDE8F087000000002442008022429F
:104AF0000020014070B50D4606460024FFF77CFFFC
:104B00004220FFF7AFFF00B10124642000F01CFE3B
:104B10003046FFF7A7FF00B10124642000F014FE27
:104B20002846FFF79FFF00B10124FFF77FFF2046D3
:104B300070BD70470CB500222648009201920168B2
:104B400041F4803101604FF4A063016801F4003149
:104B500001910099491C0091019911B9009999425C
:104B6000F3D10168890333D5012101911A490A68FB
:104B700042F010020A600A6822F003020A600A6822
:104B800042F002020A604168416041684160416848
:104B900041F480614160416821F47C1141604168C9
:104BA00041F4E8114160016841F0807101600168E1
:104BB0008901FCD5416821F003014160416841F061
:104BC000020141604168C1F381010229FAD10CBDA3
:104BD00001920CBD00100240002002404FF0E02185
:104BE0000428086903D020F004000861704740F0F1
:104BF0000400FAE7704700000F4810B5016841F063
:104C00000101016041680D4A1140416001680C4A90
:104C100011400160016821F480210160416821F4A4
:104C2000FE0141604FF41F018160FFF783FF0549DA
:104C30004FF00060086010BD001002400000FFF857
:104C4000FFFFF6FE08ED00E070B5048C24F00104CF
:104C50000484058B048C4FF6FF7606EA0313134396
:104C600025F0F3050E4A2B4390420ED00D4A904298
:104C70000BD0B0F1804F08D00B4A904205D00B4AC0
:104C8000904202D00A4A904202D124F0020201E08E
:104C900024F00A020A4342F001010383018470BD3B
:104CA000002C014000340140000400400008004096
:104CB000000C0040F0B5048C24F010040484078B31
:104CC000048C4FF6FF7527F4734705EA03333B4323
:104CD00005EA02221A43114B05EA011698420ED04A
:104CE0000F4B98420BD0B0F1804F08D00D4B98423B
:104CF00005D00D4B984202D00C4B984205D124F0C0
:104D00002001314341F0100104E024F0A0030B43E3
:104D100043F0100102830184F0BD0000002C01402B
:104D2000003401400004004000080040000C004036
:104D300010B50A4C0121204600F017F900280AD0CE
:104D40000121204600F0F7F80549D1F8940118B187
:104D50000020C1F8940110BD0120FAE700040040D2
:104D60000000234210B50C4C0121204600F0FDF854
:104D700001280AD10948016988470021204600F02E
:104D8000A7F96421204600F0A1F92046BDE81040B3
:104D9000012100F0D0B8000000080040CC00002045
:104DA000F0B50C46074687B001210820FFF70AFD41
:104DB00001210420FFF712FD0220ADF818000325A1
:104DC0008DF81A5004268DF81B6006A91248FBF7CF
:104DD0004DFEADF81070ADF80C4000240F4FADF84B
:104DE0001240ADF80E4003A9384600F09BF90120AF
:104DF000ADF80400ADF80060ADF80240ADF8064033
:104E0000ADF808506946384600F0BCF80121384634
:104E100000F094F807B0F0BD00080140000C00401D
:104E200070B51F4C1F4D2078000633D40121284651
:104E300000F09BF838B12178480604D5C8438006B5
:104E400012D0491C21700221284600F08EF808B3C8
:104E5000217848060FD541F080002070284600F0E8
:104E600077F86080002112E041F0800020704FF65A
:104E7000FF706080E7E700202070608001462846D0
:104E800000F026F92078022140F0400020702846EA
:104E900000F016F92846BDE87040032100F04BB839
:104EA00054000020000C004010B5074C01212046A2
:104EB00000F05BF810B10549002048702046BDE8BD
:104EC0001040012100F037B80010004054000020CD
:104ED0007FB50D46044601211020FFF773FCADF8A5
:104EE00004400020ADF80050104CADF80600ADF8BD
:104EF00002006946204600F015F9012241212046B2
:104F000000F0D6F80121204600F018F836208DF880
:104F10000C0001208DF80D0003218DF80E108DF886
:104F20000F0003A8FFF792FA7FBD000000100040B9
:104F3000C94301827047C943018270470029018833
:104F400002D041F0010101E021F001010180704730
:104F5000808E7047008F7047808C7047024600201B
:104F6000128A0A4200D00120704702460020138AAC
:104F700092890B4202EA010202D0002A00D00120ED
:104F8000704700002DE9F84F0D4604460888434F4E
:104F9000DFF80CC1DFF80C81DFF80C914988AA8892
:104FA0002B894FF0804A48B3042830D04FF6FF7663
:104FB0000828934634D0208C9E4620F480502084CC
:104FC000A38B208C06EA0132009223F4734306EA95
:104FD0000B221A4306EA0E331343BC420AD064453F
:104FE00008D0544506D0444504D04C4502D02F4A41
:104FF000944245D120F40050009943E02046FFF749
:1050000023FEE9882046BDE8F84F00F063B820464B
:10501000FFF750FEE9882046BDE8F84F00F062B87F
:10502000208C20F480702084B4F81CE0208C06EAE8
:10503000031306EA01222EF0F30E43EA0B0343EAC0
:105040000E030092BC420AD0644508D0544506D0F5
:10505000444504D04C4502D0144A944203D120F474
:105060000070009901E020F42060084340F4807053
:10507000A3832084E9882046BDE8F84F00F03EB8BD
:1050800020F40240084340F48050A3832084E98840
:105090002046BDE8F84F00F039B80000002C014070
:1050A000003401400004004000080040000C0040B3
:1050B000002A828901D00A4300E08A438281704736
:1050C000028C22F002020A430284704781857047F5
:1050D00081847047028B22F00C020283028B0A4308
:1050E00002837047028B22F440620283028B4FF6E8
:1050F000FF7303EA01210A4302837047828B22F087
:105100000C028283828B0A4382837047828B22F453
:1051100040628283828B4FF6FF7303EA01210A43C8
:105120008283704730B502881B4C1C4DA0420DD0C5
:10513000A8420BD0B0F1804F08D0194B984205D04F
:10514000184B984202D0184B984203D122F07003BA
:105150004A881A43154B984206D0154B984203D003
:1051600022F44073CA881A4302808A8882850A889A
:105170000285A0420AD0A84208D00E4A904205D02B
:105180000D4A904202D00D4A904201D1097A01861F
:105190000121818230BD0000002C0140003401401B
:1051A0000004004000080040000C004000100040D7
:1051B000001400400040014000440140004801400C
:1051C00070B50446002504E000F008F8A84200D9B4
:1051D0000546641EE4B2F7D2284670BD70B500F0F3
:1051E0006FF84FF60B640B4D08E0FFF7B5FEA042D9
:1051F00004D92846BDE87040FFF7AEBE042128461A
:10520000FFF7ACFE00282846EFD0BDE87040FFF75E
:10521000A1BE0000000C004030B5401E81B285B038
:105220004FF6FF70FFF7BCFD00246D46FFF7D6FF79
:1052300025F814000A2000F06DFA641CE4B20A2C70
:10524000F4D300214C1CE0B20BE035F8113035F8F6
:105250001020934203D925F8112025F81030401C66
:10526000C0B20A28F1D3E1B20929EBD30021022010
:1052700035F81020401C1144C0B289B20828F7D379
:105280000620B1FBF0F0074C6080618806A0FAF7B9
:10529000EDFF6088B0F5004F02D3012005B030BDAE
:1052A0000020FBE74E000020747061645F64656657
:1052B00061756C745F76616C3A25640D0A000000BC
:1052C00038B501210420FFF789FA0220ADF800006B
:1052D00010208DF8030003200F4C8DF80200694662
:1052E0002046FBF7C3FB02212046FBF740FC0520CC
:1052F00000F010FA094D00212846FFF7E9FE0521CC
:105300002846FFF718FE04218DF803106946204651
:10531000FBF7ACFB38BD000000080140000C00406A
:1053200070B501000D4C4FF000054FF0030002D0A6
:10533000002106202170FFF743FF61886431884215
:10534000207804D900B901250320207000E010B1B5
:10535000C0B2401E2070284670BD00004E000020E4
:105360007FB50D46044601210420FFF72BFAADF866
:1053700004400020ADF80050104CADF80600ADF828
:10538000020069462046FFF7CDFE0122412120465A
:10539000FFF78EFE1E218DF80C1003218DF80D10E5
:1053A0008DF80E1001208DF80F0003A8FFF74EF8BE
:1053B00001212046FFF7C2FD7FBD0000000800402C
:1053C00070B5154C40F22551204600F035F8002804
:1053D0000ED0204600F0BEF8104AC1B21088030477
:1053E00006D444044FF0000306D50A2901D01380E7
:1053F00070BD40F400400DE00D2909D0C0F30D044C
:10540000074D401C80B229551080C728EFD870BDC9
:1054100040F48040108070BD003801405C000020E6
:10542000CE0100200029818902D041F4005101E021
:1054300021F400518181704770B501F01F050126EC
:105440000024C1F3421306FA05F2012B0FD0022B00
:105450000FD0838A4FEA11210088134206FA01F621
:1054600000EA060001D000B10124204670BD838906
:10547000F0E7038AEEE710B5C1F3421301F01F0411
:105480000121A140012B07D0022B07D01430002AA4
:10549000026805D00A4304E00C30F8E71030F6E764
:1054A0008A43026010BD000030B50446008A85B012
:1054B0000D464CF6FF710840E98801432182A0891E
:1054C0004EF6F3110840A9882A8911436A890243DC
:1054D0001143A181A08A4FF6FF410840A9890143E9
:1054E000A1826846FFF786F91948844201D10398E2
:1054F00000E00298A189090400EBC00101EB001053
:10550000296801D5490000E08900B0FBF1F0642270
:10551000B0FBF2F109010B096FF018056B4300EBCA
:105520008300A3891D044FF0320306D503EBC000AE
:10553000B0FBF2F000F0070005E003EB0010B0FB59
:10554000F2F000F00F000843208105B030BD0000EC
:10555000003801408088C0F308007047FEE730380B
:105560000A2801D2012070470020704770470000D0
:105570002DE9F05F48480078002870D00420FEF73D
:1055800063FC46494FF4A0748888A0F5C852633A7A
:1055900007D0A0F5AA42103A13D012F5007210D02D
:1055A00020E008884988F038A1F5A07101EBD1719D
:1055B00000EBD070C1F34F01C0F34F002346F0223F
:1055C0000EE008884988A0F5A070F03901EBD17190
:1055D00000EBD070C1F34F01C0F34F00F02322461F
:1055E000FEF7AAFDFEF7F6FE2D4A0020C2F8B8012C
:1055F0002C4810270760011F0F6007600123C2F8C5
:10560000B8310F60DFF8A0A0284E002580468946FB
:105610004FF6FF7B0024C8F80070DAF80800C9F8DC
:105620000070C0B20BEA0020C8F80070DAF8081069
:10563000C9F80070C9B201431D480180A02C02D0F6
:10564000A12C03D010E0782D02D00DE0792D0BD1E4
:10565000C80AC000AA2803D9317816A002E018E0D1
:10566000F17817A0FAF702FE641CA4B2B4F5A07F8B
:10567000D1D36D1CEDB2F02DCCD3074900200870BA
:1056800014480178491C0170BDE8F05F0020FEF766
:10569000DBBBBDE8F09F000052000020C0010020ED
:1056A00000002442140C01400010014000000020C2
:1056B0000008006C7265642025640D0A000000007B
:1056C00063616E206E6F7420726561642025640DC5
:1056D0000A0000005500002010B56FF00400FFF72D
:1056E0007DFA094809490068B0FBF1F00849C0B2E9
:1056F00000EB40020870C2EBC0104FF6FF7202EAE6
:10570000C000488010BD00003400002000127A0064
:10571000580000200B49498848434FF0E021486178
:1057200000238B61086940F0010008610869C20725
:1057300001D0C003FAD5086920F0010008618B612F
:1057400070470000580000200B49097848434FF08B
:10575000E021486100238B61086940F00100086185
:105760000869C20701D0C003FAD5086920F001001A
:1057700008618B61704700005800002004490A88C6
:105780005206FCD5024AC1B2121D118070470000BA
:105790000038014086B0B3480227012101704FF064
:1057A000000847700321817004213E463D4644466F
:1057B000C246C146C170FFF78FFF4FF4A060FEF7ED
:1057C00077FE4FF4E13000F0CFF9A7484168482058
:1057D0008847FEF711FEFBF7CFF9FBF7F5FB062034
:1057E000FFF71AFDA1494FF478404FF0100B0880E5
:1057F0009FA1CDE900B15B46C82232211E20FEF7F1
:10580000BFFD9FA1CDE900B11023C82246211E2073
:10581000FEF7B6FD9DA1CDE900B11023C8225A21A3
:105820001E20FEF7ADFD9DA1CDE900B11023C822D9
:105830006E211E20FEF7A4FD9BA1CDE900B110232F
:10584000C82282211E20FEF79BFD9BA1CDE900B15D
:105850001023C82296211E20FEF792FD9AA1CDE9C1
:1058600000B11023C822AA211E20FEF789FD9AA1AB
:10587000CDE900B11023C822BE211E20FEF780FD15
:1058800099A1CDE900B11023C822D2211E20FEF734
:1058900077FD99A1CDE900B11023C822E6211E2091
:1058A000FEF76EFD17E098A1CDE900B11023C822E4
:1058B000E6211E20FEF764FDC820FFF72BFF4FF600
:1058C000FF700090F623EF22E6211E20FBF736FB47
:1058D000C820FFF71FFFFEF755FE0028E3D18EA179
:1058E000CDE900B11023C822E6211E20FEF748FDB5
:1058F00040F2DC50FFF70EFF4046FEF7CBFE384685
:10590000FEF7F3FD3046FEF7DDFD2846FEF726FEE6
:105910002046FEF7E8FE41F61F4142F21070FFF705
:10592000D7FAFAF789FF4FF4A073F022B0210C20C8
:10593000FEF703FF7C490020C1F8BC01FBF7A0F98A
:105940000020FBF737F900283FD04FF01409012859
:1059500006D0022815D003281ED0042835D126E011
:1059600008F10100C0B28046042801D90020804619
:10597000FEF790FE3B4902A8091D51F828206BA1B3
:1059800021E07F1CFFB2042F00D900273846FEF724
:10599000ACFD7AB266A114E0761CF6B2042E00D9F2
:1059A00000263046FEF78EFD72B265A109E06D1C3F
:1059B000EDB2042D00D900252846FEF7CFFD6AB2CE
:1059C00063A102A8921EFAF75DFC0020FFF7A8FC75
:1059D00088B1641CE4B2062C00D900242046FEF7EE
:1059E00082FE204851A1183050F8242002A8FAF76E
:1059F00049FC4FF01409FFF7BBFDB9F1000F1CD0B3
:105A000056493C2202AB08884988F038A1F5A071BC
:105A100001EBD17102EB610100EBD0701E22CDE9E8
:105A200000B302EB600089B280B21023C822FEF7F7
:105A3000A7FCA9F1010000F0FF090AF1010000F044
:105A4000FF0ABAF10F0F7FF47BAF45494FF0000A10
:105A5000D1F8940118B10020C1F8940170E7012039
:105A6000FAE7000000000020CC0000204A000020DF
:105A7000576172536869702053544D3332000000EF
:105A80004F563736373020544553540041544F4D0C
:105A900040414C49454E54454B00000032303135B1
:105AA0002F312F31380000004B4559303A4C69678F
:105AB0006874204D6F6465004B4559313A536174E9
:105AC00075726174696F6E004B4559323A42726962
:105AD0006768746E657373004B45595F55503A4360
