:020000040800F2
:1000000038070020CD01000811080008CD060008BF
:100010000D08000851030008910A000800000000C4
:10002000000000000000000000000000BD08000803
:10003000550300080000000099080008A9090008FD
:10004000E7010008E7010008E7010008E7010008F0
:10005000E7010008E701000859030008E70100086C
:10006000E70100088D030008C1030008E70100084C
:10007000E7010008E7010008E7010008E7010008C0
:10008000E7010008E7010008E7010008E7010008B0
:10009000E7010008E7010008E7010008E7010008A0
:1000A000E7010008E7010008E7010008E701000890
:1000B000E7010008E7010008E7010008E701000880
:1000C000E7010008E7010008E7010008E701000870
:1000D000E70100080D0A0008E7010008E701000831
:1000E000E7010008E7010008E7010008E701000850
:1000F000E7010008E7010008E7010008E701000840
:10010000E7010008E7010008E7010008E70100082F
:10011000E7010008E7010008E7010008E70100081F
:10012000E7010008E7010008E7010008E70100080F
:1001300000F002F800F03AF80AA090E8000C8244BF
:100140008344AAF10107DA4501D100F02FF8AFF29C
:10015000090EBAE80F0013F0010F18BFFB1A43F0A5
:10016000010318473810000058100000103A24BF4F
:1001700078C878C1FAD8520724BF30C830C144BF0C
:1001800004680C607047000000230024002500264E
:10019000103A28BF78C1FBD8520728BF30C148BFEA
:1001A0000B6070471FB51FBD10B510BD00F06EF895
:1001B0001146FFF7F7FF00F0BBFC00F0A0F803B416
:1001C000FFF7F2FF03BC00F065FC00000948804720
:1001D00009480047FEE7FEE7FEE7FEE7FEE7FEE729
:1001E000FEE7FEE7FEE7FEE704480549054A064B41
:1001F00070470000AD0900083101000838010020F7
:100200003807002038030020380300207047000022
:100210000FB4044910B503AA029800F009F810BC05
:100220005DF814FB0400002070477047704770476A
:10023000074B70B50D467B4400F011F80446284684
:1002400000F020F810B14FF0FF3070BD204670BDB7
:10025000DB08000001694A1C02610878704700B59C
:100260008FB0CDE901310021059105497944CDE9EF
:1002700003101146684600F02EF80FB000BD0000D4
:10028000E5FFFFFF007B00F080007047754600F03F
:100290003FF8AE4605006946534620F00700854604
:1002A00018B020B5FFF7A0FFBDE820404FF00006D2
:1002B0004FF000074FF000084FF0000B21F007014E
:1002C000AC46ACE8C009ACE8C009ACE8C009ACE891
:1002D000C0098D4670472DE9F04106460024D6E955
:1002E0000170F5688046304603E04146B847641C1B
:1002F0003046A8470028F8D12046BDE8F08110B567
:100300000446AFF300802046BDE81040FFF757BF1A
:1003100000487047D400002008B50121082000F0F3
:10032000BDFA4FF48070ADF8000010208DF8030086
:1003300003208DF802006946044800F02FF94FF4BD
:100340008071024800F0BEF908BD0000000C0140B9
:1003500000BFFEE77047000010B50A2000F0BCFBAC
:100360000121084800F0A5F9012807D106480068D6
:1003700008B9012000E0002003490860012000F0D6
:100380009DF810BD00080140A081214210B50A204F
:1003900000F0A2FB0821084800F08BF938B90748A3
:1003A000006808B9012000E0002004490860082026
:1003B00000F084F810BD0000001801409481214233
:1003C00010B50A2000F088FB10210C4800F071F9EC
:1003D00080B90B48006808B9012000E000200849F6
:1003E00008600848D0F8940108B9012000E0002016
:1003F00005490860102000F061F810BD00180140A8
:100400009481214200002342940123420EB500F062
:100410005FF90121084600F041FA0321042000F0B1
:100420009DF80820019000208DF808000C208DF820
:10043000090001A800F048F80421084600F08EF8F1
:100440001020019001A800F03FF80021084600F0BC
:1004500085F80120019008208DF8090001A800F01E
:1004600033F806208DF8000002208DF801000320EB
:100470008DF8020001208DF80300684600F0CAF9EB
:1004800009208DF8000002208DF8010001208DF870
:1004900002008DF80300684600F0BCF90A208DF8D0
:1004A000000002208DF8010000208DF802000120DC
:1004B0008DF80300684600F0ADF90EBD01490860F3
:1004C0007047000014040140002123498279002A6A
:1004D0003AD00A46126803689A430B461A600A1D0E
:1004E000126803689A430B1D1A60027911440A6866
:1004F00003681A430A60184A0832126803689A436C
:10050000154B08331A601A1D126803689A43124B80
:100510000C331A604279102A0ED11A1F1268036830
:100520001A430D4B08331A601A1D126803681A43E8
:10053000094B0C331A600DE00749427911440A68EF
:1005400003681A430A6005E0027911440A680368E7
:100550009A430A60704700000004014030B5002251
:100560008B071C0F0F2303FA04F20B4B8C1053F86C
:1005700024309343084C8D1044F8253023468C10CA
:1005800053F824308C07240F00FA04F42343024C60
:100590008D1044F8253030BD080001402DE9F041B0
:1005A000024600250026002000230024002791F8A1
:1005B00003C00CF00F0591F803C00CF0100CBCF157
:1005C000000F03D091F802C04CEA050591F800C075
:1005D000BCF1000F31D0146800202BE04FF0010C6B
:1005E0000CFA00F3B1F800C00CEA03069E4220D1D9
:1005F00083004FF00F0C0CFA03F7BC4305FA03FC21
:100600004CEA040491F803C0BCF1280F06D14FF066
:10061000010C0CFA00FCC2F814C00AE091F803C007
:10062000BCF1480F05D14FF0010C0CFA00FCC2F8E8
:1006300010C0401C0828D1D31460B1F800C0BCF130
:10064000FF0F34DD546800202EE000F1080C4FF05D
:10065000010808FA0CF3B1F800C00CEA03069E4248
:1006600021D183004FF00F0C0CFA03F7BC4305FABD
:1006700003FC4CEA040491F803C0BCF1280F05D137
:1006800000F1080C08FA0CF8C2F8148091F803C0C5
:10069000BCF1480F07D100F1080C4FF0010808FA2F
:1006A0000CF8C2F81080401C0828CED35460BDE876
:1006B000F0810246002093680B400BB1012000E05E
:1006C00000207047416170470161704700BFFEE73D
:1006D00008B50121442000F0E1F81820ADF8000031
:1006E00048208DF8030069460648FFF757FF0120B0
:1006F000ADF8000028208DF8030069460248FFF796
:100700004DFF08BD001801400008014008B5012157
:10071000082000F0C3F80121402000F0BFF81020AD
:100720008DF803002020ADF8000003208DF80200B2
:1007300069460C48FFF732FF20210A48FFF7C4FF43
:1007400010208DF803002020ADF8000003208DF864
:10075000020069460448FFF721FF20210248FFF705
:10076000B3FF08BD000C0140001801402DE9F04125
:100770000746884614461D46284600F033F8C5F162
:10078000040007FA00F60F20284100EA080006439B
:1007900006F00F06E21704EBD2625211920002F14A
:1007A000E022D2F800212146E31704EBD3635B116A
:1007B000A4EB431C012303FA0CF31A432046E3176E
:1007C00004EBD3635B119B0003F1E023C3F800212A
:1007D0000348005D40EA061001490855BDE8F08174
:1007E00000E400E00146072323EA01021202054B60
:1007F00018684FF6FF031840034B18431043014B92
:10080000186070470CED00E00000FA0500BFFEE73D
:100810007047000070B5002100220F23C478FCB19E
:10082000154C246804F4E064C4F5E064210AC1F1C5
:100830000402447804FA02F184781C40214309013F
:100840000E4C0678A155047804F01F050124AC4035
:1008500005786D11AD0005F1E025C5F8004109E00E
:10086000047804F01F050124AC40054D067876118C
:1008700045F8264070BD00000CED00E000E400E00B
:1008800080E100E002490143024A11607047000024
:100890000000FA050CED00E07047000029B1064A9F
:1008A00092690243044B9A6104E0034A92698243CD
:1008B000014B9A617047000000100240704710B56C
:1008C00000F002F810BD00000CB50020019000906F
:1008D0003348006840F480303149086000BF304838
:1008E000006800F4003000900198401C01900098CE
:1008F00018B90198B0F5A06FF1D12948006800F44B
:10090000003010B10120009001E00020009000981C
:10091000012843D12348006840F0100021490860B5
:100920000846006820F0030008600846006840F0B0
:10093000020008601A484068194948600846406843
:1009400048600846406840F4806048600846406857
:1009500020F47C1048600846406840F4E810486085
:100960000846006840F08070086000BF0C480068CE
:1009700000F000700028F9D00948406820F003001A
:10098000074948600846406840F00200486000BFE0
:100990000348406800F00C000828F9D10CBD0000A5
:1009A00000100240002002407047000010B51348BC
:1009B000006840F00100114908600846406810498D
:1009C00008400E494860084600680E4908400B4937
:1009D00008600846006820F48020086008464068E7
:1009E00020F4FE0048604FF41F008860FFF767FFA7
:1009F0004FF000600449086010BD00000010024084
:100A00000000FFF8FFFFF6FE08ED00E01D49098831
:100A100001F0200111B31B49091D0988C8B21A4908
:100A2000098801F40041C9B91749098801F48041D6
:100A300061B10A2803D00021134A118020E0124935
:100A4000098841F40041104A118019E00D2806D1AF
:100A50000D49098841F480410B4A118010E00A4990
:100A60000988C1F30D01094A505407490988491CF6
:100A7000054A118011460988C72901DD002111802E
:100A80007047000000380140080000200C000020E2
:100A900000BFFEE700BF70474FF0E021096921F079
:100AA00004014FF0E0221161C21700EB5272C2F351
:100AB000C702074B1A701946097801EB4102C2EBD5
:100AC000C1114FF6FF7202EAC101024A118070475C
:100AD000000000200200002001460D4A12884A430F
:100AE0004FF0E0235A6100229A6101221A6100BF8F
:100AF0004FF0E022106900F001021AB100F48032D8
:100B0000002AF5D000224FF0E0231A619A61704765
:100B10000200002000BF054A128802F04002002AAD
:100B2000F9D0C2B2014B1B1D1A807047003801403A
:100B30004820FFF7B1FF4FF4A060FFF7A3FE4FF48A
:100B4000E131482000F018F8FFF7E0FDFFF7E4FB83
:100B5000FFF75CFC00200549086006E004A0FFF7F1
:100B600057FB4FF47A70FFF7B7FFF7E79481214204
:100B70004F4B0D0A000000002DE9F05F05460E46C0
:100B8000300100F0ABF981462E4905FB01F000F081
:100B9000A5F98246494600F0BFF80746384600F0FE
:100BA0007DF984B2204600F099F98346394600F079
:100BB00075FA82464FF0834100F0A4F9814600F0B7
:100BC0006DF980464FF6FF7000EA041404EB08004C
:100BD00084B21D48806940F004001B4988610846C2
:100BE000806940F4804088611848006820F47F6084
:100BF000164908600846006840F40B600860124817
:100C0000C06840F480401049C8600846C06820F4BD
:100C10008040C8600E480480001D008842F20C012C
:100C200008430B49091D08800846008840F0200051
:100C300008800223252203210846FFF797FDBDE81F
:100C4000F09F000040420F000010024004080140E5
:100C50000838014090EA010F48BF81F0004100F1DF
:100C60002E82421A3CBF801A89184FEAD0524FF0A8
:100C70007F4C1CEA410FA2EBD15318BF9CEA026FD4
:100C800000F03B804FF0004C4CEA00204CEA012180
:100C900021FA03FC10EB0C0C1ED202F1FF325FEACA
:100CA0001C2040EBC25038BF70471CF07F0F4FEA4A
:100CB000400C18BFBCF17F4F38BF7047C3F1200311
:100CC000994008BF20F00100BCF17F4F38BF70474A
:100CD000A0F1C04000F0DDB94FEA3C00000A40EB53
:100CE000C25028BF1CF0FF0F4FEA400CE6D018BFDF
:100CF000BCF17F4F38BF7047EAE79CEA026F05D02E
:100D000010EA5C0F08BF00F00040704710B500F01B
:100D10007AF900BF64FBBE3E4FF47F0C1CEAD01290
:100D20001EBF1CEAD11392EA0C0F93EA0C0F00F0DD
:100D3000858090EA010F48BF42F4807240F4000CB5
:100D400041F400002CF07F4120F07F4000B581424B
:100D5000A2EB03020FF2081CACEB504EC0F10000F6
:100D60009EF800E04FEA4E0E00FB0EFC38BF490033
:100D70004FEA2C1C02F5FA020CFB0EF34FEACE1ED2
:100D80004FEA112C4FEAC1210EEB635E42EB224287
:100D90000EFB0CFC4FEA1C5300FB03114FEA112C15
:100DA0004FEA01310EFB0CFC4FEADC4C00FB0C114E
:100DB000C14228BF09184CEB03335DF804EB10EB7C
:100DC000410143EBC250B2F57C0F38BF704729D5C3
:100DD00012F0F00F1CBF00F1C04000F0004070475F
:100DE000008182838485868788898B8C8D8E8F9104
:100DF0009293959697999A9C9D9FA0A2A3A5A7A828
:100E0000AAACAEB0B2B3B5B7B9BCBEC0C2C5C7C953
:100E1000CCCED1D4D7D9DCDFE2E6E9ECF0F3F7FAB7
:100E2000FE0000004FEA400C0CF1807CBCF17E4FCC
:100E300028BF7047B0F1C04000F02BB990EA010F15
:100E40000CEAD11348BF42F48072624538BF634553
:100E500007D213F47F0F16D080EA010000F00040A3
:100E6000704710B500F0CFF8097EFC3E00F005B8E1
:100E700080EA010000F00040704780EA010000F0C5
:100E8000004000F006B912F47F0F04BF024870471B
:100E900080EA010000F0FDB80000C07FC10DD1F173
:100EA0009E0206DB4FEA002343F0004323FA02F0E0
:100EB0007047004207D54FEA4001B1F1FE4F02D220
:100EC0004FF00000704710B500F09DF84992248063
:100ED000002070476FEA200070470000B0FA80F3EE
:100EE00010FA03F2C3F19D030AD0D90501EB1220D9
:100EF000530638BF704700F1010008BF20F0010021
:100F0000704700004FF47F0C1CEAD0121EBF1CEA91
:100F1000D11392EA0C0F93EA0C0F00F0478090EA8D
:100F2000010F48BF42F480724FF0004C4CEA0020A1
:100F30004CEA012102EB0302A0FB0113A2F500021F
:100F4000002918BF43F001035B0028BF4FEA3303B9
:100F500042EB22425FEA132C4CEBC2502EBFBCEB9B
:100F6000436FB2F57C0F70474FEA036CBCF1004F42
:100F700008BF20F00100B2F57C0F38BF70470BD5D9
:100F800082F0FF0212F5803FC8BF704700F1C040F9
:100F9000D8BF00F00040704700F5000C5FEA4C0C31
:100FA00048BF7047B0F1C04000F073B890EA010F3D
:100FB0000CEAD11348BF42F48072624538BF6345E2
:100FC00004D280EA010000F00040704710B500F044
:100FD0001AF800BF8900013E00F007B800F009B818
:100FE0005FEA410C5FEA1C6C08D080EA010000F067
:100FF00050B85FEA400C5FEA1C6CF6D14FF000403D
:10100000A0F5800070470EF1020E2EF0030E5EF880
:10101000044B244204D44FEA4102B2F17F4F11D86D
:101020004FEA4003B3F17F4F0CD80ED14FEAD07C8A
:10103000B2F17F4F0CEB4C0C0CF1020C08BF4CEBE7
:10104000D17C04E04FF0080C01E04FEAD17C0CEBBE
:101050004C0324FA03F404F00704B4F1040C06D2A0
:101060000EEB840CBDE810404CF0010C6047DFE84B
:101070000CF0070802024FF00040A0F5800010BD00
:101080000846420018BFD2F1807288BF00F00040CD
:1010900010BDFF2141EAD050C005704780F00040EC
:1010A00090EA010F7FF5DDAD81F0004100F007B857
:1010B00090EA010F48BF81F000413FF5D2AD421ADE
:1010C00004D882F00042A0EB020011444FEAD05253
:1010D0004FF07F4C1CEA410FA2EBD15318BF9CEAA2
:1010E000026F4AD04FF0004C4CEA00204CEA01213C
:1010F00021FA03FCB0EB0C0C0FD412F0FE0F36D02B
:101100005FEA4C001DD5001240EBC25038BF70475B
:101110001CF03F0F18BF70470BE0A2F101025FEA1D
:101120001C2040EBC25038BF70471CF07F0F18BF27
:101130007047C3F12003994014BF401E20F0010006
:10114000704780084FEA122308BF7047B0FA80FC4E
:10115000A2EB0C02CCF1280C60FA0CF093EA122FEF
:1011600004BF00EBC25070474FEAC3707047130AC8
:101170005FEADC1008BF7047F6E79CEA026F04D014
:1011800010EA5C0F08BF0020704710B5FFF73BFF67
:1011900040DFF63E81F0004070470000BC110008BF
:1011A000000000200C0000006C010008C8110008BD
:1011B0000C0000202C07000088010008000000003F
:0811C000000000000000000027
:04000005080001CD21
:00000001FF
