:020000040800F2
:1000000038070020CD01000829050008BF040008BA
:10001000250500087D020008950700080000000083
:10002000000000000000000000000000C105000802
:1000300081020008000000009D050008AD060008D0
:10004000E7010008E7010008E7010008E7010008F0
:10005000E7010008E7010008E7010008E7010008E0
:10006000E7010008E7010008E7010008E7010008D0
:10007000E7010008E7010008E7010008E7010008C0
:10008000E7010008E7010008E7010008E7010008B0
:10009000E7010008E7010008E7010008E7010008A0
:1000A000E7010008E7010008E7010008E701000890
:1000B000E7010008E7010008E7010008E701000880
:1000C000E7010008E7010008E7010008E701000870
:1000D000E701000811070008E7010008E701000830
:1000E000E7010008E7010008E7010008E701000850
:1000F000E7010008E7010008E7010008E701000840
:10010000E7010008E7010008E7010008E70100082F
:10011000E7010008E7010008E7010008E70100081F
:10012000E7010008E7010008E7010008E70100080F
:1001300000F002F800F03AF80AA090E8000C8244BF
:100140008344AAF10107DA4501D100F02FF8AFF29C
:10015000090EBAE80F0013F0010F18BFFB1A43F0A5
:10016000010318475007000070070000103A24BF31
:1001700078C878C1FAD8520724BF30C830C144BF0C
:1001800004680C607047000000230024002500264E
:10019000103A28BF78C1FBD8520728BF30C148BFEA
:1001A0000B6070471FB51FBD10B510BD00F033F8D0
:1001B0001146FFF7F7FF00F06FFB00F051F803B4B2
:1001C000FFF7F2FF03BC00F0E7FA000009488047A0
:1001D00009480047FEE7FEE7FEE7FEE7FEE7FEE729
:1001E000FEE7FEE7FEE7FEE704480549054A064B41
:1001F00070470000B10600083101000838010020F6
:10020000380700203803002038030020704770476B
:10021000704770477047754600F02CF8AE460500F1
:100220006946534620F00700854618B020B5FFF711
:10023000DBFFBDE820404FF000064FF000074FF015
:1002400000084FF0000B21F00701AC46ACE8C009F4
:10025000ACE8C009ACE8C009ACE8C0098D467047FD
:1002600010B50446AFF300802046BDE81040FFF70C
:10027000A6BF000000487047D400002000BFFEE782
:1002800070470EB50121084600F08AF909210020C7
:1002900000F068F80321042000F064F808200190C1
:1002A00000208DF808000C208DF8090001A800F04E
:1002B0000FF808208DF8000002208DF801008DF85D
:1002C000020001208DF80300684600F02FF90EBDF2
:1002D000002123498279002A3AD00A46126803682D
:1002E0009A430B461A600A1D126803689A430B1D55
:1002F0001A60027911440A6803681A430A60184AAE
:100300000832126803689A43154B08331A601A1DA5
:10031000126803689A43124B0C331A604279102A10
:100320000ED11A1F126803681A430D4B08331A6066
:100330001A1D126803681A43094B0C331A600DE04A
:100340000749427911440A6803681A430A6005E0C4
:10035000027911440A6803689A430A6070470000F2
:100360000004014030B500228B071C0F0F2303FA55
:1003700004F20B4B8C1053F824309343084C8D102F
:1003800044F8253023468C1053F824308C07240F72
:1003900000FA04F42343024C8D1044F8253030BD9C
:1003A000080001402DE9F04102460025002600200A
:1003B00000230024002791F803C00CF00F0591F8EA
:1003C00003C00CF0100CBCF1000F03D091F802C078
:1003D0004CEA050591F800C0BCF1000F31D014685B
:1003E00000202BE04FF0010C0CFA00F3B1F800C034
:1003F0000CEA03069E4220D183004FF00F0C0CFA4A
:1004000003F7BC4305FA03FC4CEA040491F803C06B
:10041000BCF1280F06D14FF0010C0CFA00FCC2F819
:1004200014C00AE091F803C0BCF1480F05D14FF0A9
:10043000010C0CFA00FCC2F810C0401C0828D1D3F3
:100440001460B1F800C0BCF1FF0F34DD5468002027
:100450002EE000F1080C4FF0010808FA0CF3B1F897
:1004600000C00CEA03069E4221D183004FF00F0C1E
:100470000CFA03F7BC4305FA03FC4CEA040491F8B8
:1004800003C0BCF1280F05D100F1080C08FA0CF8E4
:10049000C2F8148091F803C0BCF1480F07D100F1F5
:1004A000080C4FF0010808FA0CF8C2F81080401C44
:1004B0000828CED35460BDE8F0810161704700BFC9
:1004C000FEE7000008B50121082000F069F80121CD
:1004D000402000F065F810208DF803002020ADF8D2
:1004E000000003208DF8020069460C48FFF75AFF10
:1004F00020210A48FFF7E1FF10208DF8030020209B
:10050000ADF8000003208DF8020069460448FFF7AB
:1005100049FF20210248FFF7D0FF08BD000C014031
:100520000018014000BFFEE77047000070B50021D1
:1005300000220F23C478FCB1154C246804F4E06455
:10054000C4F5E064210AC1F10402447804FA02F11E
:1005500084781C40214309010E4C0678A15504788B
:1005600004F01F050124AC4005786D11AD0005F1C4
:10057000E025C5F8004109E0047804F01F050124D6
:10058000AC40054D0678761145F8264070BD000058
:100590000CED00E000E400E080E100E070470000C6
:1005A00029B1064A92690243044B9A6104E0034A66
:1005B00092698243014B9A6170470000001002402B
:1005C000704710B500F002F810BD00000CB5002017
:1005D000019000903348006840F480303149086051
:1005E00000BF3048006800F4003000900198401CC3
:1005F0000190009818B90198B0F5A06FF1D1294881
:10060000006800F4003010B10120009001E00020EB
:1006100000900098012843D12348006840F0100062
:10062000214908600846006820F003000860084679
:10063000006840F0020008601A48406819494860A4
:100640000846406848600846406840F4806048605A
:100650000846406820F47C1048600846406840F432
:10066000E81048600846006840F08070086000BFED
:100670000C48006800F000700028F9D00948406874
:1006800020F00300074948600846406840F0020037
:10069000486000BF0348406800F00C000828F9D10A
:1006A0000CBD000000100240002002407047000016
:1006B00010B51348006840F0010011490860084671
:1006C0004068104908400E494860084600680E49D5
:1006D00008400B4908600846006820F48020086044
:1006E0000846406820F4FE0048604FF41F00886010
:1006F000FFF767FF4FF000600449086010BD00007D
:10070000001002400000FFF8FFFFF6FE08ED00E0D9
:100710001D49098801F0200111B31B49091D0988F1
:10072000C8B21A49098801F40041C9B917490988B2
:1007300001F4804161B10A2803D00021134A1180DD
:1007400020E01249098841F40041104A118019E063
:100750000D2806D10D49098841F480410B4A1180CA
:1007600010E00A490988C1F30D01094A50540749AC
:100770000988491C054A118011460988C72901DDED
:10078000002111807047000000380140080000205F
:100790000C00002000BFFEE700BF70474FF0E021D3
:1007A000096921F004014FF0E0221161C21700EB4A
:1007B0005272C2F3C702074B1A701946097801EB4F
:1007C0004102C2EBC1114FF6FF7202EAC101024AB7
:1007D00011807047000000200200002001460D4AF1
:1007E00012884A434FF0E0235A6100229A610122A5
:1007F0001A6100BF4FF0E022106900F001021AB147
:1008000000F48032002AF5D000224FF0E0231A6174
:100810009A6170470200002008B501210420FFF70B
:10082000BFFE7020ADF8000010208DF803000320FB
:100830008DF8020020210848FFF73FFE40210648BE
:10084000FFF73BFE10210448FFF737FE69460248D8
:10085000FFF7A8FD08BD00000008014010B500200A
:100860000949086001200949C1F898010020084998
:1008700008606420FFF7B2FF01200649C1F8940127
:100880006420FFF7ABFF10BD94012142000021421C
:1008900094812142008021424820FFF77FFFFFF72B
:1008A00011FEFFF7B9FFFFF7ECFC01E0FFF7D6FF01
:1008B000FCE70000D4080008000000200C00000045
:1008C0006C010008E00800080C0000202C07000064
:1008D0008801000800000000000000000000000087
:04000005080001CD21
:00000001FF
