:020000040800F2
:10000000F80600202D0200080B440008430B0008EE
:100010000944000859070008D95B000800000000E7
:1000200000000000000000000000000097510008E0
:100030005B070008000000000D4E00085952000840
:10004000470200084702000847020008470200086C
:1000500047020008470200085D0700084702000841
:100060004702000895070008CD070008470200086E
:10007000470200084702000847020008470200083C
:10008000470200084702000847020008470200082C
:100090004702000847020008470200084908000814
:1000A000470200084702000847020008470200080C
:1000B0004702000895530008C9530008470200088A
:1000C00047020008470200084702000847020008EC
:1000D000470200083D5A000847020008470200088E
:1000E00047020008470200084702000847020008CC
:1000F00047020008470200084702000847020008BC
:10010000470200084702000885540008470200081B
:1001100047020008470200080D5500084702000882
:10012000470200084702000847020008470200088B
:1001300000F002F800F06BF80AA090E8000C82448E
:100140008344AAF10107DA4501D100F060F8AFF26B
:10015000090EBAE80F0013F0010F18BFFB1A43F0A5
:10016000010318475C8D00007C8D00000A444FF0AD
:10017000000C10F8013B13F0070408BF10F8014B06
:100180001D1108BF10F8015B641E05D010F8016B4B
:10019000641E01F8016BF9D113F0080F1EBF10F8AF
:1001A000014BAD1C0C1B09D16D1E58BF01F801CBD2
:1001B000FAD505E014F8016B01F8016B6D1EF9D555
:1001C0009142D6D37047000000230024002500266A
:1001D000103A28BF78C1FBD8520728BF30C148BFAA
:1001E0000B607047642900F0B180752900F0AE8083
:1001F000782900F0E780632900F05982732900F024
:100200005E82002070471FB51FBD10B510BD00F005
:1002100071FA1146FFF7F7FF05F046FD00F08FFA7F
:1002200003B4FFF7F2FF03BC05F0DEFC094880478A
:1002300009480047FEE7FEE7FEE7FEE7FEE7FEE7C8
:10024000FEE7FEE7FEE7FEE704480549034A054BE3
:10025000704700005D52000831010008F8020020DC
:10026000F8060020F8020020704700000FB404498F
:1002700010B503AA029800F027FA10BC5DF814FB31
:10028000600000200FB41CB5074B06AA7B446946EA
:100290000090059800F0E9F90020694600F0F8F9AF
:1002A0001CBC5DF814FB00000104000070B504469E
:1002B00085690068C10601D5302600E02026C00708
:1002C00007D070BDD4E9012130469047206A401C18
:1002D00020626D1EF6D570BD70B504468569007844
:1002E000C00707D170BDD4E9012120209047206AC2
:1002F000401C20626D1EF6D570BD70B50C460546DB
:10030000012A05D02878800600D5EA69002302E09A
:10031000012305E05B1C934202D2E05C0028F9D186
:10032000A869E618C01AA861286A184428622846F5
:10033000FFF7BCFF04E0D5E9012114F8010B904759
:10034000B442F8D32846FFF7C7FF70BD2DE9F0414E
:100350000646002410687529314616A510D0AFF363
:100360000080002802DA404213A507E031688A07BE
:1003700001D512A502E0490704D511A5012401E029
:10038000AFF3008000210A2206F1240709E0B0FB48
:10039000F2FCB0FBF2F302FB1C003030785418463C
:1003A000491C0028F3D123462A463046BDE8F041D7
:1003B00000F0FCB8000000002D0000002B00000041
:1003C0002000000070B504460D4621461068AFF3CA
:1003D00000802188090502D50F4A7A4402E00E4ABE
:1003E0007A440E32002104F1240305E000F00F06E8
:1003F0000009965D5E54491C0028F7D1207800233F
:10040000000704D5702D02D009B102231132204615
:10041000BDE8704000F0CAB8348900002DE9F05FF3
:10042000894604464FF0000ADFF874B1FB44C0F877
:1004300020A02046E1688847002874D0252806D0EF
:10044000D4E901219047206A401C2062F1E7002690
:100450005F462046E16888472028054607DB312DA6
:1004600005D2781910F8200C08B10643F1E7B0075F
:1004700001D526F00406C4F81CA00027C4F818A073
:100480002A2D09D0284605F0A8FB38B304EB8708CD
:10049000303DC8F8185019E059F8041B204604EB09
:1004A00087029161E1688847012F054618D1E0690C
:1004B000002820DA26F020061DE0D8F8180000EB0E
:1004C000800005EB40003038C8F818002046E1688D
:1004D0008847054605F081FB0028EED1012F0AD0A0
:1004E0002E2D08D12046E16888477F1C0546022F43
:1004F00046F02006C4DBA069002803DA404246F03B
:100500000106A061F00701D026F010066C2D0BD07B
:10051000682D09D04C2D39D06A2D35D0742D35D0A9
:100520007A2D33D016E038E0E1682F462046884720
:10053000B842054609D16C2F26D04FF48060E1689F
:10054000064320468847054604E06C2F1AD04FF436
:10055000807006430DB3A5F14100192802D820355B
:1005600046F400664A462946204626604E46FFF776
:1005700039FE80B101280BD0F61D26F0070000F1EE
:10058000080956E74020E4E78020D8E70020D6E7B6
:1005900006F104094DE7284652E7206ABDE8F09FBE
:1005A0000A89000070477047704770472DE9F0478F
:1005B0000D4699469246044600F1240801688806D3
:1005C00004D5E06921F01001216000E00120A8427B
:1005D00001DD471B00E00027A1697A1902EB090041
:1005E000081AA0612078C00602D42046FFF75EFEFC
:1005F000002608E0D4E901211AF806009047206A95
:10060000401C761C20624E45F4DB2078C0060AD5DB
:100610002046FFF74BFE06E0D4E901213020904749
:10062000206A401C2062381EA7F10107F4DC07E0B5
:10063000D4E9012118F805009047206A401C206287
:10064000281EA5F10105F3DC2046FFF745FE2078C2
:10065000000602D50220BDE8F0870120FBE700007C
:1006600001694A1C02610878704700B58FB0CDE976
:1006700001310021059105497944CDE90310114666
:100680006846FFF7CBFE0FB000BD0000E5FFFFFF9F
:100690000A6802F8010B0A60704710B5436913B18C
:1006A000AFF3008001E0FFF728FE012010BD1278B3
:1006B00000F124010A7000224A700122EDE711685E
:1006C0004FF0FF32E9E70000074B70B50D467B4461
:1006D000FFF7CBFF0446284600F008F810B14FF0B2
:1006E000FF3070BD204670BDBF550000007B00F09C
:1006F00080007047754600F02BF8AE46050069464D
:10070000534620F00700854618B020B5FFF79CFD42
:10071000BDE820404FF000064FF000074FF0000802
:100720004FF0000B21F00701AC46ACE8C009ACE883
:10073000C009ACE8C009ACE8C0098D46704710B5E7
:100740000446AFF300802046BDE81040FFF768BDC7
:100750000048704798020020FEE7704710B50A2055
:1007600005F062FA0121094800F0E0F9012806D1FC
:100770000749D1F8A00138B10020C1F8A001BDE8B7
:100780001040012000F082B80120F6E70008014087
:100790000080214210B50A2005F046FA08210948D8
:1007A00000F0C4F930B90849D1F8940138B10020FB
:1007B000C1F89401BDE81040082000F067B801209E
:1007C000F6E70000001801400000234210B50A209F
:1007D00005F02AFA1021094800F0A8F930B90849B3
:1007E000D1F8940138B10020C1F89401BDE810405F
:1007F000102000F04BB80120F6E70000001801407F
:10080000008021423EB50821002000F001F94FF49C
:100810008070002400908DF8044008208DF80500B9
:1008200001258DF80650684600F046F817208DF82F
:1008300008008DF809408DF80A408DF80B5002A889
:1008400003F0E4FD3EBD000010B54FF48074204677
:1008500000F022F801280DD1094A0020C2F89801C1
:100860000121C2F898110748C0F88C110648017898
:10087000491C01702046BDE8104000F007B8000098
:10088000008022420080214252000020014908607D
:100890007047000014040140064A01460020126817
:1008A000044B0A4014331B680B4202D0002A00D0CC
:1008B000012070470004014030B51A4A837901686D
:1008C00053B313688B431360111D0B680468A34373
:1008D0000B60017911440B68046823430B60114BD2
:1008E000083319680468A14319601C1D2168056854
:1008F000A94321604179102905D011440A68006894
:1009000002430A6030BD196802681143196021680A
:1009100000680143216030BD0079104402688A43B9
:10092000026030BD000401408000A0F1C0400029F9
:10093000016802D041F0010101E0024A114001606A
:1009400070470000FEFF0F0010B5D0E901121143FF
:10095000D0E903231A4311434269114382691143C9
:10096000C2691143026A1143426A1143826A114308
:10097000C26A1143026B114302689200A2F1C042A5
:1009800011608168082907D101688900A1F1C0417F
:100990000A6842F040020A60416BD1E9002342EA52
:1009A00003128B688C891B0243EA04431A430B8AA7
:1009B00042EA03520B7D896942EA03620A430168F5
:1009C0008900A1F1C0414A60C16AB1F5804F08D0E9
:1009D00000686FF070418000A0F1C040C0F80411C1
:1009E00010BD816BD1E9002342EA03128B680C8AA7
:1009F0001B0243EA04531A430B7D896942EA0362EE
:100A000000680A438000A0F1C040C0F8042110BD76
:100A100010B58A0721F003040649120F21440F2361
:100A20008C6893409C438C608B68904003438B6040
:100A300010BD000000000140F0B5CC78002204F0A9
:100A40000F03E40601D58C7823430C784FF00F0C8C
:100A500014F0FF0F4FF0010E1BD005680E880EFA40
:100A600002F42640A64210D196000CFA06F725EAB9
:100A7000070703FA06F5CE783D43282E02D0482E0C
:100A800002D002E0446100E00461521C082AE5D370
:100A900005600A88FF2A1CD94468002202F1080672
:100AA0000EFA06F50E882E40AE420ED196000CFAD4
:100AB00006F7BC4303FA06F7CE783C43282E00D154
:100AC0004561CE78482E00D10561521C082AE5D335
:100AD0004460F0BDF0B5144C002801DAE36900E091
:100AE0006368450D2E0185B2C0F30157B540C0F3D0
:100AF0000342032F05D0C6020AD503269640B3430E
:100B000007E023F07062636823F07063636002E0C3
:100B1000AB4343F0706201B12A43002801DAE2617D
:100B2000F0BD6260F0BD0000000001400246002000
:100B300092680A4200D0012070474161704701610C
:100B40007047FEE708B50121442004F079F9182028
:100B5000ADF8000048208DF8030069460648FFF70D
:100B60006BFF0120ADF8000028208DF803006946D6
:100B70000248FFF761FF08BD00180140000801406E
:100B80002DE9F041254C264F264D012608B126704F
:100B900001E0207878B110212846FFF7C7FF88B11F
:100BA00008212846FFF7C2FF60B101213846FFF750
:100BB000BDFF012806D010212846FFF7B7FF012806
:100BC0001DD028E00A2005F02FF800202070102109
:100BD0002846FFF7ABFF58B108212846FFF7A6FFCC
:100BE00048B101213846FFF7A1FF012805D012E0E6
:100BF0000120BDE8F0810220FBE70320F9E708218E
:100C00002846FFF793FF012805D101213846FFF759
:100C10008DFF00B926700020EBE70000480000209F
:100C200000080140001801402DE9F043174F064627
:100C3000002438887D884543B888A0F5D041043920
:100C400002D1B879012807D00021084603F0B0F995
:100C500003F0A0FB0E4815E00020B8714FF02A0900
:100C6000A7F80A904FF02B08A7F80C80014603F074
:100C70009FF90120B871A7F80A80A7F80C90E7E760
:100C80000680641CAC42FBD3BDE8F083C0010020A9
:100C90000008006C2DE9F04F4A492A232B2489884B
:100CA00045F2105A4FF4305B4FF4285E4FF448750C
:100CB0004FF0F00C49F241394FF4A07745F210366D
:100CC0004FF4F07280B13F484FF00108494580F879
:100CD00006800780A0F802C001D0B1423ED12C2589
:100CE00005814381848157E036484FF0000849452B
:100CF00080F80680A0F800C0478006D0A1F5D04C4F
:100D0000BCF1040C01D0B1420CD12C2505814381EA
:100D1000A1F5D0438481043B01D0B14244D1078086
:100D2000428041E0514507D1A0F808B0A0F80AE0A0
:100D30004FF42C5181810EE0A1F5C856633E06D0D8
:100D40002221018120214181212181812CE02C213E
:100D50000181448183810280458025E0A1F5D04C4A
:100D6000BCF1040C09D051450BD1A0F808B0A0F893
:100D70000AE04FF42C53838121E02C250581448126
:100D800009E0A1F5C85CBCF1630C12D022230381F9
:100D90002123438120238381A1F5D043043B01D04B
:100DA000B14201D102804780BDE8F04F002003F03E
:100DB0002BB84FF02C0CA0F808C04381848105802B
:100DC0004280E9E7C00100202DE9F04FDFF81081F3
:100DD000934642460B46B8F804500C0ADFF804A1CB
:100DE0009189060A5289A5F513470AF10209413F84
:100DF00019D0A5F5A647103F15D0A5F5AA47103F75
:100E00001CD04746A5F5C85CBE793F883F1A7F1EB7
:100E1000BCF1630C27D0A5F5D04CBCF1040C3AD042
:100E2000012E4AD04AE0AAF800204A46A9F80060FC
:100E3000C0B2A9F80000AAF800103AE0AAF8002011
:100E4000A9F80060521CAAF80020C0B2A9F800005E
:100E5000AAF80010A9F80040491CAAF80010D8B25E
:100E6000A9F8000033E006B9B8B2AAF80020050AD4
:100E70004A46A9F80050C7B2A9F80070A9F8005076
:100E8000C0B2A9F80000AAF80010A9F80040D8B232
:100E9000A9F800000DE0012E00D1B8B2AAF8002098
:100EA000050A4A46A9F80050C0B2A9F80000AAF8FD
:100EB00000101480D8B2108009E0B8B20146104684
:100EC00003F072FAB8F80C00194603F06DFAB8F89E
:100ED0000810AAF80010A9F800B0BDE8F08F0000D3
:100EE000C0010020FE07006C2DE9F8431F4D1F468E
:100EF0008046AB88089EA3F5D040043802D1A8797B
:100F0000012807D0A2EB0800401C85B20C46DFF890
:100F1000609028E02B880846991A0024AC713A4664
:100F20002A24A3EB08036C812B27491E5B1EAF818B
:100F300089B29BB20096FFF7D7FF0120A8716F819D
:100F4000AC81BDE8F8832146404603F031F803F058
:100F500021FA0020494602E00E80401C80B2A842DF
:100F6000FAD3641CA4B2BC42EDD9EAE7C001002068
:100F70000008006C2DE9F04F01210E029FB03046B1
:100F800003F046FF01214FF4B47003F059FF01272D
:100F9000ADF83C704FF010088DF83F8003248DF8B9
:100FA0003E400FA9FE48FFF747FD4CF23370ADF805
:100FB0003C0018258DF83F508DF83E400FA9F948A8
:100FC000FFF73AFD4FF68070ADF83C008DF83F50CA
:100FD0008DF83E400FA9F448FFF72EFD41F20100C5
:100FE000ADF83C008DF83F508DF83E400FA9EF481A
:100FF000FFF722FD00200F21CDE918011A901B9068
:101000001C901D901090CDE91104CDE916071490A5
:1010100006211590CDE90010CDE902081390049047
:101020003101CDE908010690059007908900CDE9CE
:101030000A010C9017A80D9010A80E906846FFF7B3
:1010400083FC01210620FFF76FFC322004F0ECFD49
:10105000002002F0AFFED64DD64C49F24139A880AF
:1010600046F6040A45F2103B45F210574FF6FF785A
:10107000FF2804D3404502D0B0F5134F70D1D320E0
:10108000208002F08DFEA88002F08AFEA88002F087
:1010900087FE08EA00204146A88002F081FEAA8867
:1010A0001043A88048455BD0BF20208002F078FE26
:1010B000A88002F075FEA88002F072FEA88002F0FF
:1010C0006FFE01EA0020A88002F06AFEAA881043A1
:1010D000A880504544D0D420208002F061FEA88032
:1010E00002F05EFEA88002F05BFE01EA0020A8800C
:1010F00002F056FEAA881043A880584530D04FF41D
:101100005A40208002F04CFEA8804FF45B402080C3
:1011100002F046FE01EA0020A8804FF45C402080E7
:1011200002F03EFEAA881043A880B0F5004F7DD0A3
:10113000B84215D0A120208002F032FEA88002F033
:101140002FFE01EA0020A88002F02AFEA9880843A9
:10115000A0F5AE41A880613902D141F66310A880A4
:10116000A98895A0FFF782F8A888924DAD1C484544
:101170007ED1CF20208000202880C12028803020F0
:101180002880ED20208064202880032028801220E1
:10119000288081202880E820208085202880102039
:1011A00028807A202880CB202080392028802C207D
:1011B0002880002028803420288002202880F720E2
:1011C000208020202880EA2020800020288028807D
:1011D000C02020801B202880C12020800120288062
:1011E000C5202080302028802880C7202080B7207C
:1011F000288036202080482028803A2020805520D2
:101200002880B1202080002028801A202880B62045
:1012100020800A202880A2202880F2202080002020
:101220002880262020800120288000E051E0E02056
:1012300020800F2028802A2028802820288008202D
:1012400028800E2028800820288054202880A9206B
:101250002880432028800A2028800F202880002012
:101260002880288028802880E1202080002000E03D
:1012700031E028801520288017202880072028802A
:1012800011202880062028802B20288056202880A6
:101290003C20288005202880102028800F202880CE
:1012A0003F20288028800F2028802B2020800020AD
:1012B00028802880012028803F2028802A20208024
:1012C0000020288028802880EF202880112020807E
:1012D00084E0AF8044E7504576D11120208014206F
:1012E00004F0A2FCD0202080072028804220288003
:1012F0001D202880D1202080002028801A202880CE
:1013000009202880D22020800120288022202880C7
:10131000C0202080102028803B20288000202880AA
:101320000220288011202880C520208003202880CA
:10133000C820208000202880252028802120288087
:1013400005202880002028800A2028806520288009
:101350002520288077202880502028800F20288072
:1013600000202880F820208001202880FE20208076
:101370000020288002202880202020803620208005
:10138000082028803A202080552028802B2020808B
:10139000002028802880012028803F20288014E019
:1013A000000C0140001401400018014000200140E1
:1013B000C0010020FE07006C204C43442049443A01
:1013C00025780D0A000000000EE02A202080002071
:1013D0002880288001202880DF202880782004F0C1
:1013E00023FC292001F02DBC58457DD1ED20208023
:1013F00001202880FE202880EE202080DE2028800A
:1014000021202880F120208001202880DF202080DA
:1014100010202880C42020808F202880C620208093
:1014200000202880E220288028802880BF2020807B
:10143000AA202880B02020800D202880002028802D
:101440000D2028800020288011202880002028805E
:101450001920288000202880212028800020288032
:101460002D202880002028803D20288000202880F2
:101470005D202880002028805D2028800020288092
:10148000B120208080202880002028808B20288088
:10149000002028809620288000202880B2202080EC
:1014A0000020288028800220288000202880032017
:1014B000288000202880B3202080002028802880D9
:1014C00028802880288028802880288028802880DC
:1014D00028802880288028802880288028802880CC
:1014E00028802880288000E0FEE32880288028804B
:1014F000B42020808B2028800020288096202880FF
:1015000000202880A120288000202880B52020806D
:1015100002202880002028800320288000202880A6
:101520000420288000202880B620208000202880E9
:101530002880B72020800020288028803F20288015
:10154000002028805E2028800020288064202880B9
:10155000002028808C20288000202880AC20288033
:1015600000202880DC20288000202880702028800F
:10157000002028809020288000202880EB202880D0
:1015800000202880DC20288000202880B8202080AF
:101590000020288028802880288028802880288093
:1015A0002880BA20208024202880002028802880BD
:1015B0002880C120208020202880002028805420DE
:1015C000288000202880FF20288000202880C2203A
:1015D00020800A20288000202880042028800020E5
:1015E0002880C32020803C202880002028803A20AA
:1015F000288000202880392028800020288037205B
:101600002880002028803C20288000202880362048
:1016100028800020288032202880002028802F2049
:101620002880002028802C20288000202880292045
:101630002880002028802620288000202880242040
:101640002880002028802420288000202880232033
:101650002880002028803C202880002028803620F8
:1016600028800020288032202880002028802F20F9
:101670002880002028802C202880002028802920F5
:1016800028800020288026202880002028802420F0
:1016900028800020288024202880002028802320E3
:1016A000288000202880C4202080622028800020FC
:1016B0002880052028800020288084202880002081
:1016C0002880F020288000202880182028800020F2
:1016D0002880A4202880002028801820288000202E
:1016E000288050202880002028800C20288000207E
:1016F000288017202880002028809520288000201E
:101700002880F320288000202880E62028800020E0
:101710002880C52020803220288000202880442076
:1017200028800020288065202880002028807620BE
:101730002880002028808820288000202880C6203B
:10174000208020202880002028801720288000204A
:1017500028800120288000202880C72020800020A9
:101760002880288028802880C82020800020288089
:10177000288028802880C920208000202880288078
:101780002880288028802880288028802880288019
:10179000288028802880288028802880E0202080B9
:1017A00016202880002028801C20288000202880E7
:1017B00021202880002028803620288000202880B2
:1017C0004620288000202880522028800020288061
:1017D00064202880002028807A202880002028800B
:1017E0008B202880002028809920288000202880B5
:1017F000A820288000202880B92028800020288068
:10180000C420288000202880CA202880002028802A
:10181000D220288000202880D920288000202880FD
:10182000E020288000202880F320288000202880C5
:10183000E120208016202880002028801C2028807D
:101840000020288022202880002028803620288020
:1018500000202880452028800020288052202880D1
:101860000020288064202880002028807A2028807A
:10187000002028808B202880002028809920288024
:1018800000202880A820288000202880B9202880D7
:1018900000202880C420288000202880CA2028809A
:1018A00000202880D220288000202880D82028806E
:1018B00000202880E020288000202880F320288035
:1018C00000202880E2202080052028800020288019
:1018D0000B202880002028801B20288000202880C2
:1018E0003420288000202880442028800020288060
:1018F0004F20288000202880612028800020288018
:1019000079202880002028808820288000202880B6
:101910009720288000202880A6202880002028806A
:10192000B720288000202880C2202880002028801E
:10193000C720288000202880D120288000202880EF
:10194000D620288000202880DD20288000202880C4
:10195000F320288000202880E32020800520288094
:10196000002028800A202880002028801C20288031
:1019700000202880332028800020288044202880D0
:101980000020288050202880002028806220288085
:101990000020288078202880002028808820288027
:1019A000002028809720288000202880A6202880DA
:1019B00000202880B720288000202880C22028808E
:1019C00000202880C720288000202880D12028805F
:1019D00000202880D520288000202880DD20288035
:1019E00000202880F320288000202880E420208008
:1019F00001202880002028800120288000202880C5
:101A000002202880002028802A202880002028808A
:101A10003C202880002028804B202880002028801F
:101A20005D202880002028807420288000202880C5
:101A3000842028800020288093202880002028806F
:101A4000A220288000202880B32028800020288021
:101A5000BE20288000202880C420288000202880E4
:101A6000CD20288000202880D320288000202880B6
:101A7000DD20288000202880F32028800020288076
:101A8000E5202080002028802880288028800220CF
:101A900028800020288029202880002028803C20C1
:101AA0002880002028804B202880002028805D206E
:101AB000288000202880742028800020288084200E
:101AC0002880002028809320288000202880A220C1
:101AD000288000202880B320288000202880BE2075
:101AE000288000202880C420288000202880CD2045
:101AF000288000202880D320288000202880DC2017
:101B0000288000202880F320288000202880E620DC
:101B10002080112028800020288034202880002068
:101B200028805620288000202880762028800020C9
:101B300028807720288000202880662028800020A8
:101B40002880882028800020288099202880002054
:101B50002880BB2028800020288099202880002011
:101B6000288066202880002028805520288000209A
:101B700028805520288000202880452028800020AB
:101B800028804320288000202880442028800020AE
:101B90002880E720208032202880002028805520BF
:101BA0002880002028807620288000202880662039
:101BB0002880002028806720288000202880672037
:101BC00028800020288087202880002028809920D5
:101BD000288000202880BB20288000202880992091
:101BE000288000202880772028800020288044201A
:101BF000288000202880562028800020288023204C
:101C0000288000202880332028800020288045203C
:101C1000288000202880E82020800020288028803C
:101C20009920288000202880872028800020288074
:101C30008820288000202880772028800020288085
:101C40006620288000202880882028800020288086
:101C5000AA20288000202880BB20288000202880FF
:101C60009920288000202880662028800020288055
:101C7000552028800020288055202880002028809A
:101C800044202880002028804420288000202880AC
:101C90005520288000202880E9202080AA20288044
:101CA00000202880288028802080AA202880CF201B
:101CB0002080002028802880288028802880288074
:101CC00028802880288028802880288028802880D4
:101CD000288028802880F020208000202880502024
:101CE00028800020288000E02CE028802880F32035
:101CF000208000202880F9202080062028801020C5
:101D0000288029202880002028803A202080552003
:101D1000288011202080642003F086FF2920208065
:101D2000352020800020288051202080FF2028801E
:101D3000532020802C20288055202080822028803D
:101D40002C20FCE3B8427DD14FF470435521184656
:101D500002F02AFB4FF20105AA21284602F024FBDB
:101D60006E1C5221304602F01FFBAF1C0821384682
:101D700002F01AFB4FF204090121484602F014FB5D
:101D80000D214FF4304002F00FFB0D214BF201000A
:101D900002F00AFB0D214BF2020002F005FB4FF4AA
:101DA000364A3421504602F0FFFA34214BF20160EA
:101DB00002F0FAFA34214BF2026002F0F5FA4FF425
:101DC000314B0D21584602F0EFFA0D214BF2011074
:101DD00002F0EAFA0D214BF2021002F0E5FA34218A
:101DE0004FF4374002F0E0FA34214BF2017002F078
:101DF000DBFA34214BF2027002F0D6FA00214FF4E4
:101E0000324002F0D1FA00214BF2012002F0CCFA6C
:101E100000214BF2022002F0C7FA24214FF438408F
:101E200002F0C2FA24214BF6010002F0BDFA24218F
:101E30004BF6020002F0B8FA01214FF43F4002F0E5
:101E4000B3FA00E0FEE30F214FF4334002F0ACFAA6
:101E50000F214BF2013002F0A7FA0F214BF20230B2
:101E600002F0A2FA34214FF4394002F09DFA3421F5
:101E70004BF6011002F098FA34214BF6021002F0F2
:101E800093FA08214FF4354002F08EFA08214BF204
:101E9000015002F089FA08214BF2025002F084FA54
:101EA00003214FF4424002F07FFA24214FF43A40DC
:101EB00002F07AFA24214BF6012002F075FA24216F
:101EC0004BF6022002F070FA00214FF43C4002F081
:101ED0006BFA78214BF6014002F066FA00214BF6CE
:101EE000024002F061FA00214FF43D4002F05CFA3A
:101EF00078214BF6015002F057FA00214BF60250C0
:101F000002F052FA00214FF43E4002F04DFA6421F3
:101F10004BF6016002F048FA00214FF4514002F004
:101F200043FA33214DF2011002F03EFA00214DF246
:101F3000021002F039FA34214DF2031002F034FAA3
:101F400000214DF2041002F02FFA3A214DF2051053
:101F500002F02AFA00214DF2061002F025FA4A2179
:101F60004DF2071002F020FA00214DF2081002F0A5
:101F70001BFA5C214DF2091002F016FA00214DF215
:101F80000A1002F011FA81214DF20B1002F00CFA46
:101F900000214DF20C1002F007FAA6214DF20D10AF
:101FA00002F002FA00214DF20E1002F0FDF9E521D7
:101FB0004DF20F1002F0F8F901214DF2101002F06D
:101FC000F3F913214DF2111002F0EEF901214DF257
:101FD000121002F0E9F954214DF2131002F0E4F965
:101FE00001214DF2141002F0DFF982214DF215109B
:101FF00002F0DAF901214DF2161002F0D5F9CA21EA
:102000004DF2171002F0D0F902214DF2181002F033
:10201000CBF900214DF2191002F0C6F902214DF260
:102020001A1002F0C1F901214DF21B1002F0BCF9A7
:1020300002214DF21C1002F0B7F934214DF21D10AF
:1020400002F0B2F902214DF21E1002F0ADF9672143
:102050004DF21F1002F0A8F902214DF2201002F0FB
:10206000A3F984214DF2211002F09EF902214DF2D4
:10207000221002F099F9A4214DF2231002F094F9F4
:1020800002214DF2241002F08FF9B7214DF22510F4
:1020900002F08AF902214DF2261002F085F9CF21D3
:1020A0004DF2271002F080F902214DF2281002F0C3
:1020B0007BF9DE214DF2291002F076F902214DF272
:1020C0002A1002F071F9F2214DF22B1002F06CF996
:1020D00002214DF22C1002F067F9FE214DF22D1075
:1020E00002F062F903214DF22E1002F05DF9102189
:1020F0004DF22F1002F058F903214DF2301002F08A
:1021000053F933214DF2311002F04EF903214DF213
:10211000321002F049F96D214DF2331002F044F90A
:1021200000214FF4524002F03FF933214DF20120DB
:1021300002F03AF900214DF2022002F035F9342183
:102140004DF2032002F030F900214DF2042002F09C
:102150002BF93A214DF2052002F026F900214DF22B
:10216000062002F021F94A214DF2072002F01CF965
:1021700000214DF2082002F017F95C214DF20920F0
:1021800002F012F900214DF20A2002F00DF981212E
:102190004DF20B2002F008F900214DF20C2002F064
:1021A00003F9A6214DF20D2002F0FEF800214DF2B8
:1021B0000E2002F0F9F8E5214DF20F2002F0F4F8BC
:1021C00001214DF2102002F0EFF813214DF2112001
:1021D00002F0EAF801214DF2122002F0E5F8542154
:1021E0004DF2132002F0E0F801214DF2142002F02C
:1021F000DBF882214DF2152002F0D6F801214DF2D4
:10220000162002F0D1F8CA214DF2172002F0CCF8C6
:1022100002214DF2182002F0C7F800214DF21920DA
:1022200002F0C2F802214DF21A2002F0BDF801219D
:102230004DF21B2002F0B8F802214DF21C2002F0F2
:10224000B3F834214DF21D2002F0AEF802214DF218
:102250001E2002F0A9F867214DF21F2002F0A4F819
:1022600002214DF2202002F09FF884214DF221201E
:1022700002F09AF802214DF2222002F095F8A421F2
:102280004DF2232002F090F802214DF2242002F0BA
:102290008BF8B7214DF2252002F086F802214DF28D
:1022A000262002F081F8CF214DF2272002F07CF8A1
:1022B00002214DF2282002F077F8DE214DF229208C
:1022C00002F072F802214DF22A2002F06DF8F2219C
:1022D0004DF22B2002F068F802214DF22C2002F082
:1022E00063F8FE214DF22D2002F05EF803214DF23D
:1022F0002E2002F059F810214DF22F2002F054F850
:1023000003214DF2302002F04FF833214DF23120FD
:1023100002F04AF803214DF2322002F045F86D2117
:102320004DF2332002F040F800214FF4534002F008
:102330003BF833214DF2013002F036F800214DF226
:10234000023002F031F834214DF2033002F02CF863
:1023500000214DF2043002F027F83A214DF2053009
:1023600002F022F800214DF2063002F01DF84A2159
:102370004DF2073002F018F800214DF2083002F05B
:1023800013F85C214DF2093002F00EF800214DF2F5
:102390000A3002F009F881214DF20B3002F004F806
:1023A00000214DF20C3001F0FFFFA6214DF20D305F
:1023B00001F0FAFF00214DF20E3001F0F5FFE521AA
:1023C0004DF20F3001F0F0FF01214DF2103001F01D
:1023D000EBFF13214DF2113001F0E6FF01214DF228
:1023E000123001F0E1FF54214DF2133001F0DCFF17
:1023F00001214DF2143001F0D7FF82214DF215304A
:1024000001F0D2FF01214DF2163001F0CDFFCA21BB
:102410004DF2173001F0C8FF02214DF2183001F0E3
:10242000C3FF00214DF2193001F0BEFF02214DF231
:102430001A3001F0B9FF01214DF21B3001F0B4FF59
:1024400002214DF21C3001F0AFFF34214DF21D305E
:1024500001F0AAFF02214DF21E3001F0A5FF672115
:102460004DF21F3001F0A0FF02214DF2203001F0AB
:102470009BFF84214DF2213001F096FF02214DF2A5
:10248000223001F091FFA4214DF2233001F08CFFA6
:1024900002214DF2243001F087FFB7214DF22530A3
:1024A00001F082FF02214DF2263001F07DFFCF21A5
:1024B0004DF2273001F078FF02214DF2283001F073
:1024C00073FFDE214DF2293001F06EFF02214DF243
:1024D0002A3001F069FFF2214DF22B3001F064FF48
:1024E00002214DF22C3001F05FFFFE214DF22D3024
:1024F00001F05AFF03214DF22E3001F055FF10215B
:102500004DF22F3001F050FF03214DF2303001F039
:102510004BFF33214DF2313001F046FF03214DF2E4
:10252000323001F041FF6D214DF2333001F03CFFBC
:1025300000214FF4544001F037FF332100E080E3E5
:102540004DF2014001F030FF00214DF2024001F058
:102550002BFF34214DF2034001F026FF00214DF204
:10256000044001F021FF3A214DF2054001F01CFF2B
:1025700000214DF2064001F017FF4A214DF20740BD
:1025800001F012FF00214DF2084001F00DFF5C2127
:102590004DF2094001F008FF00214DF20A4001F020
:1025A00003FF81214DF20B4001F0FEFE00214DF2B0
:1025B0000C4001F0F9FEA6214DF20D4001F0F4FEB1
:1025C00000214DF20E4001F0EFFEE5214DF20F40EB
:1025D00001F0EAFE01214DF2104001F0E5FE132169
:1025E0004DF2114001F0E0FE01214DF2124001F0E8
:1025F000DBFE54214DF2134001F0D6FE01214DF2D5
:10260000144001F0D1FE82214DF2154001F0CCFEC4
:1026100001214DF2164001F0C7FECA214DF21740CC
:1026200001F0C2FE02214DF2184001F0BDFE002172
:102630004DF2194001F0B8FE02214DF21A4001F0AE
:10264000B3FE00E0FFE201214DF21B4001F0ACFEC1
:1026500002214DF21C4001F0A7FE34214DF21D4035
:1026600001F0A2FE02214DF21E4001F09DFE672105
:102670004DF21F4001F098FE02214DF2204001F082
:1026800093FE84214DF2214001F08EFE02214DF295
:10269000224001F089FEA4214DF2234001F084FE86
:1026A00002214DF2244001F07FFEB7214DF225407A
:1026B00001F07AFE02214DF2264001F075FECF2195
:1026C0004DF2274001F070FE02214DF2284001F04A
:1026D0006BFEDE214DF2294001F066FE02214DF233
:1026E0002A4001F061FEF2214DF22B4001F05CFE28
:1026F00002214DF22C4001F057FEFE214DF22D40FB
:1027000001F052FE03214DF22E4001F04DFE10214A
:102710004DF22F4001F048FE03214DF2304001F010
:1027200043FE33214DF2314001F03EFE03214DF2D4
:10273000324001F039FE6D214DF2334001F034FE9C
:1027400000214FF4554001F02FFE33214DF201508E
:1027500001F02AFE00214DF2025001F025FE342145
:102760004DF2035001F020FE00214DF2045001F023
:102770001BFE3A214DF2055001F016FE00214DF2EC
:10278000065001F011FE4A214DF2075001F00CFEF7
:1027900000214DF2085001F007FE5C214DF2095076
:1027A00001F002FE00214DF20A5001F0FDFD8121F1
:1027B0004DF20B5001F0F8FD00214DF20C5001F0EC
:1027C000F3FDA6214DF20D5001F0EEFD00214DF27A
:1027D0000E5001F0E9FDE5214DF20F5001F0E4FD4E
:1027E00001214DF2105001F0DFFD13214DF2115087
:1027F00001F0DAFD01214DF2125001F0D5FD542116
:102800004DF2135001F0D0FD01214DF2145001F0B2
:10281000CBFD82214DF2155001F0C6FD01214DF294
:10282000165001F0C1FDCA214DF2175001F0BCFD58
:1028300002214DF2185001F0B7FD00214DF2195060
:1028400001F0B2FD02214DF21A5001F0ADFD01215F
:102850004DF21B5001F0A8FD02214DF21C5001F079
:10286000A3FD34214DF21D5001F09EFD02214DF2D9
:102870001E5001F099FD67214DF21F5001F094FDAB
:1028800002214DF2205001F08FFD84214DF22150A4
:1028900001F08AFD02214DF2225001F085FDA421B4
:1028A0004DF2235001F080FD02214DF2245001F041
:1028B0007BFDB7214DF2255001F076FD02214DF24E
:1028C000265001F071FDCF214DF2275001F06CFD33
:1028D00002214DF2285001F067FDDE214DF2295012
:1028E00001F062FD02214DF22A5001F05DFDF2215E
:1028F0004DF22B5001F058FD02214DF22C5001F009
:1029000053FDFE214DF22D5001F04EFD03214DF2FD
:102910002E5001F049FD10214DF22F5001F044FDE1
:1029200003214DF2305001F03FFD33214DF2315083
:1029300001F03AFD03214DF2325001F035FD6D21D9
:102940004DF2335001F030FD00214FF4564001F0BC
:102950002BFD33214DF2016001F026FD00214DF2E7
:10296000026001F021FD34214DF2036001F01CFDF5
:1029700000214DF2046001F017FD3A214DF205608F
:1029800001F012FD00214DF2066001F00DFD4A211B
:102990004DF2076001F008FD00214DF2086001F0E2
:1029A00003FD5C214DF2096001F0FEFC00214DF2B7
:1029B0000A6001F0F9FC81214DF20B6001F0F4FC9A
:1029C00000214DF20C6001F0EFFCA6214DF20D60EC
:1029D00001F0EAFC00214DF20E6001F0E5FCE5217A
:1029E0004DF20F6001F0E0FC01214DF2106001F0AA
:1029F000DBFC13214DF2116001F0D6FC01214DF2F8
:102A0000126001F0D1FC54214DF2136001F0CCFCB6
:102A100001214DF2146001F0C7FC82214DF21560D6
:102A200001F0C2FC01214DF2166001F0BDFCCA218B
:102A30004DF2176001F0B8FC02214DF2186001F070
:102A4000B3FC00214DF2196001F0AEFC02214DF201
:102A50001A6001F0A9FC01214DF21B6001F0A4FCF9
:102A600002214DF21C6001F09FFC34214DF21D60EB
:102A700001F09AFC02214DF21E6001F095FC6721E5
:102A80004DF21F6001F090FC02214DF2206001F038
:102A90008BFC84214DF2216001F086FC02214DF275
:102AA000226001F081FCA4214DF2236001F07CFC46
:102AB00002214DF2246001F077FCB7214DF2256030
:102AC00001F072FC02214DF2266001F06DFCCF2175
:102AD0004DF2276001F068FC02214DF2286001F000
:102AE00063FCDE214DF2296001F05EFC02214DF213
:102AF0002A6001F059FCF2214DF22B6001F054FCE8
:102B000002214DF22C6001F04FFCFE214DF22D60B0
:102B100001F04AFC03214DF22E6001F045FC10212A
:102B20004DF22F6001F040FC03214DF2306001F0C6
:102B30003BFC33214DF2316001F036FC03214DF2B4
:102B4000326001F031FC6D214DF2336001F02CFC5C
:102B50005521184601F028FCAA21284601F024FC42
:102B60005221304601F020FC0821384601F01CFCBF
:102B70000021484601F018FCCC21584601F014FC15
:102B800000214BF2011001F00FFC0521504601F02D
:102B90000BFC70214FF4374001F006FC70214BF222
:102BA000017001F001FC01214FF4384001F0FCFB01
:102BB00003214BF6010001F0F7FB03214BF6020065
:102BC00001F0F2FB03214BF6030001F0EDFB0221C3
:102BD0004FF43C4001F0E8FB00214BF6014001F0CE
:102BE000E3FB00214BF6024001F0DEFBD0214FF465
:102BF000494001F0D9FB02214CF6011001F0D4FB51
:102C000050214CF6021001F0CFFB50214CF603107E
:102C100001F0CAFB50214CF6041001F0C5FB002165
:102C20004FF4545001F0C0FB55214FF4685001F0AF
:102C3000BBFB4FF488502080782003F00FF84FF44E
:102C400024502080FDE3A0F513414FF4E06940F2E9
:102C50003F1A4FF4274B25392ED0A0F5134140F2EF
:102C6000077728397DD0A0F513414FF4887B2039B0
:102C700078D0A0F51341313975D0A0F5A8410839B5
:102C800072D0A0F5A8514FF4407B05396DD0A0F566
:102C9000354105396AD0A0F54541053967D0A0F521
:102CA0008A4131397ED0A0F58A4135397BD0A0F5F3
:102CB000C851633978D0C5E747F6F001E52001F047
:102CC00073FB3146012001F06FFB4946022001F001
:102CD0006BFB41F23001032001F066FB0021042070
:102CE00001F062FB40F20221082001F05DFB0021AF
:102CF000092001F059FB00210A2001F055FB0021B9
:102D00000C2001F051FB00210D2001F04DFB0021B2
:102D10000F2001F049FB0021102001F045FB0721A5
:102D2000112001F041FB0021122001F03DFB0021A8
:102D3000132001F039FB0021072001F035FB41F29F
:102D40009061102001F030FB40F22721112001F0AA
:102D50002BFB9D21122001F027FB4FF4C8511320BB
:102D600006E081E03DE1E2E1B8E253E3FEE3FEE3A9
:102D700001F01AFB2521292001F016FB0D212B2043
:102D800001F012FB0721302001F00EFB40F203316D
:102D9000312001F009FB0321322001F005FB40F254
:102DA000062102E0FEE3FEE3FEE3352001F0FCFA3B
:102DB0000821362001F0F8FA40F20641372001F0F0
:102DC000F3FA4FF44171382001F0EEFA072139206F
:102DD00001F0EAFA40F202613C2001F0E5FA082134
:102DE0003D2001F0E1FA0021502001F0DDFAEF2151
:102DF000512001F0D9FA0021522001F0D5FA5146B4
:102E0000532001F0D1FA5946602001F0CDFA01219A
:102E1000612001F0C9FA00216A2001F0C5FA002101
:102E2000802001F0C1FA0021812001F0BDFA0021CB
:102E3000822001F0B9FA0021832001F0B5FA0021C7
:102E4000842001F0B1FA0021852001F0ADFA1021B3
:102E5000902001F0A9FA4FF4C061922001F0A4FA89
:102E600040F233110720FDE341F28F01EC2001F025
:102E70009BFA41F23421EF2001F096FA314601200D
:102E800001F092FA4946022001F08EFA41F2300137
:102E9000032001F089FA0021042001F085FA40F2B4
:102EA0000221082001F080FA0021092001F07CFABB
:102EB00000210A2001F078FA01210C2001F074FAB7
:102EC00000210D2001F070FA00210F2001F06CFAB2
:102ED0000021102001F068FA0721112001F064FAA6
:102EE0000021122001F060FA0021132001F05CFAA9
:102EF0000121072001F058FA322002F095FE41F23C
:102F00009041102001F050FA40F22721112001F0E9
:102F10004BFA322002F088FE8A21122001F044FA96
:102F2000322002F081FE4FF4D051132001F03CFA20
:102F30000621292001F038FA0D212B2001F034FA66
:102F4000322002F071FE0021202001F02DFA002134
:102F5000212001F029FA322002F066FE0021302003
:102F600001F022FA40F20461312001F01DFA40F232
:102F70000531322001F018FA0021352001F014FA51
:102F800040F60941362001F00FFA4FF40171372065
:102F900001F00AFA40F20131382001F005FA394611
:102FA000392001F001FA00213C2001F0FDF940F642
:102FB0000A213D2001F0F8F9322002F035FE00210F
:102FC000502001F0F1F9EF21512001F0EDF900213D
:102FD000522001F0E9F95146532001F0E5F9594634
:102FE00051E10021084601F0DFF93146012001F0EE
:102FF000DBF94946022001F0D7F941F23001032004
:1030000001F0D2F90021042001F0CEF940F20221B2
:10301000082001F0C9F90021092001F0C5F90021BB
:103020000A2001F0C1F901210C2001F0BDF90021B5
:103030000D2001F0B9F900210F2001F0B5F932207F
:1030400002F0F2FD40F20111072001F0ADF932204B
:1030500002F0EAFD4FF48651102001F0A5F9072196
:10306000112001F0A1F95B465946122001F09CF9AC
:103070004FF43061132001F097F90021292001F06D
:1030800093F944F210012B2001F08EF90021502019
:1030900001F08AF9EF21512001F086F90021522038
:1030A00001F082F95146532001F07EF94FF41C5192
:1030B000602001F079F90121612001F075F900210A
:1030C0006A2001F071F90021802001F06DF90021E2
:1030D000812001F069F90021822001F065F90021C9
:1030E000832001F061F90021842001F05DF90021C5
:1030F000852001F059F91021902001F055F90021A7
:10310000922001F051F90121932001F04DF9194667
:10311000952001F049F90021972001F045F900219F
:10312000982001F041F940F27311072085E341F244
:103130001401E72001F038F93146012001F034F99B
:103140004FF40071022001F02FF941F23801032001
:1031500001F02AF940F20221082001F025F90021AE
:10316000092001F021F900210A2001F01DF90021B8
:103170000C2001F019F900210D2001F015F90021B2
:103180000F2001F011F90021102001F00DF90721A5
:10319000112001F009F90021122001F005F90021A8
:1031A000132001F001F9C82002F03EFD41F29061C8
:1031B000102001F0F9F840F22721112001F0F4F875
:1031C000322002F031FD0C21122001F0EDF8322006
:1031D00002F02AFD4FF40061132001F0E5F81121FF
:1031E000292001F0E1F80B212B2001F0DDF832203D
:1031F00002F01AFD0021202001F0D6F85346514676
:10320000212001F0D1F80021302001F0CDF84FF459
:1032100083742146312001F0C7F80021322001F0EB
:10322000C3F84FF40171352001F0BEF841F20A6194
:10323000362001F0B9F83946372001F0B5F82146BB
:10324000382001F0B1F83946392001F0ADF840F2EC
:1032500002413C2001F0A8F840F60F413D2001F06A
:10326000A3F80021502001F09FF8EF21512001F038
:103270009BF80021522001F097F81946532001F0E5
:1032800093F84FF41C51602001F08EF80121612069
:1032900001F08AF800216A2001F086F800218020E0
:1032A00001F082F80021812001F07EF800218220C7
:1032B00001F07AF80021832001F076F800218420C3
:1032C00001F072F80021852001F06EF810219020A5
:1032D00001F06AF84FF4C0619220FDE3314601200D
:1032E00001F062F84946022001F05EF841F2300137
:1032F000032001F059F80021042001F055F840F2B4
:103300000721082001F050F80021092001F04CF8B5
:1033100000210A2001F048F800210C2001F044F8B7
:1033200000210D2001F040F800210F2001F03CF8B1
:10333000142002F079FC41F2B061102001F034F861
:103340000121112001F030F80121172001F02CF8A3
:103350004FF49C71122001F027F84FF40061132004
:1033600001F022F80921292001F01EF809212A2064
:1033700001F01AF80021A42001F016F800215020D5
:1033800001F012F8EF21512001F00EF80021522037
:1033900001F00AF85146532001F006F84FF41C5191
:1033A000602001F001F80121612000F0FDFF002103
:1033B0006A2000F0F9FF0021802000F0F5FF0021D5
:1033C000812000F0F1FF0021822000F0EDFF0021BC
:1033D000832000F0E9FF0021842000F0E5FF0021B8
:1033E000852000F0E1FF1321902000F0DDFF002197
:1033F000922000F0D9FF0321932000F0D5FF594619
:10340000952000F0D1FF40F27311072000F0CCFFAF
:10341000322011E10021072000F0C6FF322002F027
:1034200003FC4FF48E71122000F0BEFF0121A42096
:1034300000F0BAFF0F21082000F0B6FF08210A2093
:1034400000E07BE300F0B0FF08210D2000F0ACFFAE
:103450003946302000F0A8FF0721312000F0A4FFFA
:1034600040F20361322000F09FFF4C464946332072
:1034700000F09AFF40F20221342000F095FF022173
:10348000352000F091FF41F60F71362000F08CFFDF
:103490003946372000F088FF0021382000F084FFF3
:1034A0000021392000F080FF39463A2000F07CFFEF
:1034B00000213B2000F078FF07213C2000F074FF42
:1034C00000213D2000F070FF322002F0ADFB012111
:1034D000072000F069FF0121172000F065FF32206E
:1034E00002F0A2FB4FF4BD51102000F05DFF40F24E
:1034F0001721112000F058FF4FF48F71122000F0B7
:1035000053FF4FF47061132000F04EFF00212A207A
:1035100000F04AFF0A21292000F046FF4FF49F7176
:10352000122000F041FF0021502000F03DFFEF216C
:10353000512000F039FF0021522000F035FF5146A4
:10354000532000F031FF4FF41C51602000F02CFF9D
:103550000121612000F028FF00216A2000F024FFF3
:103560000021802000F020FF002101E067E065E1FC
:10357000812000F019FF0021822000F015FF0021BA
:10358000832000F011FF0021842000F00DFF0021B6
:10359000852000F009FF1321902000F005FF594617
:1035A000922002E013E2CAE271E300F0FDFE052181
:1035B000932000F0F9FE0021952000F0F5FE002197
:1035C000972000F0F1FE0021982000F0EDFE31463A
:1035D000012000F0E9FE2146022000F0E5FE41F264
:1035E0003801032000F0E0FE0021042000F0DCFEA2
:1035F00000210C2000F0D8FE00210F2000F0D4FEA6
:103600000021202000F0D0FE0021212000F0CCFE7F
:103610002121072000F0C8FE142002F005FB6121E3
:10362000072000F0C1FE142002F0FEFA40F27311F0
:10363000072000F0B9FE142002F0F6FAA1E3002101
:10364000084600F0B1FE0021084600F0ADFE002162
:10365000084600F0A9FE0021084600F0A5FE012161
:10366000A42000E0E5E000F09FFE142002F0DCFA68
:103670004FF41C542146602000F096FE40F20225D3
:103680002946082000F090FE4FF40571302000F02C
:103690008BFE43F21571312000F086FE40F204618A
:1036A000322000F081FE40F61661332000F07CFEEF
:1036B00042F21121342000F077FE4FF4A85135205A
:1036C00000F072FE48F20751362000F06DFE41F224
:1036D0000741372000F068FE41F20341382000F036
:1036E00063FE2021392000F05FFE1A21902000F0B7
:1036F0005BFE0021102000F057FE0721112000F092
:1037000053FE0021122000F04FFE0021132000F094
:103710004BFE142002F088FA4FF4E661102000F00E
:1037200043FE40F23711112000F03EFE142002F05B
:103730007BFA4FF4DC71122000F036FE142002F008
:1037400073FA4FF47061132000F02EFE80212A20BE
:1037500000F02AFE4821292000F026FE142002F065
:1037600063FA3146012000F01FFE4946022000F0B6
:103770001BFE41F23801032000F016FE2946082006
:1037800000F012FE00210A2000F00EFE00210C20A5
:1037900000F00AFE00210D2000F006FE30210E2070
:1037A00000F002FE0021502000F0FEFDEF2151202C
:1037B00000F0FAFD0021522000F0F6FD51465320A2
:1037C00000F0F2FD2146602000F0EEFD01216120B5
:1037D00000F0EAFD00216A2000F0E6FD11219020B2
:1037E00000F0E2FD4FF4C061922000F0DDFD40F2F8
:1037F0000241932000F0D8FD0221942000F0D4FD76
:10380000142002F011FA0121072000F0CDFD142050
:1038100002F00AFA6121072000F0C6FD40F27311A0
:10382000072000F0C1FD0021202000F0BDFD002197
:10383000212000F0B9FD222100207DE10021084671
:1038400000F0B2FD0021084600F0AEFD142002F0A9
:10385000EBF90021084600F0A7FD0021084600F022
:10386000A3FD0021084600F09FFD0021084600F05E
:103870009BFD0121A42000F097FD142002F0D4F953
:103880004FF41C51602000F08FFD40F60601082027
:1038900000F08AFD40F203731946302000F084FDE9
:1038A0000121312000F080FD0421322000F07CFD58
:1038B0004FF48171332000F077FD5C465946342087
:1038C00000F072FD40F20311352000F06DFD1F2164
:1038D000362000F069FD1946372000F065FD012112
:1038E000382000F061FD0421392000F05DFD152134
:1038F000902000F059FD4FF48261102000F054FD3B
:1039000040F24721112000F04FFD4FF4DE711220EC
:1039100000F04AFD4FF46061132000F045FD78206F
:1039200002F082F93146012000F03EFD4FF40071B3
:10393000022000F039FD41F23001032000F034FD97
:1039400008210A2000F030FD00210C2000F02CFDA1
:1039500020210E2000F028FD00210F2000F024FD82
:103960000021202000F020FD0021212000F01CFD7E
:103970003D212A2000F018FD142002F055F92D21D8
:10398000292000F011FD0021502000F00DFD4DF226
:10399000EF01512000F008FD0021522000F004FD4D
:1039A0005146532000F000FD0021612000F0FCFC96
:1039B00000216A2000F0F8FC2146922000F0F4FC7F
:1039C0000521932000F0F0FC3146FFF7AEBB01214A
:1039D000002000F0E9FC0A2002F026F941F22861FB
:1039E000102000F0E1FC0E21122000F0DDFC40F67A
:1039F0003921132000F0D8FC0A2002F015F94021EB
:103A0000112000F0D1FC5021152000F0CDFC0A203F
:103A100002F00AF91E21122000F0C6FC0A2002F072
:103A200003F94FF4B151102000F0BEFC42F63921E9
:103A3000132000F0B9FC0A2002F0F6F8314601200C
:103A400000F0B2FC5946022000F0AEFC41F2380111
:103A5000032000F0A9FC40F20221082000F0A4FCA1
:103A600008210A2000F0A0FC0021302000F09CFC7E
:103A700040F20241312000F097FC4FF48371322074
:103A800000F092FC40F20351332000F08DFC4FF423
:103A90008271342000F088FC40F20131352000F0C2
:103AA00083FC3946362000F07FFC40F20531372098
:103AB00000F07AFC4FF40271382000F075FC40F6FB
:103AC0000B71392000F070FC0221412000F06CFCE9
:103AD0004FF41C51602000E0D4E000F065FC0121AF
:103AE000612000F061FC4FF40471902000F05CFC58
:103AF0004FF48571922000F057FC0421932000F0D0
:103B000053FC3146A02000F04FFC0121072000F0BB
:103B10004BFC2121072000F047FC2321072000F067
:103B200043FC3321072000F03FFC40F23311072013
:103B300000F03AFC0021A02000F036FC21E1302109
:103B4000152000F031FC10219A2000F02DFC2021DE
:103B5000112000F029FC43F22841102000F024FC41
:103B60000221122000F020FC41F23801132000F065
:103B70001BFC282002F058F81221084600F014FC23
:103B8000282002F051F843F22041102000F00CFCF4
:103B900043F23801132000F007FC462002F044F8FD
:103BA0000021302000F000FC40F20241312000F002
:103BB000FBFB40F20731322000F0F6FB4FF441717D
:103BC000332000F0F1FB0421342000F0EDFB40F243
:103BD0000141352000F0E8FB3946362000F0E4FBD7
:103BE00040F20531372000F0DFFB4FF4C263194685
:103BF000382000F0D9FB1946392000F0D5FB3146BA
:103C0000012000F0D1FB5946022000F0CDFB41F22B
:103C10003001032000F0C8FB40F60801082000F046
:103C2000C3FB08210A2000F0BFFB4FF41C516020A9
:103C300000F0BAFB0121612000F0B6FB4FF49F7148
:103C4000902000F0B1FB3146922000F0ADFB3146F0
:103C5000932000F0A9FB4FF44051A02000F0A4FBFA
:103C60001021A32000F0A0FB0121072000F09CFB05
:103C70002121072000F098FB2321072000F094FB6E
:103C80003321072000F090FB40F233119DE6E22043
:103C9000208023202880022028800420288064207F
:103CA00001F0DCFFE0202080012028800A2001F0C4
:103CB000BBFFE0202080032028800C2001F0B4FF0F
:103CC000012020800A2001F0AFFFE62020800320A1
:103CD0002880FF2028802880B02020802020288075
:103CE000002028800320288040F21F3028800120F7
:103CF000288040F2DF10288000202880B420208017
:103D00000420288040F21F40288000202880D220F4
:103D1000288000202880288028802880B6202080C5
:103D2000022028804FF40370288000202880222061
:103D3000288009202880002028802880F0202080EA
:103D40000320288029202080D02020800020288067
:103D5000BE20208005202880FE2028800120288089
:103D6000FF20288000202880B82020800F20288075
:103D700001202880BA20208001202880642000F0C3
:103D800025F80020FCF786FF04490120C1F88001D6
:103D90004046FCF749FF1FB0BDE8F08F008021428C
:103DA000034808B50088ADF80000BDF8000008BD64
:103DB0000008006C044910B50880052001F04EFF92
:103DC000BDE81040FFF7ECBFFE07006C0C4A10B5D1
:103DD000BE211180941C0521218003F0C0F94FF011
:103DE0006632084B03F0CEF903F08CF920800120F5
:103DF0002080FF20208000202080208010BD000037
:103E0000FE07006C66660440F0B5674E002331463D
:103E1000B279898846F6040741F66314012A01D075
:103E20002AB11DE0B9421BD0A14202D118E0A14243
:103E300016D1082814D2DFE800F00406080A0C0E98
:103E4000101206200CE007200AE0042008E00520FC
:103E500006E0012004E0002002E0032000E0022050
:103E6000A1F5134C45F2103245F21055BCF1410C4E
:103E700007D0B94205D0914203D0A94201D0A14256
:103E800075D1082812D2DFE800F0110406080A0CE8
:103E90000E1080230AE0402308E0C02306E0202320
:103EA00004E0602302E0A02300E0E023A94202D165
:103EB0004FF4585000E03620914205D0A94203D07B
:103EC000A14201D043F00803B94201D143F00203FB
:103ED000194600F069FAB288A2420AD098063088E2
:103EE000718802D5884202D303E0884201D931802B
:103EF00070802E48811CAA427289028021D1002341
:103F00000B80531C038000230B80931C0380338899
:103F10005B1E1C0A0C80D21C0280DAB20A80B289B5
:103F2000028000230B80531C038000230B80931C12
:103F3000038073885B1E1C0A0C80D21C0280D8B2DE
:103F400012E000220A800A803288521E130A0B8077
:103F5000D2B20A80B289028000200880088070886E
:103F6000401E020A0A80C0B20880F0BDFFE70828A0
:103F700012D2DFE800F0040608110A0C0E103023FC
:103F80000AE0102308E0202306E0382304E0282379
:103F900002E0182300E00823BDE8F040032043F4CA
:103FA000805100F001BA0000C0010020FE07006C43
:103FB0002DE9F04F4E4F0B463A46BD880C0ADFF80C
:103FC00034B191895289A5F513464FEA102C0BF1B3
:103FD000020A413E1DD0A5F5A646103E19D03E4628
:103FE000BE4696F806903688A5F5D047A6EB0008A1
:103FF000A8F10108043F17D0A5F5C857633F28D0A2
:10400000A5F5AA477646103F51D0B9F1010F63D00C
:1040100064E0ABF800205246AAF800C0C0B2AAF88B
:104020000000ABF800100FE0B9F1010F01D11FFA49
:1040300088F0ABF80020050A5246AAF80050C0B23A
:10404000AAF80000ABF800101480D8B21080BDE8C8
:10405000F08FB9F1000F1BD0ABF800205246AAF840
:1040600000C0C0B2AAF80000761E300AAAF800000C
:10407000F0B21080ABF8001011461480D8B2108056
:10408000BEF80200401E020A0A80C0B20880DEE7C5
:104090001FFA88F0ABF8002000265246AAF800600C
:1040A000AAF80060060AAAF80060C0B2E1E7ABF81F
:1040B0000020AAF800C0521CABF80020C0B2AAF839
:1040C0000000ABF80010AAF80040491CABF8001043
:1040D000D8B2AAF80000BAE71FFA88F001461046E5
:1040E00000F062F9B089BDE8F04F194600F05CB904
:1040F000C0010020FE07006C2DE9FC4F04469146EC
:104100004844401E86B2C818401E83B2009004EB9B
:104110000900401EC0F3072EDFF850C100980D467D
:10412000C0F3072B6046BCF804204FEA11288189B0
:104130004089A2F513474FEA142A413F10D0A2F557
:10414000A647103F0CD0A2F5D047043F08D09CF8FA
:10415000067041F6631C0197012F13D1624511D1FE
:10416000434F3880B81CA0F800A0E2B20280A0F84B
:1041700000E0F2B202803980A0F80080E9B201804C
:1041800059461CE0394F62453F881DD1A7EB090213
:10419000121B374C009B92B29BB22080160AA01CC7
:1041A0000680D6B206804A44521E160A0680D2B253
:1041B00002802180A0F80080E9B20180190A018004
:1041C000D9B20180BDE8FC8FA2F5A04CBCF5A26C71
:1041D0001FD0019801283FD0B04621462E465020DE
:1041E0004FF0510A4FF05209532700F0DDF84146D5
:1041F000504600F0D9F83146484600F0D5F8194647
:10420000384600F0D1F829462046BDE8FC4FFFF7BC
:10421000CFBE174A1080971CA7F800A000F1010C30
:10422000A2F800C0E4B23C80841C1480A7F800E02F
:10423000C01C1080F0B238801180A7F80080481CA4
:104240001080E8B23880881C1080A7F800B0C91C24
:104250001180D8B23880B5E7B81B401E86B2381B33
:104260009846401E294683B2B9E70000C0010020ED
:10427000FE07006C2DE9F84F82461F460C468B4620
:10428000580700D0012000EBD70079084843203AB6
:10429000C0B202F0FF090026009041E00C2F10D0C0
:1042A000102F12D0182F3ED1204909EBC90001EB85
:1042B00080004FF00008855D28060AD51C4802885A
:1042C0000BE009EB49001B49F1E71B4901EB091021
:1042D000EFE70A9828B91648428821465046FCF76D
:1042E00073FD6806050E1548641CA4B24088A04200
:1042F00019D9A4EB0B00B84209D10AF101001FFA49
:1043000080FA0E485C46018851450CD906E008F158
:10431000010000F0FF08B8F1080FCDD3761CF6B20B
:1043200000988642BAD3BDE8F88F0000E47D00080B
:104330004A00002080730008F4770008C0010020C4
:104340002DE9F84F044600F0FF0810190D46DDE98D
:104350000A761FFA80FA58191FFA80F94FF0000BFD
:1043600011E0544502D3E819444685B24D450FD2B9
:104370003B4629462046CDF800B0FFF77BFF04EB13
:10438000570084B2761C3278A2F120005E28E8D96A
:10439000BDE8F88F02480349008908807047000093
:1043A000C0010020FE07006C024A1080901C0180B2
:1043B00070470000FE07006C38B50121482000F06E
:1043C0003FFD2024ADF8004010208DF803000320AD
:1043D0000B4D8DF8020069462846FCF72DFB202185
:1043E0002846FCF7ACFBADF80040064C6946204679
:1043F000FCF722FB20212046FCF7A1FB38BD000082
:10440000000C014000180140FEE7704730B50F2353
:10441000C27801780125F2B1144A126801F1E02155
:1044200002F4E062C2F5E062120AC2F10404D34071
:104430004278A24084781C401443220181F8002471
:10444000007800F01F018D404009800000F1E0205D
:10445000C0F8005130BD01F01F00854048098000C0
:1044600000F1E020C0F8805130BD00000CED00E00C
:104470000249084302490860704700000000FA053D
:104480000CED00E00021801C05280BD2DFE800F0D5
:1044900003050A070900B02104E0982102E0182171
:1044A00000E03021552000F057BE70B5802622254F
:1044B0005E24801C052813D2DFE800F00307120BEE
:1044C0000F00402611252F240AE066261B254B24C9
:1044D00006E099262825712402E0C02633258D2484
:1044E00031464F2000F038FE3146502000F034FEB7
:1044F0000021512000F030FE2946522000F02CFE11
:104500002146532000F028FE3146542000F024FEBE
:10451000BDE870409E21582000F01EBE4021801C46
:1045200005280BD2DFE800F003050A070900302157
:1045300004E0382102E0502100E06021562000F024
:104540000BBE0000F8B50024012140F23D1000F040
:1045500077FC4FF48075ADF8005048268DF8036065
:104560000320354F8DF8020069463846FCF764FA9F
:1045700029463846FCF7E3FA1820ADF800002F4F23
:1045800010258DF8035069463846FCF755FA182176
:104590003846FCF7D4FAFF20ADF800008DF8036030
:1045A00069462748FCF748FA4020ADF80000254E40
:1045B0008DF8035069463046FCF73EFA40213046FC
:1045C000FCF7BDFA4FF44046ADF800608DF803509B
:1045D0001D4D69462846FCF72FFA31462846FCF760
:1045E000AEFA01211948FCF775FA00F07FFC802132
:1045F000122000F0B1FD08B10120F8BD322001F019
:1046000013FB0B2000F004FD732804D10A2000F0F6
:10461000FFFC762801D00220F8BD0D4D05EB4400CB
:10462000417815F8140000F097FD641CA4B2A82C82
:10463000F4D30020F8BD000000080140000C014048
:104640000010014000140140002001400002300031
:10465000408B000810B505283AD2DFE800F0030DC2
:1046600017212B00E721132000F076FD0021012007
:1046700000F072FD002126E0E521132000F06CFD22
:104680005A21012000F068FD5C211CE0E521132087
:1046900000F062FD5821012000F05EFD602112E073
:1046A000E521132000F058FD8421012000F054FD85
:1046B0004C2108E0E521132000F04EFD9621012059
:1046C00000F04AFD4021BDE81040022000F044BD4A
:1046D00010BD10B507283BD2DFE800F00406081231
:1046E0001C262C0004210CE0242100E014213A2097
:1046F00000F032FD8021672000F02EFD802122E0B5
:1047000014213A2000F028FD8021672000F024FDCC
:10471000C02118E014213A2000F01EFD402167203E
:1047200000F01AFD40210EE014213A2000F014FDA3
:10473000C021E0E714213A2000F00EFD402167205F
:1047400000F00AFDA021BDE81040682000F004BD83
:1047500010BD2DE9F041054600EB420086B201EBA9
:10476000430084B20F46B4F5447F02D9A4F54474E3
:10477000A4B2032000F04CFC06F00302294600F02E
:10478000F00062F39F010143032000F0E5FCC5F354
:104790008701192000F0E0FCC6F387011A2000F021
:1047A000DBFC322000F034FCC7F3C701172000F017
:1047B000D3FCC4F3C701BDE8F041182000F0CCBC25
:1047C0002DE9F047DFF8E09099F80000002868D064
:1047D0000420FFF719FB35494FF4A0728888A0F533
:1047E000C853633B08D0A0F5AA43103B14D0A0F5F2
:1047F000A643103B10D01FE008884988F038A1F587
:10480000A07101EBD17100EBD0701346C1F34F01E1
:10481000C0F34F00F0220DE008884988A0F5A07091
:10482000F03901EBD17100EBD070C1F34F01C0F34F
:104830004F00F023FFF760FCFFF7ACFD1C4800279A
:10484000C0F8B8711B4C10212160251F2960216020
:104850000122C0F8B8212960174EDFF86080384681
:104860004FF6FF734FF4963A2160B268296003EA6D
:1048700002222160D6F808C029600CF0FF0C4CEA37
:10488000020CA8F800C0401C5045EDD30C4989F833
:1048900000700878401C0870BDE8F0470020FFF762
:1048A000B3BABDE8F087000052000020C00100202C
:1048B00000002442140C0140001001400008006C6C
:1048C0005500002010B5001D092815D2DFE800F0C2
:1048D0001F1D12100E0C0A070500482100E03821A8
:1048E000062409E02821FBE71821F9E70821F7E76A
:1048F000082100E018210E249B2000F02DFC214609
:10490000BDE81040AB2000F027BC2821F3E7382198
:10491000F1E710B5011D08290BD804014034E1B2BC
:10492000A72000F019FCE1B2BDE81040A82000F07B
:1049300013BC10BD011D082906D8202101EB800001
:10494000C1B29C2000F008BC70470000F8B50024FC
:10495000012140F23D1000F073FA4FF48075ADF87C
:10496000005048268DF803600320424F8DF8020066
:1049700069463846FCF760F829463846FCF7DFF808
:104980001820ADF800003C4F10258DF80350694603
:104990003846FCF751F818213846FCF7D0F8FF20CC
:1049A000ADF800008DF8036069463448FCF744F820
:1049B0004020ADF80000324E8DF803506946304675
:1049C000FCF73AF840213046FCF7B9F84FF440467E
:1049D000ADF800608DF803502A4D69462846FCF773
:1049E0002BF831462846FCF7AAF801212648FCF7A7
:1049F00071F800F07BFA8021122000F0ADFB08B1C5
:104A00000120F8BD322001F00FF91C2000F000FB5E
:104A10004FF6FF7505EA00261D2000F0F9FA40EA7E
:104A20000601A1F5FE40A23803D018A0FBF71EFC3A
:104A3000E6E70A2000F0ECFA05EA00250B2000F07A
:104A4000E7FA40EA0501A1F5EE40213804D012A0B2
:104A5000FBF70CFC0220F8BD124D05EB4400417839
:104A600015F8140000F078FB641CA4B2412CF4D3B8
:104A70000020F8BD00080140000C0140001001407A
:104A80000014014000200140000230004D49443A2A
:104A900025640D0A000000004849443A25640D0AC7
:104AA00000000000908C000810B5062847D2DFE80F
:104AB00000F003061D27313CFF21132009E0FD21F2
:104AC000132000F049FB5A21012000F045FB5C2136
:104AD00029E000F041FB65210E2000F03DFB0021A4
:104AE0002D2000F039FB00212E2024E0FD21132091
:104AF00000F032FB5821012000F02EFB602112E073
:104B0000FD21132000F028FB8421012000F024FB6C
:104B10004C2108E0FD21132000F01EFB962101200E
:104B200000F01AFB40210220D3E7FF21132000F000
:104B300013FBE5210E20BDE8104000F00DBB10BDB9
:104B400010B5072840D2DFE800F0040609131D273E
:104B50003100062103E04621A62031E02621A620CF
:104B600000F0FAFA8021602000F0F6FA802126E0B9
:104B70001E21A62000F0F0FA8021602000F0ECFA5F
:104B8000C0211CE01E21A62000F0E6FA60210846A4
:104B900000F0E2FA602112E01E21A62000F0DCFA0B
:104BA000A021602000F0D8FA402108E01E21A620B4
:104BB00000F0D2FA4021602000F0CEFAA02161205E
:104BC000BDE8104000F0C8BA10BD2DE9F0470C4612
:104BD00005464AB3C5F5207000EBD070C0F34F070F
:104BE000C4F5F07000EBD070C0F34F060621122020
:104BF00000F0B2FA2321172000F0AEFAA02118200D
:104C000000F0AAFA0721192000F0A6FAF0211A20D4
:104C100000F0A2FA0021322000F09EFAA021292003
:104C200000F09AFAF02128E0C5F5A07000EBD070F2
:104C3000C0F34F07C4F1F00000EBD070C0F34F0693
:104C40004621122000F088FA3F21172000F084FA54
:104C50005021182000F080FA0321192000F07CFA7E
:104C600078211A2000F078FA0021322000F074FA3E
:104C70005021292000F070FA78212C2000F06CFAE5
:104C8000172000F0C5F900EB9700C1B2172000F023
:104C900063FAC5F387018A46182000F05DFA1920EF
:104CA00000F0B6F900EB5600C1B2192000F054FA3A
:104CB000C4F3470189461A2000F04EFA322000F072
:104CC000A7F98046F007400E07F0030104F0010643
:104CD00040EA011040EA860105F00304214341EA5D
:104CE0000801322000F038FA5146292000F034FA49
:104CF00049462C2000F030FA2A2000F089F944EAD5
:104D0000080444EA8601BDE8F0472A2000F024BAEE
:104D10002DE9F05FDFF8D8B09BF80000002865D0DF
:104D20000420FFF771F8334C4FF4A075F02320886E
:104D30006188A0F5A070F03901EBD17100EBD07063
:104D4000C1F34F01C0F34F002A46FFF7D5F9A08801
:104D5000A0F5C851633910D120886188A0F5A070F2
:104D6000F03901EBD17100EBD070C1F34F01C0F30A
:104D70004F002B46F022FFF7BFF9FFF70BFB1E4851
:104D80004FF0000AC0F8B8A11C4E10213160371F47
:104D9000396031600122C0F8B8213960A946184D48
:104DA000DFF8608054464FF6FF7300203160AA6838
:104DB000396003EA02223160D5F808C039600CF08E
:104DC000FF0C4CEA020CA8F800C0401C4845EDD38B
:104DD000641CF02CE9D30C488BF800A00178491C26
:104DE0000170BDE8F05F0020FFF70EB8BDE8F09F4E
:104DF00052000020C001002000002442140C014099
:104E0000001001400008006C5500002070470000B1
:104E1000044A0029516901D0014300E081435161F6
:104E20007047000000100240044A0029D16901D0F7
:104E3000014300E08143D16170470000001002404F
:104E4000044A0029916901D0014300E08143916146
:104E5000704700000010024030B5204A5168204BD6
:104E600011F00C0103D0042901D0082901D00360FE
:104E700012E05168536801F470114FF0020413F40A
:104E8000803F04EB914102D053689B0301D5154B41
:104E900000E0134B5943016051680F2303EA1111DD
:104EA000114B5C5C0168E14041605468072505EAEC
:104EB00014241C5D21FA04F48460546805EAD424A7
:104EC0001B5DD940C1605268032303EA9232064B4E
:104ED0001B1F9A5CB1FBF2F1016130BD0010024072
:104EE00000127A0000093D006800002038B5012159
:104EF0004FF49070FFF7A4FF4FF40055ADF8005049
:104F000048208DF803000320114C8DF802006946FB
:104F10002046FBF791FD29462046FBF710FE0820AE
:104F2000ADF8000010200B4D8DF8030069462846AF
:104F3000FBF782FD08212846FBF701FE606820F49C
:104F400070006060606840F44010606038BD000030
:104F5000002001400014014070B5322000F07EFEB8
:104F60000C4D0120C5F8B4010B4EC6F88C0132205F
:104F700005F5DA7506F5C67600F070FE002434609B
:104F8000322000F06BFE2C60BDE87040322000F053
:104F900065BE000000002442008022422DE9F04757
:104FA000184F0024786820F470007860786840F426
:104FB00000007860DFF85090144E08254FF001088B
:104FC000A246322000F04AFEC6F88C816006040E2C
:104FD000D9F8340108B1641CE4B2322000F03EFE7E
:104FE000C6F88CA16D1E15F0FF05EAD1786820F493
:104FF00070007860786840F4401078602046BDE822
:10500000F08700000020014000002442008022427E
:1050100010B5044600F022F8422000F055F8642054
:1050200000F01CFE204600F04FF8642000F016FE51
:1050300000F02EF8642000F011FE00F00FF843207D
:1050400000F042F8642000F009FEFFF7A7FF0446D5
:10505000FFF782FF00F01CF8204610BD70B50A4E25
:105060000120C6F8B401094DC5F88C01322005F5C0
:10507000C67506F5DA7600F0F1FD002434603220C2
:1050800000F0ECFD2C6070BD000024420080224244
:1050900070B50B4C0020C4F8B401322004F5DA746A
:1050A00000F0DCFD07480125C0F88C51322000F0EB
:1050B000D5FD2560BDE87040322000F0CFBD000076
:1050C00000002442008022422DE9F04700241F4EB8
:1050D0001F4F0546A0464FF00109280601D5484656
:1050E00000E04046C6F8B4016806050E322000F024
:1050F000B5FDC7F88C91322000F0B0FDC7F88C8167
:10510000641CE4B2082CE8D3124C606820F47000F0
:105110006060606840F400006060322000F09EFD36
:10512000C7F88C91322000F099FDD6F8340100B117
:105130000120C7F88C81616821F4700161606168A9
:1051400041F440116160BDE8F08700000000244296
:10515000008022420020014070B50D460646002422
:10516000FFF77CFF4220FFF7AFFF00B1012464206E
:1051700000F074FD3046FFF7A7FF00B10124642062
:1051800000F06CFD2846FFF79FFF00B10124FFF7F8
:105190007FFF204670BD70470CB500222648009264
:1051A0000192016841F4803101604FF4A06301680D
:1051B00001F4003101910099491C0091019911B944
:1051C00000999942F3D10168890333D501210191F6
:1051D0001A490A6842F010020A600A6822F00302C3
:1051E0000A600A6842F002020A6041684160416850
:1051F0004160416841F480614160416821F47C1163
:105200004160416841F4E8114160016841F08071FA
:10521000016001688901FCD5416821F0030141600A
:10522000416841F0020141604168C1F381010229F6
:10523000FAD10CBD01920CBD0010024000200240CA
:105240004FF0E0210428086903D020F00400086131
:10525000704740F00400FAE7704700000F4810B5AF
:10526000016841F00101016041680D4A114041604F
:1052700001680C4A11400160016821F4802101603D
:10528000416821F4FE0141604FF41F018160FFF786
:1052900083FF05494FF00060086010BD0010024018
:1052A0000000FFF8FFFFF6FE08ED00E070B5048C8B
:1052B00024F001040484058B048C4FF6FF7606EA83
:1052C0000313134325F0F3050E4A2B4390420ED0EF
:1052D0000D4A90420BD0B0F1804F08D00B4A90425B
:1052E00005D00B4A904202D00A4A904202D124F0E3
:1052F000020201E024F00A020A4342F001010383A2
:10530000018470BD002C01400034014000040040C5
:1053100000080040000C0040F0B5048C24F010049C
:105320000484078B048C4FF6FF7527F4734705EA56
:1053300003333B4305EA02221A43114B05EA0116E7
:1053400098420ED00F4B98420BD0B0F1804F08D04E
:105350000D4B984205D00D4B984202D00C4B984211
:1053600005D124F02001314341F0100104E024F084
:10537000A0030B4343F0100102830184F0BD000041
:10538000002C0140003401400004004000080040AF
:10539000000C004010B50A4C0121204600F023F912
:1053A00000280AD00121204600F003F90549D1F870
:1053B000940118B10020C1F8940110BD0120FAE752
:1053C000000400400000234210B50C4C012120468F
:1053D00000F009F901280AD109480169884700212C
:1053E000204600F0B3F96421204600F0ADF92046D4
:1053F000BDE81040012100F0DCB8000000080040CA
:10540000CC000020F0B50C46074687B001210820EB
:10541000FFF70AFD01210420FFF712FD0220ADF87D
:10542000180003258DF81A5004268DF81B6006A974
:105430001248FBF701FBADF81070ADF80C400024EA
:105440000F4FADF81240ADF80E4003A9384600F0FA
:10545000A7F90120ADF80400ADF80060ADF80240F6
:10546000ADF80640ADF808506946384600F0C8F877
:105470000121384600F0A0F807B0F0BD0008014057
:10548000000C004070B51F4C1F4D2078000633D42F
:105490000121284600F0A7F838B12178480604D544
:1054A000C843800612D0491C21700221284600F012
:1054B0009AF808B3217848060FD541F08000207093
:1054C000284600F083F86080002112E041F080005F
:1054D00020704FF6FF706080E7E70020207060804A
:1054E0000146284600F032F92078022140F04000C1
:1054F0002070284600F022F92846BDE870400321BC
:1055000000F057B854000020000C004070B5094D61
:105510000121284600F067F830B1074C07A06178F8
:10552000FAF7A4FE002060702846BDE87040012113
:1055300000F03FB800100040540000206672616D1A
:10554000653A25646670730D0A0000007FB50D464C
:10555000044601211020FFF767FCADF8044000204D
:10556000ADF80050104CADF80600ADF802006946E9
:10557000204600F015F901224121204600F0D6F81E
:105580000121204600F018F836208DF80C0001208B
:105590008DF80D0003218DF80E108DF80F0003A873
:1055A000FEF734FF7FBD000000100040C9430182B8
:1055B0007047C943018270470029018802D041F039
:1055C000010101E021F0010101807047808E7047E8
:1055D000008F7047808C704702460020128A0A4272
:1055E00000D00120704702460020138A92890B42A6
:1055F00002EA010202D0002A00D001207047000018
:105600002DE9F84F0D4604460888434FDFF80CC1DA
:10561000DFF80C81DFF80C914988AA882B894FF0BC
:10562000804A48B3042830D04FF6FF7608289346C6
:1056300034D0208C9E4620F480502084A38B208C74
:1056400006EA0132009223F4734306EA0B221A435E
:1056500006EA0E331343BC420AD0644508D05445D1
:1056600006D0444504D04C4502D02F4A944245D13F
:1056700020F40050009943E02046FFF717FEE98828
:105680002046BDE8F84F00F063B82046FFF744FE1F
:10569000E9882046BDE8F84F00F062B8208C20F47D
:1056A00080702084B4F81CE0208C06EA031306EA1C
:1056B00001222EF0F30E43EA0B0343EA0E0300929D
:1056C000BC420AD0644508D0544506D0444504D0B5
:1056D0004C4502D0144A944203D120F40070009942
:1056E00001E020F42060084340F48070A38320840C
:1056F000E9882046BDE8F84F00F03EB820F40240AB
:10570000084340F48050A3832084E9882046BDE804
:10571000F84F00F039B80000002C0140003401407F
:105720000004004000080040000C0040002A82896C
:1057300001D00A4300E08A4382817047028C22F044
:1057400002020A4302847047818570478184704752
:10575000028B22F00C020283028B0A430283704701
:10576000028B22F440620283028B4FF6FF7303EA3E
:1057700001210A4302837047828B22F00C0282834C
:10578000828B0A4382837047828B22F44062828339
:10579000828B4FF6FF7303EA01210A43828370472D
:1057A00030B502881B4C1C4DA0420DD0A8420BD036
:1057B000B0F1804F08D0194B984205D0184B984251
:1057C00002D0184B984203D122F070034A881A4342
:1057D000154B984206D0154B984203D022F44073E3
:1057E000CA881A4302808A8882850A880285A04274
:1057F0000AD0A84208D00E4A904205D00D4A9042E5
:1058000002D00D4A904201D1097A0186012181829C
:1058100030BD0000002C0140003401400004004075
:1058200000080040000C0040001000400014004040
:1058300000400140004401400048014070B504466A
:10584000002504E000F008F8A84200D90546641ECF
:10585000E4B2F7D2284670BD70B500F06FF84FF68D
:105860000B640B4D08E0FFF7B5FEA04204D92846B3
:10587000BDE87040FFF7AEBE04212846FFF7ACFE3E
:1058800000282846EFD0BDE87040FFF7A1BE000019
:10589000000C004030B5401E81B285B04FF6FF705D
:1058A000FFF7B0FD00246D46FFF7D6FF25F8140082
:1058B0000A2000F0B9F9641CE4B20A2CF4D30021E8
:1058C0004C1CE0B20BE035F8113035F81020934253
:1058D00003D925F8112025F81030401CC0B20A2841
:1058E000F1D3E1B20929EBD30021022035F81020D1
:1058F000401C1144C0B289B20828F7D30620B1FB7E
:10590000F0F0074C6080618806A0FAF7AFFC608871
:10591000B0F5004F02D3012005B030BD0020FBE7F9
:105920004E000020747061645F64656661756C741C
:105930005F76616C3A25640D0A00000038B50121DC
:105940000420FFF77DFA0220ADF8000010208DF84A
:10595000030003200F4C8DF8020069462046FBF738
:105960006BF802212046FBF7E8F8052000F05CF90F
:10597000094D00212846FFF7E9FE05212846FFF7DB
:1059800018FE04218DF8031069462046FBF754F8F1
:1059900038BD000000080140000C004070B5010057
:1059A0000D4C4FF000054FF0030002D000210620FF
:1059B0002170FFF743FF618864318842207804D961
:1059C00000B901250320207000E010B1C0B2401ED4
:1059D0002070284670BD00004E0000207FB50D46A7
:1059E000044601210420FFF71FFAADF8044000200F
:1059F000ADF80050104CADF80600ADF80200694655
:105A00002046FFF7CDFE012241212046FFF78EFE02
:105A10001E218DF80C1003218DF80D108DF80E103D
:105A200001208DF80F0003A8FEF7F0FC01212046AD
:105A3000FFF7C2FD7FBD00000008004070B5154CA7
:105A400040F22551204600F035F800280ED02046BF
:105A500000F0BEF8104AC1B21088030406D4440412
:105A60004FF0000306D50A2901D0138070BD40F421
:105A700000400DE00D2909D0C0F30D04074D401C76
:105A800080B229551080C728EFD870BD40F48040FF
:105A9000108070BD003801405C000020CE01002065
:105AA0000029818902D041F4005101E021F4005124
:105AB0008181704770B501F01F0501260024C1F3F4
:105AC000421306FA05F2012B0FD0022B0FD0838A66
:105AD0004FEA11210088134206FA01F600EA060097
