:020000040800F2
:10000000F80B0020CD010008850400081D0400083D
:1000100081040008FD0200086F0C000800000000C9
:10002000000000000000000000000000650600085D
:1000300001030008000000000D050008510700083A
:10004000E7010008E7010008E7010008E7010008F0
:10005000E7010008E7010008E7010008E7010008E0
:10006000E7010008E7010008E7010008E7010008D0
:10007000E7010008E7010008E7010008E7010008C0
:10008000E7010008E7010008E7010008E7010008B0
:10009000E7010008E7010008E7010008E7010008A0
:1000A000E7010008E7010008E7010008E701000890
:1000B000E7010008E7010008E7010008E701000880
:1000C000E7010008E7010008E7010008E701000870
:1000D000E701000845090008E7010008C909000810
:1000E000E7010008E7010008E7010008E701000850
:1000F000E7010008E7010008E7010008E701000840
:10010000E7010008E7010008E7010008E70100082F
:10011000E7010008E7010008E7010008B50700084B
:10012000E7010008E7010008E7010008E70100080F
:1001300000F002F800F03AF80AA090E8000C8244BF
:100140008344AAF10107DA4501D100F02FF8AFF29C
:10015000090EBAE80F0013F0010F18BFFB1A43F0A5
:1001600001031847F80C0000180D0000103A24BFD6
:1001700078C878C1FAD8520724BF30C830C144BF0C
:1001800004680C607047000000230024002500264E
:10019000103A28BF78C1FBD8520728BF30C148BFEA
:1001A0000B6070471FB51FBD10B510BD00F074F88F
:1001B0001146FFF7F7FF00F09DFD00F092F803B441
:1001C000FFF7F2FF03BC00F054FD00000948804730
:1001D00009480047FEE7FEE7FEE7FEE7FEE7FEE729
:1001E000FEE7FEE7FEE7FEE704480549054A064B41
:1001F000704700005507000831010008F80500208D
:10020000F80B0020F8070020F807002070470000D6
:100210004FF0013C50F8042B51F8043B9A4221D195
:10022000A2EB0C03934313EACC1317D150F8042B21
:1002300051F8043B9A4215D1A2EB0C03934313EA05
:10024000CC130BD150F8042B51F8043B9A4209D13E
:10025000A2EB0C03934313EACC13DBD04FF0000066
:10026000704700BFD01A01BAB1FA81F101F018014C
:1002700022FA01F0CB40C1F12001DBB2C0B2C01ABA
:100280002CFA01F3D11A914311EAC311E6D1704758
:100290007047704770477047754600F02BF8AE46C0
:1002A00005006946534620F00700854618B020B582
:1002B000FFF79AFFBDE820404FF000064FF000071F
:1002C0004FF000084FF0000B21F00701AC46ACE8FE
:1002D000C009ACE8C009ACE8C009ACE8C0098D466B
:1002E000704710B50446AFF300802046BDE81040CB
:1002F000FFF765BF004870479805002000BFFEE784
:1003000070472DE9F0410246002500260020002319
:100310000024002791F803C00CF00F0591F803C0EA
:100320000CF0100CBCF1000F03D091F802C04CEAA5
:10033000050591F800C0BCF1000F31D01468002011
:100340002BE04FF0010C0CFA00F3B1F800C00CEAFE
:1003500003069E4220D183004FF00F0C0CFA03F7E6
:10036000BC4305FA03FC4CEA040491F803C0BCF159
:10037000280F06D14FF0010C0CFA00FCC2F814C093
:100380000AE091F803C0BCF1480F05D14FF0010C11
:100390000CFA00FCC2F810C0401C0828D1D314602D
:1003A000B1F800C0BCF1FF0F34DD546800202EE02E
:1003B00000F1080C4FF0010808FA0CF3B1F800C086
:1003C0000CEA03069E4221D183004FF00F0C0CFA79
:1003D00003F7BC4305FA03FC4CEA040491F803C09C
:1003E000BCF1280F05D100F1080C08FA0CF8C2F88E
:1003F000148091F803C0BCF1480F07D100F1080C3C
:100400004FF0010808FA0CF8C2F81080401C0828C8
:10041000CED35460BDE8F0810161704700BFFEE7B4
:1004200008B50121082000F093F80121402000F0D8
:100430008FF810208DF803002020ADF80000032075
:100440008DF8020069460C48FFF75BFF20210A483F
:10045000FFF7E2FF10208DF803002020ADF8000028
:1004600003208DF8020069460448FFF74AFF202167
:100470000248FFF7D1FF08BD000C01400018014001
:1004800000BFFEE77047000070B5002100220F2377
:10049000C478FCB1154C246804F4E064C4F5E0644D
:1004A000210AC1F10402447804FA02F184781C4064
:1004B000214309010E4C0678A155047804F01F056C
:1004C0000124AC4005786D11AD0005F1E025C5F8BB
:1004D000004109E0047804F01F050124AC40054DFB
:1004E0000678761145F8264070BD00000CED00E05E
:1004F00000E400E080E100E002490143024A1160AB
:10050000704700000000FA050CED00E070470000A5
:1005100029B1064AD2690243044BDA6104E0034A76
:10052000D2698243014BDA6170470000001002403B
:1005300029B1064A12690243044B1A6104E0034AD6
:1005400012698243014B1A6170470000001002409B
:1005500029B1064A92690243044B9A6104E0034AB6
:1005600092698243014B9A6170470000001002407B
:1005700029B1064AD2680243044BDA6004E0034A18
:10058000D2688243014BDA607047000000100240DD
:1005900030B500210022002400232D4D6D6805F0A8
:1005A0000C0121B1042905D0082923D105E0294DEA
:1005B000056022E0274D05601FE0254D6D6805F4BC
:1005C0007012234D6D6805F48034022505EB9242CC
:1005D0001CB9214D554305600BE01D4D6D6805F4B8
:1005E00000351DB11C4D5543056002E0194D5543C2
:1005F000056002E0174D056000BF00BF144D6D6837
:1006000005F0F0010909154D6B5C0568DD4045609A
:100610000F4D6D6805F4E061090A104D6B5C45688B
:10062000DD4085600A4D6D6805F46051C90A0B4DC7
:100630006B5C4568DD40C560054D6D6805F4404163
:10064000890B074D6B5CC568B5FBF3F5056130BDE3
:100650000010024000127A0000093D000000002056
:1006600010000020704710B500F002F810BD000027
:100670000CB50020019000903348006840F48030B1
:100680003149086000BF3048006800F40030009035
:100690000198401C0190009818B90198B0F5A06F1E
:1006A000F1D12948006800F4003010B10120009019
:1006B00001E0002000900098012843D12348006801
:1006C00040F01000214908600846006820F003004F
:1006D00008600846006840F0020008601A48406858
:1006E000194948600846406848600846406840F438
:1006F000806048600846406820F47C1048600846E6
:10070000406840F4E81048600846006840F0807097
:10071000086000BF0C48006800F000700028F9D0A5
:100720000948406820F003000749486008464068CF
:1007300040F00200486000BF0348406800F00C0031
:100740000828F9D10CBD0000001002400020024032
:100750007047000010B51348006840F001001149CF
:10076000086008464068104908400E49486008463D
:1007700000680E4908400B4908600846006820F4EC
:10078000802008600846406820F4FE0048604FF46E
:100790001F008860FFF767FF4FF0006004490860A2
:1007A00010BD0000001002400000FFF8FFFFF6FE41
:1007B00008ED00E010B50121094800F054F868B1D7
:1007C0000848008840F40040064908800121044898
:1007D00000F03AF80021024800F039F810BD00009E
:1007E000001400401E0000207FB505460C46012184
:1007F0002020FFF78DFEADF80450ADF8004000203A
:10080000ADF80600ADF8020069460E4800F048F861
:10081000012211460B4800F037F80121094800F089
:1008200016F837208DF80C0000208DF80D000220FE
:100830008DF80E0001208DF80F0003A8FFF724FEAD
:100840007FBD000000140040CA430282704721B1FE
:10085000028842F00102028004E002884FF6FE7333
:100860001A400280704730B5024600200023002461
:10087000158A05EA0103958905EA010413B10CB153
:10088000012000E0002030BD1AB183890B43838131
:1008900002E083898B438381704781847047000025
:1008A000002202881D4B98420ED01D4B98420BD05F
:1008B000B0F1804F08D01B4B984205D01A4B98429C
:1008C00002D01A4B984204D14FF68F731A404B88CE
:1008D0001A43174B984207D0164B984204D04FF654
:1008E000FF431A40CB881A4302808B8883850B888C
:1008F00003850A4B98420BD0094B984208D00E4B07
:10090000984205D00D4B984202D00D4B984201D130
:100910000B7A03860123838270470000002C01407C
:10092000003401400004004000080040000C00407A
:10093000001000400014004000400140004401400D
:10094000004801401D49098801F0200111B31B49ED
:10095000091D0988C8B21A49098801F40041C9B9BA
:100960001749098801F4804161B10A2803D00021A8
:10097000134A118020E01249098841F40041104ACD
:10098000118019E00D2806D10D49098841F48041F4
:100990000B4A118010E00A490988C1F30D01094A88
:1009A000505407490988491C054A11801146098895
:1009B000C72901DD00211180704700000038014087
:1009C0001C0000202000002010B5002440F225511A
:1009D000154800F08BF8F8B1134800F043F9C4B2A1
:1009E0001248008800F40040B0B910480088B0F503
:1009F000167F12DA00210E48FFF74FFF0B480088E0
:100A000018B901210A48FFF722FF08490888411C4C
:100A1000064A118007490C5405E00448008840F458
:100A200000400249088010BD004800401E00002020
:100A300000140040E800002021B1828942F40052F5
:100A4000828104E082894DF6FF731A4082817047EB
:100A500010B504462048844209D101218803FFF7DC
:100A600087FD00214FF48040FFF782FD32E01B48F4
:100A7000844209D101214804FFF75AFD00214FF4B7
:100A80000030FFF755FD25E01548844209D10121CA
:100A90008804FFF74DFD00214FF48020FFF748FD4B
:100AA00018E01048844209D10121C804FFF740FD35
:100AB00000214FF40020FFF73BFD0BE00A48844281
:100AC00008D101210805FFF733FD00214FF4801004
:100AD000FFF72EFD10BD000000380140004400402B
:100AE00000480040004C00400050004070B50246F5
:100AF000002400230025002040F66A16B14200D1F0
:100B000000BFC1F3421501F01F03012606FA03F3EB
:100B1000012D02D19689334006E0022D02D1168ABA
:100B2000334001E0968A33400C12012606FA04F4A1
:100B30001688344013B10CB1012000E0002070BDD4
:100B4000F0B50346002400260025002040F66A1771
:100B5000B94200D100BF1846C1F3421401F01F068C
:100B6000012707FA06F5012C01D10C3004E0022C14
:100B700001D1103000E014301AB107682F4307602C
:100B800002E00768AF430760F0BD00002DE9F047C1
:100B900086B005460E460024A24600BFA1460027A7
:100BA000B08900B100BF2F462C8A4CF6FF7004407C
:100BB000F08804432C82AC894EF6F3100440B088D0
:100BC00031890843718908430443AC81AC8A4FF6EC
:100BD000FF400440B0890443AC8201A8FFF7D8FC71
:100BE0001F48874202D1DDF810A001E0DDF80CA01B
:100BF000A88900F4004040B10AEBCA0000EB0A10DB
:100C000031684900B0FBF1F807E00AEBCA0000EBDD
:100C10000A1031688900B0FBF1F86420B8FBF0F0ED
:100C200004012009642101FB1089A88900F4004017
:100C300040B1322000EBC900B0FBF1F000F007003A
:100C4000044308E0322000EB09106421B0FBF1F00E
:100C500000F00F0004432C8106B0BDE8F0870000CF
:100C60000038014001468888C0F30800704700BF83
:100C7000FEE700BF704700004FF0E021096921F056
:100C800004014FF0E0221161C21700EB5272C2F36F
:100C9000C702074B1A701946097801EB4102C2EBF3
:100CA000C1114FF6FF7202EAC101024A118070477A
:100CB000140000201600002001460D4A12884A4305
:100CC0004FF0E0235A6100229A6101221A6100BFAD
:100CD0004FF0E022106900F001021AB100F48032F6
:100CE000002AF5D000224FF0E0231A619A61704784
:100CF000160000200024FFF7BFFFFFF791FB4FF421
:100D0000E13000F043F84FF4A060FFF7F5FB4FF43B
:100D10007A70FFF7D1FF25E01348008800F4004007
:100D200000B311480088C4B2002010490855092CAE
:100D300001D0082C13D10EA10C48FFF769FA10B9A5
:100D400000200E4908604FF4FA70FFF7B5FF0CA1C0
:100D50000648FFF75DFA012801D108490860002024
:100D600001490880D8E700001E000020E8000020AC
:100D70002B4C454431204F4E00000000948121420D
:100D80002B4C454431204F464600000010B586B03C
:100D9000044601210820FFF7DBFB01218804FFF74F
:100DA000B7FB2A48FFF754FE4FF48060ADF81000FF
:100DB00003208DF8120018208DF8130004A9244890
:100DC000FFF79FFA4FF40060ADF8100004208DF893
:100DD000130004A91E48FFF794FA00940020ADF810
:100DE0000400ADF80600ADF80800ADF80C000C20CA
:100DF000ADF80A0069461548FFF7C8FE01211348FF
:100E0000FFF71AFE012240F225511048FFF798FE25
:100E100027208DF8140002208DF8150003208DF88E
:100E2000160001208DF8170005A8FFF72DFB41F6ED
:100E30001F416320FFF7D8FC0020064908800021ED
:100E40000548FFF704FD06B010BD00000048004053
:100E5000000C01401E000020001400407C0E000821
:100E600000000020200000006C0100089C0E00081B
:100E700020000020D80B00008801000800000000BE
:100E8000010203040102030406070809020406081C
:0C0E900000000000000000000000000056
:04000005080001CD21
:00000001FF
