:020000040800F2
:10000000000C0020790200085D210008751F00081F
:1000100059210008771B000867290008000000002C
:100020000000000000000000000000003D23000868
:100030007B1B000800000000E521000829240008BF
:10004000930200089302000893020008930200083C
:10005000930200089302000893020008930200082C
:10006000930200089302000893020008930200081C
:10007000930200089302000893020008930200080C
:1000800093020008930200089302000893020008FC
:1000900093020008930200089302000893020008EC
:1000A00093020008930200089302000893020008DC
:1000B00093020008930200089302000893020008CC
:1000C00093020008930200089302000893020008BC
:1000D000930200081D26000893020008A1260008CC
:1000E000930200089302000893020008930200089C
:1000F000930200089302000893020008930200088C
:10010000930200089302000893020008930200087B
:100110009302000893020008930200088D2400084F
:10012000930200089302000893020008930200085B
:1001300000F002F800F090F80AA090E8000C824469
:100140008344AAF10107DA4501D100F085F8AFF246
:10015000090EBAE80F0013F0010F18BFFB1A43F0A5
:1001600001031847D4320000F4320000103A24BFD3
:1001700078C878C1FAD8520724BF30C830C144BF0C
:1001800004680C607047000000230024002500264E
:10019000103A28BF78C1FBD8520728BF30C148BFEA
:1001A0000B6070476E2900F0D182702900F029841D
:1001B000662903F0BE80652903F0BB80672903F040
:1001C000B880612903F0B78003681B0A28BF41F09B
:1001D0008001692900F0C480642900F0C18075297C
:1001E00000F0BE806F2900F0B683782900F0F58317
:1001F000E92900F05183E42900F04E83F52900F04D
:100200004B83EF2900F0B383F82900F0F4830368EF
:10021000DB0928BF41F08001632900F0D2827329F5
:1002200000F0D782E32900F0D187F32900F0D687C8
:10023000002070471FB501F023F8040000200021C2
:1002400002F0BEFD401C60600020002102F0A2FD13
:10025000E0601FBD10B510BD00F0E4FF1146FFF7D0
:10026000E9FF02F0DDFB01F0BDF803B4FFF7F2FF98
:1002700003BC02F095FB000009488047094800478D
:10028000FEE7FEE7FEE7FEE7FEE7FEE7FEE7FEE746
:10029000FEE7FEE704480549054A064B70470000A3
:1002A0002D2400083101000800060020000C002069
:1002B0000008002000080020704700001CB50C4614
:1002C000064B7B4469460090204600F058FA0446ED
:1002D0000020694600F066FA20461CBDDF040000DD
:1002E0000FB41CB5084B06AA7B44694600900598DC
:1002F00000F045FA04460020694600F053FA204613
:100300001CBC5DF814FB0000B904000070B50C467D
:100310000546012A05D02878800600D5EA69002321
:1003200002E0012305E05B1C934202D2E05C00285E
:10033000F9D1A869E618C01AA861286A1844286289
:10034000284600F071F904E0D5E9012114F8010B09
:100350009047B442F8D3284600F07CF970BD000005
:100360002DE9F0410646002410687529314616A58E
:1003700010D000F080F9002802DA404213A507E00F
:1003800031688A0701D512A502E0490704D511A5F5
:10039000012401E000F078F900210A2206F1240787
:1003A00009E0B0FBF2FCB0FBF2F302FB1C003030C2
:1003B00078541846491C0028F3D123462A46304673
:1003C000BDE8F04100F069B9000000002D00000018
:1003D0002B000000200000002DE9F05F8946044654
:1003E0004FF0000ADFF874B1FB44C0F820A02046AB
:1003F000E1688847002874D0252806D0D4E9012177
:100400009047206A401C2062F1E700265F462046A4
:10041000E16888472028054607DB312D05D2781989
:1004200010F8200C08B10643F1E7B00701D526F01B
:100430000406C4F81CA00027C4F818A02A2D09D06F
:10044000284602F0A6FA38B304EB8708303DC8F816
:10045000185019E059F8041B204604EB87029161FB
:10046000E1688847012F054618D1E069002820DAA5
:1004700026F020061DE0D8F8180000EB800005EB00
:1004800040003038C8F818002046E1688847054623
:1004900002F07FFA0028EED1012F0AD02E2D08D1CC
:1004A0002046E16888477F1C0546022F46F020065B
:1004B000C4DBA069002803DA404246F00106A061CF
:1004C000F00701D026F010066C2D0BD0682D09D056
:1004D0004C2D39D06A2D35D0742D35D07A2D33D0AE
:1004E00016E038E0E1682F4620468847B8420546C6
:1004F00009D16C2F26D04FF48060E1680643204676
:100500008847054604E06C2F1AD04FF480700643EC
:100510000DB3A5F14100192802D8203546F4006634
:100520004A462946204626604E46FFF73BFE80B1EC
:1005300001280BD0F61D26F0070000F1080956E748
:100540004020E4E78020D8E70020D6E706F1040940
:100550004DE7284652E7206ABDE8F09F4E2F000085
:1005600010B5431C02E010F8011B71B18107FAD1EC
:100570004FF0013202C88C1A8C4314EAC211F9D030
:10058000C01A0A0603D0C01E10BDC01A10BD0A044E
:1005900001D0801E10BD0902FCD0401E10BD00001D
:1005A0004FF0013C50F8042B51F8043B9A4221D102
:1005B000A2EB0C03934313EACC1317D150F8042B8E
:1005C00051F8043B9A4215D1A2EB0C03934313EA72
:1005D000CC130BD150F8042B51F8043B9A4209D1AB
:1005E000A2EB0C03934313EACC13DBD04FF00000D3
:1005F000704700BFD01A01BAB1FA81F101F01801B9
:1006000022FA01F0CB40C1F12001DBB2C0B2C01A26
:100610002CFA01F3D11A914311EAC311E6D17047C4
:10062000704770477047704770B504468569006829
:10063000C10601D5302600E02026C00707D070BDD6
:10064000D4E9012130469047206A401C20626D1E8B
:10065000F6D570BD70B5044685690078C00707D12E
:1006600070BDD4E9012120209047206A401C2062FF
:100670006D1EF6D570BD09684A0501D540B27047B8
:10068000C905FCD500B2704709684A0501D5C0B25A
:100690007047C905FCD580B270472DE9F0470D467B
:1006A00099469246044600F124080168880604D55C
:1006B000E06921F01001216000E00120A84201DD85
:1006C000471B00E00027A1697A1902EB0900081A0C
:1006D000A0612078C00602D42046FFF7A5FF0026BF
:1006E00008E0D4E901211AF806009047206A401C6E
:1006F000761C20624E45F4DB2078C0060AD52046E1
:10070000FFF792FF06E0D4E9012130209047206AEC
:10071000401C2062381EA7F10107F4DC07E0D4E991
:10072000012118F805009047206A401C2062281E0D
:10073000A5F10105F3DC2046FFF78CFF20780006C9
:1007400002D50220BDE8F0870120FBE711680268AE
:10075000006A530501D508700AE0D30501D5088069
:1007600006E0130603D5C217C1E9000200E00860E5
:100770000120704701694A1C02610878704700B582
:100780008FB0CDE901310021059105497944CDE9CA
:10079000031011466846FFF71FFE0FB000BD0000B2
:1007A000E5FFFFFF0A6802F8010B0A60704710B509
:1007B000436913B1AFF3008001E0FFF7A7FD01200B
:1007C00010BD127800F124010A7000224A70012243
:1007D000EDE711684FF0FF32E9E700002DE9FF5F18
:1007E00015468A460446DFF8AC80F8440027D8E96D
:1007F00000103E46CDE9001010E03AF816106A46A7
:1008000002A800F0EFFC411C07D02178890603D52F
:10081000E269391891420DD80744761C2078800689
:1008200002D5E069B84205DDAE42E6DB3AF81600D3
:100830000028E2D1A069C01BA0612046FFF7F4FEAA
:10084000D8E90010CDE90010002017E03AF81810A0
:100850006A4602A800F0C6FCB0F1FF3F81460BD00B
:1008600000250DF1080B05E0D4E901211BF8050076
:1008700090476D1C4D45F7D308F10100B04280460A
:10088000E4DB206A384420622046FFF7E3FEBDE83F
:10089000FF9F00005E2B00002DE9F0418046D21D35
:1008A00022F007020025D2E90002F52915A614D08E
:1008B000011E72F1000106DA0023D0EB030063EBA6
:1008C000020211A608E0D8F800108B0701D50FA688
:1008D00002E0490701D50EA601251146002408F1C2
:1008E000240704E000F098F830323A55641C50EACE
:1008F0000102F7D12B46324621464046BDE8F04181
:10090000FFF7CBBE000000002D0000002B00000010
:100910002000000030B4002100F1240408E002F0BF
:100920000705D208303542EA4372DB086554491C9A
:1009300052EA0305F3D10468002310A2250707D566
:10094000A40600D421B1C46901230DA2641EC461B0
:1009500030BCFFF7A2BE10B5044621461068FFF771
:1009600093FE02462046BDE810400023D2E7D21D88
:1009700022F00701D1E90023CCE7000000000000CD
:1009800030000000F0B40D460188090502D5214C65
:100990007C4402E01F4C7C440E34002100F124060C
:1009A00008E002F00F071209E75D42EA03721B0933
:1009B0007754491C52EA0307F3D102780023120747
:1009C00004D5702D06D009B1022311342246F0BCA3
:1009D000FFF763BE01231034F8E770B504460D46F7
:1009E00021461068FFF750FE024629462046BDE822
:1009F00070400023C6E7D21D22F00703D3E900238D
:100A0000C0E70368126843F0200303600823C36152
:100A10000023B7E7C029000030B5B0F10A024FEA61
:100A2000900E71F100034EEA817EB0EB0E0061EB97
:100A300091014FEA101E4EEA017E10EB0E0041EBD1
:100A400011114FEA102E4EEA016E10EB0E0041EB31
:100A500011214FEA104E4EEA014E10EB0E0041EB11
:100A60001141401841F100014FEAD00040EA4170C5
:100A70004FEAD10110EB80054FEA810444EA9074FB
:100A800044EB01046D1944EB0404521BA3414FF0E5
:100A9000000348BF0A3200D530BD401C41F10001BF
:100AA00030BD70472DE9FF4F0C461E464FF0FF3713
:100AB0008BB0D2E90001DDF860800A908A46C1F36C
:100AC0000A5505B93D46002108464FF00000BAF12D
:100AD000000F00F4400005DA00EB80004FF4400105
:100AE00001EA50004FEA9059B9F1010F00DDB94613
:100AF0000A9850EA4A000ED044F61050A5F2FF358D
:100B000045432F14B8F1000F1ED07542291E1EDD7B
:100B1000C9F100021CE0B8F1010F4FF0000001D054
:100B2000302103E0F24305E02154401CB042FBDBDE
:100B300030460022002121540B99C1F80880C1E9F8
:100B400000200FB0BDE8F08FBD1B6D1CDEE74A46EC
:100B500000DA694206A800F0D7FB06AB93E807006D
:100B600003AB83E8070050460A9900F049FC8DE882
:100B70000700A0F500501F3800900398002D09DDF4
:100B800042F21F014A46084403A90390684600F058
:100B9000A8FE08E0A0F500504A461F3803A90390BC
:100BA000684600F0B2FE8DE807000004000C03D098
:100BB0004FF0FF30410800E01046B8F1000F03D0BD
:100BC0000022009215461EE0751E05D4FFF724FF93
:100BD000303262556D1EF9D5B3460122084302D06A
:100BE00000227F1C04E02078302801D100227F1EE3
:100BF000002A099786D01DE0112D07DAFFF70CFFB8
:100C0000303262556D1C50EA0102F5D1084302D022
:100C10000098C8B10EE00021681E05E0235C625C0C
:100C200063542254401E491C8142F7DBAB46A81B8B
:100C3000401E0990002004F80B000B98099AC0F898
:100C40000880C0E9002B7CE711264FF0000859E727
:100C50002DE9F04F88460446D21D22F0070191B0DD
:100C6000D1E90001CDE90A0101F07FFE02460B98AF
:100C7000C00F01D02D2007E02068810701D52B206F
:100C800002E0202101EAC000032A099001D0072ACE
:100C900005DB03464146204600F0F6FA0BE12078DA
:100CA000800601D5E06900E00620B8F1650F8146B5
:100CB00006D0B8F1660F18D0B8F1670F70D131E0E7
:100CC0000020B9F1110F009001DB112301E009F1BF
:100CD00001030AAA01A90CA8FFF7E4FEDDE90C70E4
:100CE000002609F10105834647E001204B460090AC
:100CF0004FF000470AAA01A90CA8FFF7D3FEDDE9CF
:100D00000DB00C995D46002610B909F101000D18CF
:100D1000B9EB050003D4C0F1FF3609F10105A5EBDD
:100D200009002BE0B9F1010F01DA4FF001090020B1
:100D3000B9F1110F0090484601DD112300E0034690
:100D40000AAA01A90CA8FFF7ADFEDDE90C704D461B
:100D500000268346207800070AD4AB4500DA5D46BA
:100D600001A8012D04DD411911F8011C302907D01B
:100D70004F4502DA17F1040F04DA012082460FE032
:100D80006D1EEEE7002F02DCED1B3E4403E0781CF5
:100D9000A84200DD7D1CB81B00F1010A4FF000479E
:100DA0002078000703D4AA4501DB4FF0FF3A002169
:100DB000B7F1004F0DF143088DF8431024D0022005
:100DC0002B23002F01DA7F422D230A21021EA0F1DE
:100DD000010000DC5FB197FBF1FC97FBF1F201FB36
:100DE0001C7C17460CF1300C08F801CDEEE7A8F199
:100DF000010003702188090501D5452100E0652126
:100E0000A0F1010800F8011C09980FA9A1EB08073F
:100E1000FF1D00B10120411901EBEA70A1693844BE
:100E2000081A401EA0612078C00602D42046FFF7B1
:100E3000FBFB099828B1D4E901219047206A401CA6
:100E400020622078C00622D52046FFF7EDFB1EE089
:100E5000002E04DBB34502DD01A8805D00E03020F8
:100E6000D4E901219047206A401C2062761CAAF137
:100E700001005FEA000A0AD100F002FAC0680168C6
:100E8000405CD4E901219047206A401C2062281E62
:100E9000A5F10105DCDC07E0D4E9012118F8010B1C
:100EA0009047206A401C2062381EA7F10107F3DC3E
:100EB0002046FFF7CFFB032011B043E62DE9F04FAA
:100EC00004460D46D21D22F0070089B0D0E90097F4
:100ED0004846394601F049FD0246F80F01D02D235E
:100EE00007E02068810701D52B2302E0202101EAD9
:100EF000C0038DF820300BB1012000E00020032A50
:100F0000824601D0072A04DB2946204600F0BCF9BE
:100F10003FE12078800601D40D2500E0E569C7F3A4
:100F20000A560D2D49DA00214FEA175B08464FF0AB
:100F30000000002F00F4400007DA00EB80004FF4BF
:100F4000400100EBD07001EA60008115012901DD4C
:100F50004FF0FF3100224FEA850CBCF1180F06D389
:100F60001346ACF118004FF08052C24003E04FF43A
:100F7000801323FA0CF30CF10C0CBCF1200F04D3FA
:100F8000ACF1200C09FA0CF001E007FA0CF0002992
:100F90004FF0004801DD18B90FE00ED140450CD3E9
:100FA00019EB02095F4121B9404502D19F4329EA6B
:100FB0000209BBEB175F00D0761C2088000502D524
:100FC0007B48784402E07A487844193808AA3023EC
:100FD00002F80A30037C0AF10101002E0AF1020A2C
:100FE00053546A4602DC4FF0300101E04FF031010A
:100FF0004FF001088DF8001002D0A6F2FF3603E092
:1010000059EA470100D06B4E002D02DC2178090718
:1010100004D54FF002082E218DF80110C44600219E
:101020000BE0C7F303433F01C35C491C6D1E02F88C
:101030000830052908F1010801DA002DF1DC002152
:101040000CE000EB1973491C1B786D1E082902F88F
:1010500008304FEA091908F1010801DA002DF0DC27
:1010600021688B0602D516E0A8F10108E04505DDF0
:1010700002EB080313F8013C302BF5D0B8F1000F58
:1010800009DD02EB080313F8013C2E2B03D10907FD
:1010900001D4A8F10108002D05DD3E2102F8081059
:1010A0006D1E08F10108407C002E02F8080008F1CE
:1010B000010804DA2D20764202F8080002E02B2015
:1010C00002F808000A214FF47A70864208F10108FC
:1010D0000BDB96FBF0F3303302F8083096FBF0F3AD
:1010E00008F1010800FB136601E0642E0CDB6420AC
:1010F00096FBF0F3303302F8083096FBF0F308F17A
:10110000010800FB136601E00A2E06DB96FBF1F0F6
:10111000303002F8080008F1010896FBF1F001FBFD
:101120001060303002F80800A16908F1010808EBEE
:10113000050202EB0A00081AA0612078C00602D45A
:101140002046FFF771FA216A08AE01EB0A0020621F
:1011500004E0D4E9012116F8010B9047BAF1010A25
:10116000F7D22078C00602D52046FFF75DFA6E461A
:1011700009E016F8010B3E280FD0D4E90121904771
:10118000206A401C2062B8F10108F2D22046FFF725
:1011900061FA09B00320BDE8F08F206A284420627C
:1011A00003E0D4E90121302090476D1EEBD3F8E72E
:1011B000C923000002FCFFFF10B5436913B1AFF370
:1011C000008001E0FFF70AFB012010BD128800F14A
:1011D000240182840022C2840122EDE711684FF0CD
:1011E000FF32E9E770B516460C46054600F040F8B8
:1011F000036893F80101012806D0FF2C0FD8185D71
:1012000068B101202C7070BDD3F807013246214629
:1012100003F2071303442846BDE8704018474FF017
:10122000FF3070BD754600F0E7F8AE460500694630
:10123000534620F00700854618B020B5FFF72AF87E
:10124000BDE820404FF000064FF000074FF00008C7
:101250004FF0000B21F00701AC46ACE8C009ACE848
:10126000C009ACE8C009ACE8C0098D467047000071
:1012700010B500F005F8001D10BD00BF451B0000B3
:1012800000487047BC0500202DE9F0411F46044688
:1012900003260168072A01F4006004DB08B116A5E3
:1012A00005E016A503E008B115A500E015A521F09D
:1012B00010002060A069C01EA0610FB1401EA06197
:1012C0002046FFF7B1F94FB1D4E9012138469047E4
:1012D000206A401C2062C01C206206E0206AFAE7F7
:1012E000D4E9012115F8010B9047761EF8D220466B
:1012F000FFF7B0F9BDE8F0814E414E006E616E001F
:10130000494E4600696E66002DE9F0478146164653
:101310008AB0334878440DC88DE80D0030487844D1
:10132000801C03AC0DC884E80D0041F69B300844D6
:10133000372190FBF1F290FBF1F5A5F1800501FB5F
:1013400012041B3C02D56442012000E00020DFF8BB
:1013500090A080460027FA44AAF1BE0A0DE0E007FB
:1013600009D03246684607EB47010AEB810100F0DD
:10137000CCFA8DE8070064107F1C002CEFD1184FC9
:101380007F44AC3F18E0E80714D007EB04100DF1E0
:10139000180A90E80E008AE80E00C068F04201D1F9
:1013A00098190890324606A903A800F0AEFA03ABDC
:1013B00083E807006D10641C002DE4D132466946B5
:1013C000B8F1000F03A802D000F08BFA01E000F0A2
:1013D0009CFAC9E90001C9F808200AB0BDE8F08705
:1013E0000821000010B50446AFF300802046BDE898
:1013F0001040FEF73ABF0000004870479C050020EF
:101400005FEA400C08BF91F0000F4FEA8C234FEACF
:10141000C12243EA51514FEA1C5018BF00F5F04079
:101420004FEA300018BF41F000415FEA6C5C00F009
:101430002980BCF1FF3F08BF40F080407047130C8B
:1014400006BF12044FF0100C4FF0000C130E04BF37
:1014500012020CF1080C130F04BF12010CF1040C62
:10146000930F04BF92000CF1020CD30F04BF520083
:101470000CF1010C11464FF00002A0F11F00A0EB8F
:101480000C00704711F0004F08BF704731F0004169
:101490003FF4D5AF0B0C06BF09044FF0100C4FF012
:1014A000000C0B0E04BF09020CF1080C0B0F04BF5B
:1014B00009010CF1040C8B0F04BF89000CF1020C24
:1014C000CB0F04BF49000CF1010CCCF12003A0EBC1
:1014D0000C0022FA03F302FA0CF241EA030100F1D4
:1014E0000100704720F07F4C80EA030023F07F4723
:1014F000ACEB070303F57C5300F0004003F1FF035E
:101500002DE980494FEA154B09B44FEA144325EA07
:101510000B4E24EA03480FF2042606EB1327490872
:101520003E785FEA320203FB0667C7F5000707FB58
:1015300006F64FEA54374FEAD64606F1020607FB95
:10154000066CCCF1005C4FEA1C472CEA074C07FB09
:1015500006F40CFB06F504EB15464FEA961634BF6D
:1015600000204FF000404FEAD13706FB07FC4FEA5E
:101570001C4C0CFB0BF7D21B03FB0CF761EB0701B8
:101580000CFB0EF7B0EB074072EB17420CFB08F7B1
:1015900034BFA2EB0742B2EB074261EB17414FEABF
:1015A0000C444FEA910706FB07FC4FEA1C4C0CFB6E
:1015B0000BF7B0EBC74072EB573203FB0CF734BFAD
:1015C000A2EBC742B2EBC74261EB57310CFB0EF7FF
:1015D000B0EBC70072EB57720CFB08F734BFA2EBFD
:1015E000C702B2EBC70261EB5771039F4FEA8161FB
:1015F00041EA921104EBCC044FEAD1374FEA826200
:1016000006FB07FC42EA90124FEA80604FEA1C4C4E
:101610000CFB0BF7D21B03FB0CF761EB07010CFB78
:101620000EF7B0EB074072EB17420CFB08F734BF24
:10163000A2EB0742B2EB074261EB17414FEA8C5530
:101640004FEA910704EB9C2406FB07FC4FEA1C4C75
:101650000CFB0BF7B0EBC74072EB573203FB0CF7F8
:1016600034BFA2EBC742B2EBC74261EB57310CFB70
:101670000EF7B0EBC70072EB57720CFB08F734BFE4
:10168000A2EBC702B2EBC70261EB577115EB4C2519
:101690004FEA816141EA92114FEA82624FEAD13703
:1016A00042EA901206FB07FC44F100044FEA806016
:1016B0004FEA1C4C0CFB0BF7D21B03FB0CF761EB46
:1016C00007010CFB0EF7B0EB074072EB17420CFB67
:1016D00008F734BFA2EB0742B2EB074261EB1741B8
:1016E00015EB1C154FEA813141EA92414FEA8232F3
:1016F00042EA90424FEA80304FEA0C7644F100040F
:1017000048EA03434EEA0B484FF0000EB2EB080CD8
:1017100071EB030724BF624639464EEB0E0E4FF0C5
:10172000000B0018524149414BEB0B0BB2EB080C7C
:1017300071EB03077BF1000B24BF624639464EEB89
:101740000E0E4FF0000B0018524149414BEB0B0BB2
:10175000B2EB080C71EB03077BF1000B24BF624670
:1017600039464EEB0E0E51EA020718BF46F001064D
:1017700016EB0E7655F1000254F1000103D5BDE8D9
:101780008901BDE80088BDE88901BDE80048B619B7
:10179000524141EB0101A3F10103704780807F7E3C
:1017A0007D7C7B7A797877767675747372717170D7
:1017B0006F6E6E6D6C6C6B6A6A6968686766666589
:1017C0006464636362616160605F5F5E5E5D5D5C17
:1017D0005C5B5B5A5A595958585757565655555588
:1017E0005454535352525251515050504F4F4F4EE8
:1017F0004E4D4D4D4C4C4C4B4B4B4A4A4A49494936
:101800004848484747474746464645454544444477
:10181000444343434342424242414141002B26D488
:10182000770021D01CB54FEA370703B44FF0100002
:101830004FF010014FF000000FBCBDE810400BF15D
:10184000010BBBF1010F08BF5FEA170722BF12F1BE
:10185000010211F101014FF0004143F1000300F0DA
:10186000004043EA00007047F9D35708DAE746EA38
:10187000064613F1400F4FEA16461FDD13F1200F05
:10188000DFBF16430A46002120335B42C8D0C3F1B4
:10189000200746EA064602FA07F74FEA164646EAE6
:1018A0000706C3F1200722FA03F201FA07F721FA2B
:1018B00003F14FF0000342EA0702B1E746EA0206ED
:1018C00046EA06464FEA164646EA0106BCBF46EA25
:1018D0000646360C4FF000034FF000024FF00001B7
:1018E0009EE72DE9C048934630B491E8380007C818
:1018F00031EA400C48BF34EA430C03D5FFF7F2FD50
:10190000FFF78CFFF0BCBDE800882DE9C048934686
:1019100030B491E8380007C810F0804F08BF13F0CA
:10192000804F03D100F005F8FFF778FFF0BCBDE869
:10193000008820F07F4780EA030023F07F4C07EB0C
:101940000C03A3F57C5300F00040A3F1FE0392F0DA
:10195000000F00F0B38095F0000F00F077802DE9C4
:1019600001494FEA11404FEA144621EA004800FBC2
:1019700006FC24EA064708FB06F607FB08F800FB0E
:1019800007F718EB06484CEB164C4FEA124B18EBD6
:1019900007484FEA15464CEB174022EA0B4E0BFB6B
:1019A00006FC25EA06470EFB06F607FB0EFE0BFBC0
:1019B00007F71EEB064E4CEB164C4FF000061EEBE5
:1019C000074E4CEB174B18EB0B0840F1000018EBDF
:1019D0000E0B58EB000840F100008F1A4FF0000189
:1019E0003CBFC943661B14BFB5EB040C00213CBFD0
:1019F000C943F61B4FEA17444EEA8E0E27EA044508
:101A00004FEA1C4704FB07622CEA074C05FB07F76B
:101A10000CFB05F604FB0CFC16EB074642EB1742E9
:101A200016EB0C4642EB1C421BEB060658EB02027F
:101A3000414146EA9E0601D5BDE80189B6195241E9
:101A400041EB0101A3F10103BDE801894FEA14450F
:101A50004FEA114724EA054621EA074C05FB07F443
:101A600006FB07F70CFB06F105FB0CFC11EB07412D
:101A700044EB17444FEA124711EB0C4144EB1C4472
:101A800022EA074C05FB07F206FB07F70CFB06F6FC
:101A900005FB0CFC16EB074642EB174216EB0C4617
:101AA00042EB1C456A1854F1000148BF7047B61953
:101AB000524141EB0101A3F10103704795F0000F82
:101AC00037D04FEA11424FEA144721EA024624EA8E
:101AD000074C02FB07F106FB07F70CFB06F402FBC1
:101AE0000CFC14EB074441EB17414FEA154714EB8C
:101AF0000C4441EB1C4125EA074C02FB07F506FBB1
:101B000007F70CFB06F602FB0CFC16EB074645EB51
:101B1000174516EB0C4645EB1C42121951F100011A
:101B200048BF7047B619524141EB0101A3F10103CF
:101B300070474FEA14454FEA114724EA054621EA67
:101B4000074C05FB07F106FB07F70CFB06F24FF00D
:101B5000000605FB0CFC12EB074241EB174112EBB0
:101B60000C4251EB1C4148BF7047921841EB0101F8
:101B7000A3F10103704700BFFEE770472DE9F04174
:101B8000024600250026002000230024002791F8AB
:101B900003C00CF00F0591F803C00CF0100CBCF161
:101BA000000F03D091F802C04CEA050591F800C07F
:101BB000BCF1000F31D0146800202BE04FF0010C75
:101BC0000CFA00F3B1F800C00CEA03069E4220D1E3
:101BD00083004FF00F0C0CFA03F7BC4305FA03FC2B
:101BE0004CEA040491F803C0BCF1280F06D14FF071
:101BF000010C0CFA00FCC2F814C00AE091F803C012
:101C0000BCF1480F05D14FF0010C0CFA00FCC2F8F2
:101C100010C0401C0828D1D31460B1F800C0BCF13A
:101C2000FF0F34DD546800202EE000F1080C4FF067
:101C3000010808FA0CF3B1F800C00CEA03069E4252
:101C400021D183004FF00F0C0CFA03F7BC4305FAC7
:101C500003FC4CEA040491F803C0BCF1280F05D141
:101C600000F1080C08FA0CF8C2F8148091F803C0CF
:101C7000BCF1480F07D100F1080C4FF0010808FA39
:101C80000CF8C2F81080401C0828CED35460BDE880
:101C9000F0810000F0B50A46002300240021002551
:101CA00000F00046B6F1004F02D11D4EF16901E08F
:101CB0001B4E7168C0F3034583B200F44016B6F5BD
:101CC000401F08D121F07061154E766826F07066CD
:101CD000134F7E6012E000F48016B6F5801F06D127
:101CE000032606FA05F4A14341F0706106E0460DB3
:101CF000360103FA06F6B14341F0706122B1460D98
:101D0000360103FA06F6314300F00046B6F1004F03
:101D100002D1034EF16101E0014E7160F0BD00009F
:101D2000000001400246002093680B400BB10120E7
:101D300000E00020704701617047000070B50F2679
:101D400031E001201D4908600A2000F04BFE1CA074
:101D500000F022FF00250AE00A2000F043FE1B48A5
:101D6000008800F4004000B103E0681CC5B2142DE7
:101D7000F2DB00BF0020114908601448008800F41D
:101D8000004080B111480088C4B200200F4908808B
:101D90000D2C08D10E4800782B2804D10C488079EE
:101DA0003038C4B204E0301EA6F10101CEB2C8D171
:101DB00000BF06B9FF24204670BD000090012142FB
:101DC00041542B524F4C453F0D0A0000200000208B
:101DD000EC000020F8B50A2601250121042000F0BE
:101DE00023FAE803ADF8000048208DF80300032033
:101DF0008DF8020069463048FFF7C0FE1020ADF8AC
:101E000000008DF8030003208DF8020069462A487F
:101E1000FFF7B4FE10212848FFF78DFF0121274866
:101E2000FFF738FF0120264908602649C1F83C0128
:101E30004FF4165000F046FF33E0012020490860BF
:101E40000A2000F0CFFD20A000F0A6FE00201D49D2
:101E5000C1F8900100240AE01D48008800F4004009
:101E600000B106E0052000F0BDFD601CC4B20A2CE4
:101E7000F2DB00BF1648008800F4004088B1144827
:101E80000088C5B2002012490880042D09D11148EC
:101E900000784F2805D10F4840784B2801D1002504
:101EA00004E0301EA6F10101CEB2C6D100BF06B9D2
:101EB00001252846F8BD000000080140000230005E
:101EC000900121420000214241540D0A000000000F
:101ED00020000020EC0000202DE9F04105460F27EE
:101EE00030E001201D4908600A2000F07BFD2946F2
:101EF0001BA000F051FE00201B49C1F890010026F4
:101F00000AE01A48008800F4004000B106E005200D
:101F100000F068FD701CC6B2142EF2DB00BF13483F
:101F2000008800F4004068B110480088C4B2002066
:101F30000E490880042C05D10D4800784F2801D1A6
:101F4000002404E0381EA7F10101CFB2C9D100BFBF
:101F500007B9FF242046BDE8F0810000900121422E
:101F600025730D0A0000000000002142200000201F
:101F7000EC00002000BFFEE708B50121442000F07E
:101F800053F91820ADF8000048208DF80300694689
:101F90000648FFF7F3FD0120ADF8000028208DF87A
:101FA000030069460248FFF7E9FD08BD001801403B
:101FB0000008014010B5044614B1012023490870FF
:101FC0002248007858B310212148FFF7ABFE50B1EA
:101FD00008211F48FFF7A6FE28B101211D48FFF781
:101FE000A1FE01281BD10A2000F0FCFC00201749AB
:101FF000087010211648FFF795FE08B9012010BDA2
:1020000008211348FFF78EFE08B90220F7E70121E7
:102010001048FFF787FE012815D10320EFE71021B4
:102020000B48FFF77FFE01280DD108210848FFF774
:1020300079FE012807D101210648FFF773FE10B988
:102040000120024908700020D9E700001E0000208E
:10205000001801400008014008B50121082000F0E7
:10206000E3F80121402000F0DFF810208DF8030094
:102070002020ADF8000003208DF8020069460C48CE
:10208000FFF77CFD20210A48FFF755FE10208DF850
:1020900003002020ADF8000003208DF802006946FF
:1020A0000448FFF76BFD20210248FFF744FE08BDFE
:1020B000000C0140001801402DE9F0410746884618
:1020C00014461D46284600F033F8C5F1040007FA0F
:1020D00000F60F20284100EA0800064306F00F062C
:1020E000E21704EBD2625211920002F1E022D2F820
:1020F00000212146E31704EBD3635B11A4EB431CDF
:10210000012303FA0CF31A432046E31704EBD363CD
:102110005B119B0003F1E023C3F800210348005D3D
:1021200040EA061001490855BDE8F08100E400E0EE
:102130000146072323EA01021202054B18684FF6F5
:10214000FF031840034B18431043014B18607047BE
:102150000CED00E00000FA0500BFFEE7704700004C
:1021600070B5002100220F23C478FCB1154C2468FF
:1021700004F4E064C4F5E064210AC1F10402447887
:1021800004FA02F184781C40214309010E4C0678C0
:10219000A155047804F01F050124AC4005786D11A9
:1021A000AD0005F1E025C5F8004109E0047804F030
:1021B0001F050124AC40054D0678761145F82640F0
:1021C00070BD00000CED00E000E400E080E100E004
:1021D00002490143024A1160704700000000FA05FD
:1021E0000CED00E07047000029B1064AD2690243B5
:1021F000044BDA6104E0034AD2698243014BDA619D
:10220000704700000010024029B1064A12690243DB
:10221000044B1A6104E0034A12698243014B1A61BC
:10222000704700000010024029B1064A926902433B
:10223000044B9A6104E0034A92698243014B9A611C
:10224000704700000010024029B1064AD2680243DC
:10225000044BDA6004E0034AD2688243014BDA603F
:10226000704700000010024030B500210022002419
:1022700000232D4D6D6805F00C0121B1042905D016
:10228000082923D105E0294D056022E0274D05608E
:102290001FE0254D6D6805F47012234D6D6805F43F
:1022A0008034022505EB92421CB9214D554305604F
:1022B0000BE01D4D6D6805F400351DB11C4D5543F7
:1022C000056002E0194D5543056002E0174D0560B9
:1022D00000BF00BF144D6D6805F0F0010909154DF0
:1022E0006B5C0568DD4045600F4D6D6805F4E0618D
:1022F000090A104D6B5C4568DD4085600A4D6D68CC
:1023000005F46051C90A0B4D6B5C4568DD40C56042
:10231000054D6D6805F44041890B074D6B5CC56840
:10232000B5FBF3F5056130BD0010024000127A00E4
:1023300000093D000000002010000020704710B58B
:1023400000F002F810BD00000CB5002001900090D4
:102350003348006840F480303149086000BF30489D
:10236000006800F4003000900198401C0190009833
:1023700018B90198B0F5A06FF1D12948006800F4B0
:10238000003010B10120009001E000200090009882
:10239000012843D12348006840F01000214908601B
:1023A0000846006820F0030008600846006840F016
:1023B000020008601A4840681949486008464068A9
:1023C00048600846406840F48060486008464068BD
:1023D00020F47C1048600846406840F4E8104860EB
:1023E0000846006840F08070086000BF0C48006834
:1023F00000F000700028F9D00948406820F0030080
:10240000074948600846406840F00200486000BF45
:102410000348406800F00C000828F9D10CBD00000A
:1024200000100240002002407047000010B5134821
:10243000006840F0010011490860084640681049F2
:1024400008400E494860084600680E4908400B499C
:1024500008600846006820F480200860084640684C
:1024600020F4FE0048604FF41F008860FFF767FF0C
:102470004FF000600449086010BD000000100240E9
:102480000000FFF8FFFFF6FE08ED00E010B50121A7
:10249000094800F054F868B10848008840F400404A
:1024A000064908800121044800F03AF8002102485A
:1024B00000F039F810BD000000140040200000209A
:1024C0007FB505460C4601212020FFF78DFEADF8B3
:1024D0000450ADF800400020ADF80600ADF8020051
:1024E00069460E4800F048F8012211460B4800F0FA
:1024F00037F80121094800F016F837208DF80C0054
:1025000000208DF80D0002208DF80E0001208DF8BE
:102510000F0003A8FFF724FE7FBD00000014004059
:10252000CA430282704721B1028842F00102028050
:1025300004E002884FF6FE731A400280704730B5FF
:102540000246002000230024158A05EA010395892C
:1025500005EA010413B10CB1012000E0002030BDF8
:102560001AB183890B43838102E083898B43838182
:102570007047818470470000002202881D4B9842FA
:102580000ED01D4B98420BD0B0F1804F08D01B4BA2
:10259000984205D01A4B984202D01A4B984204D167
:1025A0004FF68F731A404B881A43174B984207D047
:1025B000164B984204D04FF6FF431A40CB881A437B
:1025C00002808B8883850B8803850A4B98420BD049
:1025D000094B984208D00E4B984205D00D4B9842BB
:1025E00002D00D4B984201D10B7A038601238382DE
:1025F00070470000002C01400034014000040040FE
:1026000000080040000C0040001000400014004092
:102610000040014000440140004801401D49098834
:1026200001F0200111B31B49091D0988C8B21A49DC
:10263000098801F40041C9B91749098801F48041AA
:1026400061B10A2803D00021134A118020E0124909
:10265000098841F40041104A118019E00D2806D183
:102660000D49098841F480410B4A118010E00A4964
:102670000988C1F30D01094A505407490988491CCA
:10268000054A118011460988C72901DD0021118002
:1026900070470000003801401C000020240000208A
:1026A00010B540F22551164800F099F8F8B11448D9
:1026B00000F050F9C4B21348008800F40040B0B9EB
:1026C00010480088B0F5167F12DA00210E48FFF797
:1026D00050FF0C48008818B901210B48FFF723FF71
:1026E00008490888411C074A118008490C5405E034
:1026F0000448008840F400400249088010BD0000F2
:10270000004800402000002000140040EC000020A1
:1027100021B1828942F40052828104E082894DF61F
:10272000FF731A408281704710B5044620488442E6
:1027300009D101218803FFF787FD00214FF4804074
:10274000FFF782FD32E01B48844209D10121480491
:10275000FFF75AFD00214FF40030FFF755FD25E04B
:102760001548844209D101218804FFF74DFD00215D
:102770004FF48020FFF748FD18E01048844209D14B
:102780000121C804FFF740FD00214FF40020FFF7AE
:102790003BFD0BE00A48844208D101210805FFF700
:1027A00033FD00214FF48010FFF72EFD10BD000017
:1027B000003801400044004000480040004C004008
:1027C0000050004002460020B1F5007F00D100BF5C
:1027D00013880B400BB1012000E00020704770B55A
:1027E0000246002400230025002040F66A16B1426C
:1027F00000D100BFC1F3421501F01F03012606FA04
:1028000003F3012D02D19689334006E0022D02D157
:10281000168A334001E0968A33400C12012606FAEC
:1028200004F41688344013B10CB1012000E00020FC
:1028300070BDF0B50346002400260025002040F6B8
:102840006A17B94200D100BF1846C1F3421401F023
:102850001F06012707FA06F5012C01D10C3004E010
:10286000022C01D1103000E014301AB107682F4358
:10287000076002E00768AF430760F0BD2DE9F0474D
:1028800086B005460E460024A24600BFA14600279A
:10289000B08900B100BF2F462C8A4CF6FF7004406F
:1028A000F08804432C82AC894EF6F3100440B088C3
:1028B00031890843718908430443AC81AC8A4FF6DF
:1028C000FF400440B0890443AC8201A8FFF7CCFC70
:1028D0001F48874202D1DDF810A001E0DDF80CA00E
:1028E000A88900F4004040B10AEBCA0000EB0A10CE
:1028F00031684900B0FBF1F807E00AEBCA0000EBD1
:102900000A1031688900B0FBF1F86420B8FBF0F0E0
:1029100004012009642101FB1089A88900F400400A
:1029200040B1322000EBC900B0FBF1F000F007002D
:10293000044308E0322000EB09106421B0FBF1F001
:1029400000F00F0004432C8106B0BDE8F0870000C2
:102950000038014001468888C0F308007047C1F381
:1029600008028280704700BFFEE7490050EAC1209C
:1029700018BF04204A0D18BF40F0010040F2FF725A
:10298000B2EB515F08BF40F00200012808BF0520EC
:10299000704730380A2801D2012070470020704764
:1029A00000BF70474FF0E021096921F004014FF0AA
:1029B000E0221161C21700EB5272C2F3C702074B4B
:1029C0001A701946097801EB4102C2EBC1114FF6AA
:1029D000FF7202EAC101024A118070471400002010
:1029E0001600002001460D4A12884A434FF0E023AA
:1029F0005A6100229A6101221A6100BF4FF0E02261
:102A0000106900F001021AB100F48032002AF5D0FA
:102A100000224FF0E0231A619A61704716000020EF
:102A200086B04FF00008002500264820FFF7BAFFC7
:102A30004FF4A060FFF7CCFB4FF4E131482000F0E9
:102A4000D3F8FFF709FBFFF797FA4FF47A70FFF717
:102A5000C9FFFFF7BFF90020374908806BE000206D
:102A6000FFF7A8FA0446022C18D1FFF767F90446CD
:102A7000FF2C20D00CB9012000E0002004461CB936
:102A80002EA0FFF729FA02E02FA0FFF725FA31A0C8
:102A9000FFF722FAC820FFF7A5FF0CE0012C07D1B1
:102AA000B8F1000F01D1012000E00020804602E0D3
:102AB0000A20FFF797FF322F19D1B8F1000F0DD080
:102AC0002A4627A101A8FDF70BFC294624A000F007
:102AD00063F8681CC5B2632D00DD0025002725487A
:102AE000006808B9012000E000202249086012486F
:102AF000008800F40040E0B10F480088C6B2002012
:102B00001D498855092E01D0082E0FD11BA11A4846
:102B1000FDF746FD10B90020164908601AA11648B5
:102B2000FDF73EFD10B901201A4908600020024956
:102B30000880781CC7B292E72000002041542B5235
:102B40004F4C453D3000000041542B524F4C453D09
:102B50003100000041542B52455345540000000001
:102B6000414C49454E54454B20484330352025645F
:102B70000D0A000094812142EC0000202B4C4544BA
:102B800031204F4E000000002B4C454431204F4671
:102B900046000000940123420FB438B505A8009008
:102BA0000F48009A0499FDF789FB002000900C481B
:102BB000FDF7D6FC85B200240DE000BF4021094896
:102BC000FFF700FE0028F9D00548015D0548FFF732
:102BD000C6FE601C84B2AC42EFDB38BC5DF814FB6F
:102BE00044030020004800402DE9F05F05460E46F2
:102BF000300100F03FFA81462E4905FB01F000F05C
:102C000039FA8246494600F053F90746384600F043
:102C100011FA84B2204600F02DFA8346394600F0BE
:102C200009FB82464FF0834100F038FA814600F0FC
:102C300001FA80464FF6FF7000EA041404EB080026
:102C400084B21D48806940F004001B498861084631
:102C5000806940F4804088611848006820F47F60F3
:102C6000164908600846006840F40B600860124886
:102C7000C06840F480401049C8600846C06820F42D
:102C80008040C8600E480480001D008842F20C019C
:102C900008430B49091D08800846008840F02000C1
:102CA00008800223252203210846FFF705FABDE824
:102CB000F09F000040420F00001002400408014055
:102CC0000838014010B586B0044601210820FFF7FE
:102CD000ABFA01218804FFF787FA2A48FFF724FDA1
:102CE0004FF48060ADF8100003208DF8120018201A
:102CF0008DF8130004A92448FEF740FF4FF400604C
:102D0000ADF8100004208DF8130004A91E48FEF74A
:102D100035FF00940020ADF80400ADF80600ADF8D2
:102D20000800ADF80C000C20ADF80A006946154803
:102D3000FFF7A4FD01211348FFF7EAFC012240F24E
:102D400025511048FFF775FD27208DF8140002204B
:102D50008DF8150003208DF8160001208DF817005E
:102D600005A8FFF7FDF941F61F416320FFF7A8FB17
:102D700000200649088000210548FFF7D4FB06B073
:102D800010BD000000480040000C01402000002061
:102D90000014004010B500290AD00878002807D098
:102DA00005487844FDF7FCFB002801D0002010BD49
:102DB0000248784410BD0000B6060000AE060000D0
:102DC00010B500290AD00878002807D005487844B3
:102DD000FDF7E6FB002801D0002010BD0248784432
:102DE00010BD0000A60600009E06000090EA010F3C
:102DF00048BF81F0004100F12E82421A3CBF801A88
:102E000089184FEAD0524FF07F4C1CEA410FA2EBD9
:102E1000D15318BF9CEA026F00F03B804FF0004C8A
:102E20004CEA00204CEA012121FA03FC10EB0C0CC7
:102E30001ED202F1FF325FEA1C2040EBC25038BFC5
:102E400070471CF07F0F4FEA400C18BFBCF17F4F5A
:102E500038BF7047C3F12003994008BF20F001003C
:102E6000BCF17F4F38BF7047A0F1C04000F0DDB922
:102E70004FEA3C00000A40EBC25028BF1CF0FF0F95
:102E80004FEA400CE6D018BFBCF17F4F38BF704707
:102E9000EAE79CEA026F05D010EA5C0F08BF00F079
:102EA0000040704710B500F07AF900BF64FBBE3EE9
:102EB0004FF47F0C1CEAD0121EBF1CEAD11392EA19
:102EC0000C0F93EA0C0F00F0858090EA010F48BFC9
:102ED00042F4807240F4000C41F400002CF07F4179
:102EE00020F07F4000B58142A2EB03020FF2081CE4
:102EF000ACEB504EC0F100009EF800E04FEA4E0EE1
:102F000000FB0EFC38BF49004FEA2C1C02F5FA0208
:102F10000CFB0EF34FEACE1E4FEA112C4FEAC121F3
:102F20000EEB635E42EB22420EFB0CFC4FEA1C539D
:102F300000FB03114FEA112C4FEA01310EFB0CFC90
:102F40004FEADC4C00FB0C11C14228BF09184CEBC6
:102F500003335DF804EB10EB410143EBC250B2F5D3
:102F60007C0F38BF704729D512F0F00F1CBF00F15D
:102F7000C04000F0004070470081828384858687CE
:102F800088898B8C8D8E8F919293959697999A9C28
:102F90009D9FA0A2A3A5A7A8AAACAEB0B2B3B5B797
:102FA000B9BCBEC0C2C5C7C9CCCED1D4D7D9DCDF6D
:102FB000E2E6E9ECF0F3F7FAFE0000004FEA400C1D
:102FC0000CF1807CBCF17E4F28BF7047B0F1C0404F
:102FD00000F02BB990EA010F0CEAD11348BF42F47C
:102FE0008072624538BF634507D213F47F0F16D055
:102FF00080EA010000F00040704710B500F0CFF803
:10300000097EFC3E00F005B880EA010000F00040B7
:10301000704780EA010000F0004000F006B912F4A9
:103020007F0F04BF0248704780EA010000F0FDB83E
:103030000000C07FC10DD1F19E0206DB4FEA0023E4
:1030400043F0004323FA02F07047004207D54FEAED
:103050004001B1F1FE4F02D24FF00000704710B5B1
:1030600000F09DF849922480002070476FEA20000C
:1030700070470000B0FA80F310FA03F2C3F19D0329
:103080000AD0D90501EB1220530638BF704700F172
:10309000010008BF20F00100704700004FF47F0CD2
:1030A0001CEAD0121EBF1CEAD11392EA0C0F93EA5D
:1030B0000C0F00F0478090EA010F48BF42F4807285
:1030C0004FF0004C4CEA00204CEA012102EB0302D5
:1030D000A0FB0113A2F50002002918BF43F0010371
:1030E0005B0028BF4FEA330342EB22425FEA132C16
:1030F0004CEBC2502EBFBCEB436FB2F57C0F704758
:103100004FEA036CBCF1004F08BF20F00100B2F59C
:103110007C0F38BF70470BD582F0FF0212F5803F5D
:10312000C8BF704700F1C040D8BF00F000407047F2
:1031300000F5000C5FEA4C0C48BF7047B0F1C0408E
:1031400000F073B890EA010F0CEAD11348BF42F4C3
:103150008072624538BF634504D280EA010000F006
:103160000040704710B500F01AF800BF8900013E1A
:1031700000F007B800F009B85FEA410C5FEA1C6C88
:1031800008D080EA010000F050B85FEA400C5FEA26
:103190001C6CF6D14FF00040A0F5800070470EF196
:1031A000020E2EF0030E5EF8044B244204D44FEAC4
:1031B0004102B2F17F4F11D84FEA4003B3F17F4F84
:1031C0000CD80ED14FEAD07CB2F17F4F0CEB4C0CF7
:1031D0000CF1020C08BF4CEBD17C04E04FF0080C62
:1031E00001E04FEAD17C0CEB4C0324FA03F404F029
:1031F0000704B4F1040C06D20EEB840CBDE81040B9
:103200004CF0010C6047DFE80CF0070802024FF0B9
:103210000040A0F5800010BD0846420018BFD2F162
:10322000807288BF00F0004010BDFF2141EAD050FD
:10323000C005704780F0004090EA010F7FF5DDADDA
:1032400081F0004100F007B890EA010F48BF81F01B
:1032500000413FF5D2AD421A04D882F00042A0EB03
:10326000020011444FEAD0524FF07F4C1CEA410F4C
:10327000A2EBD15318BF9CEA026F4AD04FF0004C2A
:103280004CEA00204CEA012121FA03FCB0EB0C0CC3
:103290000FD412F0FE0F36D05FEA4C001DD500129D
:1032A00040EBC25038BF70471CF03F0F18BF70474B
:1032B0000BE0A2F101025FEA1C2040EBC25038BFD4
:1032C00070471CF07F0F18BF7047C3F1200399406F
:1032D00014BF401E20F00100704780084FEA1223FF
:1032E00008BF7047B0FA80FCA2EB0C02CCF1280CAE
:1032F00060FA0CF093EA122F04BF00EBC250704743
:103300004FEAC3707047130A5FEADC1008BF7047CA
:10331000F6E79CEA026F04D010EA5C0F08BF0020B9
:10332000704710B5FFF73BFF40DFF63E81F00040ED
:103330007047FDF78DBCFDF7C1BD0400000800001B
:10334000000000000002000100001000000000006A
:1033500000000000303132333435363738394142DD
:1033600043444546403058003031323334353637E7
:1033700038396162636465664030780030313233D9
:103380003435363738396162636465667870003089
:103390003132333435363738394142434445465863
:1033A0005000000002400000000000A000000000EB
:1033B00005400000000000C8000000000C400000B4
:1033C0000000409C00000000194000000020BCBE2E
:1033D0000000000034400000BFC91B8E0000000444
:1033E000B5400000504BCFD06607E2CF010000008F
:1033F0006C4100003E8251AADFEEA73401000000BC
:10340000D9420000DCB5A0E23A301F97FFFFFFFF72
:10341000B4450000FD25A0C8E9A3C14FFFFFFFFF91
:10342000FF3F00000000008000000000FF3F0000A0
:10343000000000800000000084350008000000202B
:10344000240000006C010008A835000824000020BA
:10345000DC0B0000880100081C0000004300000095
:10346000F8FFFFFF0C0000000E0000000F0000003E
:103470002E0000001001000043000000F8FFFFFFD5
:103480000040404040404040404041414141414077
:10349000404040404040404040404040404040402C
:1034A00040050202020202020202020202020202BB
:1034B00002202020202020202020200202020202C0
:1034C0000202909090909090101010101010101018
:1034D0001010101010101010101010100202020224
:1034E0000202888888888888080808080808080868
:1034F0000808080808080808080808080202020264
:10350000400000000000000000000000000000007B
:1035100000000000000000000000000000000000AB
:10352000000000000000000000000000000000009B
:10353000000000000000000000000000000000008B
:10354000000000000000000000000000000000007B
:10355000000000000000000000000000000000006B
:10356000000000000000000000000000000000005B
:10357000000000000000000000000000000000004B
:103580000000000000000000010203040102030427
:1035900006070809020406080000000000000000F9
:0835A000000001000000000022
:040000050800027974
:00000001FF
